{
  "_format": "hh-sol-artifact-1",
  "contractName": "PointsEscrow",
  "sourceName": "src/PointsEscrow.sol",
  "abi": [
    {
      "inputs": [
        {
          "internalType": "address",
          "name": "_pointsToken",
          "type": "address"
        },
        {
          "internalType": "address",
          "name": "_challengeFactory",
          "type": "address"
        }
      ],
      "stateMutability": "nonpayable",
      "type": "constructor"
    },
    {
      "inputs": [
        {
          "internalType": "address",
          "name": "owner",
          "type": "address"
        }
      ],
      "name": "OwnableInvalidOwner",
      "type": "error"
    },
    {
      "inputs": [
        {
          "internalType": "address",
          "name": "account",
          "type": "address"
        }
      ],
      "name": "OwnableUnauthorizedAccount",
      "type": "error"
    },
    {
      "inputs": [],
      "name": "ReentrancyGuardReentrantCall",
      "type": "error"
    },
    {
      "anonymous": false,
      "inputs": [
        {
          "indexed": true,
          "internalType": "address",
          "name": "newFactory",
          "type": "address"
        }
      ],
      "name": "ChallengeFactoryUpdated",
      "type": "event"
    },
    {
      "anonymous": false,
      "inputs": [
        {
          "indexed": true,
          "internalType": "address",
          "name": "previousOwner",
          "type": "address"
        },
        {
          "indexed": true,
          "internalType": "address",
          "name": "newOwner",
          "type": "address"
        }
      ],
      "name": "OwnershipTransferred",
      "type": "event"
    },
    {
      "anonymous": false,
      "inputs": [
        {
          "indexed": true,
          "internalType": "address",
          "name": "user",
          "type": "address"
        },
        {
          "indexed": false,
          "internalType": "uint256",
          "name": "amount",
          "type": "uint256"
        },
        {
          "indexed": true,
          "internalType": "uint256",
          "name": "challengeId",
          "type": "uint256"
        },
        {
          "indexed": false,
          "internalType": "string",
          "name": "reason",
          "type": "string"
        }
      ],
      "name": "PointsLocked",
      "type": "event"
    },
    {
      "anonymous": false,
      "inputs": [
        {
          "indexed": true,
          "internalType": "address",
          "name": "user",
          "type": "address"
        },
        {
          "indexed": false,
          "internalType": "uint256",
          "name": "amount",
          "type": "uint256"
        },
        {
          "indexed": true,
          "internalType": "uint256",
          "name": "challengeId",
          "type": "uint256"
        }
      ],
      "name": "PointsReleased",
      "type": "event"
    },
    {
      "anonymous": false,
      "inputs": [
        {
          "indexed": true,
          "internalType": "address",
          "name": "from",
          "type": "address"
        },
        {
          "indexed": true,
          "internalType": "address",
          "name": "to",
          "type": "address"
        },
        {
          "indexed": false,
          "internalType": "uint256",
          "name": "amount",
          "type": "uint256"
        },
        {
          "indexed": true,
          "internalType": "uint256",
          "name": "challengeId",
          "type": "uint256"
        },
        {
          "indexed": false,
          "internalType": "string",
          "name": "reason",
          "type": "string"
        }
      ],
      "name": "PointsTransferred",
      "type": "event"
    },
    {
      "inputs": [],
      "name": "challengeFactory",
      "outputs": [
        {
          "internalType": "address",
          "name": "",
          "type": "address"
        }
      ],
      "stateMutability": "view",
      "type": "function"
    },
    {
      "inputs": [
        {
          "internalType": "uint256",
          "name": "",
          "type": "uint256"
        },
        {
          "internalType": "uint256",
          "name": "",
          "type": "uint256"
        }
      ],
      "name": "challengeParticipants",
      "outputs": [
        {
          "internalType": "address",
          "name": "",
          "type": "address"
        }
      ],
      "stateMutability": "view",
      "type": "function"
    },
    {
      "inputs": [
        {
          "internalType": "address",
          "name": "user",
          "type": "address"
        }
      ],
      "name": "clearExpiredLocks",
      "outputs": [],
      "stateMutability": "nonpayable",
      "type": "function"
    },
    {
      "inputs": [
        {
          "internalType": "uint256",
          "name": "challengeId",
          "type": "uint256"
        }
      ],
      "name": "getChallengeParticipants",
      "outputs": [
        {
          "internalType": "address[]",
          "name": "",
          "type": "address[]"
        }
      ],
      "stateMutability": "view",
      "type": "function"
    },
    {
      "inputs": [
        {
          "internalType": "address",
          "name": "user",
          "type": "address"
        }
      ],
      "name": "getTotalLockedPoints",
      "outputs": [
        {
          "internalType": "uint256",
          "name": "",
          "type": "uint256"
        }
      ],
      "stateMutability": "view",
      "type": "function"
    },
    {
      "inputs": [
        {
          "internalType": "address",
          "name": "user",
          "type": "address"
        }
      ],
      "name": "getUserLockedPoints",
      "outputs": [
        {
          "components": [
            {
              "internalType": "uint256",
              "name": "amount",
              "type": "uint256"
            },
            {
              "internalType": "uint256",
              "name": "lockedAt",
              "type": "uint256"
            },
            {
              "internalType": "uint256",
              "name": "challengeId",
              "type": "uint256"
            },
            {
              "internalType": "string",
              "name": "reason",
              "type": "string"
            }
          ],
          "internalType": "struct PointsEscrow.LockedPoints[]",
          "name": "",
          "type": "tuple[]"
        }
      ],
      "stateMutability": "view",
      "type": "function"
    },
    {
      "inputs": [
        {
          "internalType": "address",
          "name": "user",
          "type": "address"
        },
        {
          "internalType": "uint256",
          "name": "amount",
          "type": "uint256"
        },
        {
          "internalType": "uint256",
          "name": "challengeId",
          "type": "uint256"
        },
        {
          "internalType": "string",
          "name": "reason",
          "type": "string"
        }
      ],
      "name": "lockPoints",
      "outputs": [],
      "stateMutability": "nonpayable",
      "type": "function"
    },
    {
      "inputs": [],
      "name": "owner",
      "outputs": [
        {
          "internalType": "address",
          "name": "",
          "type": "address"
        }
      ],
      "stateMutability": "view",
      "type": "function"
    },
    {
      "inputs": [],
      "name": "pointsToken",
      "outputs": [
        {
          "internalType": "contract BantahPoints",
          "name": "",
          "type": "address"
        }
      ],
      "stateMutability": "view",
      "type": "function"
    },
    {
      "inputs": [
        {
          "internalType": "address",
          "name": "user",
          "type": "address"
        },
        {
          "internalType": "uint256",
          "name": "amount",
          "type": "uint256"
        },
        {
          "internalType": "uint256",
          "name": "challengeId",
          "type": "uint256"
        }
      ],
      "name": "releasePoints",
      "outputs": [],
      "stateMutability": "nonpayable",
      "type": "function"
    },
    {
      "inputs": [],
      "name": "renounceOwnership",
      "outputs": [],
      "stateMutability": "nonpayable",
      "type": "function"
    },
    {
      "inputs": [
        {
          "internalType": "address",
          "name": "newFactory",
          "type": "address"
        }
      ],
      "name": "setChallengeFactory",
      "outputs": [],
      "stateMutability": "nonpayable",
      "type": "function"
    },
    {
      "inputs": [
        {
          "internalType": "address",
          "name": "",
          "type": "address"
        }
      ],
      "name": "totalLockedPoints",
      "outputs": [
        {
          "internalType": "uint256",
          "name": "",
          "type": "uint256"
        }
      ],
      "stateMutability": "view",
      "type": "function"
    },
    {
      "inputs": [
        {
          "internalType": "address",
          "name": "loser",
          "type": "address"
        },
        {
          "internalType": "address",
          "name": "winner",
          "type": "address"
        },
        {
          "internalType": "uint256",
          "name": "amount",
          "type": "uint256"
        },
        {
          "internalType": "uint256",
          "name": "challengeId",
          "type": "uint256"
        }
      ],
      "name": "transferLockedPoints",
      "outputs": [],
      "stateMutability": "nonpayable",
      "type": "function"
    },
    {
      "inputs": [
        {
          "internalType": "address",
          "name": "newOwner",
          "type": "address"
        }
      ],
      "name": "transferOwnership",
      "outputs": [],
      "stateMutability": "nonpayable",
      "type": "function"
    },
    {
      "inputs": [
        {
          "internalType": "address",
          "name": "",
          "type": "address"
        },
        {
          "internalType": "uint256",
          "name": "",
          "type": "uint256"
        }
      ],
      "name": "userLockedPoints",
      "outputs": [
        {
          "internalType": "uint256",
          "name": "amount",
          "type": "uint256"
        },
        {
          "internalType": "uint256",
          "name": "lockedAt",
          "type": "uint256"
        },
        {
          "internalType": "uint256",
          "name": "challengeId",
          "type": "uint256"
        },
        {
          "internalType": "string",
          "name": "reason",
          "type": "string"
        }
      ],
      "stateMutability": "view",
      "type": "function"
    }
  ],
  "bytecode": "0x608034610171576200158a90601f38839003908101601f19168201906001600160401b03821183831017610176578083916040958694855283398101031261017157610056602061004f8361018c565b920161018c565b600160005533156101595760018054336001600160a01b0319808316821790935585519492936001600160a01b0393909284929083167f8be0079c531659141344cd1fd0a4f28419497f9722a3daafe3b4186f6b6457e0600080a3169384156101175750169182156100e1578160025416176002556003541617600355516113e99081620001a18239f35b835162461bcd60e51b815260206004820152600f60248201526e496e76616c696420666163746f727960881b6044820152606490fd5b62461bcd60e51b815260206004820152601460248201527f496e76616c696420706f696e747320746f6b656e0000000000000000000000006044820152606490fd5b8251631e4fbdf760e01b815260006004820152602490fd5b600080fd5b634e487b7160e01b600052604160045260246000fd5b51906001600160a01b03821682036101715756fe608080604052600436101561001357600080fd5b600090813560e01c908163023bf95814610e5c575080630c93a0a814610c3b5780633e04151114610a5f57806354bba1a8146109215780635c3d9dec146108805780635dbaf68b14610857578063715018a6146107f957806372e1011c146107d0578063820a16fe146103fb5780638da5cb5b146103d25780638e47dc221461024557806392fc0b4b1461027e578063b1b414d614610245578063edda7bfd146101b6578063f2fde38b146101265763ffac1a95146100d157600080fd5b346101235760403660031901126101235760243590600435815260066020526040812090815483101561012357602061010a84846110e2565b905460405160039290921b1c6001600160a01b03168152f35b80fd5b503461012357602036600319011261012357610140610f0d565b6101486110fa565b6001600160a01b0390811690811561019d57600154826bffffffffffffffffffffffff60a01b821617600155167f8be0079c531659141344cd1fd0a4f28419497f9722a3daafe3b4186f6b6457e0600080a380f35b604051631e4fbdf760e01b815260048101849052602490fd5b5034610123576040366003190112610123576101d0610f0d565b6001600160a01b0316815260046020526040812080546024359190821015610241576101fc9250610f68565b50805461023d60018301549261021960036002830154920161103c565b90604051948594855260208501526040840152608060608401526080830190610f28565b0390f35b8280fd5b5034610123576020366003190112610123576020906040906001600160a01b0361026d610f0d565b168152600583522054604051908152f35b503461012357606036600319011261012357610298610f0d565b60243590604435918360018060a01b0380936102b982600354163314611126565b6102c1611242565b16926102ce84151561116a565b6102d98315156111a5565b83825260056020526102f18360408420541015611265565b8382526005602052604082206103088482546112b1565b905560025416803b156103ce5781809160c460405180948193631fe18a1760e21b83528960048401528860248401528a60448401526080606484015260166084840152751b1bd8dad95917dc1bda5b9d1cd7dc995b19585cd95960521b60a48401525af180156103c3576103ab575b505060207f2d7add3a2f6d61d4e8e31646d4228d8a10dc7b2374e999996439018a928b3f7291604051908152a36001815580f35b6103b490610fd4565b6103bf578338610377565b8380fd5b6040513d84823e3d90fd5b5080fd5b50346101235780600319360112610123576001546040516001600160a01b039091168152602090f35b503461012357608036600319011261012357610415610f0d565b67ffffffffffffffff606435116103ce573660236064350112156103ce5767ffffffffffffffff60643560040135116103ce57366024606435600401356064350101116103ce5761047160018060a01b03600354163314611126565b610479611242565b61048d6001600160a01b038216151561116a565b61049a60243515156111a5565b60025482906001600160a01b0316803b156103ce5760405163baa3c7cf60e01b81526001600160a01b038416600482015260248035908201529082908290604490829084905af180156103c3576107bc575b50506001600160a01b03811682526004602052604080832090519061051082610ffe565b602435825242602083015260443560408301526040516105406020601f19601f606435600401350116018261101a565b606435600481013580835290602401602083013784602060643560040135830101526060830152805490600160401b821015610794579061058691600182018155610f68565b9190916107a8578051825560208101516001830155604081015160028301556060015180519067ffffffffffffffff8211610794576105d5826105cc6003860154610f9a565b600386016111fd565b602090601f8311600114610728576003929186918361071d575b50508160011b9160001990841b1c1916179101555b6001600160a01b0381168252600560205260408220805460243581019190821061070957556044358252600660205260408220805490600160401b8210156106f55790610656916001820181556110e2565b81546001600160a01b0384811660039390931b92831b921b191617905560408051602480358252602082018390526064356004810135938301849052919291016060830137600460643501358181016060908101859052604435936001600160a01b0316927f65a486d28d68531b734905e17e5ef7d6c0d01c0a44d998d4b7c36f8a65a0d97392601f01601f1916810181900390910190a36001815580f35b634e487b7160e01b84526041600452602484fd5b634e487b7160e01b84526011600452602484fd5b0151905038806105ef565b906003840186526020862091865b601f198516811061077c5750918391600193600395601f19811610610764575b505050811b01910155610604565b015160001983861b60f8161c19169055388080610756565b91926020600181928685015181550194019201610736565b634e487b7160e01b85526041600452602485fd5b634e487b7160e01b84526004849052602484fd5b6107c590610fd4565b6103ce5781386104ec565b50346101235780600319360112610123576002546040516001600160a01b039091168152602090f35b50346101235780600319360112610123576108126110fa565b600180546001600160a01b031981169091556000906001600160a01b03167f8be0079c531659141344cd1fd0a4f28419497f9722a3daafe3b4186f6b6457e08280a380f35b50346101235780600319360112610123576003546040516001600160a01b039091168152602090f35b50346101235760203660031901126101235761089a610f0d565b6108a26110fa565b6001600160a01b031680156108ea57600380546001600160a01b031916821790557fb9a1f6d01069d240a4bebe47b464192f46dc977bf49ec60b388e25e4db1a88af8280a280f35b60405162461bcd60e51b815260206004820152600f60248201526e496e76616c696420666163746f727960881b6044820152606490fd5b5034610123576020806003193601126103ce576001600160a01b03610944610f0d565b1682526004815260408220805467ffffffffffffffff81116106f557919260405192610975858260051b018561101a565b8084528484018093835285832083915b838310610a105750505050604051928484019085855251809152604084019460408260051b8601019392955b8287106109be5785850386f35b909192938280610a00600193603f198a820301865288518051825283810151848301526040810151604083015260608091015191608080928201520190610f28565b96019201960195929190926109b1565b60048860019260409a99979a51610a2681610ffe565b85548152848601548382015260028601546040820152610a486003870161103c565b606082015281520192019201919096939596610985565b5034610123576020908160031936011261012357610a7b610f0d565b610a836110fa565b6001600160a01b0316610a9781151561116a565b8152600482526040812091815b835480821015610c3757610ab88286610f68565b50906301e13380610ace600180940154426112b1565b11610afb575b50506000198114610ae757600101610aa4565b634e487b7160e01b83526011600452602483fd5b60001990808201908111610c2357610b139087610f68565b50610b1e8488610f68565b610c0f57818103610be2575b505085548015610bce570190610b408287610f68565b610bba57906003828780945583838201558360028201550190610b638254610f9a565b9081610b77575b5050505084553880610ad4565b601f808311600114610b955750505060009150555b83388080610b6a565b8391610bb391600094958752898720950160051c85019085016111e6565b5555610b8c565b634e487b7160e01b86526004869052602486fd5b634e487b7160e01b86526031600452602486fd5b81610c0892548255848101548583015560028082015490830155600380910191016112d4565b3880610b2a565b634e487b7160e01b87526004879052602487fd5b634e487b7160e01b86526011600452602486fd5b8380f35b503461012357608036600319011261012357610c55610f0d565b6024356001600160a01b03818116918290036103bf576044358160643594610c8282600354163314611126565b610c8a611242565b16918215610e27578315610df157610ca38215156111a5565b8286526005602052610cbb8260408820541015611265565b828652600560205260408620610cd28382546112b1565b905560025416803b15610ded57856040518092631fe18a1760e21b825286600483015284602483015287604483015260806064830152818381610d386084820160409060128152716368616c6c656e67655f77696e6e696e677360701b60208201520190565b03925af18015610de257610daf575b507f4eeb79557c53df34af2951cfe9b61432ed81e338ccf19f004f30b147cc21a700906040519081526040602082015280610da56040820160409060128152716368616c6c656e67655f77696e6e696e677360701b60208201520190565b0390a46001815580f35b94610ddb7f4eeb79557c53df34af2951cfe9b61432ed81e338ccf19f004f30b147cc21a7009296610fd4565b9490610d47565b6040513d88823e3d90fd5b8580fd5b60405162461bcd60e51b815260206004820152600e60248201526d24b73b30b634b2103bb4b73732b960911b6044820152606490fd5b60405162461bcd60e51b815260206004820152600d60248201526c24b73b30b634b2103637b9b2b960991b6044820152606490fd5b9050346103ce5760209081600319360112610241579160043581526006825260408120908154808552838501908193835284832090835b818110610ef05750505084610ea991038561101a565b60405193838594850191818652518092526040850193925b828110610ed057505050500390f35b83516001600160a01b031685528695509381019392810192600101610ec1565b82546001600160a01b031684529286019260019283019201610e93565b600435906001600160a01b0382168203610f2357565b600080fd5b919082519283825260005b848110610f54575050826000602080949584010152601f8019910116010190565b602081830181015184830182015201610f33565b8054821015610f845760005260206000209060021b0190600090565b634e487b7160e01b600052603260045260246000fd5b90600182811c92168015610fca575b6020831014610fb457565b634e487b7160e01b600052602260045260246000fd5b91607f1691610fa9565b67ffffffffffffffff8111610fe857604052565b634e487b7160e01b600052604160045260246000fd5b6080810190811067ffffffffffffffff821117610fe857604052565b90601f8019910116810190811067ffffffffffffffff821117610fe857604052565b906040519182600082549261105084610f9a565b9081845260019485811690816000146110bf575060011461107c575b505061107a9250038361101a565b565b9093915060005260209081600020936000915b8183106110a757505061107a9350820101388061106c565b8554888401850152948501948794509183019161108f565b91505061107a94506020925060ff191682840152151560051b820101388061106c565b8054821015610f845760005260206000200190600090565b6001546001600160a01b0316330361110e57565b60405163118cdaa760e01b8152336004820152602490fd5b1561112d57565b60405162461bcd60e51b81526020600482015260156024820152744f6e6c79204368616c6c656e6765466163746f727960581b6044820152606490fd5b1561117157565b60405162461bcd60e51b815260206004820152600c60248201526b24b73b30b634b2103ab9b2b960a11b6044820152606490fd5b156111ac57565b60405162461bcd60e51b81526020600482015260126024820152710416d6f756e74206d757374206265203e20360741b6044820152606490fd5b8181106111f1575050565b600081556001016111e6565b9190601f811161120c57505050565b61107a926000526020600020906020601f840160051c83019310611238575b601f0160051c01906111e6565b909150819061122b565b600260005414611253576002600055565b604051633ee5aeb560e01b8152600490fd5b1561126c57565b60405162461bcd60e51b815260206004820152601a60248201527f496e73756666696369656e74206c6f636b656420706f696e74730000000000006044820152606490fd5b919082039182116112be57565b634e487b7160e01b600052601160045260246000fd5b908082146113af576112e68154610f9a565b9067ffffffffffffffff8211610fe857819061130c826113068654610f9a565b866111fd565b600090601f831160011461134357600092611338575b50508160011b916000199060031b1c1916179055565b015490503880611322565b81526020808220858352818320935090601f1985169083905b82821061139657505090846001959493921061137d575b505050811b019055565b015460001960f88460031b161c19169055388080611373565b849581929585015481556001809101960194019061135c565b505056fea26469706673582212200a29a66a2c4c200ea01fe7d0892da680eb113789c1d31f9d969e4e9f55ba840f64736f6c63430008140033",
  "linkReferences": {},
  "deployedLinkReferences": {}
}