{
  "_format": "hh-sol-artifact-1",
  "contractName": "BantahPoints",
  "sourceName": "src/BantahPoints.sol",
  "abi": [
    {
      "inputs": [],
      "stateMutability": "nonpayable",
      "type": "constructor"
    },
    {
      "inputs": [
        {
          "internalType": "address",
          "name": "spender",
          "type": "address"
        },
        {
          "internalType": "uint256",
          "name": "allowance",
          "type": "uint256"
        },
        {
          "internalType": "uint256",
          "name": "needed",
          "type": "uint256"
        }
      ],
      "name": "ERC20InsufficientAllowance",
      "type": "error"
    },
    {
      "inputs": [
        {
          "internalType": "address",
          "name": "sender",
          "type": "address"
        },
        {
          "internalType": "uint256",
          "name": "balance",
          "type": "uint256"
        },
        {
          "internalType": "uint256",
          "name": "needed",
          "type": "uint256"
        }
      ],
      "name": "ERC20InsufficientBalance",
      "type": "error"
    },
    {
      "inputs": [
        {
          "internalType": "address",
          "name": "approver",
          "type": "address"
        }
      ],
      "name": "ERC20InvalidApprover",
      "type": "error"
    },
    {
      "inputs": [
        {
          "internalType": "address",
          "name": "receiver",
          "type": "address"
        }
      ],
      "name": "ERC20InvalidReceiver",
      "type": "error"
    },
    {
      "inputs": [
        {
          "internalType": "address",
          "name": "sender",
          "type": "address"
        }
      ],
      "name": "ERC20InvalidSender",
      "type": "error"
    },
    {
      "inputs": [
        {
          "internalType": "address",
          "name": "spender",
          "type": "address"
        }
      ],
      "name": "ERC20InvalidSpender",
      "type": "error"
    },
    {
      "inputs": [
        {
          "internalType": "address",
          "name": "owner",
          "type": "address"
        }
      ],
      "name": "OwnableInvalidOwner",
      "type": "error"
    },
    {
      "inputs": [
        {
          "internalType": "address",
          "name": "account",
          "type": "address"
        }
      ],
      "name": "OwnableUnauthorizedAccount",
      "type": "error"
    },
    {
      "anonymous": false,
      "inputs": [
        {
          "indexed": true,
          "internalType": "address",
          "name": "owner",
          "type": "address"
        },
        {
          "indexed": true,
          "internalType": "address",
          "name": "spender",
          "type": "address"
        },
        {
          "indexed": false,
          "internalType": "uint256",
          "name": "value",
          "type": "uint256"
        }
      ],
      "name": "Approval",
      "type": "event"
    },
    {
      "anonymous": false,
      "inputs": [
        {
          "indexed": true,
          "internalType": "address",
          "name": "previousOwner",
          "type": "address"
        },
        {
          "indexed": true,
          "internalType": "address",
          "name": "newOwner",
          "type": "address"
        }
      ],
      "name": "OwnershipTransferred",
      "type": "event"
    },
    {
      "anonymous": false,
      "inputs": [
        {
          "indexed": true,
          "internalType": "address",
          "name": "user",
          "type": "address"
        },
        {
          "indexed": false,
          "internalType": "uint256",
          "name": "amount",
          "type": "uint256"
        },
        {
          "indexed": true,
          "internalType": "uint256",
          "name": "challengeId",
          "type": "uint256"
        },
        {
          "indexed": false,
          "internalType": "string",
          "name": "reason",
          "type": "string"
        }
      ],
      "name": "PointsAwarded",
      "type": "event"
    },
    {
      "anonymous": false,
      "inputs": [
        {
          "indexed": true,
          "internalType": "address",
          "name": "user",
          "type": "address"
        },
        {
          "indexed": false,
          "internalType": "uint256",
          "name": "amount",
          "type": "uint256"
        }
      ],
      "name": "PointsBurned",
      "type": "event"
    },
    {
      "anonymous": false,
      "inputs": [
        {
          "indexed": true,
          "internalType": "address",
          "name": "newManager",
          "type": "address"
        }
      ],
      "name": "PointsManagerUpdated",
      "type": "event"
    },
    {
      "anonymous": false,
      "inputs": [
        {
          "indexed": true,
          "internalType": "address",
          "name": "from",
          "type": "address"
        },
        {
          "indexed": true,
          "internalType": "address",
          "name": "to",
          "type": "address"
        },
        {
          "indexed": false,
          "internalType": "uint256",
          "name": "amount",
          "type": "uint256"
        }
      ],
      "name": "PointsTransferred",
      "type": "event"
    },
    {
      "anonymous": false,
      "inputs": [
        {
          "indexed": true,
          "internalType": "address",
          "name": "from",
          "type": "address"
        },
        {
          "indexed": true,
          "internalType": "address",
          "name": "to",
          "type": "address"
        },
        {
          "indexed": false,
          "internalType": "uint256",
          "name": "value",
          "type": "uint256"
        }
      ],
      "name": "Transfer",
      "type": "event"
    },
    {
      "inputs": [
        {
          "internalType": "address",
          "name": "owner",
          "type": "address"
        },
        {
          "internalType": "address",
          "name": "spender",
          "type": "address"
        }
      ],
      "name": "allowance",
      "outputs": [
        {
          "internalType": "uint256",
          "name": "",
          "type": "uint256"
        }
      ],
      "stateMutability": "view",
      "type": "function"
    },
    {
      "inputs": [
        {
          "internalType": "address",
          "name": "spender",
          "type": "address"
        },
        {
          "internalType": "uint256",
          "name": "value",
          "type": "uint256"
        }
      ],
      "name": "approve",
      "outputs": [
        {
          "internalType": "bool",
          "name": "",
          "type": "bool"
        }
      ],
      "stateMutability": "nonpayable",
      "type": "function"
    },
    {
      "inputs": [
        {
          "internalType": "address",
          "name": "user",
          "type": "address"
        },
        {
          "internalType": "uint256",
          "name": "amount",
          "type": "uint256"
        },
        {
          "internalType": "uint256",
          "name": "challengeId",
          "type": "uint256"
        },
        {
          "internalType": "string",
          "name": "reason",
          "type": "string"
        }
      ],
      "name": "awardPoints",
      "outputs": [],
      "stateMutability": "nonpayable",
      "type": "function"
    },
    {
      "inputs": [
        {
          "internalType": "address",
          "name": "account",
          "type": "address"
        }
      ],
      "name": "balanceOf",
      "outputs": [
        {
          "internalType": "uint256",
          "name": "",
          "type": "uint256"
        }
      ],
      "stateMutability": "view",
      "type": "function"
    },
    {
      "inputs": [
        {
          "internalType": "uint256",
          "name": "value",
          "type": "uint256"
        }
      ],
      "name": "burn",
      "outputs": [],
      "stateMutability": "nonpayable",
      "type": "function"
    },
    {
      "inputs": [
        {
          "internalType": "address",
          "name": "account",
          "type": "address"
        },
        {
          "internalType": "uint256",
          "name": "value",
          "type": "uint256"
        }
      ],
      "name": "burnFrom",
      "outputs": [],
      "stateMutability": "nonpayable",
      "type": "function"
    },
    {
      "inputs": [
        {
          "internalType": "address",
          "name": "user",
          "type": "address"
        },
        {
          "internalType": "uint256",
          "name": "amount",
          "type": "uint256"
        }
      ],
      "name": "burnPointsFrom",
      "outputs": [],
      "stateMutability": "nonpayable",
      "type": "function"
    },
    {
      "inputs": [
        {
          "internalType": "uint256",
          "name": "",
          "type": "uint256"
        }
      ],
      "name": "challengePointsAwarded",
      "outputs": [
        {
          "internalType": "uint256",
          "name": "",
          "type": "uint256"
        }
      ],
      "stateMutability": "view",
      "type": "function"
    },
    {
      "inputs": [],
      "name": "decimals",
      "outputs": [
        {
          "internalType": "uint8",
          "name": "",
          "type": "uint8"
        }
      ],
      "stateMutability": "view",
      "type": "function"
    },
    {
      "inputs": [
        {
          "internalType": "uint256",
          "name": "challengeId",
          "type": "uint256"
        }
      ],
      "name": "getChallengePoints",
      "outputs": [
        {
          "internalType": "uint256",
          "name": "",
          "type": "uint256"
        }
      ],
      "stateMutability": "view",
      "type": "function"
    },
    {
      "inputs": [
        {
          "internalType": "address",
          "name": "user",
          "type": "address"
        }
      ],
      "name": "getUserPointsBalance",
      "outputs": [
        {
          "internalType": "uint256",
          "name": "",
          "type": "uint256"
        }
      ],
      "stateMutability": "view",
      "type": "function"
    },
    {
      "inputs": [],
      "name": "name",
      "outputs": [
        {
          "internalType": "string",
          "name": "",
          "type": "string"
        }
      ],
      "stateMutability": "view",
      "type": "function"
    },
    {
      "inputs": [],
      "name": "owner",
      "outputs": [
        {
          "internalType": "address",
          "name": "",
          "type": "address"
        }
      ],
      "stateMutability": "view",
      "type": "function"
    },
    {
      "inputs": [],
      "name": "pointsManager",
      "outputs": [
        {
          "internalType": "address",
          "name": "",
          "type": "address"
        }
      ],
      "stateMutability": "view",
      "type": "function"
    },
    {
      "inputs": [],
      "name": "renounceOwnership",
      "outputs": [],
      "stateMutability": "nonpayable",
      "type": "function"
    },
    {
      "inputs": [
        {
          "internalType": "address",
          "name": "newManager",
          "type": "address"
        }
      ],
      "name": "setPointsManager",
      "outputs": [],
      "stateMutability": "nonpayable",
      "type": "function"
    },
    {
      "inputs": [],
      "name": "symbol",
      "outputs": [
        {
          "internalType": "string",
          "name": "",
          "type": "string"
        }
      ],
      "stateMutability": "view",
      "type": "function"
    },
    {
      "inputs": [],
      "name": "totalSupply",
      "outputs": [
        {
          "internalType": "uint256",
          "name": "",
          "type": "uint256"
        }
      ],
      "stateMutability": "view",
      "type": "function"
    },
    {
      "inputs": [
        {
          "internalType": "address",
          "name": "to",
          "type": "address"
        },
        {
          "internalType": "uint256",
          "name": "value",
          "type": "uint256"
        }
      ],
      "name": "transfer",
      "outputs": [
        {
          "internalType": "bool",
          "name": "",
          "type": "bool"
        }
      ],
      "stateMutability": "nonpayable",
      "type": "function"
    },
    {
      "inputs": [
        {
          "internalType": "address",
          "name": "from",
          "type": "address"
        },
        {
          "internalType": "address",
          "name": "to",
          "type": "address"
        },
        {
          "internalType": "uint256",
          "name": "value",
          "type": "uint256"
        }
      ],
      "name": "transferFrom",
      "outputs": [
        {
          "internalType": "bool",
          "name": "",
          "type": "bool"
        }
      ],
      "stateMutability": "nonpayable",
      "type": "function"
    },
    {
      "inputs": [
        {
          "internalType": "address",
          "name": "newOwner",
          "type": "address"
        }
      ],
      "name": "transferOwnership",
      "outputs": [],
      "stateMutability": "nonpayable",
      "type": "function"
    },
    {
      "inputs": [
        {
          "internalType": "address",
          "name": "to",
          "type": "address"
        },
        {
          "internalType": "uint256",
          "name": "amount",
          "type": "uint256"
        }
      ],
      "name": "transferPoints",
      "outputs": [
        {
          "internalType": "bool",
          "name": "",
          "type": "bool"
        }
      ],
      "stateMutability": "nonpayable",
      "type": "function"
    },
    {
      "inputs": [
        {
          "internalType": "address",
          "name": "",
          "type": "address"
        }
      ],
      "name": "userPointsBalance",
      "outputs": [
        {
          "internalType": "uint256",
          "name": "",
          "type": "uint256"
        }
      ],
      "stateMutability": "view",
      "type": "function"
    }
  ],
  "bytecode": "0x60803462000414576040906001600160401b039080830182811182821017620003fe578352600d81526020906c42616e74616820506f696e747360981b8282015283519284840184811082821117620003fe578552600493848152634250545360e01b848201528251828111620003e9576003918254916001958684811c94168015620003de575b88851014620003c9578190601f9485811162000373575b5088908583116001146200030c5760009262000300575b505060001982861b1c191690861b1783555b8051938411620002eb5786548581811c91168015620002e0575b87821014620002cb5782811162000280575b5085918411600114620002155793839491849260009562000209575b50501b92600019911b1c19161782555b3315620001f25760058054336001600160a01b03198083168217909355906001600160a01b03167f8be0079c531659141344cd1fd0a4f28419497f9722a3daafe3b4186f6b6457e0600080a33390600654161760065560025469d3c21bcecceda100000092838201809211620001dd57506000917fddf252ad1be2c89b69c2b068fc378daa952ba7f163c4a11628f55a4df523b3ef9160025533835282815284832084815401905584519384523393a351610f1190816200041a8239f35b601190634e487b7160e01b6000525260246000fd5b5060006024925191631e4fbdf760e01b8352820152fd5b0151935038806200010f565b9190601f198416928760005284876000209460005b89898383106200026857505050106200024d575b50505050811b0182556200011f565b01519060f884600019921b161c19169055388080806200023e565b8686015189559097019694850194889350016200022a565b87600052866000208380870160051c820192898810620002c1575b0160051c019086905b828110620002b4575050620000f3565b60008155018690620002a4565b925081926200029b565b602288634e487b7160e01b6000525260246000fd5b90607f1690620000e1565b604187634e487b7160e01b6000525260246000fd5b015190503880620000b5565b90889350601f19831691876000528a6000209260005b8c8282106200035c575050841162000343575b505050811b018355620000c7565b015160001983881b60f8161c1916905538808062000335565b8385015186558c9790950194938401930162000322565b90915085600052886000208580850160051c8201928b8610620003bf575b918a91869594930160051c01915b828110620003af5750506200009e565b600081558594508a91016200039f565b9250819262000391565b602289634e487b7160e01b6000525260246000fd5b93607f169362000087565b604186634e487b7160e01b6000525260246000fd5b634e487b7160e01b600052604160045260246000fd5b600080fdfe6080604081815260048036101561001557600080fd5b600092833560e01c90816306fdde0314610a8b57508063095ea7b3146109e2578063145dc5fa1461022657806318160ddd146109c357806323b872dd14610986578063313ce5671461096a578063326f823f1461087857806342966c681461085a57806370a0823114610823578063715018a6146107c657806379cc6790146107905780637f86285c146105c75780638da5cb5b1461059e578063904b5f031461057557806395d89b4114610455578063a6924f9d1461042e578063a9059cbb146103fd578063baa3c7cf1461030e578063cae42a081461025e578063d537307914610226578063dd62ed3e146101d9578063f2fde38b1461014a5763f71f58b01461012057600080fd5b346101465760203660031901126101465760209282913581526008845220549051908152f35b8280fd5b503461014657602036600319011261014657610164610bc9565b9061016d610bfa565b6001600160a01b039182169283156101c3575050600554826bffffffffffffffffffffffff60a01b821617600555167f8be0079c531659141344cd1fd0a4f28419497f9722a3daafe3b4186f6b6457e08380a380f35b51631e4fbdf760e01b8152908101849052602490fd5b505034610222578060031936011261022257806020926101f7610bc9565b6101ff610be4565b6001600160a01b0391821683526001865283832091168252845220549051908152f35b5080fd5b5050346102225760203660031901126102225760209181906001600160a01b0361024e610bc9565b1681526007845220549051908152f35b503461014657602036600319011261014657610278610bc9565b610280610bfa565b6001600160a01b03169182156102cb575050600680546001600160a01b031916821790557f7619eb3b0b2346250e2839a10da35fc58eea3632c6f045e8abffa1864bce25518280a280f35b906020606492519162461bcd60e51b8352820152601760248201527f496e76616c6964206d616e6167657220616464726573730000000000000000006044820152fd5b5034610146578160031936011261014657610327610bc9565b916024359160018060a01b0361034281600654163314610e99565b841693848652856020528383872054106103ba578361036091610dfa565b83855260076020528185208054918483039283116103a7575055519081527fb0f2e2c9b12547a7425feac9e52f454451705c31972086a5a0e563fc5273f70990602090a280f35b634e487b7160e01b875260119052602486fd5b506020606492519162461bcd60e51b8352820152601b60248201527f496e73756666696369656e7420706f696e74732062616c616e636500000000006044820152fd5b50503461022257806003193601126102225760209061042761041d610bc9565b6024359033610c26565b5160018152f35b50346101465760203660031901126101465760209282913581526008845220549051908152f35b50919034610222578160031936011261022257805190828454600181811c9080831692831561056b575b60209384841081146105585783885290811561053c57506001146104e7575b505050829003601f01601f191682019267ffffffffffffffff8411838510176104d457508291826104d0925282610b80565b0390f35b634e487b7160e01b815260418552602490fd5b8787529192508591837f8a35acfbc15ff81a39ae7d344fd709f28e8600b4aa8c65c6b64bfe7fe36bd19b5b838510610528575050505083010138808061049e565b805488860183015293019284908201610512565b60ff1916878501525050151560051b840101905038808061049e565b634e487b7160e01b895260228a52602489fd5b91607f169161047f565b50503461022257816003193601126102225760065490516001600160a01b039091168152602090f35b50503461022257816003193601126102225760055490516001600160a01b039091168152602090f35b5034610146576080366003190112610146576105e1610bc9565b916024356044359360643567ffffffffffffffff9182821161078c573660238301121561078c578186013592831161078c57366024848401011161078c576006546001600160a01b0391906106399083163314610e99565b1694851561075257831561071a5750918160609260247f2c08e77516dc7b6ff86ff32caa4925b6aa8eb346dc35e2975cf62b43698a82df969561067e85600254610d04565b600255888b528a602052868b20858154019055888b7fddf252ad1be2c89b69c2b068fc378daa952ba7f163c4a11628f55a4df523b3ef60208a51898152a3888b526007602052868b206106d2868254610d04565b9055898b526008602052868b206106ea868254610d04565b9055828751978896875280602088015286015201848401378181018301889052601f01601f19168101030190a380f35b606490602086519162461bcd60e51b835282015260126024820152710416d6f756e74206d757374206265203e20360741b6044820152fd5b606490602086519162461bcd60e51b83528201526014602482015273496e76616c69642075736572206164647265737360601b6044820152fd5b8780fd5b505034610222573660031901126107c3576107c06107ac610bc9565b602435906107bb823383610d27565b610dfa565b80f35b80fd5b83346107c357806003193601126107c3576107df610bfa565b600580546001600160a01b0319811690915581906001600160a01b03167f8be0079c531659141344cd1fd0a4f28419497f9722a3daafe3b4186f6b6457e08280a380f35b5050346102225760203660031901126102225760209181906001600160a01b0361084b610bc9565b16815280845220549051908152f35b838234610222576020366003190112610222576107c0903533610dfa565b5091346107c357816003193601126107c357610892610bc9565b6001600160a01b038116916024359190831561093357848391338152806020522054106108f95760209450816108c89133610c26565b82519081527f8368079d4813055221156198c714ea6a6742cfcec7c979383b0085e1cc738dc0843392a35160018152f35b835162461bcd60e51b81526020818701526014602482015273496e73756666696369656e742062616c616e636560601b6044820152606490fd5b845162461bcd60e51b81526020818801526011602482015270125b9d985b1a59081c9958da5c1a595b9d607a1b6044820152606490fd5b5050346102225781600319360112610222576020905160128152f35b505034610222576060366003190112610222576020906104276109a7610bc9565b6109af610be4565b604435916109be833383610d27565b610c26565b5050346102225781600319360112610222576020906002549051908152f35b50346101465781600319360112610146576109fb610bc9565b602435903315610a74576001600160a01b0316918215610a5d57508083602095338152600187528181208582528752205582519081527f8c5be1e5ebec7d5bd14f71427d1e84f3dd0314c0f7b2291e5b200ac8c7c3b925843392a35160018152f35b8351634a1406b160e11b8152908101859052602490fd5b835163e602df0560e01b8152808401869052602490fd5b849150833461014657826003193601126101465782600354600181811c90808316928315610b76575b602093848410811461055857838852908115610b5a5750600114610b0457505050829003601f01601f191682019267ffffffffffffffff8411838510176104d457508291826104d0925282610b80565b600387529192508591837fc2575a0e9e593c00f959f8c92f12db2869c3395a3b0502d05e2516446f71f85b5b838510610b46575050505083010185808061049e565b805488860183015293019284908201610b30565b60ff1916878501525050151560051b840101905085808061049e565b91607f1691610ab4565b6020808252825181830181905290939260005b828110610bb557505060409293506000838284010152601f8019910116010190565b818101860151848201604001528501610b93565b600435906001600160a01b0382168203610bdf57565b600080fd5b602435906001600160a01b0382168203610bdf57565b6005546001600160a01b03163303610c0e57565b60405163118cdaa760e01b8152336004820152602490fd5b916001600160a01b03808416928315610ceb5716928315610cd25760009083825281602052604082205490838210610ca0575091604082827fddf252ad1be2c89b69c2b068fc378daa952ba7f163c4a11628f55a4df523b3ef958760209652828652038282205586815220818154019055604051908152a3565b60405163391434e360e21b81526001600160a01b03919091166004820152602481019190915260448101839052606490fd5b60405163ec442f0560e01b815260006004820152602490fd5b604051634b637e8f60e11b815260006004820152602490fd5b91908201809211610d1157565b634e487b7160e01b600052601160045260246000fd5b9160018060a01b038093169160009383855260016020526040938486209183169182875260205284862054926000198410610d66575b50505050505050565b848410610dca57508015610db2578115610d9a57855260016020528385209085526020520391205538808080808080610d5d565b8451634a1406b160e11b815260048101879052602490fd5b845163e602df0560e01b815260048101879052602490fd5b8551637dc7a0d960e11b81526001600160a01b039190911660048201526024810184905260448101859052606490fd5b906001600160a01b038216908115610ceb5760009282845283602052604084205490828210610e675750817fddf252ad1be2c89b69c2b068fc378daa952ba7f163c4a11628f55a4df523b3ef926020928587528684520360408620558060025403600255604051908152a3565b60405163391434e360e21b81526001600160a01b03919091166004820152602481019190915260448101829052606490fd5b15610ea057565b60405162461bcd60e51b815260206004820152601360248201527227b7363c903837b4b73a399036b0b730b3b2b960691b6044820152606490fdfea26469706673582212204695cc5edd3b9c5ef08c4b3fa052ceea6ad2199bda3b299b6758bcf4510ed9b664736f6c63430008140033",
  "linkReferences": {},
  "deployedLinkReferences": {}
}