{
  "_format": "hh-sol-artifact-1",
  "contractName": "ChallengeFactory",
  "sourceName": "src/ChallengeFactory.sol",
  "abi": [
    {
      "inputs": [
        {
          "internalType": "address",
          "name": "_pointsToken",
          "type": "address"
        },
        {
          "internalType": "address payable",
          "name": "_stakeEscrow",
          "type": "address"
        },
        {
          "internalType": "address",
          "name": "_admin",
          "type": "address"
        },
        {
          "internalType": "address",
          "name": "_platformFeeRecipient",
          "type": "address"
        }
      ],
      "stateMutability": "nonpayable",
      "type": "constructor"
    },
    {
      "inputs": [],
      "name": "ECDSAInvalidSignature",
      "type": "error"
    },
    {
      "inputs": [
        {
          "internalType": "uint256",
          "name": "length",
          "type": "uint256"
        }
      ],
      "name": "ECDSAInvalidSignatureLength",
      "type": "error"
    },
    {
      "inputs": [
        {
          "internalType": "bytes32",
          "name": "s",
          "type": "bytes32"
        }
      ],
      "name": "ECDSAInvalidSignatureS",
      "type": "error"
    },
    {
      "inputs": [
        {
          "internalType": "address",
          "name": "owner",
          "type": "address"
        }
      ],
      "name": "OwnableInvalidOwner",
      "type": "error"
    },
    {
      "inputs": [
        {
          "internalType": "address",
          "name": "account",
          "type": "address"
        }
      ],
      "name": "OwnableUnauthorizedAccount",
      "type": "error"
    },
    {
      "inputs": [],
      "name": "ReentrancyGuardReentrantCall",
      "type": "error"
    },
    {
      "inputs": [
        {
          "internalType": "address",
          "name": "token",
          "type": "address"
        }
      ],
      "name": "SafeERC20FailedOperation",
      "type": "error"
    },
    {
      "anonymous": false,
      "inputs": [
        {
          "indexed": true,
          "internalType": "address",
          "name": "newAdmin",
          "type": "address"
        }
      ],
      "name": "AdminUpdated",
      "type": "event"
    },
    {
      "anonymous": false,
      "inputs": [
        {
          "indexed": true,
          "internalType": "uint256",
          "name": "challengeId",
          "type": "uint256"
        },
        {
          "indexed": true,
          "internalType": "address",
          "name": "creator",
          "type": "address"
        },
        {
          "indexed": true,
          "internalType": "address",
          "name": "paymentToken",
          "type": "address"
        },
        {
          "indexed": false,
          "internalType": "uint256",
          "name": "stakeAmount",
          "type": "uint256"
        },
        {
          "indexed": false,
          "internalType": "uint256",
          "name": "pointsReward",
          "type": "uint256"
        }
      ],
      "name": "ChallengeCreatedGroup",
      "type": "event"
    },
    {
      "anonymous": false,
      "inputs": [
        {
          "indexed": true,
          "internalType": "uint256",
          "name": "challengeId",
          "type": "uint256"
        },
        {
          "indexed": true,
          "internalType": "address",
          "name": "creator",
          "type": "address"
        },
        {
          "indexed": true,
          "internalType": "address",
          "name": "participant",
          "type": "address"
        },
        {
          "indexed": false,
          "internalType": "address",
          "name": "paymentToken",
          "type": "address"
        },
        {
          "indexed": false,
          "internalType": "uint256",
          "name": "stakeAmount",
          "type": "uint256"
        },
        {
          "indexed": false,
          "internalType": "uint256",
          "name": "pointsReward",
          "type": "uint256"
        }
      ],
      "name": "ChallengeCreatedP2P",
      "type": "event"
    },
    {
      "anonymous": false,
      "inputs": [
        {
          "indexed": true,
          "internalType": "uint256",
          "name": "challengeId",
          "type": "uint256"
        },
        {
          "indexed": true,
          "internalType": "address",
          "name": "winner",
          "type": "address"
        },
        {
          "indexed": true,
          "internalType": "address",
          "name": "paymentToken",
          "type": "address"
        },
        {
          "indexed": false,
          "internalType": "uint256",
          "name": "stakeAmount",
          "type": "uint256"
        },
        {
          "indexed": false,
          "internalType": "uint256",
          "name": "pointsAwarded",
          "type": "uint256"
        }
      ],
      "name": "ChallengeResolved",
      "type": "event"
    },
    {
      "anonymous": false,
      "inputs": [
        {
          "indexed": true,
          "internalType": "address",
          "name": "previousOwner",
          "type": "address"
        },
        {
          "indexed": true,
          "internalType": "address",
          "name": "newOwner",
          "type": "address"
        }
      ],
      "name": "OwnershipTransferred",
      "type": "event"
    },
    {
      "anonymous": false,
      "inputs": [
        {
          "indexed": true,
          "internalType": "address",
          "name": "token",
          "type": "address"
        },
        {
          "indexed": false,
          "internalType": "bool",
          "name": "enabled",
          "type": "bool"
        }
      ],
      "name": "PaymentTokenToggled",
      "type": "event"
    },
    {
      "anonymous": false,
      "inputs": [
        {
          "indexed": true,
          "internalType": "address",
          "name": "token",
          "type": "address"
        },
        {
          "indexed": false,
          "internalType": "uint256",
          "name": "amount",
          "type": "uint256"
        }
      ],
      "name": "PlatformFeeCollected",
      "type": "event"
    },
    {
      "anonymous": false,
      "inputs": [
        {
          "indexed": false,
          "internalType": "uint256",
          "name": "newPercentage",
          "type": "uint256"
        }
      ],
      "name": "PlatformFeePercentageUpdated",
      "type": "event"
    },
    {
      "anonymous": false,
      "inputs": [
        {
          "indexed": true,
          "internalType": "address",
          "name": "newRecipient",
          "type": "address"
        }
      ],
      "name": "PlatformFeeRecipientUpdated",
      "type": "event"
    },
    {
      "anonymous": false,
      "inputs": [
        {
          "indexed": true,
          "internalType": "address",
          "name": "token",
          "type": "address"
        },
        {
          "indexed": false,
          "internalType": "uint256",
          "name": "amount",
          "type": "uint256"
        },
        {
          "indexed": true,
          "internalType": "address",
          "name": "recipient",
          "type": "address"
        }
      ],
      "name": "PlatformFeeWithdrawn",
      "type": "event"
    },
    {
      "anonymous": false,
      "inputs": [
        {
          "indexed": true,
          "internalType": "uint256",
          "name": "challengeId",
          "type": "uint256"
        },
        {
          "indexed": true,
          "internalType": "address",
          "name": "user",
          "type": "address"
        },
        {
          "indexed": true,
          "internalType": "address",
          "name": "paymentToken",
          "type": "address"
        },
        {
          "indexed": false,
          "internalType": "uint256",
          "name": "amount",
          "type": "uint256"
        }
      ],
      "name": "StakeClaimed",
      "type": "event"
    },
    {
      "anonymous": false,
      "inputs": [
        {
          "indexed": true,
          "internalType": "address",
          "name": "token",
          "type": "address"
        },
        {
          "indexed": false,
          "internalType": "bool",
          "name": "blacklisted",
          "type": "bool"
        }
      ],
      "name": "TokenBlacklisted",
      "type": "event"
    },
    {
      "anonymous": false,
      "inputs": [
        {
          "indexed": true,
          "internalType": "address",
          "name": "token",
          "type": "address"
        },
        {
          "indexed": false,
          "internalType": "bool",
          "name": "verified",
          "type": "bool"
        }
      ],
      "name": "TokenVerified",
      "type": "event"
    },
    {
      "inputs": [
        {
          "internalType": "uint256",
          "name": "challengeId",
          "type": "uint256"
        }
      ],
      "name": "acceptP2PChallenge",
      "outputs": [],
      "stateMutability": "payable",
      "type": "function"
    },
    {
      "inputs": [],
      "name": "admin",
      "outputs": [
        {
          "internalType": "address",
          "name": "",
          "type": "address"
        }
      ],
      "stateMutability": "view",
      "type": "function"
    },
    {
      "inputs": [
        {
          "internalType": "address",
          "name": "token",
          "type": "address"
        },
        {
          "internalType": "bool",
          "name": "blacklisted",
          "type": "bool"
        }
      ],
      "name": "blacklistToken",
      "outputs": [],
      "stateMutability": "nonpayable",
      "type": "function"
    },
    {
      "inputs": [
        {
          "internalType": "address",
          "name": "",
          "type": "address"
        }
      ],
      "name": "blacklistedTokens",
      "outputs": [
        {
          "internalType": "bool",
          "name": "",
          "type": "bool"
        }
      ],
      "stateMutability": "view",
      "type": "function"
    },
    {
      "inputs": [
        {
          "internalType": "uint256",
          "name": "",
          "type": "uint256"
        }
      ],
      "name": "challenges",
      "outputs": [
        {
          "internalType": "uint256",
          "name": "id",
          "type": "uint256"
        },
        {
          "internalType": "enum ChallengeFactory.ChallengeType",
          "name": "challengeType",
          "type": "uint8"
        },
        {
          "internalType": "address",
          "name": "creator",
          "type": "address"
        },
        {
          "internalType": "address",
          "name": "participant",
          "type": "address"
        },
        {
          "internalType": "address",
          "name": "paymentToken",
          "type": "address"
        },
        {
          "internalType": "uint256",
          "name": "stakeAmount",
          "type": "uint256"
        },
        {
          "internalType": "uint256",
          "name": "pointsReward",
          "type": "uint256"
        },
        {
          "internalType": "enum ChallengeFactory.ChallengeStatus",
          "name": "status",
          "type": "uint8"
        },
        {
          "internalType": "address",
          "name": "winner",
          "type": "address"
        },
        {
          "internalType": "uint256",
          "name": "createdAt",
          "type": "uint256"
        },
        {
          "internalType": "uint256",
          "name": "resolvedAt",
          "type": "uint256"
        },
        {
          "internalType": "string",
          "name": "metadataURI",
          "type": "string"
        }
      ],
      "stateMutability": "view",
      "type": "function"
    },
    {
      "inputs": [
        {
          "internalType": "uint256",
          "name": "challengeId",
          "type": "uint256"
        }
      ],
      "name": "claimStake",
      "outputs": [],
      "stateMutability": "nonpayable",
      "type": "function"
    },
    {
      "inputs": [
        {
          "internalType": "address",
          "name": "paymentToken",
          "type": "address"
        },
        {
          "internalType": "uint256",
          "name": "stakeAmount",
          "type": "uint256"
        },
        {
          "internalType": "uint256",
          "name": "pointsReward",
          "type": "uint256"
        },
        {
          "internalType": "string",
          "name": "metadataURI",
          "type": "string"
        }
      ],
      "name": "createGroupChallenge",
      "outputs": [
        {
          "internalType": "uint256",
          "name": "",
          "type": "uint256"
        }
      ],
      "stateMutability": "nonpayable",
      "type": "function"
    },
    {
      "inputs": [
        {
          "internalType": "address",
          "name": "participant",
          "type": "address"
        },
        {
          "internalType": "address",
          "name": "paymentToken",
          "type": "address"
        },
        {
          "internalType": "uint256",
          "name": "stakeAmount",
          "type": "uint256"
        },
        {
          "internalType": "uint256",
          "name": "pointsReward",
          "type": "uint256"
        },
        {
          "internalType": "string",
          "name": "metadataURI",
          "type": "string"
        }
      ],
      "name": "createP2PChallenge",
      "outputs": [
        {
          "internalType": "uint256",
          "name": "",
          "type": "uint256"
        }
      ],
      "stateMutability": "payable",
      "type": "function"
    },
    {
      "inputs": [
        {
          "internalType": "uint256",
          "name": "challengeId",
          "type": "uint256"
        }
      ],
      "name": "getChallenge",
      "outputs": [
        {
          "components": [
            {
              "internalType": "uint256",
              "name": "id",
              "type": "uint256"
            },
            {
              "internalType": "enum ChallengeFactory.ChallengeType",
              "name": "challengeType",
              "type": "uint8"
            },
            {
              "internalType": "address",
              "name": "creator",
              "type": "address"
            },
            {
              "internalType": "address",
              "name": "participant",
              "type": "address"
            },
            {
              "internalType": "address",
              "name": "paymentToken",
              "type": "address"
            },
            {
              "internalType": "uint256",
              "name": "stakeAmount",
              "type": "uint256"
            },
            {
              "internalType": "uint256",
              "name": "pointsReward",
              "type": "uint256"
            },
            {
              "internalType": "enum ChallengeFactory.ChallengeStatus",
              "name": "status",
              "type": "uint8"
            },
            {
              "internalType": "address",
              "name": "winner",
              "type": "address"
            },
            {
              "internalType": "uint256",
              "name": "createdAt",
              "type": "uint256"
            },
            {
              "internalType": "uint256",
              "name": "resolvedAt",
              "type": "uint256"
            },
            {
              "internalType": "string",
              "name": "metadataURI",
              "type": "string"
            }
          ],
          "internalType": "struct ChallengeFactory.Challenge",
          "name": "",
          "type": "tuple"
        }
      ],
      "stateMutability": "view",
      "type": "function"
    },
    {
      "inputs": [
        {
          "internalType": "address",
          "name": "token",
          "type": "address"
        }
      ],
      "name": "getPlatformFeeBalance",
      "outputs": [
        {
          "internalType": "uint256",
          "name": "",
          "type": "uint256"
        }
      ],
      "stateMutability": "view",
      "type": "function"
    },
    {
      "inputs": [
        {
          "internalType": "uint256",
          "name": "",
          "type": "uint256"
        },
        {
          "internalType": "uint256",
          "name": "",
          "type": "uint256"
        }
      ],
      "name": "groupChallengeParticipants",
      "outputs": [
        {
          "internalType": "address",
          "name": "user",
          "type": "address"
        },
        {
          "internalType": "bool",
          "name": "side",
          "type": "bool"
        },
        {
          "internalType": "uint256",
          "name": "stakeAmount",
          "type": "uint256"
        },
        {
          "internalType": "bool",
          "name": "claimed",
          "type": "bool"
        }
      ],
      "stateMutability": "view",
      "type": "function"
    },
    {
      "inputs": [
        {
          "internalType": "address",
          "name": "token",
          "type": "address"
        }
      ],
      "name": "isTokenBlacklisted",
      "outputs": [
        {
          "internalType": "bool",
          "name": "",
          "type": "bool"
        }
      ],
      "stateMutability": "view",
      "type": "function"
    },
    {
      "inputs": [
        {
          "internalType": "address",
          "name": "token",
          "type": "address"
        }
      ],
      "name": "isTokenVerified",
      "outputs": [
        {
          "internalType": "bool",
          "name": "",
          "type": "bool"
        }
      ],
      "stateMutability": "view",
      "type": "function"
    },
    {
      "inputs": [],
      "name": "nextChallengeId",
      "outputs": [
        {
          "internalType": "uint256",
          "name": "",
          "type": "uint256"
        }
      ],
      "stateMutability": "view",
      "type": "function"
    },
    {
      "inputs": [],
      "name": "owner",
      "outputs": [
        {
          "internalType": "address",
          "name": "",
          "type": "address"
        }
      ],
      "stateMutability": "view",
      "type": "function"
    },
    {
      "inputs": [
        {
          "internalType": "uint256",
          "name": "",
          "type": "uint256"
        }
      ],
      "name": "p2pChallengeAmounts",
      "outputs": [
        {
          "internalType": "uint256",
          "name": "",
          "type": "uint256"
        }
      ],
      "stateMutability": "view",
      "type": "function"
    },
    {
      "inputs": [
        {
          "internalType": "address",
          "name": "",
          "type": "address"
        }
      ],
      "name": "platformFeeBalance",
      "outputs": [
        {
          "internalType": "uint256",
          "name": "",
          "type": "uint256"
        }
      ],
      "stateMutability": "view",
      "type": "function"
    },
    {
      "inputs": [],
      "name": "platformFeePercentage",
      "outputs": [
        {
          "internalType": "uint256",
          "name": "",
          "type": "uint256"
        }
      ],
      "stateMutability": "view",
      "type": "function"
    },
    {
      "inputs": [],
      "name": "platformFeeRecipient",
      "outputs": [
        {
          "internalType": "address",
          "name": "",
          "type": "address"
        }
      ],
      "stateMutability": "view",
      "type": "function"
    },
    {
      "inputs": [],
      "name": "pointsToken",
      "outputs": [
        {
          "internalType": "contract BantahPoints",
          "name": "",
          "type": "address"
        }
      ],
      "stateMutability": "view",
      "type": "function"
    },
    {
      "inputs": [],
      "name": "renounceOwnership",
      "outputs": [],
      "stateMutability": "nonpayable",
      "type": "function"
    },
    {
      "inputs": [
        {
          "internalType": "uint256",
          "name": "challengeId",
          "type": "uint256"
        },
        {
          "internalType": "address",
          "name": "winner",
          "type": "address"
        },
        {
          "internalType": "bytes",
          "name": "signature",
          "type": "bytes"
        }
      ],
      "name": "resolveChallenge",
      "outputs": [],
      "stateMutability": "nonpayable",
      "type": "function"
    },
    {
      "inputs": [
        {
          "internalType": "address",
          "name": "newAdmin",
          "type": "address"
        }
      ],
      "name": "setAdmin",
      "outputs": [],
      "stateMutability": "nonpayable",
      "type": "function"
    },
    {
      "inputs": [
        {
          "internalType": "uint256",
          "name": "newPercentage",
          "type": "uint256"
        }
      ],
      "name": "setPlatformFeePercentage",
      "outputs": [],
      "stateMutability": "nonpayable",
      "type": "function"
    },
    {
      "inputs": [
        {
          "internalType": "address",
          "name": "newRecipient",
          "type": "address"
        }
      ],
      "name": "setPlatformFeeRecipient",
      "outputs": [],
      "stateMutability": "nonpayable",
      "type": "function"
    },
    {
      "inputs": [],
      "name": "stakeEscrow",
      "outputs": [
        {
          "internalType": "contract ChallengeEscrow",
          "name": "",
          "type": "address"
        }
      ],
      "stateMutability": "view",
      "type": "function"
    },
    {
      "inputs": [
        {
          "internalType": "address",
          "name": "newOwner",
          "type": "address"
        }
      ],
      "name": "transferOwnership",
      "outputs": [],
      "stateMutability": "nonpayable",
      "type": "function"
    },
    {
      "inputs": [
        {
          "internalType": "address",
          "name": "",
          "type": "address"
        }
      ],
      "name": "verifiedTokens",
      "outputs": [
        {
          "internalType": "bool",
          "name": "",
          "type": "bool"
        }
      ],
      "stateMutability": "view",
      "type": "function"
    },
    {
      "inputs": [
        {
          "internalType": "address",
          "name": "token",
          "type": "address"
        },
        {
          "internalType": "bool",
          "name": "verified",
          "type": "bool"
        }
      ],
      "name": "verifyToken",
      "outputs": [],
      "stateMutability": "nonpayable",
      "type": "function"
    },
    {
      "inputs": [
        {
          "internalType": "address",
          "name": "token",
          "type": "address"
        }
      ],
      "name": "withdrawPlatformFees",
      "outputs": [],
      "stateMutability": "nonpayable",
      "type": "function"
    },
    {
      "stateMutability": "payable",
      "type": "receive"
    }
  ],
  "bytecode": "0x6080346200023b57601f6200261838819003918201601f191683019291906001600160401b03841183851017620002405781608092849260409687528339810103126200023b57620000518162000256565b60208201516001600160a01b0390818116908190036200023b576200008660606200007e87870162000256565b950162000256565b91600160005533156200022357600154948160018060a01b0319953387891617600155885197823391167f8be0079c531659141344cd1fd0a4f28419497f9722a3daafe3b4186f6b6457e0600080a36001600655600a60075516958615620001e157508215620001ac57811692831562000178571693841562000134578360025416176002558260035416176003558160045416176004556005541617600555516123ac90816200026c8239f35b855162461bcd60e51b815260206004820152601560248201527f496e76616c69642066656520726563697069656e7400000000000000000000006044820152606490fd5b865162461bcd60e51b815260206004820152600d60248201526c24b73b30b634b21030b236b4b760991b6044820152606490fd5b865162461bcd60e51b815260206004820152600e60248201526d496e76616c696420657363726f7760901b6044820152606490fd5b62461bcd60e51b815260206004820152601460248201527f496e76616c696420706f696e747320746f6b656e0000000000000000000000006044820152606490fd5b8551631e4fbdf760e01b815260006004820152602490fd5b600080fd5b634e487b7160e01b600052604160045260246000fd5b51906001600160a01b03821682036200023b5756fe608080604052600436101561001d575b50361561001b57600080fd5b005b600090813560e01c908163017b975b14611c74575080630d8d2d0814611bfe5780631871e24314611b5b578063190e4c5514611aea578063199a714e146115615780631baaaffe146102445780631bdd4b741461134857806344c7d6ef146111a65780635c8b5f44146107ad57806368a2b7de14610bc657806369249fba1461117c578063704b6c02146110dd578063715018a61461107f57806372e1011c1461105657806379a1152214610c8b5780638333903e14610bff57806386ff06e714610bc65780638da5cb5b14610b9d5780638f1d377614610ac0578063c25d8b7b1461080a578063cdd78cfc146107ec578063ce9be9ba146107ad578063d2d6648214610730578063d35202e814610484578063eb13554f1461045b578063ec3889b514610283578063ec867b2714610244578063f2fde38b146101b9578063f851a440146101905763fc67aa500361000f573461018d578060031936011261018d576020600654604051908152f35b80fd5b503461018d578060031936011261018d576004546040516001600160a01b039091168152602090f35b503461018d57602036600319011261018d576101d3611ccb565b6101db611f18565b6001600160a01b0390811690811561022b57600154826001600160601b0360a01b821617600155167f8be0079c531659141344cd1fd0a4f28419497f9722a3daafe3b4186f6b6457e0600080a380f35b604051631e4fbdf760e01b815260048101849052602490fd5b503461018d57602036600319011261018d5760209060ff906040906001600160a01b0361026f611ccb565b168152600b84522054166040519015158152f35b503461018d576020806003193601126104575761029e611ccb565b906102a7611f18565b6102af612084565b6001600160a01b03918216808452600d8252604084205492909190831561041c57828552600d8252846040812055821560001461039557848080808785600554165af13d15610390573d61030281611d7e565b906103106040519283611d5c565b815286843d92013e5b1561035557907f08273342a380b5301480c28ba6b7dfb7bfda23bfd871714c935e45a15e9cb823915b6005541693604051908152a36001815580f35b60405162461bcd60e51b8152600481018390526013602482015272115512081d1c985b9cd9995c8819985a5b1959606a1b6044820152606490fd5b610319565b60055460405163a9059cbb60e01b8185015290821660248201526044808201869052815291906080830167ffffffffffffffff811184821017610406577f08273342a380b5301480c28ba6b7dfb7bfda23bfd871714c935e45a15e9cb82393610401916040528561218a565b610342565b634e487b7160e01b600052604160045260246000fd5b60405162461bcd60e51b81526004810183905260136024820152724e6f206665657320746f20776974686472617760681b6044820152606490fd5b5080fd5b503461018d578060031936011261018d576005546040516001600160a01b039091168152602090f35b506020806003193601126104575760043561049d612084565b808352600882526040832060018101549160ff8316600281101561071c576001036106e357600682019360ff85541660058110156106cf57610696576001600160a01b039360081c841633146106465760028301805487908681161561062d57505054841633036105e95750908492915b600460038301938085541680156000146105c557506105318285015434146120f3565b806003541694541692015492803b156105c157604051637a443e3d60e11b81523360048201526001600160a01b03939093166024840152604483019390935260648201529082908290608490829084905af180156105b6576105a2575b5050600160ff198254161790556001815580f35b6105ab90611d2b565b61045757813861058e565b6040513d84823e3d90fd5b8480fd5b6105e4906105d334156120a7565b826003541684870154913390612135565b610531565b6064906040519062461bcd60e51b82526004820152601d60248201527f4e6f742074686520737065636966696564207061727469636970616e740000006044820152fd5b6001600160a01b0319163317909155939291905061050e565b6084906040519062461bcd60e51b82526004820152602360248201527f43726561746f722063616e6e6f7420616363657074206f776e206368616c6c656044820152626e676560e81b6064820152fd5b6064906040519062461bcd60e51b82526004820152601260248201527121b430b63632b733b2903737ba1037b832b760711b6044820152fd5b634e487b7160e01b87526021600452602487fd5b60405162461bcd60e51b81526004810185905260116024820152704e6f7420503250206368616c6c656e676560781b6044820152606490fd5b634e487b7160e01b86526021600452602486fd5b503461018d5760207fd128f4457567637d4d9a19a54a44a6e47ba1ed0cc875b3cff7b762c8bb27b41661076236611cfc565b929061076c611f18565b6001600160a01b03169261078184151561233a565b838552600b82526107a181604087209060ff801983541691151516179055565b6040519015158152a280f35b503461018d57602036600319011261018d5760209060ff906040906001600160a01b036107d8611ccb565b168152600c84522054166040519015158152f35b503461018d578060031936011261018d576020600754604051908152f35b503461018d57608036600319011261018d57610824611ccb565b67ffffffffffffffff916024359190604435606435858111610abc5761084e903690600401611e0a565b949093610859611f18565b610861612084565b6001600160a01b0316918215610a7f57828452602096600c885261088c60ff60408720541615611f44565b610897831515611f87565b6108a2821515611fc7565b6108b06101f4831115612013565b600654966108bd8861205f565b6006558786526008808a5260408720898155600180820180546001600160a81b0319163390941b610100600160a81b03169390931790925590979060099060ff1960038201896001600160601b0360a01b8254161790558760048301558660058301556006820190815416905542600782015501928211610a6b5781906109448454611e38565b601f8111610a1b575b508790601f83116001146109bb5788926109b0575b5050600019600383901b1c191690871b1790555b60405191825286820152847fac61621ed399481a7fdd906a7b94c9d3667dee8643e9c121e783b860a3f2282d60403393a455604051908152f35b013590503880610962565b8489528b89208a945091601f1984168a8e5b828210610a0457505084116109ea575b505050811b019055610976565b0135600019600384901b60f8161c191690553880806109dd565b8385013586558d979095019492830192018e6109cd565b9091508388528a8820601f840160051c8101918c8510610a61575b84939291601f8c920160051c01915b828110610a5357505061094d565b8a81558594508b9101610a45565b9091508190610a36565b634e487b7160e01b87526041600452602487fd5b60405162461bcd60e51b815260206004820152601560248201527424b73b30b634b2103830bcb6b2b73a103a37b5b2b760591b6044820152606490fd5b8280fd5b503461018d57602036600319011261018d57604060209160043581526008835220610b9981549160018101549060018060a01b03806002830154169080600384015416600484015460058501549060068601549260078701549585610b2c600960088b01549a01611e72565b99610b446040519e8f9e8f9081520160ff8316611d9a565b60081c1660408c015260608b015260808a015260a089015260c0880152610b7160e0880160ff8316611dbd565b60081c1661010086015261012085015261014084015261018080610160850152830190611dca565b0390f35b503461018d578060031936011261018d576001546040516001600160a01b039091168152602090f35b503461018d57602036600319011261018d576020906040906001600160a01b03610bee611ccb565b168152600d83522054604051908152f35b503461018d57602036600319011261018d57600435610c1c611f18565b6127108111610c57576020817fd0a5ddfa06600c6481dcd2923a572827c06e53859f23f7ddab41ff3144ee868792600755604051908152a180f35b60405162461bcd60e51b815260206004820152600c60248201526b08ccaca40e8dede40d0d2ced60a31b6044820152606490fd5b5060a036600319011261018d57610ca0611ccb565b610ca8611ce6565b67ffffffffffffffff916084358381116105c157610cca903690600401611e0a565b610cd5949194612084565b6001600160a01b038316611001575b6001600160a01b0384168652600c6020526040862054610d079060ff1615611f44565b610d146044351515611f87565b610d216064351515611fc7565b610d316101f46064351115612013565b6001600160a01b038416610fd257610d4c60443534146120f3565b60065494610d598661205f565b6006558587526008602081905260408820878155600180820180546001600160a81b0319163390941b610100600160a81b031693909317179091559260ff196002850180546001600160a01b038881166001600160a01b031992831617909255600387018054928a1692909116919091179055604435600486015560643560058601556006850180549190911690554260078501558211610a6b57610e016009840154611e38565b601f8111610f8e575b508690601f8311600114610f215760099291889183610f16575b50508160011b916000199060031b1c1916179101555b6003546001600160a01b0316803b156105c157604051637a443e3d60e11b81523360048201526001600160a01b03841660248201526044803590820152606481018590529085908290608490829084905af18015610f0b57610ef3575b509260019160209460405191848060a01b03168252604435868301526064356040830152838060a01b031690847ff4f5a9f479b06cd99960b03cddc4864cb98eaa763a8f668617c80f589512777960603393a455604051908152f35b610efd8591611d2b565b610f075738610e97565b8380fd5b6040513d87823e3d90fd5b013590503880610e24565b6009840188526020882091885b601f1985168110610f765750918391600193600995601f19811610610f5c575b505050811b01910155610e3a565b0135600019600384901b60f8161c19169055388080610f4e565b90926020600181928686013581550194019101610f2e565b60098401885260208820601f840160051c810160208510610fcb575b601f830160051c82018110610fc0575050610e0a565b898155600101610faa565b5080610faa565b610fdc34156120a7565b600354610ffc90604435906001600160a01b039081169033908816612135565b610d4c565b336001600160a01b03841603610ce45760405162461bcd60e51b815260206004820152601960248201527f43616e6e6f74206368616c6c656e676520796f757273656c66000000000000006044820152606490fd5b503461018d578060031936011261018d576002546040516001600160a01b039091168152602090f35b503461018d578060031936011261018d57611098611f18565b600180546001600160a01b031981169091556000906001600160a01b03167f8be0079c531659141344cd1fd0a4f28419497f9722a3daafe3b4186f6b6457e08280a380f35b503461018d57602036600319011261018d576110f7611ccb565b6110ff611f18565b6001600160a01b0316801561114757600480546001600160a01b031916821790557f54e4612788f90384e6843298d7854436f3a585b2c3831ab66abf1de63bfa6c2d8280a280f35b60405162461bcd60e51b815260206004820152600d60248201526c24b73b30b634b21030b236b4b760991b6044820152606490fd5b503461018d57602036600319011261018d5760406020916004358152600a83522054604051908152f35b503461018d5760208060031936011261045757600435906111c5612084565b8183526008815260408320916006830180549060ff821660058110156106cf5760020361130a576001600160a01b0391600881901c83163381036112cd5715611298576040516040810181811067ffffffffffffffff821117610406576040526001815285810190863683375115611284579160037f401af6acaf4dfd2ab7650e060f96cf76f6a51fd9d42102601e60fdacd4eacff2949260049433905260ff1916179055600386015416940154926040519384523393a46001815580f35b634e487b7160e01b88526032600452602488fd5b60405162461bcd60e51b815260048101869052600d60248201526c139bc81dda5b9b995c881cd95d609a1b6044820152606490fd5b60405162461bcd60e51b81526004810187905260156024820152744f6e6c792077696e6e65722063616e20636c61696d60581b6044820152606490fd5b60405162461bcd60e51b815260048101859052601660248201527510da185b1b195b99d9481b9bdd081c995cdbdb1d995960521b6044820152606490fd5b503461018d57602036600319011261018d57606061016060405161136b81611d3f565b83815283602082015283604082015283838201528360808201528360a08201528360c08201528360e08201528361010082015283610120820152836101408201520152600435815260086020526040812090604051906113ca82611d3f565b82548252600183015460ff8116600281101561154d57602084015260081c6001600160a01b0390811660408401526002840154811660608401526003840154166080830152600483015460a083015260058084015460c084015260068401549160ff831691821015611539575060e0830152600890811c6001600160a01b031661010083015260078301546101208301528201546101408201526101609161147490600901611e72565b82820152610b99604051928392602084528051602085015261149e60208201516040860190611d9a565b60018060a01b03604082015116606085015260018060a01b03606082015116608085015260018060a01b0360808201511660a085015260a081015160c085015260c081015160e08501526114fb60e0820151610100860190611dbd565b60018060a01b0361010082015116610120850152610120810151610140850152610140810151828501520151610180808401526101a0830190611dca565b634e487b7160e01b81526021600452602490fd5b634e487b7160e01b83526021600452602483fd5b503461018d57606036600319011261018d5761157b611ce6565b604480359067ffffffffffffffff8083116105c157366023840112156105c157848360040135936115ab85611d7e565b946115b96040519687611d5c565b8086523660248284010111610abc578060246020930183880137850101526115df612084565b60043585526008602052604085209260068401549160ff83166005811015611ad6578015908115611acb575b5015611a96576001600160a01b03861615611a61576040519060043560208301526001600160601b03198760601b1660408301526034825281606081011090606083011117610a6b576116a2918160606116999301604052602081519101207f19457468657265756d205369676e6564204d6573736167653a0a3332000000008952601c52603c88206121ff565b909291926122cb565b6004546001600160a01b03908116911603611a1d576001600160a81b031916600884901b610100600160a81b0316176002176006830155426008830155600180830154909390858060ff83166002811015611a095780880361198e57505050600484015480861b908082046002149015171561197a579060081c6001600160a01b039081169083168103611975575060028401546001600160a01b03165b905b6007548082029082820414821517156119615761271090048082039182116119615780611901575b506003546001600160a01b039081169288918116156118fa575b600387019360018060a01b0385541691813b15610f07578360a49260405196879586946297d05560e51b865260018060a01b0316600486015260018060a01b038b1660248601528b850152606484015260043560848401525af180156118ef576118dc575b50600254600585018054909488926001600160a01b03169190823b15610f075760c48492836040519586948593631fe18a1760e21b855260018060a01b038c1660048601526024850152600435908401526080606484015260116084840152704368616c6c656e676520766963746f727960781b60a48401525af180156105b6576118c4575b505060049060018060a01b039054169301549154604051928352602083015260018060a01b0316907f0247b762d340895e9ba5c4e57a8f9b65eb56e04f1786bbe81fdcd64432cf1e5d604060043592a4815580f35b6118cd90611d2b565b6118d857853861186f565b8580fd5b6118e890969196611d2b565b94386117e9565b6040513d89823e3d90fd5b5030611784565b7fd0a602bb26e23a82d1071b569dda4305120744b857e3d08eb1779d5d3478c54160206003880160018060a01b038154168b52600d825260408b206119478582546121f2565b9055546040519384526001600160a01b031692a23861176a565b634e487b7160e01b88526011600452602488fd5b611740565b634e487b7160e01b87526011600452602487fd5b90919250611742576004358752600960205260408720805490885b8281106119b857505050611742565b6119c28183611c99565b50546001600160a01b038781169116036119e5575b6119e09061205f565b6119a9565b92611a016119e0918a6119f88786611c99565b500154906121f2565b9390506119d7565b634e487b7160e01b89526021600452602489fd5b60405162461bcd60e51b815260206004820152601760248201527f496e76616c69642061646d696e207369676e617475726500000000000000000081840152606490fd5b60405162461bcd60e51b815260206004820152600e60248201526d24b73b30b634b2103bb4b73732b960911b81860152606490fd5b60405162461bcd60e51b815260206004820152600e60248201526d496e76616c69642073746174757360901b81860152606490fd5b60019150143861160b565b634e487b7160e01b88526021600452602488fd5b503461018d5760207fced2684241c29578df8f7fbab74348d0053114fa157b900b2f1f4a1d4a2b3395611b1c36611cfc565b9290611b26611f18565b6001600160a01b031692611b3b84151561233a565b838552600c82526107a181604087209060ff801983541691151516179055565b503461018d57602036600319011261018d57611b75611ccb565b611b7d611f18565b6001600160a01b03168015611bc557600580546001600160a01b031916821790557fba887708e7d4436dd36b62187bdced03e0b9abe66caf392a66dd84386641b2098280a280f35b60405162461bcd60e51b8152602060048201526011602482015270125b9d985b1a59081c9958da5c1a595b9d607a1b6044820152606490fd5b503461018d57604036600319011261018d5760243590600435815260096020526040812090815483101561018d576080611c388484611c99565b5080549060ff60026001830154920154169060ff6040519360018060a01b038116855260a01c1615156020840152604083015215156060820152f35b9050346104575781600319360112610457576003546001600160a01b03168152602090f35b8054821015611cb5576000526003602060002091020190600090565b634e487b7160e01b600052603260045260246000fd5b600435906001600160a01b0382168203611ce157565b600080fd5b602435906001600160a01b0382168203611ce157565b6040906003190112611ce1576004356001600160a01b0381168103611ce157906024358015158103611ce15790565b67ffffffffffffffff811161040657604052565b610180810190811067ffffffffffffffff82111761040657604052565b90601f8019910116810190811067ffffffffffffffff82111761040657604052565b67ffffffffffffffff811161040657601f01601f191660200190565b906002821015611da75752565b634e487b7160e01b600052602160045260246000fd5b906005821015611da75752565b919082519283825260005b848110611df6575050826000602080949584010152601f8019910116010190565b602081830181015184830182015201611dd5565b9181601f84011215611ce15782359167ffffffffffffffff8311611ce15760208381860195010111611ce157565b90600182811c92168015611e68575b6020831014611e5257565b634e487b7160e01b600052602260045260246000fd5b91607f1691611e47565b9060405191826000825492611e8684611e38565b908184526001948581169081600014611ef55750600114611eb2575b5050611eb092500383611d5c565b565b9093915060005260209081600020936000915b818310611edd575050611eb093508201013880611ea2565b85548884018501529485019487945091830191611ec5565b915050611eb094506020925060ff191682840152151560051b8201013880611ea2565b6001546001600160a01b03163303611f2c57565b60405163118cdaa760e01b8152336004820152602490fd5b15611f4b57565b60405162461bcd60e51b8152602060048201526014602482015273151bdad95b881a5cc8189b1858dadb1a5cdd195960621b6044820152606490fd5b15611f8e57565b60405162461bcd60e51b815260206004820152601160248201527005374616b65206d757374206265203e203607c1b6044820152606490fd5b15611fce57565b60405162461bcd60e51b815260206004820152601960248201527f506f696e747320726577617264206d757374206265203e2030000000000000006044820152606490fd5b1561201a57565b60405162461bcd60e51b815260206004820152601f60248201527f506f696e7473207265776172642063616e6e6f742065786365656420353030006044820152606490fd5b600019811461206e5760010190565b634e487b7160e01b600052601160045260246000fd5b600260005414612095576002600055565b604051633ee5aeb560e01b8152600490fd5b156120ae57565b60405162461bcd60e51b815260206004820152601960248201527f446f206e6f742073656e642045544820666f72204552433230000000000000006044820152606490fd5b156120fa57565b60405162461bcd60e51b815260206004820152601360248201527208aa89040c2dadeeadce840dad2e6dac2e8c6d606b1b6044820152606490fd5b6040516323b872dd60e01b60208201526001600160a01b03928316602482015292909116604483015260648083019390935291815260a081019181831067ffffffffffffffff84111761040657611eb0926040525b906000602091828151910182855af1156121e6576000513d6121dd57506001600160a01b0381163b155b6121bb5750565b604051635274afe760e01b81526001600160a01b039091166004820152602490fd5b600114156121b4565b6040513d6000823e3d90fd5b9190820180921161206e57565b81519190604183036122305761222992506020820151906060604084015193015160001a9061223b565b9192909190565b505060009160029190565b91907f7fffffffffffffffffffffffffffffff5d576e7357a4501ddfe92f46681b20a084116122bf57926020929160ff608095604051948552168484015260408301526060820152600092839182805260015afa156122b35780516001600160a01b038116156122aa57918190565b50809160019190565b604051903d90823e3d90fd5b50505060009160039190565b6004811015611da757806122dd575050565b600181036122f75760405163f645eedf60e01b8152600490fd5b600281036123185760405163fce698f760e01b815260048101839052602490fd5b6003146123225750565b602490604051906335e2f38360e21b82526004820152fd5b1561234157565b60405162461bcd60e51b815260206004820152600d60248201526c24b73b30b634b2103a37b5b2b760991b6044820152606490fdfea26469706673582212202d661f10eee0d23e1aaddae8866471a672546550dbbfdce303f73f3e16dd797264736f6c63430008140033",
  "linkReferences": {},
  "deployedLinkReferences": {}
}