{"src/ChallengeFactory-old.sol":{"ChallengeFactory":{"abi":[{"inputs":[{"internalType":"address","name":"_pointsToken","type":"address"},{"internalType":"address","name":"_admin","type":"address"}],"stateMutability":"nonpayable","type":"constructor"},{"inputs":[],"name":"ECDSAInvalidSignature","type":"error"},{"inputs":[{"internalType":"uint256","name":"length","type":"uint256"}],"name":"ECDSAInvalidSignatureLength","type":"error"},{"inputs":[{"internalType":"bytes32","name":"s","type":"bytes32"}],"name":"ECDSAInvalidSignatureS","type":"error"},{"inputs":[{"internalType":"address","name":"owner","type":"address"}],"name":"OwnableInvalidOwner","type":"error"},{"inputs":[{"internalType":"address","name":"account","type":"address"}],"name":"OwnableUnauthorizedAccount","type":"error"},{"inputs":[],"name":"ReentrancyGuardReentrantCall","type":"error"},{"anonymous":false,"inputs":[{"indexed":true,"internalType":"address","name":"newAdmin","type":"address"}],"name":"AdminUpdated","type":"event"},{"anonymous":false,"inputs":[{"indexed":true,"internalType":"uint256","name":"challengeId","type":"uint256"},{"indexed":true,"internalType":"address","name":"participant","type":"address"}],"name":"ChallengeAccepted","type":"event"},{"anonymous":false,"inputs":[{"indexed":true,"internalType":"uint256","name":"challengeId","type":"uint256"},{"indexed":false,"internalType":"enum ChallengeFactory.ChallengeType","name":"challengeType","type":"uint8"},{"indexed":true,"internalType":"address","name":"creator","type":"address"},{"indexed":false,"internalType":"uint256","name":"stakeAmount","type":"uint256"},{"indexed":false,"internalType":"address","name":"paymentToken","type":"address"},{"indexed":false,"internalType":"string","name":"metadataURI","type":"string"}],"name":"ChallengeCreated","type":"event"},{"anonymous":false,"inputs":[{"indexed":true,"internalType":"uint256","name":"challengeId","type":"uint256"},{"indexed":true,"internalType":"address","name":"winner","type":"address"},{"indexed":false,"internalType":"uint256","name":"prizeAmount","type":"uint256"},{"indexed":false,"internalType":"uint256","name":"pointsAwarded","type":"uint256"}],"name":"ChallengeResolved","type":"event"},{"anonymous":false,"inputs":[{"indexed":true,"internalType":"address","name":"previousOwner","type":"address"},{"indexed":true,"internalType":"address","name":"newOwner","type":"address"}],"name":"OwnershipTransferred","type":"event"},{"anonymous":false,"inputs":[{"indexed":true,"internalType":"uint256","name":"challengeId","type":"uint256"},{"indexed":true,"internalType":"address","name":"user","type":"address"},{"indexed":false,"internalType":"uint256","name":"amount","type":"uint256"}],"name":"PayoutClaimed","type":"event"},{"anonymous":false,"inputs":[{"indexed":true,"internalType":"uint256","name":"challengeId","type":"uint256"},{"indexed":true,"internalType":"address","name":"user","type":"address"},{"indexed":false,"internalType":"bool","name":"side","type":"bool"},{"indexed":false,"internalType":"uint256","name":"stakeAmount","type":"uint256"}],"name":"UserJoinedAdminChallenge","type":"event"},{"inputs":[{"internalType":"uint256","name":"challengeId","type":"uint256"}],"name":"acceptP2PChallenge","outputs":[],"stateMutability":"nonpayable","type":"function"},{"inputs":[],"name":"admin","outputs":[{"internalType":"address","name":"","type":"address"}],"stateMutability":"view","type":"function"},{"inputs":[{"internalType":"uint256","name":"","type":"uint256"},{"internalType":"address","name":"","type":"address"}],"name":"adminParticipants","outputs":[{"internalType":"address","name":"user","type":"address"},{"internalType":"bool","name":"side","type":"bool"},{"internalType":"uint256","name":"stakeAmount","type":"uint256"},{"internalType":"bool","name":"claimed","type":"bool"}],"stateMutability":"view","type":"function"},{"inputs":[{"internalType":"uint256","name":"","type":"uint256"}],"name":"challenges","outputs":[{"internalType":"uint256","name":"id","type":"uint256"},{"internalType":"enum ChallengeFactory.ChallengeType","name":"challengeType","type":"uint8"},{"internalType":"address","name":"creator","type":"address"},{"internalType":"address","name":"participant","type":"address"},{"internalType":"uint256","name":"stakeAmount","type":"uint256"},{"internalType":"address","name":"paymentToken","type":"address"},{"internalType":"enum ChallengeFactory.ChallengeStatus","name":"status","type":"uint8"},{"internalType":"address","name":"winner","type":"address"},{"internalType":"uint256","name":"createdAt","type":"uint256"},{"internalType":"uint256","name":"resolvedAt","type":"uint256"},{"internalType":"string","name":"metadataURI","type":"string"}],"stateMutability":"view","type":"function"},{"inputs":[{"internalType":"uint256","name":"challengeId","type":"uint256"}],"name":"claimPayout","outputs":[],"stateMutability":"nonpayable","type":"function"},{"inputs":[{"internalType":"uint256","name":"stakeAmount","type":"uint256"},{"internalType":"address","name":"paymentToken","type":"address"},{"internalType":"string","name":"metadataURI","type":"string"}],"name":"createAdminChallenge","outputs":[{"internalType":"uint256","name":"","type":"uint256"}],"stateMutability":"nonpayable","type":"function"},{"inputs":[{"internalType":"address","name":"opponent","type":"address"},{"internalType":"uint256","name":"stakeAmount","type":"uint256"},{"internalType":"address","name":"paymentToken","type":"address"},{"internalType":"string","name":"metadataURI","type":"string"}],"name":"createP2PChallenge","outputs":[{"internalType":"uint256","name":"","type":"uint256"}],"stateMutability":"nonpayable","type":"function"},{"inputs":[{"internalType":"uint256","name":"challengeId","type":"uint256"}],"name":"getChallenge","outputs":[{"components":[{"internalType":"uint256","name":"id","type":"uint256"},{"internalType":"enum ChallengeFactory.ChallengeType","name":"challengeType","type":"uint8"},{"internalType":"address","name":"creator","type":"address"},{"internalType":"address","name":"participant","type":"address"},{"internalType":"uint256","name":"stakeAmount","type":"uint256"},{"internalType":"address","name":"paymentToken","type":"address"},{"internalType":"enum ChallengeFactory.ChallengeStatus","name":"status","type":"uint8"},{"internalType":"address","name":"winner","type":"address"},{"internalType":"uint256","name":"createdAt","type":"uint256"},{"internalType":"uint256","name":"resolvedAt","type":"uint256"},{"internalType":"string","name":"metadataURI","type":"string"}],"internalType":"struct ChallengeFactory.Challenge","name":"","type":"tuple"}],"stateMutability":"view","type":"function"},{"inputs":[{"internalType":"uint256","name":"challengeId","type":"uint256"}],"name":"getNoParticipants","outputs":[{"internalType":"address[]","name":"","type":"address[]"}],"stateMutability":"view","type":"function"},{"inputs":[{"internalType":"address","name":"user","type":"address"}],"name":"getUserLockedStakes","outputs":[{"internalType":"uint256","name":"","type":"uint256"}],"stateMutability":"view","type":"function"},{"inputs":[{"internalType":"uint256","name":"challengeId","type":"uint256"}],"name":"getYesParticipants","outputs":[{"internalType":"address[]","name":"","type":"address[]"}],"stateMutability":"view","type":"function"},{"inputs":[{"internalType":"uint256","name":"challengeId","type":"uint256"},{"internalType":"bool","name":"side","type":"bool"}],"name":"joinAdminChallenge","outputs":[],"stateMutability":"nonpayable","type":"function"},{"inputs":[],"name":"nextChallengeId","outputs":[{"internalType":"uint256","name":"","type":"uint256"}],"stateMutability":"view","type":"function"},{"inputs":[{"internalType":"uint256","name":"","type":"uint256"},{"internalType":"uint256","name":"","type":"uint256"}],"name":"noParticipants","outputs":[{"internalType":"address","name":"","type":"address"}],"stateMutability":"view","type":"function"},{"inputs":[],"name":"owner","outputs":[{"internalType":"address","name":"","type":"address"}],"stateMutability":"view","type":"function"},{"inputs":[],"name":"platformFeePercentage","outputs":[{"internalType":"uint256","name":"","type":"uint256"}],"stateMutability":"view","type":"function"},{"inputs":[],"name":"pointsToken","outputs":[{"internalType":"contract BantahPoints","name":"","type":"address"}],"stateMutability":"view","type":"function"},{"inputs":[],"name":"renounceOwnership","outputs":[],"stateMutability":"nonpayable","type":"function"},{"inputs":[{"internalType":"uint256","name":"challengeId","type":"uint256"},{"internalType":"address","name":"winner","type":"address"},{"internalType":"uint256","name":"pointsAwarded","type":"uint256"},{"internalType":"bytes","name":"signature","type":"bytes"}],"name":"resolveChallenge","outputs":[],"stateMutability":"nonpayable","type":"function"},{"inputs":[{"internalType":"address","name":"newAdmin","type":"address"}],"name":"setAdmin","outputs":[],"stateMutability":"nonpayable","type":"function"},{"inputs":[{"internalType":"uint256","name":"basisPoints","type":"uint256"}],"name":"setPlatformFee","outputs":[],"stateMutability":"nonpayable","type":"function"},{"inputs":[],"name":"totalFeesCollected","outputs":[{"internalType":"uint256","name":"","type":"uint256"}],"stateMutability":"view","type":"function"},{"inputs":[{"internalType":"address","name":"newOwner","type":"address"}],"name":"transferOwnership","outputs":[],"stateMutability":"nonpayable","type":"function"},{"inputs":[{"internalType":"address","name":"","type":"address"}],"name":"userLockedStakes","outputs":[{"internalType":"uint256","name":"","type":"uint256"}],"stateMutability":"view","type":"function"},{"inputs":[{"internalType":"address","name":"token","type":"address"}],"name":"withdrawFees","outputs":[],"stateMutability":"nonpayable","type":"function"},{"inputs":[{"internalType":"uint256","name":"","type":"uint256"},{"internalType":"uint256","name":"","type":"uint256"}],"name":"yesParticipants","outputs":[{"internalType":"address","name":"","type":"address"}],"stateMutability":"view","type":"function"}],"evm":{"bytecode":{"linkReferences":{},"object":"60803462000183576200252290601f38839003908101601f19168201906001600160401b0382118383101762000188578083916040958694855283398101031262000183576200005d602062000055836200019e565b92016200019e565b600160005533156200016b5760018054336001600160a01b0319808316821790935585519492936001600160a01b0393909284929083167f8be0079c531659141344cd1fd0a4f28419497f9722a3daafe3b4186f6b6457e0600080a360016004556001600a551693841562000129575016918215620000f55781600254161760025560035416176003555161236e9081620001b48239f35b835162461bcd60e51b815260206004820152600d60248201526c24b73b30b634b21030b236b4b760991b6044820152606490fd5b62461bcd60e51b815260206004820152601460248201527f496e76616c696420706f696e747320746f6b656e0000000000000000000000006044820152606490fd5b8251631e4fbdf760e01b815260006004820152602490fd5b600080fd5b634e487b7160e01b600052604160045260246000fd5b51906001600160a01b0382168203620001835756fe6080604052600436101561001257600080fd5b6000803560e01c806312e8e2c314611ca1578063164e68de14611b5d5780631bdd4b74146119735780634b0a11101461150857806360c6d8ae146114ea57806360d899cc1461147a578063704b6c02146113db578063715018a61461137e57806372e1011c146113555780637ba6a3241461109b57806387a0a4ef1461102d5780638a69614e14610dad5780638bf6564b14610a1e5780638da5cb5b146109f55780638f1d3776146109255780639598c1301461083c578063a3643c9c146108a7578063acdc9ada14610875578063aecc14371461083c578063b9c2211314610477578063cdd78cfc14610459578063d35202e81461025f578063f272f67414610214578063f2fde38b14610184578063f851a4401461015b5763fc67aa501461013b57600080fd5b346101585780600319360112610158576020600454604051908152f35b80fd5b50346101585780600319360112610158576003546040516001600160a01b039091168152602090f35b50346101585760203660031901126101585761019e611d00565b6101a6611fc3565b6001600160a01b039081169081156101fb57600154826bffffffffffffffffffffffff60a01b821617600155167f8be0079c531659141344cd1fd0a4f28419497f9722a3daafe3b4186f6b6457e0600080a380f35b604051631e4fbdf760e01b815260048101849052602490fd5b50346101585761022336611f7f565b919081526007602052604081209081548310156101585760206102468484611f95565b905460405160039290921b1c6001600160a01b03168152f35b503461015857602080600319360112610455576004359061027e61211d565b81835260058152604083206004810180549060ff8260a01c166005811015610441576102aa9015612140565b60028301546001600160a01b039390841633036104095760ff60018201541660028110156103f5576001036103ba5760030180546040516323b872dd60e01b815233600482015230602482015260448101919091529390928591859160649183918b91165af19283156103af5760099361032b918891610382575b506120cc565b805460ff60a01b1916600160a01b179055543385529152604083208054909161035391612110565b905533907fd984ac8050a068db0ada14b33626b418e0cdfbad700867c1f3e0ab23cf123b338380a36001815580f35b6103a29150863d88116103a8575b61039a8183611dd4565b8101906120b4565b38610325565b503d610390565b6040513d88823e3d90fd5b60405162461bcd60e51b81526004810186905260136024820152724e6f74206120503250206368616c6c656e676560681b6044820152606490fd5b634e487b7160e01b88526021600452602488fd5b60405162461bcd60e51b815260048101869052601060248201526f2737ba103a34329030b1b1b2b83a37b960811b6044820152606490fd5b634e487b7160e01b87526021600452602487fd5b5080fd5b50346101585780600319360112610158576020600a54604051908152f35b503461015857608036600319011261015857600435610494611d1b565b9060643560443567ffffffffffffffff8083116108385736602384011215610838576104cb60249336908581600401359101611df6565b926104d461211d565b848752602091600583526040882060048101805460ff8160a01c1660058110156108255780600161050e921490811561081c575b50612140565b6001600160a01b038a81169a9098908b156107e757604051888101918c83526bffffffffffffffffffffffff199060601b1660408201528960548201526054815260808101818110888211176107d4576040525190207f19457468657265756d205369676e6564204d6573736167653a0a3332000000008d52601c52603c8c206105a49161059b916121dd565b909291926122a9565b8880600354169116036107905760ff60a01b1916600160a11b1790556005810180546001600160a01b03191689179055426007820155600181015460ff16600281101561077d57899392919060010361074b5760039192935001548060011b90808204600214901517156107385790889291955b61063e6106356103e861062d600a548b6121bd565b0480996121d0565b97600b54612110565b600b5560025416803b1561073457839060c460405180968193631fe18a1760e21b83528d60048401528a888401528c604484015260806064840152600d60848401526c31b430b63632b733b2afbbb4b760991b60a48401525af18015610729576106dc575b505050916040917f48d04219f73523e45f2ef87f1dfb115fdec44d443c1406e0a7f9bba9b73ac80a938351928352820152a36001815580f35b82989398116107175750604090815290959082907f48d04219f73523e45f2ef87f1dfb115fdec44d443c1406e0a7f9bba9b73ac80a906106a3565b634e487b7160e01b8352604160045282fd5b6040513d8b823e3d90fd5b8380fd5b634e487b7160e01b895260116004528289fd5b600361077791015488855260078652610771604086205460088852604087205490612110565b906121bd565b95610618565b634e487b7160e01b8a526021600452838afd5b60405162461bcd60e51b8152600481018790526017818701527f496e76616c69642061646d696e207369676e61747572650000000000000000006044820152606490fd5b634e487b7160e01b8f526041600452888ffd5b60405162461bcd60e51b815260048101899052600e818901526d24b73b30b634b2103bb4b73732b960911b6044820152606490fd5b90501538610508565b634e487b7160e01b8c526021600452858cfd5b8580fd5b5034610158576020366003190112610158576020906040906001600160a01b03610864611d00565b168152600983522054604051908152f35b50346101585761088436611f7f565b919081526008602052604081209081548310156101585760206102468484611f95565b5034610158576020806003193601126104555760043582526008815260408220916040518092808554928381520194835280832092905b82821061090557610901856108f581890382611dd4565b60405191829182611e5b565b0390f35b83546001600160a01b0316865294850194600193840193909101906108de565b50346101585760203660031901126101585760406020916004358152600583522061090181549160018101549060018060a01b0380600283015416906109d2600384015491600485015490806005870154169360068701549582610990600860078b01549a01611ed9565b996109a86040519e8f9e8f9081520160ff8316611d31565b60081c1660408c015260608b015260808a0152811660a089015260ff60c089019160a01c16611d54565b60e086015261010085015261012084015261016080610140850152830190611d61565b50346101585780600319360112610158576001546040516001600160a01b039091168152602090f35b503461015857606036600319011261015857610a38611d1b565b60443567ffffffffffffffff8111610da957610a58903690600401611e3d565b610a60611fc3565b610a6d6004351515611fef565b610a816001600160a01b038316151561202f565b805115610d715760045491610a958361206b565b60045560405190610aa582611da1565b83825260208201858152336040840152856060840152600435608084015260018060a01b03821660a08401528560c08401528560e08401524261010084015285610120840152836101408401528486526005602052604086209083518255516002811015610441576001820180546040860151610100600160a81b0360089190911b1660ff939093166001600160a81b03199091161791909117905560608301516002820180546001600160a01b039283166001600160a01b0319918216179091556080850151600384015560a08501516004840180549190931690821617825560c085015190916005821015610d5d5791610ba76101409492600894612090565b600582019060018060a01b0360e0880151169082541617905561010085015160068201556101208501516007820155019201519182519267ffffffffffffffff8411610d4957610bf78254611e9f565b601f8111610d04575b509186918693602098508890601f8711600114610c8e5795809160008051602061231983398151915296978692610c83575b50508160011b916000199060031b1c19161790555b6040519182526004358783015260018060a01b031660408201526080606082015280610c7833956080830190611d61565b0390a3604051908152f35b015190503880610c32565b828552898520969190601f198316865b818110610cea575091600080516020612319833981519152979891846001959410610cd1575b505050811b019055610c47565b015160001960f88460031b161c19169055388080610cc4565b838301518a556001909901988b9850928c01928c01610c9e565b82885260208820601f860160051c81019160208710610d3f575b601f0160051c01905b818110610d345750610c00565b888155600101610d27565b9091508190610d1e565b634e487b7160e01b87526041600452602487fd5b634e487b7160e01b89526021600452602489fd5b60405162461bcd60e51b815260206004820152601060248201526f496e76616c6964206d6574616461746160801b6044820152606490fd5b8280fd5b50346101585760208060031936011261045557600435610dcb61211d565b808352600582526040832091600483019283549360ff8560a01c16600581101561044157600203610fef5760058201546001600160a01b03929083163303610fb95760ff60018201541660028110156103f557600103610f8b57600301548060011b9080820460021490151715610f7757610e57905b6103e8610e50600a54836121bd565b04906121d0565b60ff60a01b19909516600360a01b1781553386526009835260408620548580821115610f6f57610e86916121d0565b33808852600985526040808920929092559154905163a9059cbb60e01b815260048101929092526024820186905290918391839160449183918a91165af1908115610f64578591610f47575b5015610f0a577fe97cee5a4c0549d3fdc81e322b718ddf0aeb3418ec87dce4f9a7fb28d117c312906040519384523393a36001815580f35b6064906040519062461bcd60e51b82526004820152601660248201527514185e5bdd5d081d1c985b9cd9995c8819985a5b195960521b6044820152fd5b610f5e9150823d84116103a85761039a8183611dd4565b38610ed2565b6040513d87823e3d90fd5b505085610e86565b634e487b7160e01b87526011600452602487fd5b610fb46003610e579201548689526007865261077160408a20546008885260408b205490612110565b610e41565b60405162461bcd60e51b815260048101859052600e60248201526d2737ba103a3432903bb4b73732b960911b6044820152606490fd5b60405162461bcd60e51b815260048101849052601660248201527510da185b1b195b99d9481b9bdd081c995cdbdb1d995960521b6044820152606490fd5b5034610158576020806003193601126104555760043582526007815260408220916040518092808554928381520194835280832092905b82821061107b57610901856108f581890382611dd4565b83546001600160a01b031686529485019460019384019390910190611064565b503461015857604036600319011261015857602435151560243503610158576110c261211d565b600435815260056020526040812090600482015460ff8160a01c16600581101561133657806110f9911590811561134a5750612140565b60ff6001840154166002811015611336576112f85760038301546040516323b872dd60e01b81523360048201523060248201526044810191909152906020908290606490829086906001600160a01b03165af19081156112ed57906111649183916112d457506120cc565b600382015491604051926080840184811067ffffffffffffffff8211176112c057600393946002916040523381526020810192602435151584526040820190815260608201938785526004358852600660205260408820338952602052604088209260018060a01b0390511683549160ff60a01b9051151560a01b16916affffffffffffffffffffff60a81b1617178255516001820155019051151560ff801983541691161790556024356000146112a4576004358352600760205261122d336040852061217d565b60048101805460ff60a01b1916600160a01b179055818101543384526009602052604084208054909161125f91612110565b905501546040519060243515158252602082015233907f7d9cd5d8664925284f55fc2d718b09ce8a6b6415d81ed3d99fa6ff7fa0aaeecb604060043592a36001815580f35b600435835260086020526112bb336040852061217d565b61122d565b634e487b7160e01b84526041600452602484fd5b6103a2915060203d6020116103a85761039a8183611dd4565b6040513d84823e3d90fd5b60405162461bcd60e51b81526020600482015260166024820152754e6f7420616e2061646d696e206368616c6c656e676560501b6044820152606490fd5b634e487b7160e01b83526021600452602483fd5b600191501438610508565b50346101585780600319360112610158576002546040516001600160a01b039091168152602090f35b5034610158578060031936011261015857611397611fc3565b600180546001600160a01b0319811690915581906001600160a01b03167f8be0079c531659141344cd1fd0a4f28419497f9722a3daafe3b4186f6b6457e08280a380f35b5034610158576020366003190112610158576113f5611d00565b6113fd611fc3565b6001600160a01b0316801561144557600380546001600160a01b031916821790557f54e4612788f90384e6843298d7854436f3a585b2c3831ab66abf1de63bfa6c2d8280a280f35b60405162461bcd60e51b815260206004820152600d60248201526c24b73b30b634b21030b236b4b760991b6044820152606490fd5b5034610158576040366003190112610158576080906040611499611d1b565b916004358152600660205281812060018060a01b0380941682526020522080549060ff80600260018401549301541692604051948116855260a01c1615156020840152604083015215156060820152f35b50346101585780600319360112610158576020600b54604051908152f35b503461015857608036600319011261015857611522611d00565b90604435906001600160a01b03821682036101585760643567ffffffffffffffff811161045557611557903690600401611e3d565b9061156061211d565b6001600160a01b0384161561193b576001600160a01b03841633146118f65761158c6024351515611fef565b6115a06001600160a01b038416151561202f565b6040516323b872dd60e01b815233600482015230602480830191909152356044820152602081606481856001600160a01b0389165af19081156112ed57906115ee9183916112d457506120cc565b600454916115fb8361206b565b6004556040519461160b86611da1565b8386526001602087015233604087015260018060a01b03166060860152602435608086015260018060a01b03841660a08601528160c08601528160e08601524261010086015281610120860152806101408601528282526005602052604082208551815560018101602087015160028110156118e25781546040890151610100600160a81b0360089190911b1660ff929092166001600160a81b03199091161717905560608601516002820180546001600160a01b039283166001600160a01b0319918216179091556080880151600384015560a08801516004840180549190931690821617825560c0880151909160058210156118ce57916117146101409492600894612090565b600582019060018060a01b0360e08b01511690825416179055610100880151600682015561012088015160078201550195015194855167ffffffffffffffff81116112c0576117638254611e9f565b601f8111611889575b506020968790601f831160011461181357928260008051602061231983398151915293889993600199968992611808575b5050600019600383901b1c191690881b1790555b33855260098852604085206117c96024358254612110565b90556040519086825260243589830152868060a01b0316604082015260806060820152806117fc33956080830190611d61565b0390a355604051908152f35b01519050388061179d565b8386528886209190601f198416875b81811061187257509388999360019996938a93836000805160206123198339815191529810611859575b505050811b0190556117b1565b015160001960f88460031b161c1916905538808061184c565b92938b600181928786015181550195019301611822565b82855260208520601f830160051c810191602084106118c4575b601f0160051c01905b8181106118b9575061176c565b8581556001016118ac565b90915081906118a3565b634e487b7160e01b86526021600452602486fd5b634e487b7160e01b85526021600452602485fd5b60405162461bcd60e51b815260206004820152601960248201527f43616e6e6f74206368616c6c656e676520796f757273656c66000000000000006044820152606490fd5b60405162461bcd60e51b815260206004820152601060248201526f125b9d985b1a59081bdc1c1bdb995b9d60821b6044820152606490fd5b503461015857602036600319011261015857606061014060405161199681611da1565b83815283602082015283604082015283838201528360808201528360a08201528360c08201528360e082015283610100820152836101208201520152600435815260056020526040812090604051906119ee82611da1565b82548252600183015460ff8116600281101561133657602084015260081c6001600160a01b03908116604084015260028401548116606084015260038401546080840152600484015490811660a0808501919091521c60ff16906005821015611b49575060c082015260058201546001600160a01b031660e08201526006820154610100820152600782015461012082015261014091611a9090600801611ed9565b828201526109016040519283926020845280516020850152611aba60208201516040860190611d31565b60018060a01b03604082015116606085015260018060a01b036060820151166080850152608081015160a085015260018060a01b0360a08201511660c0850152611b0c60c082015160e0860190611d54565b60018060a01b0360e08201511661010085015261010081015161012085015261012081015182850152015161016080840152610180830190611d61565b634e487b7160e01b81526021600452602490fd5b50346101585760208060031936011261045557611b78611d00565b611b80611fc3565b611b8861211d565b6040516370a0823160e01b81523060048201526001600160a01b0391909116908281602481855afa908115611c96578491611c69575b508015611c2e5760405163a9059cbb60e01b815233600482015260248101919091529082908290604490829087905af18015611c2357611c05575b8280600b556001815580f35b81611c1b92903d106103a85761039a8183611dd4565b503880611bf9565b6040513d85823e3d90fd5b60405162461bcd60e51b81526004810184905260136024820152724e6f206665657320746f20776974686472617760681b6044820152606490fd5b90508281813d8311611c8f575b611c808183611dd4565b81010312610734575138611bbe565b503d611c76565b6040513d86823e3d90fd5b503461015857602036600319011261015857600435611cbe611fc3565b60328111611ccc57600a5580f35b60405162461bcd60e51b815260206004820152600c60248201526b08ccaca40e8dede40d0d2ced60a31b6044820152606490fd5b600435906001600160a01b0382168203611d1657565b600080fd5b602435906001600160a01b0382168203611d1657565b906002821015611d3e5752565b634e487b7160e01b600052602160045260246000fd5b906005821015611d3e5752565b919082519283825260005b848110611d8d575050826000602080949584010152601f8019910116010190565b602081830181015184830182015201611d6c565b610160810190811067ffffffffffffffff821117611dbe57604052565b634e487b7160e01b600052604160045260246000fd5b90601f8019910116810190811067ffffffffffffffff821117611dbe57604052565b92919267ffffffffffffffff8211611dbe5760405191611e20601f8201601f191660200184611dd4565b829481845281830111611d16578281602093846000960137010152565b9080601f83011215611d1657816020611e5893359101611df6565b90565b6020908160408183019282815285518094520193019160005b828110611e82575050505090565b83516001600160a01b031685529381019392810192600101611e74565b90600182811c92168015611ecf575b6020831014611eb957565b634e487b7160e01b600052602260045260246000fd5b91607f1691611eae565b9060405191826000825492611eed84611e9f565b908184526001948581169081600014611f5c5750600114611f19575b5050611f1792500383611dd4565b565b9093915060005260209081600020936000915b818310611f44575050611f1793508201013880611f09565b85548884018501529485019487945091830191611f2c565b915050611f1794506020925060ff191682840152151560051b8201013880611f09565b6040906003190112611d16576004359060243590565b8054821015611fad5760005260206000200190600090565b634e487b7160e01b600052603260045260246000fd5b6001546001600160a01b03163303611fd757565b60405163118cdaa760e01b8152336004820152602490fd5b15611ff657565b60405162461bcd60e51b815260206004820152601160248201527005374616b65206d757374206265203e203607c1b6044820152606490fd5b1561203657565b60405162461bcd60e51b815260206004820152600d60248201526c24b73b30b634b2103a37b5b2b760991b6044820152606490fd5b600019811461207a5760010190565b634e487b7160e01b600052601160045260246000fd5b906005811015611d3e57815460ff60a01b191660a09190911b60ff60a01b16179055565b90816020910312611d1657518015158103611d165790565b156120d357565b60405162461bcd60e51b815260206004820152601560248201527414dd185ad9481d1c985b9cd9995c8819985a5b1959605a1b6044820152606490fd5b9190820180921161207a57565b60026000541461212e576002600055565b604051633ee5aeb560e01b8152600490fd5b1561214757565b60405162461bcd60e51b815260206004820152600e60248201526d496e76616c69642073746174757360901b6044820152606490fd5b805468010000000000000000811015611dbe5761219f91600182018155611f95565b819291549060031b9160018060a01b03809116831b921b1916179055565b8181029291811591840414171561207a57565b9190820391821161207a57565b815191906041830361220e5761220792506020820151906060604084015193015160001a90612219565b9192909190565b505060009160029190565b91907f7fffffffffffffffffffffffffffffff5d576e7357a4501ddfe92f46681b20a0841161229d57926020929160ff608095604051948552168484015260408301526060820152600092839182805260015afa156122915780516001600160a01b0381161561228857918190565b50809160019190565b604051903d90823e3d90fd5b50505060009160039190565b6004811015611d3e57806122bb575050565b600181036122d55760405163f645eedf60e01b8152600490fd5b600281036122f65760405163fce698f760e01b815260048101839052602490fd5b6003146123005750565b602490604051906335e2f38360e21b82526004820152fdfe54542980a84be9b3d5fa2be13aae3b78757b6ddf78c50ee9252cf07fbc9be8d2a26469706673582212203cf2ba82a7741103e879aef66775eedf7dfcd48f19da55b6ead007e5d149686d64736f6c63430008140033","opcodes":"PUSH1 0x80 CALLVALUE PUSH3 0x183 JUMPI PUSH3 0x2522 SWAP1 PUSH1 0x1F CODESIZE DUP4 SWAP1 SUB SWAP1 DUP2 ADD PUSH1 0x1F NOT AND DUP3 ADD SWAP1 PUSH1 0x1 PUSH1 0x1 PUSH1 0x40 SHL SUB DUP3 GT DUP4 DUP4 LT OR PUSH3 0x188 JUMPI DUP1 DUP4 SWAP2 PUSH1 0x40 SWAP6 DUP7 SWAP5 DUP6 MSTORE DUP4 CODECOPY DUP2 ADD SUB SLT PUSH3 0x183 JUMPI PUSH3 0x5D PUSH1 0x20 PUSH3 0x55 DUP4 PUSH3 0x19E JUMP JUMPDEST SWAP3 ADD PUSH3 0x19E JUMP JUMPDEST PUSH1 0x1 PUSH1 0x0 SSTORE CALLER ISZERO PUSH3 0x16B JUMPI PUSH1 0x1 DUP1 SLOAD CALLER PUSH1 0x1 PUSH1 0x1 PUSH1 0xA0 SHL SUB NOT DUP1 DUP4 AND DUP3 OR SWAP1 SWAP4 SSTORE DUP6 MLOAD SWAP5 SWAP3 SWAP4 PUSH1 0x1 PUSH1 0x1 PUSH1 0xA0 SHL SUB SWAP4 SWAP1 SWAP3 DUP5 SWAP3 SWAP1 DUP4 AND PUSH32 0x8BE0079C531659141344CD1FD0A4F28419497F9722A3DAAFE3B4186F6B6457E0 PUSH1 0x0 DUP1 LOG3 PUSH1 0x1 PUSH1 0x4 SSTORE PUSH1 0x1 PUSH1 0xA SSTORE AND SWAP4 DUP5 ISZERO PUSH3 0x129 JUMPI POP AND SWAP2 DUP3 ISZERO PUSH3 0xF5 JUMPI DUP2 PUSH1 0x2 SLOAD AND OR PUSH1 0x2 SSTORE PUSH1 0x3 SLOAD AND OR PUSH1 0x3 SSTORE MLOAD PUSH2 0x236E SWAP1 DUP2 PUSH3 0x1B4 DUP3 CODECOPY RETURN JUMPDEST DUP4 MLOAD PUSH3 0x461BCD PUSH1 0xE5 SHL DUP2 MSTORE PUSH1 0x20 PUSH1 0x4 DUP3 ADD MSTORE PUSH1 0xD PUSH1 0x24 DUP3 ADD MSTORE PUSH13 0x24B73B30B634B21030B236B4B7 PUSH1 0x99 SHL PUSH1 0x44 DUP3 ADD MSTORE PUSH1 0x64 SWAP1 REVERT JUMPDEST PUSH3 0x461BCD PUSH1 0xE5 SHL DUP2 MSTORE PUSH1 0x20 PUSH1 0x4 DUP3 ADD MSTORE PUSH1 0x14 PUSH1 0x24 DUP3 ADD MSTORE PUSH32 0x496E76616C696420706F696E747320746F6B656E000000000000000000000000 PUSH1 0x44 DUP3 ADD MSTORE PUSH1 0x64 SWAP1 REVERT JUMPDEST DUP3 MLOAD PUSH4 0x1E4FBDF7 PUSH1 0xE0 SHL DUP2 MSTORE PUSH1 0x0 PUSH1 0x4 DUP3 ADD MSTORE PUSH1 0x24 SWAP1 REVERT JUMPDEST PUSH1 0x0 DUP1 REVERT JUMPDEST PUSH4 0x4E487B71 PUSH1 0xE0 SHL PUSH1 0x0 MSTORE PUSH1 0x41 PUSH1 0x4 MSTORE PUSH1 0x24 PUSH1 0x0 REVERT JUMPDEST MLOAD SWAP1 PUSH1 0x1 PUSH1 0x1 PUSH1 0xA0 SHL SUB DUP3 AND DUP3 SUB PUSH3 0x183 JUMPI JUMP INVALID PUSH1 0x80 PUSH1 0x40 MSTORE PUSH1 0x4 CALLDATASIZE LT ISZERO PUSH2 0x12 JUMPI PUSH1 0x0 DUP1 REVERT JUMPDEST PUSH1 0x0 DUP1 CALLDATALOAD PUSH1 0xE0 SHR DUP1 PUSH4 0x12E8E2C3 EQ PUSH2 0x1CA1 JUMPI DUP1 PUSH4 0x164E68DE EQ PUSH2 0x1B5D JUMPI DUP1 PUSH4 0x1BDD4B74 EQ PUSH2 0x1973 JUMPI DUP1 PUSH4 0x4B0A1110 EQ PUSH2 0x1508 JUMPI DUP1 PUSH4 0x60C6D8AE EQ PUSH2 0x14EA JUMPI DUP1 PUSH4 0x60D899CC EQ PUSH2 0x147A JUMPI DUP1 PUSH4 0x704B6C02 EQ PUSH2 0x13DB JUMPI DUP1 PUSH4 0x715018A6 EQ PUSH2 0x137E JUMPI DUP1 PUSH4 0x72E1011C EQ PUSH2 0x1355 JUMPI DUP1 PUSH4 0x7BA6A324 EQ PUSH2 0x109B JUMPI DUP1 PUSH4 0x87A0A4EF EQ PUSH2 0x102D JUMPI DUP1 PUSH4 0x8A69614E EQ PUSH2 0xDAD JUMPI DUP1 PUSH4 0x8BF6564B EQ PUSH2 0xA1E JUMPI DUP1 PUSH4 0x8DA5CB5B EQ PUSH2 0x9F5 JUMPI DUP1 PUSH4 0x8F1D3776 EQ PUSH2 0x925 JUMPI DUP1 PUSH4 0x9598C130 EQ PUSH2 0x83C JUMPI DUP1 PUSH4 0xA3643C9C EQ PUSH2 0x8A7 JUMPI DUP1 PUSH4 0xACDC9ADA EQ PUSH2 0x875 JUMPI DUP1 PUSH4 0xAECC1437 EQ PUSH2 0x83C JUMPI DUP1 PUSH4 0xB9C22113 EQ PUSH2 0x477 JUMPI DUP1 PUSH4 0xCDD78CFC EQ PUSH2 0x459 JUMPI DUP1 PUSH4 0xD35202E8 EQ PUSH2 0x25F JUMPI DUP1 PUSH4 0xF272F674 EQ PUSH2 0x214 JUMPI DUP1 PUSH4 0xF2FDE38B EQ PUSH2 0x184 JUMPI DUP1 PUSH4 0xF851A440 EQ PUSH2 0x15B JUMPI PUSH4 0xFC67AA50 EQ PUSH2 0x13B JUMPI PUSH1 0x0 DUP1 REVERT JUMPDEST CALLVALUE PUSH2 0x158 JUMPI DUP1 PUSH1 0x3 NOT CALLDATASIZE ADD SLT PUSH2 0x158 JUMPI PUSH1 0x20 PUSH1 0x4 SLOAD PUSH1 0x40 MLOAD SWAP1 DUP2 MSTORE RETURN JUMPDEST DUP1 REVERT JUMPDEST POP CALLVALUE PUSH2 0x158 JUMPI DUP1 PUSH1 0x3 NOT CALLDATASIZE ADD SLT PUSH2 0x158 JUMPI PUSH1 0x3 SLOAD PUSH1 0x40 MLOAD PUSH1 0x1 PUSH1 0x1 PUSH1 0xA0 SHL SUB SWAP1 SWAP2 AND DUP2 MSTORE PUSH1 0x20 SWAP1 RETURN JUMPDEST POP CALLVALUE PUSH2 0x158 JUMPI PUSH1 0x20 CALLDATASIZE PUSH1 0x3 NOT ADD SLT PUSH2 0x158 JUMPI PUSH2 0x19E PUSH2 0x1D00 JUMP JUMPDEST PUSH2 0x1A6 PUSH2 0x1FC3 JUMP JUMPDEST PUSH1 0x1 PUSH1 0x1 PUSH1 0xA0 SHL SUB SWAP1 DUP2 AND SWAP1 DUP2 ISZERO PUSH2 0x1FB JUMPI PUSH1 0x1 SLOAD DUP3 PUSH12 0xFFFFFFFFFFFFFFFFFFFFFFFF PUSH1 0xA0 SHL DUP3 AND OR PUSH1 0x1 SSTORE AND PUSH32 0x8BE0079C531659141344CD1FD0A4F28419497F9722A3DAAFE3B4186F6B6457E0 PUSH1 0x0 DUP1 LOG3 DUP1 RETURN JUMPDEST PUSH1 0x40 MLOAD PUSH4 0x1E4FBDF7 PUSH1 0xE0 SHL DUP2 MSTORE PUSH1 0x4 DUP2 ADD DUP5 SWAP1 MSTORE PUSH1 0x24 SWAP1 REVERT JUMPDEST POP CALLVALUE PUSH2 0x158 JUMPI PUSH2 0x223 CALLDATASIZE PUSH2 0x1F7F JUMP JUMPDEST SWAP2 SWAP1 DUP2 MSTORE PUSH1 0x7 PUSH1 0x20 MSTORE PUSH1 0x40 DUP2 KECCAK256 SWAP1 DUP2 SLOAD DUP4 LT ISZERO PUSH2 0x158 JUMPI PUSH1 0x20 PUSH2 0x246 DUP5 DUP5 PUSH2 0x1F95 JUMP JUMPDEST SWAP1 SLOAD PUSH1 0x40 MLOAD PUSH1 0x3 SWAP3 SWAP1 SWAP3 SHL SHR PUSH1 0x1 PUSH1 0x1 PUSH1 0xA0 SHL SUB AND DUP2 MSTORE RETURN JUMPDEST POP CALLVALUE PUSH2 0x158 JUMPI PUSH1 0x20 DUP1 PUSH1 0x3 NOT CALLDATASIZE ADD SLT PUSH2 0x455 JUMPI PUSH1 0x4 CALLDATALOAD SWAP1 PUSH2 0x27E PUSH2 0x211D JUMP JUMPDEST DUP2 DUP4 MSTORE PUSH1 0x5 DUP2 MSTORE PUSH1 0x40 DUP4 KECCAK256 PUSH1 0x4 DUP2 ADD DUP1 SLOAD SWAP1 PUSH1 0xFF DUP3 PUSH1 0xA0 SHR AND PUSH1 0x5 DUP2 LT ISZERO PUSH2 0x441 JUMPI PUSH2 0x2AA SWAP1 ISZERO PUSH2 0x2140 JUMP JUMPDEST PUSH1 0x2 DUP4 ADD SLOAD PUSH1 0x1 PUSH1 0x1 PUSH1 0xA0 SHL SUB SWAP4 SWAP1 DUP5 AND CALLER SUB PUSH2 0x409 JUMPI PUSH1 0xFF PUSH1 0x1 DUP3 ADD SLOAD AND PUSH1 0x2 DUP2 LT ISZERO PUSH2 0x3F5 JUMPI PUSH1 0x1 SUB PUSH2 0x3BA JUMPI PUSH1 0x3 ADD DUP1 SLOAD PUSH1 0x40 MLOAD PUSH4 0x23B872DD PUSH1 0xE0 SHL DUP2 MSTORE CALLER PUSH1 0x4 DUP3 ADD MSTORE ADDRESS PUSH1 0x24 DUP3 ADD MSTORE PUSH1 0x44 DUP2 ADD SWAP2 SWAP1 SWAP2 MSTORE SWAP4 SWAP1 SWAP3 DUP6 SWAP2 DUP6 SWAP2 PUSH1 0x64 SWAP2 DUP4 SWAP2 DUP12 SWAP2 AND GAS CALL SWAP3 DUP4 ISZERO PUSH2 0x3AF JUMPI PUSH1 0x9 SWAP4 PUSH2 0x32B SWAP2 DUP9 SWAP2 PUSH2 0x382 JUMPI JUMPDEST POP PUSH2 0x20CC JUMP JUMPDEST DUP1 SLOAD PUSH1 0xFF PUSH1 0xA0 SHL NOT AND PUSH1 0x1 PUSH1 0xA0 SHL OR SWAP1 SSTORE SLOAD CALLER DUP6 MSTORE SWAP2 MSTORE PUSH1 0x40 DUP4 KECCAK256 DUP1 SLOAD SWAP1 SWAP2 PUSH2 0x353 SWAP2 PUSH2 0x2110 JUMP JUMPDEST SWAP1 SSTORE CALLER SWAP1 PUSH32 0xD984AC8050A068DB0ADA14B33626B418E0CDFBAD700867C1F3E0AB23CF123B33 DUP4 DUP1 LOG3 PUSH1 0x1 DUP2 SSTORE DUP1 RETURN JUMPDEST PUSH2 0x3A2 SWAP2 POP DUP7 RETURNDATASIZE DUP9 GT PUSH2 0x3A8 JUMPI JUMPDEST PUSH2 0x39A DUP2 DUP4 PUSH2 0x1DD4 JUMP JUMPDEST DUP2 ADD SWAP1 PUSH2 0x20B4 JUMP JUMPDEST CODESIZE PUSH2 0x325 JUMP JUMPDEST POP RETURNDATASIZE PUSH2 0x390 JUMP JUMPDEST PUSH1 0x40 MLOAD RETURNDATASIZE DUP9 DUP3 RETURNDATACOPY RETURNDATASIZE SWAP1 REVERT JUMPDEST PUSH1 0x40 MLOAD PUSH3 0x461BCD PUSH1 0xE5 SHL DUP2 MSTORE PUSH1 0x4 DUP2 ADD DUP7 SWAP1 MSTORE PUSH1 0x13 PUSH1 0x24 DUP3 ADD MSTORE PUSH19 0x4E6F74206120503250206368616C6C656E6765 PUSH1 0x68 SHL PUSH1 0x44 DUP3 ADD MSTORE PUSH1 0x64 SWAP1 REVERT JUMPDEST PUSH4 0x4E487B71 PUSH1 0xE0 SHL DUP9 MSTORE PUSH1 0x21 PUSH1 0x4 MSTORE PUSH1 0x24 DUP9 REVERT JUMPDEST PUSH1 0x40 MLOAD PUSH3 0x461BCD PUSH1 0xE5 SHL DUP2 MSTORE PUSH1 0x4 DUP2 ADD DUP7 SWAP1 MSTORE PUSH1 0x10 PUSH1 0x24 DUP3 ADD MSTORE PUSH16 0x2737BA103A34329030B1B1B2B83A37B9 PUSH1 0x81 SHL PUSH1 0x44 DUP3 ADD MSTORE PUSH1 0x64 SWAP1 REVERT JUMPDEST PUSH4 0x4E487B71 PUSH1 0xE0 SHL DUP8 MSTORE PUSH1 0x21 PUSH1 0x4 MSTORE PUSH1 0x24 DUP8 REVERT JUMPDEST POP DUP1 REVERT JUMPDEST POP CALLVALUE PUSH2 0x158 JUMPI DUP1 PUSH1 0x3 NOT CALLDATASIZE ADD SLT PUSH2 0x158 JUMPI PUSH1 0x20 PUSH1 0xA SLOAD PUSH1 0x40 MLOAD SWAP1 DUP2 MSTORE RETURN JUMPDEST POP CALLVALUE PUSH2 0x158 JUMPI PUSH1 0x80 CALLDATASIZE PUSH1 0x3 NOT ADD SLT PUSH2 0x158 JUMPI PUSH1 0x4 CALLDATALOAD PUSH2 0x494 PUSH2 0x1D1B JUMP JUMPDEST SWAP1 PUSH1 0x64 CALLDATALOAD PUSH1 0x44 CALLDATALOAD PUSH8 0xFFFFFFFFFFFFFFFF DUP1 DUP4 GT PUSH2 0x838 JUMPI CALLDATASIZE PUSH1 0x23 DUP5 ADD SLT ISZERO PUSH2 0x838 JUMPI PUSH2 0x4CB PUSH1 0x24 SWAP4 CALLDATASIZE SWAP1 DUP6 DUP2 PUSH1 0x4 ADD CALLDATALOAD SWAP2 ADD PUSH2 0x1DF6 JUMP JUMPDEST SWAP3 PUSH2 0x4D4 PUSH2 0x211D JUMP JUMPDEST DUP5 DUP8 MSTORE PUSH1 0x20 SWAP2 PUSH1 0x5 DUP4 MSTORE PUSH1 0x40 DUP9 KECCAK256 PUSH1 0x4 DUP2 ADD DUP1 SLOAD PUSH1 0xFF DUP2 PUSH1 0xA0 SHR AND PUSH1 0x5 DUP2 LT ISZERO PUSH2 0x825 JUMPI DUP1 PUSH1 0x1 PUSH2 0x50E SWAP3 EQ SWAP1 DUP2 ISZERO PUSH2 0x81C JUMPI JUMPDEST POP PUSH2 0x2140 JUMP JUMPDEST PUSH1 0x1 PUSH1 0x1 PUSH1 0xA0 SHL SUB DUP11 DUP2 AND SWAP11 SWAP1 SWAP9 SWAP1 DUP12 ISZERO PUSH2 0x7E7 JUMPI PUSH1 0x40 MLOAD DUP9 DUP2 ADD SWAP2 DUP13 DUP4 MSTORE PUSH12 0xFFFFFFFFFFFFFFFFFFFFFFFF NOT SWAP1 PUSH1 0x60 SHL AND PUSH1 0x40 DUP3 ADD MSTORE DUP10 PUSH1 0x54 DUP3 ADD MSTORE PUSH1 0x54 DUP2 MSTORE PUSH1 0x80 DUP2 ADD DUP2 DUP2 LT DUP9 DUP3 GT OR PUSH2 0x7D4 JUMPI PUSH1 0x40 MSTORE MLOAD SWAP1 KECCAK256 PUSH32 0x19457468657265756D205369676E6564204D6573736167653A0A333200000000 DUP14 MSTORE PUSH1 0x1C MSTORE PUSH1 0x3C DUP13 KECCAK256 PUSH2 0x5A4 SWAP2 PUSH2 0x59B SWAP2 PUSH2 0x21DD JUMP JUMPDEST SWAP1 SWAP3 SWAP2 SWAP3 PUSH2 0x22A9 JUMP JUMPDEST DUP9 DUP1 PUSH1 0x3 SLOAD AND SWAP2 AND SUB PUSH2 0x790 JUMPI PUSH1 0xFF PUSH1 0xA0 SHL NOT AND PUSH1 0x1 PUSH1 0xA1 SHL OR SWAP1 SSTORE PUSH1 0x5 DUP2 ADD DUP1 SLOAD PUSH1 0x1 PUSH1 0x1 PUSH1 0xA0 SHL SUB NOT AND DUP10 OR SWAP1 SSTORE TIMESTAMP PUSH1 0x7 DUP3 ADD SSTORE PUSH1 0x1 DUP2 ADD SLOAD PUSH1 0xFF AND PUSH1 0x2 DUP2 LT ISZERO PUSH2 0x77D JUMPI DUP10 SWAP4 SWAP3 SWAP2 SWAP1 PUSH1 0x1 SUB PUSH2 0x74B JUMPI PUSH1 0x3 SWAP2 SWAP3 SWAP4 POP ADD SLOAD DUP1 PUSH1 0x1 SHL SWAP1 DUP1 DUP3 DIV PUSH1 0x2 EQ SWAP1 ISZERO OR ISZERO PUSH2 0x738 JUMPI SWAP1 DUP9 SWAP3 SWAP2 SWAP6 JUMPDEST PUSH2 0x63E PUSH2 0x635 PUSH2 0x3E8 PUSH2 0x62D PUSH1 0xA SLOAD DUP12 PUSH2 0x21BD JUMP JUMPDEST DIV DUP1 SWAP10 PUSH2 0x21D0 JUMP JUMPDEST SWAP8 PUSH1 0xB SLOAD PUSH2 0x2110 JUMP JUMPDEST PUSH1 0xB SSTORE PUSH1 0x2 SLOAD AND DUP1 EXTCODESIZE ISZERO PUSH2 0x734 JUMPI DUP4 SWAP1 PUSH1 0xC4 PUSH1 0x40 MLOAD DUP1 SWAP7 DUP2 SWAP4 PUSH4 0x1FE18A17 PUSH1 0xE2 SHL DUP4 MSTORE DUP14 PUSH1 0x4 DUP5 ADD MSTORE DUP11 DUP9 DUP5 ADD MSTORE DUP13 PUSH1 0x44 DUP5 ADD MSTORE PUSH1 0x80 PUSH1 0x64 DUP5 ADD MSTORE PUSH1 0xD PUSH1 0x84 DUP5 ADD MSTORE PUSH13 0x31B430B63632B733B2AFBBB4B7 PUSH1 0x99 SHL PUSH1 0xA4 DUP5 ADD MSTORE GAS CALL DUP1 ISZERO PUSH2 0x729 JUMPI PUSH2 0x6DC JUMPI JUMPDEST POP POP POP SWAP2 PUSH1 0x40 SWAP2 PUSH32 0x48D04219F73523E45F2EF87F1DFB115FDEC44D443C1406E0A7F9BBA9B73AC80A SWAP4 DUP4 MLOAD SWAP3 DUP4 MSTORE DUP3 ADD MSTORE LOG3 PUSH1 0x1 DUP2 SSTORE DUP1 RETURN JUMPDEST DUP3 SWAP9 SWAP4 SWAP9 GT PUSH2 0x717 JUMPI POP PUSH1 0x40 SWAP1 DUP2 MSTORE SWAP1 SWAP6 SWAP1 DUP3 SWAP1 PUSH32 0x48D04219F73523E45F2EF87F1DFB115FDEC44D443C1406E0A7F9BBA9B73AC80A SWAP1 PUSH2 0x6A3 JUMP JUMPDEST PUSH4 0x4E487B71 PUSH1 0xE0 SHL DUP4 MSTORE PUSH1 0x41 PUSH1 0x4 MSTORE DUP3 REVERT JUMPDEST PUSH1 0x40 MLOAD RETURNDATASIZE DUP12 DUP3 RETURNDATACOPY RETURNDATASIZE SWAP1 REVERT JUMPDEST DUP4 DUP1 REVERT JUMPDEST PUSH4 0x4E487B71 PUSH1 0xE0 SHL DUP10 MSTORE PUSH1 0x11 PUSH1 0x4 MSTORE DUP3 DUP10 REVERT JUMPDEST PUSH1 0x3 PUSH2 0x777 SWAP2 ADD SLOAD DUP9 DUP6 MSTORE PUSH1 0x7 DUP7 MSTORE PUSH2 0x771 PUSH1 0x40 DUP7 KECCAK256 SLOAD PUSH1 0x8 DUP9 MSTORE PUSH1 0x40 DUP8 KECCAK256 SLOAD SWAP1 PUSH2 0x2110 JUMP JUMPDEST SWAP1 PUSH2 0x21BD JUMP JUMPDEST SWAP6 PUSH2 0x618 JUMP JUMPDEST PUSH4 0x4E487B71 PUSH1 0xE0 SHL DUP11 MSTORE PUSH1 0x21 PUSH1 0x4 MSTORE DUP4 DUP11 REVERT JUMPDEST PUSH1 0x40 MLOAD PUSH3 0x461BCD PUSH1 0xE5 SHL DUP2 MSTORE PUSH1 0x4 DUP2 ADD DUP8 SWAP1 MSTORE PUSH1 0x17 DUP2 DUP8 ADD MSTORE PUSH32 0x496E76616C69642061646D696E207369676E6174757265000000000000000000 PUSH1 0x44 DUP3 ADD MSTORE PUSH1 0x64 SWAP1 REVERT JUMPDEST PUSH4 0x4E487B71 PUSH1 0xE0 SHL DUP16 MSTORE PUSH1 0x41 PUSH1 0x4 MSTORE DUP9 DUP16 REVERT JUMPDEST PUSH1 0x40 MLOAD PUSH3 0x461BCD PUSH1 0xE5 SHL DUP2 MSTORE PUSH1 0x4 DUP2 ADD DUP10 SWAP1 MSTORE PUSH1 0xE DUP2 DUP10 ADD MSTORE PUSH14 0x24B73B30B634B2103BB4B73732B9 PUSH1 0x91 SHL PUSH1 0x44 DUP3 ADD MSTORE PUSH1 0x64 SWAP1 REVERT JUMPDEST SWAP1 POP ISZERO CODESIZE PUSH2 0x508 JUMP JUMPDEST PUSH4 0x4E487B71 PUSH1 0xE0 SHL DUP13 MSTORE PUSH1 0x21 PUSH1 0x4 MSTORE DUP6 DUP13 REVERT JUMPDEST DUP6 DUP1 REVERT JUMPDEST POP CALLVALUE PUSH2 0x158 JUMPI PUSH1 0x20 CALLDATASIZE PUSH1 0x3 NOT ADD SLT PUSH2 0x158 JUMPI PUSH1 0x20 SWAP1 PUSH1 0x40 SWAP1 PUSH1 0x1 PUSH1 0x1 PUSH1 0xA0 SHL SUB PUSH2 0x864 PUSH2 0x1D00 JUMP JUMPDEST AND DUP2 MSTORE PUSH1 0x9 DUP4 MSTORE KECCAK256 SLOAD PUSH1 0x40 MLOAD SWAP1 DUP2 MSTORE RETURN JUMPDEST POP CALLVALUE PUSH2 0x158 JUMPI PUSH2 0x884 CALLDATASIZE PUSH2 0x1F7F JUMP JUMPDEST SWAP2 SWAP1 DUP2 MSTORE PUSH1 0x8 PUSH1 0x20 MSTORE PUSH1 0x40 DUP2 KECCAK256 SWAP1 DUP2 SLOAD DUP4 LT ISZERO PUSH2 0x158 JUMPI PUSH1 0x20 PUSH2 0x246 DUP5 DUP5 PUSH2 0x1F95 JUMP JUMPDEST POP CALLVALUE PUSH2 0x158 JUMPI PUSH1 0x20 DUP1 PUSH1 0x3 NOT CALLDATASIZE ADD SLT PUSH2 0x455 JUMPI PUSH1 0x4 CALLDATALOAD DUP3 MSTORE PUSH1 0x8 DUP2 MSTORE PUSH1 0x40 DUP3 KECCAK256 SWAP2 PUSH1 0x40 MLOAD DUP1 SWAP3 DUP1 DUP6 SLOAD SWAP3 DUP4 DUP2 MSTORE ADD SWAP5 DUP4 MSTORE DUP1 DUP4 KECCAK256 SWAP3 SWAP1 JUMPDEST DUP3 DUP3 LT PUSH2 0x905 JUMPI PUSH2 0x901 DUP6 PUSH2 0x8F5 DUP2 DUP10 SUB DUP3 PUSH2 0x1DD4 JUMP JUMPDEST PUSH1 0x40 MLOAD SWAP2 DUP3 SWAP2 DUP3 PUSH2 0x1E5B JUMP JUMPDEST SUB SWAP1 RETURN JUMPDEST DUP4 SLOAD PUSH1 0x1 PUSH1 0x1 PUSH1 0xA0 SHL SUB AND DUP7 MSTORE SWAP5 DUP6 ADD SWAP5 PUSH1 0x1 SWAP4 DUP5 ADD SWAP4 SWAP1 SWAP2 ADD SWAP1 PUSH2 0x8DE JUMP JUMPDEST POP CALLVALUE PUSH2 0x158 JUMPI PUSH1 0x20 CALLDATASIZE PUSH1 0x3 NOT ADD SLT PUSH2 0x158 JUMPI PUSH1 0x40 PUSH1 0x20 SWAP2 PUSH1 0x4 CALLDATALOAD DUP2 MSTORE PUSH1 0x5 DUP4 MSTORE KECCAK256 PUSH2 0x901 DUP2 SLOAD SWAP2 PUSH1 0x1 DUP2 ADD SLOAD SWAP1 PUSH1 0x1 DUP1 PUSH1 0xA0 SHL SUB DUP1 PUSH1 0x2 DUP4 ADD SLOAD AND SWAP1 PUSH2 0x9D2 PUSH1 0x3 DUP5 ADD SLOAD SWAP2 PUSH1 0x4 DUP6 ADD SLOAD SWAP1 DUP1 PUSH1 0x5 DUP8 ADD SLOAD AND SWAP4 PUSH1 0x6 DUP8 ADD SLOAD SWAP6 DUP3 PUSH2 0x990 PUSH1 0x8 PUSH1 0x7 DUP12 ADD SLOAD SWAP11 ADD PUSH2 0x1ED9 JUMP JUMPDEST SWAP10 PUSH2 0x9A8 PUSH1 0x40 MLOAD SWAP15 DUP16 SWAP15 DUP16 SWAP1 DUP2 MSTORE ADD PUSH1 0xFF DUP4 AND PUSH2 0x1D31 JUMP JUMPDEST PUSH1 0x8 SHR AND PUSH1 0x40 DUP13 ADD MSTORE PUSH1 0x60 DUP12 ADD MSTORE PUSH1 0x80 DUP11 ADD MSTORE DUP2 AND PUSH1 0xA0 DUP10 ADD MSTORE PUSH1 0xFF PUSH1 0xC0 DUP10 ADD SWAP2 PUSH1 0xA0 SHR AND PUSH2 0x1D54 JUMP JUMPDEST PUSH1 0xE0 DUP7 ADD MSTORE PUSH2 0x100 DUP6 ADD MSTORE PUSH2 0x120 DUP5 ADD MSTORE PUSH2 0x160 DUP1 PUSH2 0x140 DUP6 ADD MSTORE DUP4 ADD SWAP1 PUSH2 0x1D61 JUMP JUMPDEST POP CALLVALUE PUSH2 0x158 JUMPI DUP1 PUSH1 0x3 NOT CALLDATASIZE ADD SLT PUSH2 0x158 JUMPI PUSH1 0x1 SLOAD PUSH1 0x40 MLOAD PUSH1 0x1 PUSH1 0x1 PUSH1 0xA0 SHL SUB SWAP1 SWAP2 AND DUP2 MSTORE PUSH1 0x20 SWAP1 RETURN JUMPDEST POP CALLVALUE PUSH2 0x158 JUMPI PUSH1 0x60 CALLDATASIZE PUSH1 0x3 NOT ADD SLT PUSH2 0x158 JUMPI PUSH2 0xA38 PUSH2 0x1D1B JUMP JUMPDEST PUSH1 0x44 CALLDATALOAD PUSH8 0xFFFFFFFFFFFFFFFF DUP2 GT PUSH2 0xDA9 JUMPI PUSH2 0xA58 SWAP1 CALLDATASIZE SWAP1 PUSH1 0x4 ADD PUSH2 0x1E3D JUMP JUMPDEST PUSH2 0xA60 PUSH2 0x1FC3 JUMP JUMPDEST PUSH2 0xA6D PUSH1 0x4 CALLDATALOAD ISZERO ISZERO PUSH2 0x1FEF JUMP JUMPDEST PUSH2 0xA81 PUSH1 0x1 PUSH1 0x1 PUSH1 0xA0 SHL SUB DUP4 AND ISZERO ISZERO PUSH2 0x202F JUMP JUMPDEST DUP1 MLOAD ISZERO PUSH2 0xD71 JUMPI PUSH1 0x4 SLOAD SWAP2 PUSH2 0xA95 DUP4 PUSH2 0x206B JUMP JUMPDEST PUSH1 0x4 SSTORE PUSH1 0x40 MLOAD SWAP1 PUSH2 0xAA5 DUP3 PUSH2 0x1DA1 JUMP JUMPDEST DUP4 DUP3 MSTORE PUSH1 0x20 DUP3 ADD DUP6 DUP2 MSTORE CALLER PUSH1 0x40 DUP5 ADD MSTORE DUP6 PUSH1 0x60 DUP5 ADD MSTORE PUSH1 0x4 CALLDATALOAD PUSH1 0x80 DUP5 ADD MSTORE PUSH1 0x1 DUP1 PUSH1 0xA0 SHL SUB DUP3 AND PUSH1 0xA0 DUP5 ADD MSTORE DUP6 PUSH1 0xC0 DUP5 ADD MSTORE DUP6 PUSH1 0xE0 DUP5 ADD MSTORE TIMESTAMP PUSH2 0x100 DUP5 ADD MSTORE DUP6 PUSH2 0x120 DUP5 ADD MSTORE DUP4 PUSH2 0x140 DUP5 ADD MSTORE DUP5 DUP7 MSTORE PUSH1 0x5 PUSH1 0x20 MSTORE PUSH1 0x40 DUP7 KECCAK256 SWAP1 DUP4 MLOAD DUP3 SSTORE MLOAD PUSH1 0x2 DUP2 LT ISZERO PUSH2 0x441 JUMPI PUSH1 0x1 DUP3 ADD DUP1 SLOAD PUSH1 0x40 DUP7 ADD MLOAD PUSH2 0x100 PUSH1 0x1 PUSH1 0xA8 SHL SUB PUSH1 0x8 SWAP2 SWAP1 SWAP2 SHL AND PUSH1 0xFF SWAP4 SWAP1 SWAP4 AND PUSH1 0x1 PUSH1 0x1 PUSH1 0xA8 SHL SUB NOT SWAP1 SWAP2 AND OR SWAP2 SWAP1 SWAP2 OR SWAP1 SSTORE PUSH1 0x60 DUP4 ADD MLOAD PUSH1 0x2 DUP3 ADD DUP1 SLOAD PUSH1 0x1 PUSH1 0x1 PUSH1 0xA0 SHL SUB SWAP3 DUP4 AND PUSH1 0x1 PUSH1 0x1 PUSH1 0xA0 SHL SUB NOT SWAP2 DUP3 AND OR SWAP1 SWAP2 SSTORE PUSH1 0x80 DUP6 ADD MLOAD PUSH1 0x3 DUP5 ADD SSTORE PUSH1 0xA0 DUP6 ADD MLOAD PUSH1 0x4 DUP5 ADD DUP1 SLOAD SWAP2 SWAP1 SWAP4 AND SWAP1 DUP3 AND OR DUP3 SSTORE PUSH1 0xC0 DUP6 ADD MLOAD SWAP1 SWAP2 PUSH1 0x5 DUP3 LT ISZERO PUSH2 0xD5D JUMPI SWAP2 PUSH2 0xBA7 PUSH2 0x140 SWAP5 SWAP3 PUSH1 0x8 SWAP5 PUSH2 0x2090 JUMP JUMPDEST PUSH1 0x5 DUP3 ADD SWAP1 PUSH1 0x1 DUP1 PUSH1 0xA0 SHL SUB PUSH1 0xE0 DUP9 ADD MLOAD AND SWAP1 DUP3 SLOAD AND OR SWAP1 SSTORE PUSH2 0x100 DUP6 ADD MLOAD PUSH1 0x6 DUP3 ADD SSTORE PUSH2 0x120 DUP6 ADD MLOAD PUSH1 0x7 DUP3 ADD SSTORE ADD SWAP3 ADD MLOAD SWAP2 DUP3 MLOAD SWAP3 PUSH8 0xFFFFFFFFFFFFFFFF DUP5 GT PUSH2 0xD49 JUMPI PUSH2 0xBF7 DUP3 SLOAD PUSH2 0x1E9F JUMP JUMPDEST PUSH1 0x1F DUP2 GT PUSH2 0xD04 JUMPI JUMPDEST POP SWAP2 DUP7 SWAP2 DUP7 SWAP4 PUSH1 0x20 SWAP9 POP DUP9 SWAP1 PUSH1 0x1F DUP8 GT PUSH1 0x1 EQ PUSH2 0xC8E JUMPI SWAP6 DUP1 SWAP2 PUSH1 0x0 DUP1 MLOAD PUSH1 0x20 PUSH2 0x2319 DUP4 CODECOPY DUP2 MLOAD SWAP2 MSTORE SWAP7 SWAP8 DUP7 SWAP3 PUSH2 0xC83 JUMPI JUMPDEST POP POP DUP2 PUSH1 0x1 SHL SWAP2 PUSH1 0x0 NOT SWAP1 PUSH1 0x3 SHL SHR NOT AND OR SWAP1 SSTORE JUMPDEST PUSH1 0x40 MLOAD SWAP2 DUP3 MSTORE PUSH1 0x4 CALLDATALOAD DUP8 DUP4 ADD MSTORE PUSH1 0x1 DUP1 PUSH1 0xA0 SHL SUB AND PUSH1 0x40 DUP3 ADD MSTORE PUSH1 0x80 PUSH1 0x60 DUP3 ADD MSTORE DUP1 PUSH2 0xC78 CALLER SWAP6 PUSH1 0x80 DUP4 ADD SWAP1 PUSH2 0x1D61 JUMP JUMPDEST SUB SWAP1 LOG3 PUSH1 0x40 MLOAD SWAP1 DUP2 MSTORE RETURN JUMPDEST ADD MLOAD SWAP1 POP CODESIZE DUP1 PUSH2 0xC32 JUMP JUMPDEST DUP3 DUP6 MSTORE DUP10 DUP6 KECCAK256 SWAP7 SWAP2 SWAP1 PUSH1 0x1F NOT DUP4 AND DUP7 JUMPDEST DUP2 DUP2 LT PUSH2 0xCEA JUMPI POP SWAP2 PUSH1 0x0 DUP1 MLOAD PUSH1 0x20 PUSH2 0x2319 DUP4 CODECOPY DUP2 MLOAD SWAP2 MSTORE SWAP8 SWAP9 SWAP2 DUP5 PUSH1 0x1 SWAP6 SWAP5 LT PUSH2 0xCD1 JUMPI JUMPDEST POP POP POP DUP2 SHL ADD SWAP1 SSTORE PUSH2 0xC47 JUMP JUMPDEST ADD MLOAD PUSH1 0x0 NOT PUSH1 0xF8 DUP5 PUSH1 0x3 SHL AND SHR NOT AND SWAP1 SSTORE CODESIZE DUP1 DUP1 PUSH2 0xCC4 JUMP JUMPDEST DUP4 DUP4 ADD MLOAD DUP11 SSTORE PUSH1 0x1 SWAP1 SWAP10 ADD SWAP9 DUP12 SWAP9 POP SWAP3 DUP13 ADD SWAP3 DUP13 ADD PUSH2 0xC9E JUMP JUMPDEST DUP3 DUP9 MSTORE PUSH1 0x20 DUP9 KECCAK256 PUSH1 0x1F DUP7 ADD PUSH1 0x5 SHR DUP2 ADD SWAP2 PUSH1 0x20 DUP8 LT PUSH2 0xD3F JUMPI JUMPDEST PUSH1 0x1F ADD PUSH1 0x5 SHR ADD SWAP1 JUMPDEST DUP2 DUP2 LT PUSH2 0xD34 JUMPI POP PUSH2 0xC00 JUMP JUMPDEST DUP9 DUP2 SSTORE PUSH1 0x1 ADD PUSH2 0xD27 JUMP JUMPDEST SWAP1 SWAP2 POP DUP2 SWAP1 PUSH2 0xD1E JUMP JUMPDEST PUSH4 0x4E487B71 PUSH1 0xE0 SHL DUP8 MSTORE PUSH1 0x41 PUSH1 0x4 MSTORE PUSH1 0x24 DUP8 REVERT JUMPDEST PUSH4 0x4E487B71 PUSH1 0xE0 SHL DUP10 MSTORE PUSH1 0x21 PUSH1 0x4 MSTORE PUSH1 0x24 DUP10 REVERT JUMPDEST PUSH1 0x40 MLOAD PUSH3 0x461BCD PUSH1 0xE5 SHL DUP2 MSTORE PUSH1 0x20 PUSH1 0x4 DUP3 ADD MSTORE PUSH1 0x10 PUSH1 0x24 DUP3 ADD MSTORE PUSH16 0x496E76616C6964206D65746164617461 PUSH1 0x80 SHL PUSH1 0x44 DUP3 ADD MSTORE PUSH1 0x64 SWAP1 REVERT JUMPDEST DUP3 DUP1 REVERT JUMPDEST POP CALLVALUE PUSH2 0x158 JUMPI PUSH1 0x20 DUP1 PUSH1 0x3 NOT CALLDATASIZE ADD SLT PUSH2 0x455 JUMPI PUSH1 0x4 CALLDATALOAD PUSH2 0xDCB PUSH2 0x211D JUMP JUMPDEST DUP1 DUP4 MSTORE PUSH1 0x5 DUP3 MSTORE PUSH1 0x40 DUP4 KECCAK256 SWAP2 PUSH1 0x4 DUP4 ADD SWAP3 DUP4 SLOAD SWAP4 PUSH1 0xFF DUP6 PUSH1 0xA0 SHR AND PUSH1 0x5 DUP2 LT ISZERO PUSH2 0x441 JUMPI PUSH1 0x2 SUB PUSH2 0xFEF JUMPI PUSH1 0x5 DUP3 ADD SLOAD PUSH1 0x1 PUSH1 0x1 PUSH1 0xA0 SHL SUB SWAP3 SWAP1 DUP4 AND CALLER SUB PUSH2 0xFB9 JUMPI PUSH1 0xFF PUSH1 0x1 DUP3 ADD SLOAD AND PUSH1 0x2 DUP2 LT ISZERO PUSH2 0x3F5 JUMPI PUSH1 0x1 SUB PUSH2 0xF8B JUMPI PUSH1 0x3 ADD SLOAD DUP1 PUSH1 0x1 SHL SWAP1 DUP1 DUP3 DIV PUSH1 0x2 EQ SWAP1 ISZERO OR ISZERO PUSH2 0xF77 JUMPI PUSH2 0xE57 SWAP1 JUMPDEST PUSH2 0x3E8 PUSH2 0xE50 PUSH1 0xA SLOAD DUP4 PUSH2 0x21BD JUMP JUMPDEST DIV SWAP1 PUSH2 0x21D0 JUMP JUMPDEST PUSH1 0xFF PUSH1 0xA0 SHL NOT SWAP1 SWAP6 AND PUSH1 0x3 PUSH1 0xA0 SHL OR DUP2 SSTORE CALLER DUP7 MSTORE PUSH1 0x9 DUP4 MSTORE PUSH1 0x40 DUP7 KECCAK256 SLOAD DUP6 DUP1 DUP3 GT ISZERO PUSH2 0xF6F JUMPI PUSH2 0xE86 SWAP2 PUSH2 0x21D0 JUMP JUMPDEST CALLER DUP1 DUP9 MSTORE PUSH1 0x9 DUP6 MSTORE PUSH1 0x40 DUP1 DUP10 KECCAK256 SWAP3 SWAP1 SWAP3 SSTORE SWAP2 SLOAD SWAP1 MLOAD PUSH4 0xA9059CBB PUSH1 0xE0 SHL DUP2 MSTORE PUSH1 0x4 DUP2 ADD SWAP3 SWAP1 SWAP3 MSTORE PUSH1 0x24 DUP3 ADD DUP7 SWAP1 MSTORE SWAP1 SWAP2 DUP4 SWAP2 DUP4 SWAP2 PUSH1 0x44 SWAP2 DUP4 SWAP2 DUP11 SWAP2 AND GAS CALL SWAP1 DUP2 ISZERO PUSH2 0xF64 JUMPI DUP6 SWAP2 PUSH2 0xF47 JUMPI JUMPDEST POP ISZERO PUSH2 0xF0A JUMPI PUSH32 0xE97CEE5A4C0549D3FDC81E322B718DDF0AEB3418EC87DCE4F9A7FB28D117C312 SWAP1 PUSH1 0x40 MLOAD SWAP4 DUP5 MSTORE CALLER SWAP4 LOG3 PUSH1 0x1 DUP2 SSTORE DUP1 RETURN JUMPDEST PUSH1 0x64 SWAP1 PUSH1 0x40 MLOAD SWAP1 PUSH3 0x461BCD PUSH1 0xE5 SHL DUP3 MSTORE PUSH1 0x4 DUP3 ADD MSTORE PUSH1 0x16 PUSH1 0x24 DUP3 ADD MSTORE PUSH22 0x14185E5BDD5D081D1C985B9CD9995C8819985A5B1959 PUSH1 0x52 SHL PUSH1 0x44 DUP3 ADD MSTORE REVERT JUMPDEST PUSH2 0xF5E SWAP2 POP DUP3 RETURNDATASIZE DUP5 GT PUSH2 0x3A8 JUMPI PUSH2 0x39A DUP2 DUP4 PUSH2 0x1DD4 JUMP JUMPDEST CODESIZE PUSH2 0xED2 JUMP JUMPDEST PUSH1 0x40 MLOAD RETURNDATASIZE DUP8 DUP3 RETURNDATACOPY RETURNDATASIZE SWAP1 REVERT JUMPDEST POP POP DUP6 PUSH2 0xE86 JUMP JUMPDEST PUSH4 0x4E487B71 PUSH1 0xE0 SHL DUP8 MSTORE PUSH1 0x11 PUSH1 0x4 MSTORE PUSH1 0x24 DUP8 REVERT JUMPDEST PUSH2 0xFB4 PUSH1 0x3 PUSH2 0xE57 SWAP3 ADD SLOAD DUP7 DUP10 MSTORE PUSH1 0x7 DUP7 MSTORE PUSH2 0x771 PUSH1 0x40 DUP11 KECCAK256 SLOAD PUSH1 0x8 DUP9 MSTORE PUSH1 0x40 DUP12 KECCAK256 SLOAD SWAP1 PUSH2 0x2110 JUMP JUMPDEST PUSH2 0xE41 JUMP JUMPDEST PUSH1 0x40 MLOAD PUSH3 0x461BCD PUSH1 0xE5 SHL DUP2 MSTORE PUSH1 0x4 DUP2 ADD DUP6 SWAP1 MSTORE PUSH1 0xE PUSH1 0x24 DUP3 ADD MSTORE PUSH14 0x2737BA103A3432903BB4B73732B9 PUSH1 0x91 SHL PUSH1 0x44 DUP3 ADD MSTORE PUSH1 0x64 SWAP1 REVERT JUMPDEST PUSH1 0x40 MLOAD PUSH3 0x461BCD PUSH1 0xE5 SHL DUP2 MSTORE PUSH1 0x4 DUP2 ADD DUP5 SWAP1 MSTORE PUSH1 0x16 PUSH1 0x24 DUP3 ADD MSTORE PUSH22 0x10DA185B1B195B99D9481B9BDD081C995CDBDB1D9959 PUSH1 0x52 SHL PUSH1 0x44 DUP3 ADD MSTORE PUSH1 0x64 SWAP1 REVERT JUMPDEST POP CALLVALUE PUSH2 0x158 JUMPI PUSH1 0x20 DUP1 PUSH1 0x3 NOT CALLDATASIZE ADD SLT PUSH2 0x455 JUMPI PUSH1 0x4 CALLDATALOAD DUP3 MSTORE PUSH1 0x7 DUP2 MSTORE PUSH1 0x40 DUP3 KECCAK256 SWAP2 PUSH1 0x40 MLOAD DUP1 SWAP3 DUP1 DUP6 SLOAD SWAP3 DUP4 DUP2 MSTORE ADD SWAP5 DUP4 MSTORE DUP1 DUP4 KECCAK256 SWAP3 SWAP1 JUMPDEST DUP3 DUP3 LT PUSH2 0x107B JUMPI PUSH2 0x901 DUP6 PUSH2 0x8F5 DUP2 DUP10 SUB DUP3 PUSH2 0x1DD4 JUMP JUMPDEST DUP4 SLOAD PUSH1 0x1 PUSH1 0x1 PUSH1 0xA0 SHL SUB AND DUP7 MSTORE SWAP5 DUP6 ADD SWAP5 PUSH1 0x1 SWAP4 DUP5 ADD SWAP4 SWAP1 SWAP2 ADD SWAP1 PUSH2 0x1064 JUMP JUMPDEST POP CALLVALUE PUSH2 0x158 JUMPI PUSH1 0x40 CALLDATASIZE PUSH1 0x3 NOT ADD SLT PUSH2 0x158 JUMPI PUSH1 0x24 CALLDATALOAD ISZERO ISZERO PUSH1 0x24 CALLDATALOAD SUB PUSH2 0x158 JUMPI PUSH2 0x10C2 PUSH2 0x211D JUMP JUMPDEST PUSH1 0x4 CALLDATALOAD DUP2 MSTORE PUSH1 0x5 PUSH1 0x20 MSTORE PUSH1 0x40 DUP2 KECCAK256 SWAP1 PUSH1 0x4 DUP3 ADD SLOAD PUSH1 0xFF DUP2 PUSH1 0xA0 SHR AND PUSH1 0x5 DUP2 LT ISZERO PUSH2 0x1336 JUMPI DUP1 PUSH2 0x10F9 SWAP2 ISZERO SWAP1 DUP2 ISZERO PUSH2 0x134A JUMPI POP PUSH2 0x2140 JUMP JUMPDEST PUSH1 0xFF PUSH1 0x1 DUP5 ADD SLOAD AND PUSH1 0x2 DUP2 LT ISZERO PUSH2 0x1336 JUMPI PUSH2 0x12F8 JUMPI PUSH1 0x3 DUP4 ADD SLOAD PUSH1 0x40 MLOAD PUSH4 0x23B872DD PUSH1 0xE0 SHL DUP2 MSTORE CALLER PUSH1 0x4 DUP3 ADD MSTORE ADDRESS PUSH1 0x24 DUP3 ADD MSTORE PUSH1 0x44 DUP2 ADD SWAP2 SWAP1 SWAP2 MSTORE SWAP1 PUSH1 0x20 SWAP1 DUP3 SWAP1 PUSH1 0x64 SWAP1 DUP3 SWAP1 DUP7 SWAP1 PUSH1 0x1 PUSH1 0x1 PUSH1 0xA0 SHL SUB AND GAS CALL SWAP1 DUP2 ISZERO PUSH2 0x12ED JUMPI SWAP1 PUSH2 0x1164 SWAP2 DUP4 SWAP2 PUSH2 0x12D4 JUMPI POP PUSH2 0x20CC JUMP JUMPDEST PUSH1 0x3 DUP3 ADD SLOAD SWAP2 PUSH1 0x40 MLOAD SWAP3 PUSH1 0x80 DUP5 ADD DUP5 DUP2 LT PUSH8 0xFFFFFFFFFFFFFFFF DUP3 GT OR PUSH2 0x12C0 JUMPI PUSH1 0x3 SWAP4 SWAP5 PUSH1 0x2 SWAP2 PUSH1 0x40 MSTORE CALLER DUP2 MSTORE PUSH1 0x20 DUP2 ADD SWAP3 PUSH1 0x24 CALLDATALOAD ISZERO ISZERO DUP5 MSTORE PUSH1 0x40 DUP3 ADD SWAP1 DUP2 MSTORE PUSH1 0x60 DUP3 ADD SWAP4 DUP8 DUP6 MSTORE PUSH1 0x4 CALLDATALOAD DUP9 MSTORE PUSH1 0x6 PUSH1 0x20 MSTORE PUSH1 0x40 DUP9 KECCAK256 CALLER DUP10 MSTORE PUSH1 0x20 MSTORE PUSH1 0x40 DUP9 KECCAK256 SWAP3 PUSH1 0x1 DUP1 PUSH1 0xA0 SHL SUB SWAP1 MLOAD AND DUP4 SLOAD SWAP2 PUSH1 0xFF PUSH1 0xA0 SHL SWAP1 MLOAD ISZERO ISZERO PUSH1 0xA0 SHL AND SWAP2 PUSH11 0xFFFFFFFFFFFFFFFFFFFFFF PUSH1 0xA8 SHL AND OR OR DUP3 SSTORE MLOAD PUSH1 0x1 DUP3 ADD SSTORE ADD SWAP1 MLOAD ISZERO ISZERO PUSH1 0xFF DUP1 NOT DUP4 SLOAD AND SWAP2 AND OR SWAP1 SSTORE PUSH1 0x24 CALLDATALOAD PUSH1 0x0 EQ PUSH2 0x12A4 JUMPI PUSH1 0x4 CALLDATALOAD DUP4 MSTORE PUSH1 0x7 PUSH1 0x20 MSTORE PUSH2 0x122D CALLER PUSH1 0x40 DUP6 KECCAK256 PUSH2 0x217D JUMP JUMPDEST PUSH1 0x4 DUP2 ADD DUP1 SLOAD PUSH1 0xFF PUSH1 0xA0 SHL NOT AND PUSH1 0x1 PUSH1 0xA0 SHL OR SWAP1 SSTORE DUP2 DUP2 ADD SLOAD CALLER DUP5 MSTORE PUSH1 0x9 PUSH1 0x20 MSTORE PUSH1 0x40 DUP5 KECCAK256 DUP1 SLOAD SWAP1 SWAP2 PUSH2 0x125F SWAP2 PUSH2 0x2110 JUMP JUMPDEST SWAP1 SSTORE ADD SLOAD PUSH1 0x40 MLOAD SWAP1 PUSH1 0x24 CALLDATALOAD ISZERO ISZERO DUP3 MSTORE PUSH1 0x20 DUP3 ADD MSTORE CALLER SWAP1 PUSH32 0x7D9CD5D8664925284F55FC2D718B09CE8A6B6415D81ED3D99FA6FF7FA0AAEECB PUSH1 0x40 PUSH1 0x4 CALLDATALOAD SWAP3 LOG3 PUSH1 0x1 DUP2 SSTORE DUP1 RETURN JUMPDEST PUSH1 0x4 CALLDATALOAD DUP4 MSTORE PUSH1 0x8 PUSH1 0x20 MSTORE PUSH2 0x12BB CALLER PUSH1 0x40 DUP6 KECCAK256 PUSH2 0x217D JUMP JUMPDEST PUSH2 0x122D JUMP JUMPDEST PUSH4 0x4E487B71 PUSH1 0xE0 SHL DUP5 MSTORE PUSH1 0x41 PUSH1 0x4 MSTORE PUSH1 0x24 DUP5 REVERT JUMPDEST PUSH2 0x3A2 SWAP2 POP PUSH1 0x20 RETURNDATASIZE PUSH1 0x20 GT PUSH2 0x3A8 JUMPI PUSH2 0x39A DUP2 DUP4 PUSH2 0x1DD4 JUMP JUMPDEST PUSH1 0x40 MLOAD RETURNDATASIZE DUP5 DUP3 RETURNDATACOPY RETURNDATASIZE SWAP1 REVERT JUMPDEST PUSH1 0x40 MLOAD PUSH3 0x461BCD PUSH1 0xE5 SHL DUP2 MSTORE PUSH1 0x20 PUSH1 0x4 DUP3 ADD MSTORE PUSH1 0x16 PUSH1 0x24 DUP3 ADD MSTORE PUSH22 0x4E6F7420616E2061646D696E206368616C6C656E6765 PUSH1 0x50 SHL PUSH1 0x44 DUP3 ADD MSTORE PUSH1 0x64 SWAP1 REVERT JUMPDEST PUSH4 0x4E487B71 PUSH1 0xE0 SHL DUP4 MSTORE PUSH1 0x21 PUSH1 0x4 MSTORE PUSH1 0x24 DUP4 REVERT JUMPDEST PUSH1 0x1 SWAP2 POP EQ CODESIZE PUSH2 0x508 JUMP JUMPDEST POP CALLVALUE PUSH2 0x158 JUMPI DUP1 PUSH1 0x3 NOT CALLDATASIZE ADD SLT PUSH2 0x158 JUMPI PUSH1 0x2 SLOAD PUSH1 0x40 MLOAD PUSH1 0x1 PUSH1 0x1 PUSH1 0xA0 SHL SUB SWAP1 SWAP2 AND DUP2 MSTORE PUSH1 0x20 SWAP1 RETURN JUMPDEST POP CALLVALUE PUSH2 0x158 JUMPI DUP1 PUSH1 0x3 NOT CALLDATASIZE ADD SLT PUSH2 0x158 JUMPI PUSH2 0x1397 PUSH2 0x1FC3 JUMP JUMPDEST PUSH1 0x1 DUP1 SLOAD PUSH1 0x1 PUSH1 0x1 PUSH1 0xA0 SHL SUB NOT DUP2 AND SWAP1 SWAP2 SSTORE DUP2 SWAP1 PUSH1 0x1 PUSH1 0x1 PUSH1 0xA0 SHL SUB AND PUSH32 0x8BE0079C531659141344CD1FD0A4F28419497F9722A3DAAFE3B4186F6B6457E0 DUP3 DUP1 LOG3 DUP1 RETURN JUMPDEST POP CALLVALUE PUSH2 0x158 JUMPI PUSH1 0x20 CALLDATASIZE PUSH1 0x3 NOT ADD SLT PUSH2 0x158 JUMPI PUSH2 0x13F5 PUSH2 0x1D00 JUMP JUMPDEST PUSH2 0x13FD PUSH2 0x1FC3 JUMP JUMPDEST PUSH1 0x1 PUSH1 0x1 PUSH1 0xA0 SHL SUB AND DUP1 ISZERO PUSH2 0x1445 JUMPI PUSH1 0x3 DUP1 SLOAD PUSH1 0x1 PUSH1 0x1 PUSH1 0xA0 SHL SUB NOT AND DUP3 OR SWAP1 SSTORE PUSH32 0x54E4612788F90384E6843298D7854436F3A585B2C3831AB66ABF1DE63BFA6C2D DUP3 DUP1 LOG2 DUP1 RETURN JUMPDEST PUSH1 0x40 MLOAD PUSH3 0x461BCD PUSH1 0xE5 SHL DUP2 MSTORE PUSH1 0x20 PUSH1 0x4 DUP3 ADD MSTORE PUSH1 0xD PUSH1 0x24 DUP3 ADD MSTORE PUSH13 0x24B73B30B634B21030B236B4B7 PUSH1 0x99 SHL PUSH1 0x44 DUP3 ADD MSTORE PUSH1 0x64 SWAP1 REVERT JUMPDEST POP CALLVALUE PUSH2 0x158 JUMPI PUSH1 0x40 CALLDATASIZE PUSH1 0x3 NOT ADD SLT PUSH2 0x158 JUMPI PUSH1 0x80 SWAP1 PUSH1 0x40 PUSH2 0x1499 PUSH2 0x1D1B JUMP JUMPDEST SWAP2 PUSH1 0x4 CALLDATALOAD DUP2 MSTORE PUSH1 0x6 PUSH1 0x20 MSTORE DUP2 DUP2 KECCAK256 PUSH1 0x1 DUP1 PUSH1 0xA0 SHL SUB DUP1 SWAP5 AND DUP3 MSTORE PUSH1 0x20 MSTORE KECCAK256 DUP1 SLOAD SWAP1 PUSH1 0xFF DUP1 PUSH1 0x2 PUSH1 0x1 DUP5 ADD SLOAD SWAP4 ADD SLOAD AND SWAP3 PUSH1 0x40 MLOAD SWAP5 DUP2 AND DUP6 MSTORE PUSH1 0xA0 SHR AND ISZERO ISZERO PUSH1 0x20 DUP5 ADD MSTORE PUSH1 0x40 DUP4 ADD MSTORE ISZERO ISZERO PUSH1 0x60 DUP3 ADD MSTORE RETURN JUMPDEST POP CALLVALUE PUSH2 0x158 JUMPI DUP1 PUSH1 0x3 NOT CALLDATASIZE ADD SLT PUSH2 0x158 JUMPI PUSH1 0x20 PUSH1 0xB SLOAD PUSH1 0x40 MLOAD SWAP1 DUP2 MSTORE RETURN JUMPDEST POP CALLVALUE PUSH2 0x158 JUMPI PUSH1 0x80 CALLDATASIZE PUSH1 0x3 NOT ADD SLT PUSH2 0x158 JUMPI PUSH2 0x1522 PUSH2 0x1D00 JUMP JUMPDEST SWAP1 PUSH1 0x44 CALLDATALOAD SWAP1 PUSH1 0x1 PUSH1 0x1 PUSH1 0xA0 SHL SUB DUP3 AND DUP3 SUB PUSH2 0x158 JUMPI PUSH1 0x64 CALLDATALOAD PUSH8 0xFFFFFFFFFFFFFFFF DUP2 GT PUSH2 0x455 JUMPI PUSH2 0x1557 SWAP1 CALLDATASIZE SWAP1 PUSH1 0x4 ADD PUSH2 0x1E3D JUMP JUMPDEST SWAP1 PUSH2 0x1560 PUSH2 0x211D JUMP JUMPDEST PUSH1 0x1 PUSH1 0x1 PUSH1 0xA0 SHL SUB DUP5 AND ISZERO PUSH2 0x193B JUMPI PUSH1 0x1 PUSH1 0x1 PUSH1 0xA0 SHL SUB DUP5 AND CALLER EQ PUSH2 0x18F6 JUMPI PUSH2 0x158C PUSH1 0x24 CALLDATALOAD ISZERO ISZERO PUSH2 0x1FEF JUMP JUMPDEST PUSH2 0x15A0 PUSH1 0x1 PUSH1 0x1 PUSH1 0xA0 SHL SUB DUP5 AND ISZERO ISZERO PUSH2 0x202F JUMP JUMPDEST PUSH1 0x40 MLOAD PUSH4 0x23B872DD PUSH1 0xE0 SHL DUP2 MSTORE CALLER PUSH1 0x4 DUP3 ADD MSTORE ADDRESS PUSH1 0x24 DUP1 DUP4 ADD SWAP2 SWAP1 SWAP2 MSTORE CALLDATALOAD PUSH1 0x44 DUP3 ADD MSTORE PUSH1 0x20 DUP2 PUSH1 0x64 DUP2 DUP6 PUSH1 0x1 PUSH1 0x1 PUSH1 0xA0 SHL SUB DUP10 AND GAS CALL SWAP1 DUP2 ISZERO PUSH2 0x12ED JUMPI SWAP1 PUSH2 0x15EE SWAP2 DUP4 SWAP2 PUSH2 0x12D4 JUMPI POP PUSH2 0x20CC JUMP JUMPDEST PUSH1 0x4 SLOAD SWAP2 PUSH2 0x15FB DUP4 PUSH2 0x206B JUMP JUMPDEST PUSH1 0x4 SSTORE PUSH1 0x40 MLOAD SWAP5 PUSH2 0x160B DUP7 PUSH2 0x1DA1 JUMP JUMPDEST DUP4 DUP7 MSTORE PUSH1 0x1 PUSH1 0x20 DUP8 ADD MSTORE CALLER PUSH1 0x40 DUP8 ADD MSTORE PUSH1 0x1 DUP1 PUSH1 0xA0 SHL SUB AND PUSH1 0x60 DUP7 ADD MSTORE PUSH1 0x24 CALLDATALOAD PUSH1 0x80 DUP7 ADD MSTORE PUSH1 0x1 DUP1 PUSH1 0xA0 SHL SUB DUP5 AND PUSH1 0xA0 DUP7 ADD MSTORE DUP2 PUSH1 0xC0 DUP7 ADD MSTORE DUP2 PUSH1 0xE0 DUP7 ADD MSTORE TIMESTAMP PUSH2 0x100 DUP7 ADD MSTORE DUP2 PUSH2 0x120 DUP7 ADD MSTORE DUP1 PUSH2 0x140 DUP7 ADD MSTORE DUP3 DUP3 MSTORE PUSH1 0x5 PUSH1 0x20 MSTORE PUSH1 0x40 DUP3 KECCAK256 DUP6 MLOAD DUP2 SSTORE PUSH1 0x1 DUP2 ADD PUSH1 0x20 DUP8 ADD MLOAD PUSH1 0x2 DUP2 LT ISZERO PUSH2 0x18E2 JUMPI DUP2 SLOAD PUSH1 0x40 DUP10 ADD MLOAD PUSH2 0x100 PUSH1 0x1 PUSH1 0xA8 SHL SUB PUSH1 0x8 SWAP2 SWAP1 SWAP2 SHL AND PUSH1 0xFF SWAP3 SWAP1 SWAP3 AND PUSH1 0x1 PUSH1 0x1 PUSH1 0xA8 SHL SUB NOT SWAP1 SWAP2 AND OR OR SWAP1 SSTORE PUSH1 0x60 DUP7 ADD MLOAD PUSH1 0x2 DUP3 ADD DUP1 SLOAD PUSH1 0x1 PUSH1 0x1 PUSH1 0xA0 SHL SUB SWAP3 DUP4 AND PUSH1 0x1 PUSH1 0x1 PUSH1 0xA0 SHL SUB NOT SWAP2 DUP3 AND OR SWAP1 SWAP2 SSTORE PUSH1 0x80 DUP9 ADD MLOAD PUSH1 0x3 DUP5 ADD SSTORE PUSH1 0xA0 DUP9 ADD MLOAD PUSH1 0x4 DUP5 ADD DUP1 SLOAD SWAP2 SWAP1 SWAP4 AND SWAP1 DUP3 AND OR DUP3 SSTORE PUSH1 0xC0 DUP9 ADD MLOAD SWAP1 SWAP2 PUSH1 0x5 DUP3 LT ISZERO PUSH2 0x18CE JUMPI SWAP2 PUSH2 0x1714 PUSH2 0x140 SWAP5 SWAP3 PUSH1 0x8 SWAP5 PUSH2 0x2090 JUMP JUMPDEST PUSH1 0x5 DUP3 ADD SWAP1 PUSH1 0x1 DUP1 PUSH1 0xA0 SHL SUB PUSH1 0xE0 DUP12 ADD MLOAD AND SWAP1 DUP3 SLOAD AND OR SWAP1 SSTORE PUSH2 0x100 DUP9 ADD MLOAD PUSH1 0x6 DUP3 ADD SSTORE PUSH2 0x120 DUP9 ADD MLOAD PUSH1 0x7 DUP3 ADD SSTORE ADD SWAP6 ADD MLOAD SWAP5 DUP6 MLOAD PUSH8 0xFFFFFFFFFFFFFFFF DUP2 GT PUSH2 0x12C0 JUMPI PUSH2 0x1763 DUP3 SLOAD PUSH2 0x1E9F JUMP JUMPDEST PUSH1 0x1F DUP2 GT PUSH2 0x1889 JUMPI JUMPDEST POP PUSH1 0x20 SWAP7 DUP8 SWAP1 PUSH1 0x1F DUP4 GT PUSH1 0x1 EQ PUSH2 0x1813 JUMPI SWAP3 DUP3 PUSH1 0x0 DUP1 MLOAD PUSH1 0x20 PUSH2 0x2319 DUP4 CODECOPY DUP2 MLOAD SWAP2 MSTORE SWAP4 DUP9 SWAP10 SWAP4 PUSH1 0x1 SWAP10 SWAP7 DUP10 SWAP3 PUSH2 0x1808 JUMPI JUMPDEST POP POP PUSH1 0x0 NOT PUSH1 0x3 DUP4 SWAP1 SHL SHR NOT AND SWAP1 DUP9 SHL OR SWAP1 SSTORE JUMPDEST CALLER DUP6 MSTORE PUSH1 0x9 DUP9 MSTORE PUSH1 0x40 DUP6 KECCAK256 PUSH2 0x17C9 PUSH1 0x24 CALLDATALOAD DUP3 SLOAD PUSH2 0x2110 JUMP JUMPDEST SWAP1 SSTORE PUSH1 0x40 MLOAD SWAP1 DUP7 DUP3 MSTORE PUSH1 0x24 CALLDATALOAD DUP10 DUP4 ADD MSTORE DUP7 DUP1 PUSH1 0xA0 SHL SUB AND PUSH1 0x40 DUP3 ADD MSTORE PUSH1 0x80 PUSH1 0x60 DUP3 ADD MSTORE DUP1 PUSH2 0x17FC CALLER SWAP6 PUSH1 0x80 DUP4 ADD SWAP1 PUSH2 0x1D61 JUMP JUMPDEST SUB SWAP1 LOG3 SSTORE PUSH1 0x40 MLOAD SWAP1 DUP2 MSTORE RETURN JUMPDEST ADD MLOAD SWAP1 POP CODESIZE DUP1 PUSH2 0x179D JUMP JUMPDEST DUP4 DUP7 MSTORE DUP9 DUP7 KECCAK256 SWAP2 SWAP1 PUSH1 0x1F NOT DUP5 AND DUP8 JUMPDEST DUP2 DUP2 LT PUSH2 0x1872 JUMPI POP SWAP4 DUP9 SWAP10 SWAP4 PUSH1 0x1 SWAP10 SWAP7 SWAP4 DUP11 SWAP4 DUP4 PUSH1 0x0 DUP1 MLOAD PUSH1 0x20 PUSH2 0x2319 DUP4 CODECOPY DUP2 MLOAD SWAP2 MSTORE SWAP9 LT PUSH2 0x1859 JUMPI JUMPDEST POP POP POP DUP2 SHL ADD SWAP1 SSTORE PUSH2 0x17B1 JUMP JUMPDEST ADD MLOAD PUSH1 0x0 NOT PUSH1 0xF8 DUP5 PUSH1 0x3 SHL AND SHR NOT AND SWAP1 SSTORE CODESIZE DUP1 DUP1 PUSH2 0x184C JUMP JUMPDEST SWAP3 SWAP4 DUP12 PUSH1 0x1 DUP2 SWAP3 DUP8 DUP7 ADD MLOAD DUP2 SSTORE ADD SWAP6 ADD SWAP4 ADD PUSH2 0x1822 JUMP JUMPDEST DUP3 DUP6 MSTORE PUSH1 0x20 DUP6 KECCAK256 PUSH1 0x1F DUP4 ADD PUSH1 0x5 SHR DUP2 ADD SWAP2 PUSH1 0x20 DUP5 LT PUSH2 0x18C4 JUMPI JUMPDEST PUSH1 0x1F ADD PUSH1 0x5 SHR ADD SWAP1 JUMPDEST DUP2 DUP2 LT PUSH2 0x18B9 JUMPI POP PUSH2 0x176C JUMP JUMPDEST DUP6 DUP2 SSTORE PUSH1 0x1 ADD PUSH2 0x18AC JUMP JUMPDEST SWAP1 SWAP2 POP DUP2 SWAP1 PUSH2 0x18A3 JUMP JUMPDEST PUSH4 0x4E487B71 PUSH1 0xE0 SHL DUP7 MSTORE PUSH1 0x21 PUSH1 0x4 MSTORE PUSH1 0x24 DUP7 REVERT JUMPDEST PUSH4 0x4E487B71 PUSH1 0xE0 SHL DUP6 MSTORE PUSH1 0x21 PUSH1 0x4 MSTORE PUSH1 0x24 DUP6 REVERT JUMPDEST PUSH1 0x40 MLOAD PUSH3 0x461BCD PUSH1 0xE5 SHL DUP2 MSTORE PUSH1 0x20 PUSH1 0x4 DUP3 ADD MSTORE PUSH1 0x19 PUSH1 0x24 DUP3 ADD MSTORE PUSH32 0x43616E6E6F74206368616C6C656E676520796F757273656C6600000000000000 PUSH1 0x44 DUP3 ADD MSTORE PUSH1 0x64 SWAP1 REVERT JUMPDEST PUSH1 0x40 MLOAD PUSH3 0x461BCD PUSH1 0xE5 SHL DUP2 MSTORE PUSH1 0x20 PUSH1 0x4 DUP3 ADD MSTORE PUSH1 0x10 PUSH1 0x24 DUP3 ADD MSTORE PUSH16 0x125B9D985B1A59081BDC1C1BDB995B9D PUSH1 0x82 SHL PUSH1 0x44 DUP3 ADD MSTORE PUSH1 0x64 SWAP1 REVERT JUMPDEST POP CALLVALUE PUSH2 0x158 JUMPI PUSH1 0x20 CALLDATASIZE PUSH1 0x3 NOT ADD SLT PUSH2 0x158 JUMPI PUSH1 0x60 PUSH2 0x140 PUSH1 0x40 MLOAD PUSH2 0x1996 DUP2 PUSH2 0x1DA1 JUMP JUMPDEST DUP4 DUP2 MSTORE DUP4 PUSH1 0x20 DUP3 ADD MSTORE DUP4 PUSH1 0x40 DUP3 ADD MSTORE DUP4 DUP4 DUP3 ADD MSTORE DUP4 PUSH1 0x80 DUP3 ADD MSTORE DUP4 PUSH1 0xA0 DUP3 ADD MSTORE DUP4 PUSH1 0xC0 DUP3 ADD MSTORE DUP4 PUSH1 0xE0 DUP3 ADD MSTORE DUP4 PUSH2 0x100 DUP3 ADD MSTORE DUP4 PUSH2 0x120 DUP3 ADD MSTORE ADD MSTORE PUSH1 0x4 CALLDATALOAD DUP2 MSTORE PUSH1 0x5 PUSH1 0x20 MSTORE PUSH1 0x40 DUP2 KECCAK256 SWAP1 PUSH1 0x40 MLOAD SWAP1 PUSH2 0x19EE DUP3 PUSH2 0x1DA1 JUMP JUMPDEST DUP3 SLOAD DUP3 MSTORE PUSH1 0x1 DUP4 ADD SLOAD PUSH1 0xFF DUP2 AND PUSH1 0x2 DUP2 LT ISZERO PUSH2 0x1336 JUMPI PUSH1 0x20 DUP5 ADD MSTORE PUSH1 0x8 SHR PUSH1 0x1 PUSH1 0x1 PUSH1 0xA0 SHL SUB SWAP1 DUP2 AND PUSH1 0x40 DUP5 ADD MSTORE PUSH1 0x2 DUP5 ADD SLOAD DUP2 AND PUSH1 0x60 DUP5 ADD MSTORE PUSH1 0x3 DUP5 ADD SLOAD PUSH1 0x80 DUP5 ADD MSTORE PUSH1 0x4 DUP5 ADD SLOAD SWAP1 DUP2 AND PUSH1 0xA0 DUP1 DUP6 ADD SWAP2 SWAP1 SWAP2 MSTORE SHR PUSH1 0xFF AND SWAP1 PUSH1 0x5 DUP3 LT ISZERO PUSH2 0x1B49 JUMPI POP PUSH1 0xC0 DUP3 ADD MSTORE PUSH1 0x5 DUP3 ADD SLOAD PUSH1 0x1 PUSH1 0x1 PUSH1 0xA0 SHL SUB AND PUSH1 0xE0 DUP3 ADD MSTORE PUSH1 0x6 DUP3 ADD SLOAD PUSH2 0x100 DUP3 ADD MSTORE PUSH1 0x7 DUP3 ADD SLOAD PUSH2 0x120 DUP3 ADD MSTORE PUSH2 0x140 SWAP2 PUSH2 0x1A90 SWAP1 PUSH1 0x8 ADD PUSH2 0x1ED9 JUMP JUMPDEST DUP3 DUP3 ADD MSTORE PUSH2 0x901 PUSH1 0x40 MLOAD SWAP3 DUP4 SWAP3 PUSH1 0x20 DUP5 MSTORE DUP1 MLOAD PUSH1 0x20 DUP6 ADD MSTORE PUSH2 0x1ABA PUSH1 0x20 DUP3 ADD MLOAD PUSH1 0x40 DUP7 ADD SWAP1 PUSH2 0x1D31 JUMP JUMPDEST PUSH1 0x1 DUP1 PUSH1 0xA0 SHL SUB PUSH1 0x40 DUP3 ADD MLOAD AND PUSH1 0x60 DUP6 ADD MSTORE PUSH1 0x1 DUP1 PUSH1 0xA0 SHL SUB PUSH1 0x60 DUP3 ADD MLOAD AND PUSH1 0x80 DUP6 ADD MSTORE PUSH1 0x80 DUP2 ADD MLOAD PUSH1 0xA0 DUP6 ADD MSTORE PUSH1 0x1 DUP1 PUSH1 0xA0 SHL SUB PUSH1 0xA0 DUP3 ADD MLOAD AND PUSH1 0xC0 DUP6 ADD MSTORE PUSH2 0x1B0C PUSH1 0xC0 DUP3 ADD MLOAD PUSH1 0xE0 DUP7 ADD SWAP1 PUSH2 0x1D54 JUMP JUMPDEST PUSH1 0x1 DUP1 PUSH1 0xA0 SHL SUB PUSH1 0xE0 DUP3 ADD MLOAD AND PUSH2 0x100 DUP6 ADD MSTORE PUSH2 0x100 DUP2 ADD MLOAD PUSH2 0x120 DUP6 ADD MSTORE PUSH2 0x120 DUP2 ADD MLOAD DUP3 DUP6 ADD MSTORE ADD MLOAD PUSH2 0x160 DUP1 DUP5 ADD MSTORE PUSH2 0x180 DUP4 ADD SWAP1 PUSH2 0x1D61 JUMP JUMPDEST PUSH4 0x4E487B71 PUSH1 0xE0 SHL DUP2 MSTORE PUSH1 0x21 PUSH1 0x4 MSTORE PUSH1 0x24 SWAP1 REVERT JUMPDEST POP CALLVALUE PUSH2 0x158 JUMPI PUSH1 0x20 DUP1 PUSH1 0x3 NOT CALLDATASIZE ADD SLT PUSH2 0x455 JUMPI PUSH2 0x1B78 PUSH2 0x1D00 JUMP JUMPDEST PUSH2 0x1B80 PUSH2 0x1FC3 JUMP JUMPDEST PUSH2 0x1B88 PUSH2 0x211D JUMP JUMPDEST PUSH1 0x40 MLOAD PUSH4 0x70A08231 PUSH1 0xE0 SHL DUP2 MSTORE ADDRESS PUSH1 0x4 DUP3 ADD MSTORE PUSH1 0x1 PUSH1 0x1 PUSH1 0xA0 SHL SUB SWAP2 SWAP1 SWAP2 AND SWAP1 DUP3 DUP2 PUSH1 0x24 DUP2 DUP6 GAS STATICCALL SWAP1 DUP2 ISZERO PUSH2 0x1C96 JUMPI DUP5 SWAP2 PUSH2 0x1C69 JUMPI JUMPDEST POP DUP1 ISZERO PUSH2 0x1C2E JUMPI PUSH1 0x40 MLOAD PUSH4 0xA9059CBB PUSH1 0xE0 SHL DUP2 MSTORE CALLER PUSH1 0x4 DUP3 ADD MSTORE PUSH1 0x24 DUP2 ADD SWAP2 SWAP1 SWAP2 MSTORE SWAP1 DUP3 SWAP1 DUP3 SWAP1 PUSH1 0x44 SWAP1 DUP3 SWAP1 DUP8 SWAP1 GAS CALL DUP1 ISZERO PUSH2 0x1C23 JUMPI PUSH2 0x1C05 JUMPI JUMPDEST DUP3 DUP1 PUSH1 0xB SSTORE PUSH1 0x1 DUP2 SSTORE DUP1 RETURN JUMPDEST DUP2 PUSH2 0x1C1B SWAP3 SWAP1 RETURNDATASIZE LT PUSH2 0x3A8 JUMPI PUSH2 0x39A DUP2 DUP4 PUSH2 0x1DD4 JUMP JUMPDEST POP CODESIZE DUP1 PUSH2 0x1BF9 JUMP JUMPDEST PUSH1 0x40 MLOAD RETURNDATASIZE DUP6 DUP3 RETURNDATACOPY RETURNDATASIZE SWAP1 REVERT JUMPDEST PUSH1 0x40 MLOAD PUSH3 0x461BCD PUSH1 0xE5 SHL DUP2 MSTORE PUSH1 0x4 DUP2 ADD DUP5 SWAP1 MSTORE PUSH1 0x13 PUSH1 0x24 DUP3 ADD MSTORE PUSH19 0x4E6F206665657320746F207769746864726177 PUSH1 0x68 SHL PUSH1 0x44 DUP3 ADD MSTORE PUSH1 0x64 SWAP1 REVERT JUMPDEST SWAP1 POP DUP3 DUP2 DUP2 RETURNDATASIZE DUP4 GT PUSH2 0x1C8F JUMPI JUMPDEST PUSH2 0x1C80 DUP2 DUP4 PUSH2 0x1DD4 JUMP JUMPDEST DUP2 ADD SUB SLT PUSH2 0x734 JUMPI MLOAD CODESIZE PUSH2 0x1BBE JUMP JUMPDEST POP RETURNDATASIZE PUSH2 0x1C76 JUMP JUMPDEST PUSH1 0x40 MLOAD RETURNDATASIZE DUP7 DUP3 RETURNDATACOPY RETURNDATASIZE SWAP1 REVERT JUMPDEST POP CALLVALUE PUSH2 0x158 JUMPI PUSH1 0x20 CALLDATASIZE PUSH1 0x3 NOT ADD SLT PUSH2 0x158 JUMPI PUSH1 0x4 CALLDATALOAD PUSH2 0x1CBE PUSH2 0x1FC3 JUMP JUMPDEST PUSH1 0x32 DUP2 GT PUSH2 0x1CCC JUMPI PUSH1 0xA SSTORE DUP1 RETURN JUMPDEST PUSH1 0x40 MLOAD PUSH3 0x461BCD PUSH1 0xE5 SHL DUP2 MSTORE PUSH1 0x20 PUSH1 0x4 DUP3 ADD MSTORE PUSH1 0xC PUSH1 0x24 DUP3 ADD MSTORE PUSH12 0x8CCACA40E8DEDE40D0D2CED PUSH1 0xA3 SHL PUSH1 0x44 DUP3 ADD MSTORE PUSH1 0x64 SWAP1 REVERT JUMPDEST PUSH1 0x4 CALLDATALOAD SWAP1 PUSH1 0x1 PUSH1 0x1 PUSH1 0xA0 SHL SUB DUP3 AND DUP3 SUB PUSH2 0x1D16 JUMPI JUMP JUMPDEST PUSH1 0x0 DUP1 REVERT JUMPDEST PUSH1 0x24 CALLDATALOAD SWAP1 PUSH1 0x1 PUSH1 0x1 PUSH1 0xA0 SHL SUB DUP3 AND DUP3 SUB PUSH2 0x1D16 JUMPI JUMP JUMPDEST SWAP1 PUSH1 0x2 DUP3 LT ISZERO PUSH2 0x1D3E JUMPI MSTORE JUMP JUMPDEST PUSH4 0x4E487B71 PUSH1 0xE0 SHL PUSH1 0x0 MSTORE PUSH1 0x21 PUSH1 0x4 MSTORE PUSH1 0x24 PUSH1 0x0 REVERT JUMPDEST SWAP1 PUSH1 0x5 DUP3 LT ISZERO PUSH2 0x1D3E JUMPI MSTORE JUMP JUMPDEST SWAP2 SWAP1 DUP3 MLOAD SWAP3 DUP4 DUP3 MSTORE PUSH1 0x0 JUMPDEST DUP5 DUP2 LT PUSH2 0x1D8D JUMPI POP POP DUP3 PUSH1 0x0 PUSH1 0x20 DUP1 SWAP5 SWAP6 DUP5 ADD ADD MSTORE PUSH1 0x1F DUP1 NOT SWAP2 ADD AND ADD ADD SWAP1 JUMP JUMPDEST PUSH1 0x20 DUP2 DUP4 ADD DUP2 ADD MLOAD DUP5 DUP4 ADD DUP3 ADD MSTORE ADD PUSH2 0x1D6C JUMP JUMPDEST PUSH2 0x160 DUP2 ADD SWAP1 DUP2 LT PUSH8 0xFFFFFFFFFFFFFFFF DUP3 GT OR PUSH2 0x1DBE JUMPI PUSH1 0x40 MSTORE JUMP JUMPDEST PUSH4 0x4E487B71 PUSH1 0xE0 SHL PUSH1 0x0 MSTORE PUSH1 0x41 PUSH1 0x4 MSTORE PUSH1 0x24 PUSH1 0x0 REVERT JUMPDEST SWAP1 PUSH1 0x1F DUP1 NOT SWAP2 ADD AND DUP2 ADD SWAP1 DUP2 LT PUSH8 0xFFFFFFFFFFFFFFFF DUP3 GT OR PUSH2 0x1DBE JUMPI PUSH1 0x40 MSTORE JUMP JUMPDEST SWAP3 SWAP2 SWAP3 PUSH8 0xFFFFFFFFFFFFFFFF DUP3 GT PUSH2 0x1DBE JUMPI PUSH1 0x40 MLOAD SWAP2 PUSH2 0x1E20 PUSH1 0x1F DUP3 ADD PUSH1 0x1F NOT AND PUSH1 0x20 ADD DUP5 PUSH2 0x1DD4 JUMP JUMPDEST DUP3 SWAP5 DUP2 DUP5 MSTORE DUP2 DUP4 ADD GT PUSH2 0x1D16 JUMPI DUP3 DUP2 PUSH1 0x20 SWAP4 DUP5 PUSH1 0x0 SWAP7 ADD CALLDATACOPY ADD ADD MSTORE JUMP JUMPDEST SWAP1 DUP1 PUSH1 0x1F DUP4 ADD SLT ISZERO PUSH2 0x1D16 JUMPI DUP2 PUSH1 0x20 PUSH2 0x1E58 SWAP4 CALLDATALOAD SWAP2 ADD PUSH2 0x1DF6 JUMP JUMPDEST SWAP1 JUMP JUMPDEST PUSH1 0x20 SWAP1 DUP2 PUSH1 0x40 DUP2 DUP4 ADD SWAP3 DUP3 DUP2 MSTORE DUP6 MLOAD DUP1 SWAP5 MSTORE ADD SWAP4 ADD SWAP2 PUSH1 0x0 JUMPDEST DUP3 DUP2 LT PUSH2 0x1E82 JUMPI POP POP POP POP SWAP1 JUMP JUMPDEST DUP4 MLOAD PUSH1 0x1 PUSH1 0x1 PUSH1 0xA0 SHL SUB AND DUP6 MSTORE SWAP4 DUP2 ADD SWAP4 SWAP3 DUP2 ADD SWAP3 PUSH1 0x1 ADD PUSH2 0x1E74 JUMP JUMPDEST SWAP1 PUSH1 0x1 DUP3 DUP2 SHR SWAP3 AND DUP1 ISZERO PUSH2 0x1ECF JUMPI JUMPDEST PUSH1 0x20 DUP4 LT EQ PUSH2 0x1EB9 JUMPI JUMP JUMPDEST PUSH4 0x4E487B71 PUSH1 0xE0 SHL PUSH1 0x0 MSTORE PUSH1 0x22 PUSH1 0x4 MSTORE PUSH1 0x24 PUSH1 0x0 REVERT JUMPDEST SWAP2 PUSH1 0x7F AND SWAP2 PUSH2 0x1EAE JUMP JUMPDEST SWAP1 PUSH1 0x40 MLOAD SWAP2 DUP3 PUSH1 0x0 DUP3 SLOAD SWAP3 PUSH2 0x1EED DUP5 PUSH2 0x1E9F JUMP JUMPDEST SWAP1 DUP2 DUP5 MSTORE PUSH1 0x1 SWAP5 DUP6 DUP2 AND SWAP1 DUP2 PUSH1 0x0 EQ PUSH2 0x1F5C JUMPI POP PUSH1 0x1 EQ PUSH2 0x1F19 JUMPI JUMPDEST POP POP PUSH2 0x1F17 SWAP3 POP SUB DUP4 PUSH2 0x1DD4 JUMP JUMPDEST JUMP JUMPDEST SWAP1 SWAP4 SWAP2 POP PUSH1 0x0 MSTORE PUSH1 0x20 SWAP1 DUP2 PUSH1 0x0 KECCAK256 SWAP4 PUSH1 0x0 SWAP2 JUMPDEST DUP2 DUP4 LT PUSH2 0x1F44 JUMPI POP POP PUSH2 0x1F17 SWAP4 POP DUP3 ADD ADD CODESIZE DUP1 PUSH2 0x1F09 JUMP JUMPDEST DUP6 SLOAD DUP9 DUP5 ADD DUP6 ADD MSTORE SWAP5 DUP6 ADD SWAP5 DUP8 SWAP5 POP SWAP2 DUP4 ADD SWAP2 PUSH2 0x1F2C JUMP JUMPDEST SWAP2 POP POP PUSH2 0x1F17 SWAP5 POP PUSH1 0x20 SWAP3 POP PUSH1 0xFF NOT AND DUP3 DUP5 ADD MSTORE ISZERO ISZERO PUSH1 0x5 SHL DUP3 ADD ADD CODESIZE DUP1 PUSH2 0x1F09 JUMP JUMPDEST PUSH1 0x40 SWAP1 PUSH1 0x3 NOT ADD SLT PUSH2 0x1D16 JUMPI PUSH1 0x4 CALLDATALOAD SWAP1 PUSH1 0x24 CALLDATALOAD SWAP1 JUMP JUMPDEST DUP1 SLOAD DUP3 LT ISZERO PUSH2 0x1FAD JUMPI PUSH1 0x0 MSTORE PUSH1 0x20 PUSH1 0x0 KECCAK256 ADD SWAP1 PUSH1 0x0 SWAP1 JUMP JUMPDEST PUSH4 0x4E487B71 PUSH1 0xE0 SHL PUSH1 0x0 MSTORE PUSH1 0x32 PUSH1 0x4 MSTORE PUSH1 0x24 PUSH1 0x0 REVERT JUMPDEST PUSH1 0x1 SLOAD PUSH1 0x1 PUSH1 0x1 PUSH1 0xA0 SHL SUB AND CALLER SUB PUSH2 0x1FD7 JUMPI JUMP JUMPDEST PUSH1 0x40 MLOAD PUSH4 0x118CDAA7 PUSH1 0xE0 SHL DUP2 MSTORE CALLER PUSH1 0x4 DUP3 ADD MSTORE PUSH1 0x24 SWAP1 REVERT JUMPDEST ISZERO PUSH2 0x1FF6 JUMPI JUMP JUMPDEST PUSH1 0x40 MLOAD PUSH3 0x461BCD PUSH1 0xE5 SHL DUP2 MSTORE PUSH1 0x20 PUSH1 0x4 DUP3 ADD MSTORE PUSH1 0x11 PUSH1 0x24 DUP3 ADD MSTORE PUSH17 0x5374616B65206D757374206265203E203 PUSH1 0x7C SHL PUSH1 0x44 DUP3 ADD MSTORE PUSH1 0x64 SWAP1 REVERT JUMPDEST ISZERO PUSH2 0x2036 JUMPI JUMP JUMPDEST PUSH1 0x40 MLOAD PUSH3 0x461BCD PUSH1 0xE5 SHL DUP2 MSTORE PUSH1 0x20 PUSH1 0x4 DUP3 ADD MSTORE PUSH1 0xD PUSH1 0x24 DUP3 ADD MSTORE PUSH13 0x24B73B30B634B2103A37B5B2B7 PUSH1 0x99 SHL PUSH1 0x44 DUP3 ADD MSTORE PUSH1 0x64 SWAP1 REVERT JUMPDEST PUSH1 0x0 NOT DUP2 EQ PUSH2 0x207A JUMPI PUSH1 0x1 ADD SWAP1 JUMP JUMPDEST PUSH4 0x4E487B71 PUSH1 0xE0 SHL PUSH1 0x0 MSTORE PUSH1 0x11 PUSH1 0x4 MSTORE PUSH1 0x24 PUSH1 0x0 REVERT JUMPDEST SWAP1 PUSH1 0x5 DUP2 LT ISZERO PUSH2 0x1D3E JUMPI DUP2 SLOAD PUSH1 0xFF PUSH1 0xA0 SHL NOT AND PUSH1 0xA0 SWAP2 SWAP1 SWAP2 SHL PUSH1 0xFF PUSH1 0xA0 SHL AND OR SWAP1 SSTORE JUMP JUMPDEST SWAP1 DUP2 PUSH1 0x20 SWAP2 SUB SLT PUSH2 0x1D16 JUMPI MLOAD DUP1 ISZERO ISZERO DUP2 SUB PUSH2 0x1D16 JUMPI SWAP1 JUMP JUMPDEST ISZERO PUSH2 0x20D3 JUMPI JUMP JUMPDEST PUSH1 0x40 MLOAD PUSH3 0x461BCD PUSH1 0xE5 SHL DUP2 MSTORE PUSH1 0x20 PUSH1 0x4 DUP3 ADD MSTORE PUSH1 0x15 PUSH1 0x24 DUP3 ADD MSTORE PUSH21 0x14DD185AD9481D1C985B9CD9995C8819985A5B1959 PUSH1 0x5A SHL PUSH1 0x44 DUP3 ADD MSTORE PUSH1 0x64 SWAP1 REVERT JUMPDEST SWAP2 SWAP1 DUP3 ADD DUP1 SWAP3 GT PUSH2 0x207A JUMPI JUMP JUMPDEST PUSH1 0x2 PUSH1 0x0 SLOAD EQ PUSH2 0x212E JUMPI PUSH1 0x2 PUSH1 0x0 SSTORE JUMP JUMPDEST PUSH1 0x40 MLOAD PUSH4 0x3EE5AEB5 PUSH1 0xE0 SHL DUP2 MSTORE PUSH1 0x4 SWAP1 REVERT JUMPDEST ISZERO PUSH2 0x2147 JUMPI JUMP JUMPDEST PUSH1 0x40 MLOAD PUSH3 0x461BCD PUSH1 0xE5 SHL DUP2 MSTORE PUSH1 0x20 PUSH1 0x4 DUP3 ADD MSTORE PUSH1 0xE PUSH1 0x24 DUP3 ADD MSTORE PUSH14 0x496E76616C696420737461747573 PUSH1 0x90 SHL PUSH1 0x44 DUP3 ADD MSTORE PUSH1 0x64 SWAP1 REVERT JUMPDEST DUP1 SLOAD PUSH9 0x10000000000000000 DUP2 LT ISZERO PUSH2 0x1DBE JUMPI PUSH2 0x219F SWAP2 PUSH1 0x1 DUP3 ADD DUP2 SSTORE PUSH2 0x1F95 JUMP JUMPDEST DUP2 SWAP3 SWAP2 SLOAD SWAP1 PUSH1 0x3 SHL SWAP2 PUSH1 0x1 DUP1 PUSH1 0xA0 SHL SUB DUP1 SWAP2 AND DUP4 SHL SWAP3 SHL NOT AND OR SWAP1 SSTORE JUMP JUMPDEST DUP2 DUP2 MUL SWAP3 SWAP2 DUP2 ISZERO SWAP2 DUP5 DIV EQ OR ISZERO PUSH2 0x207A JUMPI JUMP JUMPDEST SWAP2 SWAP1 DUP3 SUB SWAP2 DUP3 GT PUSH2 0x207A JUMPI JUMP JUMPDEST DUP2 MLOAD SWAP2 SWAP1 PUSH1 0x41 DUP4 SUB PUSH2 0x220E JUMPI PUSH2 0x2207 SWAP3 POP PUSH1 0x20 DUP3 ADD MLOAD SWAP1 PUSH1 0x60 PUSH1 0x40 DUP5 ADD MLOAD SWAP4 ADD MLOAD PUSH1 0x0 BYTE SWAP1 PUSH2 0x2219 JUMP JUMPDEST SWAP2 SWAP3 SWAP1 SWAP2 SWAP1 JUMP JUMPDEST POP POP PUSH1 0x0 SWAP2 PUSH1 0x2 SWAP2 SWAP1 JUMP JUMPDEST SWAP2 SWAP1 PUSH32 0x7FFFFFFFFFFFFFFFFFFFFFFFFFFFFFFF5D576E7357A4501DDFE92F46681B20A0 DUP5 GT PUSH2 0x229D JUMPI SWAP3 PUSH1 0x20 SWAP3 SWAP2 PUSH1 0xFF PUSH1 0x80 SWAP6 PUSH1 0x40 MLOAD SWAP5 DUP6 MSTORE AND DUP5 DUP5 ADD MSTORE PUSH1 0x40 DUP4 ADD MSTORE PUSH1 0x60 DUP3 ADD MSTORE PUSH1 0x0 SWAP3 DUP4 SWAP2 DUP3 DUP1 MSTORE PUSH1 0x1 GAS STATICCALL ISZERO PUSH2 0x2291 JUMPI DUP1 MLOAD PUSH1 0x1 PUSH1 0x1 PUSH1 0xA0 SHL SUB DUP2 AND ISZERO PUSH2 0x2288 JUMPI SWAP2 DUP2 SWAP1 JUMP JUMPDEST POP DUP1 SWAP2 PUSH1 0x1 SWAP2 SWAP1 JUMP JUMPDEST PUSH1 0x40 MLOAD SWAP1 RETURNDATASIZE SWAP1 DUP3 RETURNDATACOPY RETURNDATASIZE SWAP1 REVERT JUMPDEST POP POP POP PUSH1 0x0 SWAP2 PUSH1 0x3 SWAP2 SWAP1 JUMP JUMPDEST PUSH1 0x4 DUP2 LT ISZERO PUSH2 0x1D3E JUMPI DUP1 PUSH2 0x22BB JUMPI POP POP JUMP JUMPDEST PUSH1 0x1 DUP2 SUB PUSH2 0x22D5 JUMPI PUSH1 0x40 MLOAD PUSH4 0xF645EEDF PUSH1 0xE0 SHL DUP2 MSTORE PUSH1 0x4 SWAP1 REVERT JUMPDEST PUSH1 0x2 DUP2 SUB PUSH2 0x22F6 JUMPI PUSH1 0x40 MLOAD PUSH4 0xFCE698F7 PUSH1 0xE0 SHL DUP2 MSTORE PUSH1 0x4 DUP2 ADD DUP4 SWAP1 MSTORE PUSH1 0x24 SWAP1 REVERT JUMPDEST PUSH1 0x3 EQ PUSH2 0x2300 JUMPI POP JUMP JUMPDEST PUSH1 0x24 SWAP1 PUSH1 0x40 MLOAD SWAP1 PUSH4 0x35E2F383 PUSH1 0xE2 SHL DUP3 MSTORE PUSH1 0x4 DUP3 ADD MSTORE REVERT INVALID SLOAD SLOAD 0x29 DUP1 0xA8 0x4B 0xE9 0xB3 0xD5 STATICCALL 0x2B 0xE1 GASPRICE 0xAE EXTCODESIZE PUSH25 0x757B6DDF78C50EE9252CF07FBC9BE8D2A26469706673582212 KECCAK256 EXTCODECOPY CALLCODE 0xBA DUP3 0xA7 PUSH21 0x1103E879AEF66775EEDF7DFCD48F19DA55B6EAD007 0xE5 0xD1 0x49 PUSH9 0x6D64736F6C63430008 EQ STOP CALLER "},"methodIdentifiers":{"acceptP2PChallenge(uint256)":"d35202e8","admin()":"f851a440","adminParticipants(uint256,address)":"60d899cc","challenges(uint256)":"8f1d3776","claimPayout(uint256)":"8a69614e","createAdminChallenge(uint256,address,string)":"8bf6564b","createP2PChallenge(address,uint256,address,string)":"4b0a1110","getChallenge(uint256)":"1bdd4b74","getNoParticipants(uint256)":"a3643c9c","getUserLockedStakes(address)":"aecc1437","getYesParticipants(uint256)":"87a0a4ef","joinAdminChallenge(uint256,bool)":"7ba6a324","nextChallengeId()":"fc67aa50","noParticipants(uint256,uint256)":"acdc9ada","owner()":"8da5cb5b","platformFeePercentage()":"cdd78cfc","pointsToken()":"72e1011c","renounceOwnership()":"715018a6","resolveChallenge(uint256,address,uint256,bytes)":"b9c22113","setAdmin(address)":"704b6c02","setPlatformFee(uint256)":"12e8e2c3","totalFeesCollected()":"60c6d8ae","transferOwnership(address)":"f2fde38b","userLockedStakes(address)":"9598c130","withdrawFees(address)":"164e68de","yesParticipants(uint256,uint256)":"f272f674"}}}}}