{"src/ChallengeEscrow.sol":{"ChallengeEscrow":{"abi":[{"inputs":[{"internalType":"address","name":"_challengeFactory","type":"address"}],"stateMutability":"nonpayable","type":"constructor"},{"inputs":[{"internalType":"address","name":"owner","type":"address"}],"name":"OwnableInvalidOwner","type":"error"},{"inputs":[{"internalType":"address","name":"account","type":"address"}],"name":"OwnableUnauthorizedAccount","type":"error"},{"inputs":[],"name":"ReentrancyGuardReentrantCall","type":"error"},{"inputs":[{"internalType":"address","name":"token","type":"address"}],"name":"SafeERC20FailedOperation","type":"error"},{"anonymous":false,"inputs":[{"indexed":true,"internalType":"address","name":"newFactory","type":"address"}],"name":"ChallengeFactoryUpdated","type":"event"},{"anonymous":false,"inputs":[{"indexed":true,"internalType":"address","name":"previousOwner","type":"address"},{"indexed":true,"internalType":"address","name":"newOwner","type":"address"}],"name":"OwnershipTransferred","type":"event"},{"anonymous":false,"inputs":[{"indexed":true,"internalType":"address","name":"user","type":"address"},{"indexed":true,"internalType":"address","name":"token","type":"address"},{"indexed":false,"internalType":"uint256","name":"amount","type":"uint256"},{"indexed":true,"internalType":"uint256","name":"challengeId","type":"uint256"}],"name":"StakeLocked","type":"event"},{"anonymous":false,"inputs":[{"indexed":true,"internalType":"address","name":"user","type":"address"},{"indexed":true,"internalType":"address","name":"token","type":"address"},{"indexed":false,"internalType":"uint256","name":"amount","type":"uint256"},{"indexed":true,"internalType":"uint256","name":"challengeId","type":"uint256"}],"name":"StakeReleased","type":"event"},{"anonymous":false,"inputs":[{"indexed":true,"internalType":"address","name":"from","type":"address"},{"indexed":true,"internalType":"address","name":"to","type":"address"},{"indexed":true,"internalType":"address","name":"token","type":"address"},{"indexed":false,"internalType":"uint256","name":"amount","type":"uint256"},{"indexed":false,"internalType":"uint256","name":"challengeId","type":"uint256"},{"indexed":false,"internalType":"string","name":"reason","type":"string"}],"name":"StakeTransferred","type":"event"},{"inputs":[],"name":"challengeFactory","outputs":[{"internalType":"address","name":"","type":"address"}],"stateMutability":"view","type":"function"},{"inputs":[{"internalType":"uint256","name":"","type":"uint256"},{"internalType":"uint256","name":"","type":"uint256"}],"name":"challengeParticipants","outputs":[{"internalType":"address","name":"","type":"address"}],"stateMutability":"view","type":"function"},{"inputs":[{"internalType":"uint256","name":"","type":"uint256"},{"internalType":"uint256","name":"","type":"uint256"}],"name":"challengeStakes","outputs":[{"internalType":"address","name":"token","type":"address"},{"internalType":"uint256","name":"amount","type":"uint256"},{"internalType":"uint256","name":"lockedAt","type":"uint256"},{"internalType":"uint256","name":"challengeId","type":"uint256"},{"internalType":"bool","name":"released","type":"bool"}],"stateMutability":"view","type":"function"},{"inputs":[{"internalType":"uint256","name":"challengeId","type":"uint256"}],"name":"getChallengeParticipants","outputs":[{"internalType":"address[]","name":"","type":"address[]"}],"stateMutability":"view","type":"function"},{"inputs":[{"internalType":"uint256","name":"challengeId","type":"uint256"}],"name":"getChallengeStakes","outputs":[{"components":[{"internalType":"address","name":"token","type":"address"},{"internalType":"uint256","name":"amount","type":"uint256"},{"internalType":"uint256","name":"lockedAt","type":"uint256"},{"internalType":"uint256","name":"challengeId","type":"uint256"},{"internalType":"bool","name":"released","type":"bool"}],"internalType":"struct ChallengeEscrow.LockedStake[]","name":"","type":"tuple[]"}],"stateMutability":"view","type":"function"},{"inputs":[{"internalType":"address","name":"user","type":"address"},{"internalType":"address","name":"token","type":"address"}],"name":"getTotalLockedByToken","outputs":[{"internalType":"uint256","name":"","type":"uint256"}],"stateMutability":"view","type":"function"},{"inputs":[{"internalType":"address","name":"user","type":"address"},{"internalType":"address","name":"token","type":"address"},{"internalType":"uint256","name":"amount","type":"uint256"},{"internalType":"uint256","name":"challengeId","type":"uint256"}],"name":"lockStake","outputs":[],"stateMutability":"nonpayable","type":"function"},{"inputs":[],"name":"owner","outputs":[{"internalType":"address","name":"","type":"address"}],"stateMutability":"view","type":"function"},{"inputs":[{"internalType":"uint256","name":"challengeId","type":"uint256"},{"internalType":"address[]","name":"users","type":"address[]"}],"name":"releaseStakes","outputs":[],"stateMutability":"nonpayable","type":"function"},{"inputs":[],"name":"renounceOwnership","outputs":[],"stateMutability":"nonpayable","type":"function"},{"inputs":[{"internalType":"address","name":"_newFactory","type":"address"}],"name":"setChallengeFactory","outputs":[],"stateMutability":"nonpayable","type":"function"},{"inputs":[{"internalType":"address","name":"","type":"address"},{"internalType":"address","name":"","type":"address"}],"name":"totalLockedByToken","outputs":[{"internalType":"uint256","name":"","type":"uint256"}],"stateMutability":"view","type":"function"},{"inputs":[{"internalType":"address","name":"newOwner","type":"address"}],"name":"transferOwnership","outputs":[],"stateMutability":"nonpayable","type":"function"},{"inputs":[{"internalType":"address","name":"from","type":"address"},{"internalType":"address","name":"to","type":"address"},{"internalType":"address","name":"token","type":"address"},{"internalType":"uint256","name":"amount","type":"uint256"},{"internalType":"uint256","name":"challengeId","type":"uint256"}],"name":"transferStake","outputs":[],"stateMutability":"nonpayable","type":"function"},{"stateMutability":"payable","type":"receive"}],"evm":{"bytecode":{"linkReferences":{},"object":"60803461010b57601f610fd038819003918201601f19168301916001600160401b038311848410176101105780849260209460405283398101031261010b57516001600160a01b038082169182900361010b57600160005533156100f25760018054336001600160a01b0319808316821790935560405192939091167f8be0079c531659141344cd1fd0a4f28419497f9722a3daafe3b4186f6b6457e0600080a382156100be57506002541617600255604051610ea990816101278239f35b62461bcd60e51b815260206004820152600f60248201526e496e76616c696420666163746f727960881b6044820152606490fd5b604051631e4fbdf760e01b815260006004820152602490fd5b600080fd5b634e487b7160e01b600052604160045260246000fdfe6080604081815260049182361015610022575b505050361561002057600080fd5b005b600090813560e01c908163023bf95814610b1c5750806312fa0aa0146108ed578063137b29881461087b5780635479da3d146103fd5780635c3d9dec146107d85780635dbaf68b146107af5780636b12afa01461060a578063715018a6146105ad5780638da5cb5b146105845780639d7d4b9614610446578063c84c7da8146103fd578063f2fde38b14610369578063f4887c7a1461010d5763ffac1a9503610012573461010a576100d336610bff565b9390825260205281812090815484101561010a57506020926100f491610c47565b905491519160018060a01b039160031b1c168152f35b80fd5b50903461036557608036600319011261036557610128610bce565b90610131610be9565b600254606435936001600160a01b03916044359183916101549083163314610c8b565b61015c610dcc565b16928315610333578290610171831515610ccf565b1693846102f7575b80519261018584610d10565b8584526020938481019084825283810190428252606081018a815260808201928c84528b8d5260058952868d209485546801000000000000000096878210156102e257906101d891600182018155610c15565b9490946102cf57908f94939291889051166bffffffffffffffffffffffff60a01b855416178455516001840155516002830155516003820155019051151560ff8019835416911617905585895260038552828920878a5285528289208054908582018092116102bc57558789528985528289208054918210156102a9578161028a9160017f1d80c2b0b59d2f1543a8b483e392137e35f1d5ebfffcb3ad3a85c07a756363139897969594018155610c47565b819291549060031b9188831b921b191617905551908152a46001815580f35b634e487b7160e01b8a5260418b5260248afd5b634e487b7160e01b8b5260118c5260248bfd5b8f8f80602492634e487b7160e01b825252fd5b508f8f6041602492634e487b7160e01b835252fd5b61032e81516323b872dd60e01b60208201523360248201523060448201528360648201526064815261032881610d10565b86610d64565b610179565b845162461bcd60e51b81526020818a0152600c60248201526b24b73b30b634b2103ab9b2b960a11b6044820152606490fd5b5080fd5b5091346103f95760203660031901126103f957610384610bce565b9061038d610c5f565b6001600160a01b039182169283156103e3575050600154826bffffffffffffffffffffffff60a01b821617600155167f8be0079c531659141344cd1fd0a4f28419497f9722a3daafe3b4186f6b6457e08380a380f35b51631e4fbdf760e01b8152908101849052602490fd5b8280fd5b5090346103655780600319360112610365578060209261041b610bce565b610423610be9565b6001600160a01b0391821683526003865283832091168252845220549051908152f35b50823461036557602090816003193601126103f957803583526005918281528484209283549067ffffffffffffffff821161057157865192959361048e83831b880185610d42565b82845286840190819686528786209086925b85841061051557505050505050845193808501918186525180925285850193925b8281106104ce5785850386f35b835180516001600160a01b03168652808301518684015287810151888701526060808201519087015260809081015115159086015260a090940193928101926001016104c1565b848a6001928d809d9a9b9d519061052b82610d10565b858060a01b03885416825285880154848301526002880154908201526003870154606082015260ff868801541615156080820152815201930193019291989695986104a0565b634e487b7160e01b865260418452602486fd5b50903461036557816003193601126103655760015490516001600160a01b039091168152602090f35b503461010a578060031936011261010a576105c6610c5f565b600180546001600160a01b0319811690915581906001600160a01b03167f8be0079c531659141344cd1fd0a4f28419497f9722a3daafe3b4186f6b6457e08280a380f35b5091346103f957816003193601126103f9578035602480359267ffffffffffffffff938481116107ab57366023820112156107ab57808201359485116107ab57600595368487891b840101116107a75760018060a09894939597981b0361067681600254163314610c8b565b61067e610dcc565b858952602092848452828a20988a985b818a1061069d578b6001815580f35b808a88999a9b9c9d981b8a01013598848a1698898b036107a357888e5b5481101561078357906106fb8f959493928e8e8e8e8e8e8e8e6106de8f8a90610c15565b5090810160ff81541615610705575b505050505050505050610def565b90919293946106ba565b7f607e275a4cdbfc07ae250ee663261b358db8397a819037f055b7c5d9730a821b95838354169061073e6001928386019b8c5491610e21565b610760868b54928b815260038a528181208888541682528a5220918254610e14565b905560ff19825416179055541694549051908152a48e8e8e8e8e8e8e38806106ed565b50929a995092969b9a61079891949850610def565b98909591969261068e565b8880fd5b8780fd5b8680fd5b50903461036557816003193601126103655760025490516001600160a01b039091168152602090f35b5091346103f95760203660031901126103f9576107f3610bce565b6107fb610c5f565b6001600160a01b0316918215610846575050600280546001600160a01b031916821790557fb9a1f6d01069d240a4bebe47b464192f46dc977bf49ec60b388e25e4db1a88af8280a280f35b906020606492519162461bcd60e51b8352820152600f60248201526e496e76616c696420666163746f727960881b6044820152fd5b509190346103f95761088c36610bff565b93908152600560205281812090815485101561010a575060a0936108af91610c15565b50600180851b038154169260018201549260ff6002840154926003850154940154169381519586526020860152840152606083015215156080820152f35b5091346103f95760a03660031901126103f957610908610bce565b610910610be9565b6001600160a01b0360443581811695919392908690036107ab57836064359361093e82600254163314610c8b565b610946610dcc565b16938415610aea578116948515610aba57610962841515610ccf565b84885260209160038352838920888a528352838920610982868254610e14565b905587610a80575087808080878a5af13d15610a7b573d67ffffffffffffffff8111610a68578451906109be601f8201601f1916860183610d42565b815289843d92013e5b15610a31575091606060a0927fea5d9bc662aefe5f02d7f0544d609f56eb4d7273187209c55fd79fdc1516fe98945b815193845260843590840152820152601460608201527310da185b1b195b99d9481cd95d1d1b195b595b9d60621b6080820152a46001815580f35b915162461bcd60e51b8152918201526013602482015272115512081d1c985b9cd9995c8819985a5b1959606a1b6044820152606490fd5b634e487b7160e01b8a526041835260248afd5b6109c7565b60609150928492610ab57fea5d9bc662aefe5f02d7f0544d609f56eb4d7273187209c55fd79fdc1516fe989660a0968b610e21565b6109f6565b606490602084519162461bcd60e51b8352820152600a602482015269496e76616c696420746f60b01b6044820152fd5b825162461bcd60e51b8152602081880152600c60248201526b496e76616c69642066726f6d60a01b6044820152606490fd5b905083346103f95760209081600319360112610bca5780949391943582528452828120918254808252858201908194845286842090845b818110610bad5750505081610b69910382610d42565b83519485948186019282875251809352850193925b828110610b8d57505050500390f35b83516001600160a01b031685528695509381019392810192600101610b7e565b82546001600160a01b031684529288019260019283019201610b53565b8380fd5b600435906001600160a01b0382168203610be457565b600080fd5b602435906001600160a01b0382168203610be457565b6040906003190112610be4576004359060243590565b8054821015610c31576000526005602060002091020190600090565b634e487b7160e01b600052603260045260246000fd5b8054821015610c315760005260206000200190600090565b6001546001600160a01b03163303610c7357565b60405163118cdaa760e01b8152336004820152602490fd5b15610c9257565b60405162461bcd60e51b81526020600482015260156024820152744f6e6c79204368616c6c656e6765466163746f727960581b6044820152606490fd5b15610cd657565b60405162461bcd60e51b81526020600482015260126024820152710416d6f756e74206d757374206265203e20360741b6044820152606490fd5b60a0810190811067ffffffffffffffff821117610d2c57604052565b634e487b7160e01b600052604160045260246000fd5b90601f8019910116810190811067ffffffffffffffff821117610d2c57604052565b906000602091828151910182855af115610dc0576000513d610db757506001600160a01b0381163b155b610d955750565b604051635274afe760e01b81526001600160a01b039091166004820152602490fd5b60011415610d8e565b6040513d6000823e3d90fd5b600260005414610ddd576002600055565b604051633ee5aeb560e01b8152600490fd5b6000198114610dfe5760010190565b634e487b7160e01b600052601160045260246000fd5b91908203918211610dfe57565b60405163a9059cbb60e01b60208201526001600160a01b039092166024830152604480830193909352918152608081019167ffffffffffffffff831182841017610d2c57610e7192604052610d64565b56fea2646970667358221220997affd971a1a9582e7d3737da8dcd825aa8c5110ac53c69454e1dc06f734cdf64736f6c63430008140033","opcodes":"PUSH1 0x80 CALLVALUE PUSH2 0x10B JUMPI PUSH1 0x1F PUSH2 0xFD0 CODESIZE DUP2 SWAP1 SUB SWAP2 DUP3 ADD PUSH1 0x1F NOT AND DUP4 ADD SWAP2 PUSH1 0x1 PUSH1 0x1 PUSH1 0x40 SHL SUB DUP4 GT DUP5 DUP5 LT OR PUSH2 0x110 JUMPI DUP1 DUP5 SWAP3 PUSH1 0x20 SWAP5 PUSH1 0x40 MSTORE DUP4 CODECOPY DUP2 ADD SUB SLT PUSH2 0x10B JUMPI MLOAD PUSH1 0x1 PUSH1 0x1 PUSH1 0xA0 SHL SUB DUP1 DUP3 AND SWAP2 DUP3 SWAP1 SUB PUSH2 0x10B JUMPI PUSH1 0x1 PUSH1 0x0 SSTORE CALLER ISZERO PUSH2 0xF2 JUMPI PUSH1 0x1 DUP1 SLOAD CALLER PUSH1 0x1 PUSH1 0x1 PUSH1 0xA0 SHL SUB NOT DUP1 DUP4 AND DUP3 OR SWAP1 SWAP4 SSTORE PUSH1 0x40 MLOAD SWAP3 SWAP4 SWAP1 SWAP2 AND PUSH32 0x8BE0079C531659141344CD1FD0A4F28419497F9722A3DAAFE3B4186F6B6457E0 PUSH1 0x0 DUP1 LOG3 DUP3 ISZERO PUSH2 0xBE JUMPI POP PUSH1 0x2 SLOAD AND OR PUSH1 0x2 SSTORE PUSH1 0x40 MLOAD PUSH2 0xEA9 SWAP1 DUP2 PUSH2 0x127 DUP3 CODECOPY RETURN JUMPDEST PUSH3 0x461BCD PUSH1 0xE5 SHL DUP2 MSTORE PUSH1 0x20 PUSH1 0x4 DUP3 ADD MSTORE PUSH1 0xF PUSH1 0x24 DUP3 ADD MSTORE PUSH15 0x496E76616C696420666163746F7279 PUSH1 0x88 SHL PUSH1 0x44 DUP3 ADD MSTORE PUSH1 0x64 SWAP1 REVERT JUMPDEST PUSH1 0x40 MLOAD PUSH4 0x1E4FBDF7 PUSH1 0xE0 SHL DUP2 MSTORE PUSH1 0x0 PUSH1 0x4 DUP3 ADD MSTORE PUSH1 0x24 SWAP1 REVERT JUMPDEST PUSH1 0x0 DUP1 REVERT JUMPDEST PUSH4 0x4E487B71 PUSH1 0xE0 SHL PUSH1 0x0 MSTORE PUSH1 0x41 PUSH1 0x4 MSTORE PUSH1 0x24 PUSH1 0x0 REVERT INVALID PUSH1 0x80 PUSH1 0x40 DUP2 DUP2 MSTORE PUSH1 0x4 SWAP2 DUP3 CALLDATASIZE LT ISZERO PUSH2 0x22 JUMPI JUMPDEST POP POP POP CALLDATASIZE ISZERO PUSH2 0x20 JUMPI PUSH1 0x0 DUP1 REVERT JUMPDEST STOP JUMPDEST PUSH1 0x0 SWAP1 DUP2 CALLDATALOAD PUSH1 0xE0 SHR SWAP1 DUP2 PUSH4 0x23BF958 EQ PUSH2 0xB1C JUMPI POP DUP1 PUSH4 0x12FA0AA0 EQ PUSH2 0x8ED JUMPI DUP1 PUSH4 0x137B2988 EQ PUSH2 0x87B JUMPI DUP1 PUSH4 0x5479DA3D EQ PUSH2 0x3FD JUMPI DUP1 PUSH4 0x5C3D9DEC EQ PUSH2 0x7D8 JUMPI DUP1 PUSH4 0x5DBAF68B EQ PUSH2 0x7AF JUMPI DUP1 PUSH4 0x6B12AFA0 EQ PUSH2 0x60A JUMPI DUP1 PUSH4 0x715018A6 EQ PUSH2 0x5AD JUMPI DUP1 PUSH4 0x8DA5CB5B EQ PUSH2 0x584 JUMPI DUP1 PUSH4 0x9D7D4B96 EQ PUSH2 0x446 JUMPI DUP1 PUSH4 0xC84C7DA8 EQ PUSH2 0x3FD JUMPI DUP1 PUSH4 0xF2FDE38B EQ PUSH2 0x369 JUMPI DUP1 PUSH4 0xF4887C7A EQ PUSH2 0x10D JUMPI PUSH4 0xFFAC1A95 SUB PUSH2 0x12 JUMPI CALLVALUE PUSH2 0x10A JUMPI PUSH2 0xD3 CALLDATASIZE PUSH2 0xBFF JUMP JUMPDEST SWAP4 SWAP1 DUP3 MSTORE PUSH1 0x20 MSTORE DUP2 DUP2 KECCAK256 SWAP1 DUP2 SLOAD DUP5 LT ISZERO PUSH2 0x10A JUMPI POP PUSH1 0x20 SWAP3 PUSH2 0xF4 SWAP2 PUSH2 0xC47 JUMP JUMPDEST SWAP1 SLOAD SWAP2 MLOAD SWAP2 PUSH1 0x1 DUP1 PUSH1 0xA0 SHL SUB SWAP2 PUSH1 0x3 SHL SHR AND DUP2 MSTORE RETURN JUMPDEST DUP1 REVERT JUMPDEST POP SWAP1 CALLVALUE PUSH2 0x365 JUMPI PUSH1 0x80 CALLDATASIZE PUSH1 0x3 NOT ADD SLT PUSH2 0x365 JUMPI PUSH2 0x128 PUSH2 0xBCE JUMP JUMPDEST SWAP1 PUSH2 0x131 PUSH2 0xBE9 JUMP JUMPDEST PUSH1 0x2 SLOAD PUSH1 0x64 CALLDATALOAD SWAP4 PUSH1 0x1 PUSH1 0x1 PUSH1 0xA0 SHL SUB SWAP2 PUSH1 0x44 CALLDATALOAD SWAP2 DUP4 SWAP2 PUSH2 0x154 SWAP1 DUP4 AND CALLER EQ PUSH2 0xC8B JUMP JUMPDEST PUSH2 0x15C PUSH2 0xDCC JUMP JUMPDEST AND SWAP3 DUP4 ISZERO PUSH2 0x333 JUMPI DUP3 SWAP1 PUSH2 0x171 DUP4 ISZERO ISZERO PUSH2 0xCCF JUMP JUMPDEST AND SWAP4 DUP5 PUSH2 0x2F7 JUMPI JUMPDEST DUP1 MLOAD SWAP3 PUSH2 0x185 DUP5 PUSH2 0xD10 JUMP JUMPDEST DUP6 DUP5 MSTORE PUSH1 0x20 SWAP4 DUP5 DUP2 ADD SWAP1 DUP5 DUP3 MSTORE DUP4 DUP2 ADD SWAP1 TIMESTAMP DUP3 MSTORE PUSH1 0x60 DUP2 ADD DUP11 DUP2 MSTORE PUSH1 0x80 DUP3 ADD SWAP3 DUP13 DUP5 MSTORE DUP12 DUP14 MSTORE PUSH1 0x5 DUP10 MSTORE DUP7 DUP14 KECCAK256 SWAP5 DUP6 SLOAD PUSH9 0x10000000000000000 SWAP7 DUP8 DUP3 LT ISZERO PUSH2 0x2E2 JUMPI SWAP1 PUSH2 0x1D8 SWAP2 PUSH1 0x1 DUP3 ADD DUP2 SSTORE PUSH2 0xC15 JUMP JUMPDEST SWAP5 SWAP1 SWAP5 PUSH2 0x2CF JUMPI SWAP1 DUP16 SWAP5 SWAP4 SWAP3 SWAP2 DUP9 SWAP1 MLOAD AND PUSH12 0xFFFFFFFFFFFFFFFFFFFFFFFF PUSH1 0xA0 SHL DUP6 SLOAD AND OR DUP5 SSTORE MLOAD PUSH1 0x1 DUP5 ADD SSTORE MLOAD PUSH1 0x2 DUP4 ADD SSTORE MLOAD PUSH1 0x3 DUP3 ADD SSTORE ADD SWAP1 MLOAD ISZERO ISZERO PUSH1 0xFF DUP1 NOT DUP4 SLOAD AND SWAP2 AND OR SWAP1 SSTORE DUP6 DUP10 MSTORE PUSH1 0x3 DUP6 MSTORE DUP3 DUP10 KECCAK256 DUP8 DUP11 MSTORE DUP6 MSTORE DUP3 DUP10 KECCAK256 DUP1 SLOAD SWAP1 DUP6 DUP3 ADD DUP1 SWAP3 GT PUSH2 0x2BC JUMPI SSTORE DUP8 DUP10 MSTORE DUP10 DUP6 MSTORE DUP3 DUP10 KECCAK256 DUP1 SLOAD SWAP2 DUP3 LT ISZERO PUSH2 0x2A9 JUMPI DUP2 PUSH2 0x28A SWAP2 PUSH1 0x1 PUSH32 0x1D80C2B0B59D2F1543A8B483E392137E35F1D5EBFFFCB3AD3A85C07A75636313 SWAP9 SWAP8 SWAP7 SWAP6 SWAP5 ADD DUP2 SSTORE PUSH2 0xC47 JUMP JUMPDEST DUP2 SWAP3 SWAP2 SLOAD SWAP1 PUSH1 0x3 SHL SWAP2 DUP9 DUP4 SHL SWAP3 SHL NOT AND OR SWAP1 SSTORE MLOAD SWAP1 DUP2 MSTORE LOG4 PUSH1 0x1 DUP2 SSTORE DUP1 RETURN JUMPDEST PUSH4 0x4E487B71 PUSH1 0xE0 SHL DUP11 MSTORE PUSH1 0x41 DUP12 MSTORE PUSH1 0x24 DUP11 REVERT JUMPDEST PUSH4 0x4E487B71 PUSH1 0xE0 SHL DUP12 MSTORE PUSH1 0x11 DUP13 MSTORE PUSH1 0x24 DUP12 REVERT JUMPDEST DUP16 DUP16 DUP1 PUSH1 0x24 SWAP3 PUSH4 0x4E487B71 PUSH1 0xE0 SHL DUP3 MSTORE MSTORE REVERT JUMPDEST POP DUP16 DUP16 PUSH1 0x41 PUSH1 0x24 SWAP3 PUSH4 0x4E487B71 PUSH1 0xE0 SHL DUP4 MSTORE MSTORE REVERT JUMPDEST PUSH2 0x32E DUP2 MLOAD PUSH4 0x23B872DD PUSH1 0xE0 SHL PUSH1 0x20 DUP3 ADD MSTORE CALLER PUSH1 0x24 DUP3 ADD MSTORE ADDRESS PUSH1 0x44 DUP3 ADD MSTORE DUP4 PUSH1 0x64 DUP3 ADD MSTORE PUSH1 0x64 DUP2 MSTORE PUSH2 0x328 DUP2 PUSH2 0xD10 JUMP JUMPDEST DUP7 PUSH2 0xD64 JUMP JUMPDEST PUSH2 0x179 JUMP JUMPDEST DUP5 MLOAD PUSH3 0x461BCD PUSH1 0xE5 SHL DUP2 MSTORE PUSH1 0x20 DUP2 DUP11 ADD MSTORE PUSH1 0xC PUSH1 0x24 DUP3 ADD MSTORE PUSH12 0x24B73B30B634B2103AB9B2B9 PUSH1 0xA1 SHL PUSH1 0x44 DUP3 ADD MSTORE PUSH1 0x64 SWAP1 REVERT JUMPDEST POP DUP1 REVERT JUMPDEST POP SWAP2 CALLVALUE PUSH2 0x3F9 JUMPI PUSH1 0x20 CALLDATASIZE PUSH1 0x3 NOT ADD SLT PUSH2 0x3F9 JUMPI PUSH2 0x384 PUSH2 0xBCE JUMP JUMPDEST SWAP1 PUSH2 0x38D PUSH2 0xC5F JUMP JUMPDEST PUSH1 0x1 PUSH1 0x1 PUSH1 0xA0 SHL SUB SWAP2 DUP3 AND SWAP3 DUP4 ISZERO PUSH2 0x3E3 JUMPI POP POP PUSH1 0x1 SLOAD DUP3 PUSH12 0xFFFFFFFFFFFFFFFFFFFFFFFF PUSH1 0xA0 SHL DUP3 AND OR PUSH1 0x1 SSTORE AND PUSH32 0x8BE0079C531659141344CD1FD0A4F28419497F9722A3DAAFE3B4186F6B6457E0 DUP4 DUP1 LOG3 DUP1 RETURN JUMPDEST MLOAD PUSH4 0x1E4FBDF7 PUSH1 0xE0 SHL DUP2 MSTORE SWAP1 DUP2 ADD DUP5 SWAP1 MSTORE PUSH1 0x24 SWAP1 REVERT JUMPDEST DUP3 DUP1 REVERT JUMPDEST POP SWAP1 CALLVALUE PUSH2 0x365 JUMPI DUP1 PUSH1 0x3 NOT CALLDATASIZE ADD SLT PUSH2 0x365 JUMPI DUP1 PUSH1 0x20 SWAP3 PUSH2 0x41B PUSH2 0xBCE JUMP JUMPDEST PUSH2 0x423 PUSH2 0xBE9 JUMP JUMPDEST PUSH1 0x1 PUSH1 0x1 PUSH1 0xA0 SHL SUB SWAP2 DUP3 AND DUP4 MSTORE PUSH1 0x3 DUP7 MSTORE DUP4 DUP4 KECCAK256 SWAP2 AND DUP3 MSTORE DUP5 MSTORE KECCAK256 SLOAD SWAP1 MLOAD SWAP1 DUP2 MSTORE RETURN JUMPDEST POP DUP3 CALLVALUE PUSH2 0x365 JUMPI PUSH1 0x20 SWAP1 DUP2 PUSH1 0x3 NOT CALLDATASIZE ADD SLT PUSH2 0x3F9 JUMPI DUP1 CALLDATALOAD DUP4 MSTORE PUSH1 0x5 SWAP2 DUP3 DUP2 MSTORE DUP5 DUP5 KECCAK256 SWAP3 DUP4 SLOAD SWAP1 PUSH8 0xFFFFFFFFFFFFFFFF DUP3 GT PUSH2 0x571 JUMPI DUP7 MLOAD SWAP3 SWAP6 SWAP4 PUSH2 0x48E DUP4 DUP4 SHL DUP9 ADD DUP6 PUSH2 0xD42 JUMP JUMPDEST DUP3 DUP5 MSTORE DUP7 DUP5 ADD SWAP1 DUP2 SWAP7 DUP7 MSTORE DUP8 DUP7 KECCAK256 SWAP1 DUP7 SWAP3 JUMPDEST DUP6 DUP5 LT PUSH2 0x515 JUMPI POP POP POP POP POP POP DUP5 MLOAD SWAP4 DUP1 DUP6 ADD SWAP2 DUP2 DUP7 MSTORE MLOAD DUP1 SWAP3 MSTORE DUP6 DUP6 ADD SWAP4 SWAP3 JUMPDEST DUP3 DUP2 LT PUSH2 0x4CE JUMPI DUP6 DUP6 SUB DUP7 RETURN JUMPDEST DUP4 MLOAD DUP1 MLOAD PUSH1 0x1 PUSH1 0x1 PUSH1 0xA0 SHL SUB AND DUP7 MSTORE DUP1 DUP4 ADD MLOAD DUP7 DUP5 ADD MSTORE DUP8 DUP2 ADD MLOAD DUP9 DUP8 ADD MSTORE PUSH1 0x60 DUP1 DUP3 ADD MLOAD SWAP1 DUP8 ADD MSTORE PUSH1 0x80 SWAP1 DUP2 ADD MLOAD ISZERO ISZERO SWAP1 DUP7 ADD MSTORE PUSH1 0xA0 SWAP1 SWAP5 ADD SWAP4 SWAP3 DUP2 ADD SWAP3 PUSH1 0x1 ADD PUSH2 0x4C1 JUMP JUMPDEST DUP5 DUP11 PUSH1 0x1 SWAP3 DUP14 DUP1 SWAP14 SWAP11 SWAP12 SWAP14 MLOAD SWAP1 PUSH2 0x52B DUP3 PUSH2 0xD10 JUMP JUMPDEST DUP6 DUP1 PUSH1 0xA0 SHL SUB DUP9 SLOAD AND DUP3 MSTORE DUP6 DUP9 ADD SLOAD DUP5 DUP4 ADD MSTORE PUSH1 0x2 DUP9 ADD SLOAD SWAP1 DUP3 ADD MSTORE PUSH1 0x3 DUP8 ADD SLOAD PUSH1 0x60 DUP3 ADD MSTORE PUSH1 0xFF DUP7 DUP9 ADD SLOAD AND ISZERO ISZERO PUSH1 0x80 DUP3 ADD MSTORE DUP2 MSTORE ADD SWAP4 ADD SWAP4 ADD SWAP3 SWAP2 SWAP9 SWAP7 SWAP6 SWAP9 PUSH2 0x4A0 JUMP JUMPDEST PUSH4 0x4E487B71 PUSH1 0xE0 SHL DUP7 MSTORE PUSH1 0x41 DUP5 MSTORE PUSH1 0x24 DUP7 REVERT JUMPDEST POP SWAP1 CALLVALUE PUSH2 0x365 JUMPI DUP2 PUSH1 0x3 NOT CALLDATASIZE ADD SLT PUSH2 0x365 JUMPI PUSH1 0x1 SLOAD SWAP1 MLOAD PUSH1 0x1 PUSH1 0x1 PUSH1 0xA0 SHL SUB SWAP1 SWAP2 AND DUP2 MSTORE PUSH1 0x20 SWAP1 RETURN JUMPDEST POP CALLVALUE PUSH2 0x10A JUMPI DUP1 PUSH1 0x3 NOT CALLDATASIZE ADD SLT PUSH2 0x10A JUMPI PUSH2 0x5C6 PUSH2 0xC5F JUMP JUMPDEST PUSH1 0x1 DUP1 SLOAD PUSH1 0x1 PUSH1 0x1 PUSH1 0xA0 SHL SUB NOT DUP2 AND SWAP1 SWAP2 SSTORE DUP2 SWAP1 PUSH1 0x1 PUSH1 0x1 PUSH1 0xA0 SHL SUB AND PUSH32 0x8BE0079C531659141344CD1FD0A4F28419497F9722A3DAAFE3B4186F6B6457E0 DUP3 DUP1 LOG3 DUP1 RETURN JUMPDEST POP SWAP2 CALLVALUE PUSH2 0x3F9 JUMPI DUP2 PUSH1 0x3 NOT CALLDATASIZE ADD SLT PUSH2 0x3F9 JUMPI DUP1 CALLDATALOAD PUSH1 0x24 DUP1 CALLDATALOAD SWAP3 PUSH8 0xFFFFFFFFFFFFFFFF SWAP4 DUP5 DUP2 GT PUSH2 0x7AB JUMPI CALLDATASIZE PUSH1 0x23 DUP3 ADD SLT ISZERO PUSH2 0x7AB JUMPI DUP1 DUP3 ADD CALLDATALOAD SWAP5 DUP6 GT PUSH2 0x7AB JUMPI PUSH1 0x5 SWAP6 CALLDATASIZE DUP5 DUP8 DUP10 SHL DUP5 ADD ADD GT PUSH2 0x7A7 JUMPI PUSH1 0x1 DUP1 PUSH1 0xA0 SWAP9 SWAP5 SWAP4 SWAP6 SWAP8 SWAP9 SHL SUB PUSH2 0x676 DUP2 PUSH1 0x2 SLOAD AND CALLER EQ PUSH2 0xC8B JUMP JUMPDEST PUSH2 0x67E PUSH2 0xDCC JUMP JUMPDEST DUP6 DUP10 MSTORE PUSH1 0x20 SWAP3 DUP5 DUP5 MSTORE DUP3 DUP11 KECCAK256 SWAP9 DUP11 SWAP9 JUMPDEST DUP2 DUP11 LT PUSH2 0x69D JUMPI DUP12 PUSH1 0x1 DUP2 SSTORE DUP1 RETURN JUMPDEST DUP1 DUP11 DUP9 SWAP10 SWAP11 SWAP12 SWAP13 SWAP14 SWAP9 SHL DUP11 ADD ADD CALLDATALOAD SWAP9 DUP5 DUP11 AND SWAP9 DUP10 DUP12 SUB PUSH2 0x7A3 JUMPI DUP9 DUP15 JUMPDEST SLOAD DUP2 LT ISZERO PUSH2 0x783 JUMPI SWAP1 PUSH2 0x6FB DUP16 SWAP6 SWAP5 SWAP4 SWAP3 DUP15 DUP15 DUP15 DUP15 DUP15 DUP15 DUP15 DUP15 PUSH2 0x6DE DUP16 DUP11 SWAP1 PUSH2 0xC15 JUMP JUMPDEST POP SWAP1 DUP2 ADD PUSH1 0xFF DUP2 SLOAD AND ISZERO PUSH2 0x705 JUMPI JUMPDEST POP POP POP POP POP POP POP POP POP PUSH2 0xDEF JUMP JUMPDEST SWAP1 SWAP2 SWAP3 SWAP4 SWAP5 PUSH2 0x6BA JUMP JUMPDEST PUSH32 0x607E275A4CDBFC07AE250EE663261B358DB8397A819037F055B7C5D9730A821B SWAP6 DUP4 DUP4 SLOAD AND SWAP1 PUSH2 0x73E PUSH1 0x1 SWAP3 DUP4 DUP7 ADD SWAP12 DUP13 SLOAD SWAP2 PUSH2 0xE21 JUMP JUMPDEST PUSH2 0x760 DUP7 DUP12 SLOAD SWAP3 DUP12 DUP2 MSTORE PUSH1 0x3 DUP11 MSTORE DUP2 DUP2 KECCAK256 DUP9 DUP9 SLOAD AND DUP3 MSTORE DUP11 MSTORE KECCAK256 SWAP2 DUP3 SLOAD PUSH2 0xE14 JUMP JUMPDEST SWAP1 SSTORE PUSH1 0xFF NOT DUP3 SLOAD AND OR SWAP1 SSTORE SLOAD AND SWAP5 SLOAD SWAP1 MLOAD SWAP1 DUP2 MSTORE LOG4 DUP15 DUP15 DUP15 DUP15 DUP15 DUP15 DUP15 CODESIZE DUP1 PUSH2 0x6ED JUMP JUMPDEST POP SWAP3 SWAP11 SWAP10 POP SWAP3 SWAP7 SWAP12 SWAP11 PUSH2 0x798 SWAP2 SWAP5 SWAP9 POP PUSH2 0xDEF JUMP JUMPDEST SWAP9 SWAP1 SWAP6 SWAP2 SWAP7 SWAP3 PUSH2 0x68E JUMP JUMPDEST DUP9 DUP1 REVERT JUMPDEST DUP8 DUP1 REVERT JUMPDEST DUP7 DUP1 REVERT JUMPDEST POP SWAP1 CALLVALUE PUSH2 0x365 JUMPI DUP2 PUSH1 0x3 NOT CALLDATASIZE ADD SLT PUSH2 0x365 JUMPI PUSH1 0x2 SLOAD SWAP1 MLOAD PUSH1 0x1 PUSH1 0x1 PUSH1 0xA0 SHL SUB SWAP1 SWAP2 AND DUP2 MSTORE PUSH1 0x20 SWAP1 RETURN JUMPDEST POP SWAP2 CALLVALUE PUSH2 0x3F9 JUMPI PUSH1 0x20 CALLDATASIZE PUSH1 0x3 NOT ADD SLT PUSH2 0x3F9 JUMPI PUSH2 0x7F3 PUSH2 0xBCE JUMP JUMPDEST PUSH2 0x7FB PUSH2 0xC5F JUMP JUMPDEST PUSH1 0x1 PUSH1 0x1 PUSH1 0xA0 SHL SUB AND SWAP2 DUP3 ISZERO PUSH2 0x846 JUMPI POP POP PUSH1 0x2 DUP1 SLOAD PUSH1 0x1 PUSH1 0x1 PUSH1 0xA0 SHL SUB NOT AND DUP3 OR SWAP1 SSTORE PUSH32 0xB9A1F6D01069D240A4BEBE47B464192F46DC977BF49EC60B388E25E4DB1A88AF DUP3 DUP1 LOG2 DUP1 RETURN JUMPDEST SWAP1 PUSH1 0x20 PUSH1 0x64 SWAP3 MLOAD SWAP2 PUSH3 0x461BCD PUSH1 0xE5 SHL DUP4 MSTORE DUP3 ADD MSTORE PUSH1 0xF PUSH1 0x24 DUP3 ADD MSTORE PUSH15 0x496E76616C696420666163746F7279 PUSH1 0x88 SHL PUSH1 0x44 DUP3 ADD MSTORE REVERT JUMPDEST POP SWAP2 SWAP1 CALLVALUE PUSH2 0x3F9 JUMPI PUSH2 0x88C CALLDATASIZE PUSH2 0xBFF JUMP JUMPDEST SWAP4 SWAP1 DUP2 MSTORE PUSH1 0x5 PUSH1 0x20 MSTORE DUP2 DUP2 KECCAK256 SWAP1 DUP2 SLOAD DUP6 LT ISZERO PUSH2 0x10A JUMPI POP PUSH1 0xA0 SWAP4 PUSH2 0x8AF SWAP2 PUSH2 0xC15 JUMP JUMPDEST POP PUSH1 0x1 DUP1 DUP6 SHL SUB DUP2 SLOAD AND SWAP3 PUSH1 0x1 DUP3 ADD SLOAD SWAP3 PUSH1 0xFF PUSH1 0x2 DUP5 ADD SLOAD SWAP3 PUSH1 0x3 DUP6 ADD SLOAD SWAP5 ADD SLOAD AND SWAP4 DUP2 MLOAD SWAP6 DUP7 MSTORE PUSH1 0x20 DUP7 ADD MSTORE DUP5 ADD MSTORE PUSH1 0x60 DUP4 ADD MSTORE ISZERO ISZERO PUSH1 0x80 DUP3 ADD MSTORE RETURN JUMPDEST POP SWAP2 CALLVALUE PUSH2 0x3F9 JUMPI PUSH1 0xA0 CALLDATASIZE PUSH1 0x3 NOT ADD SLT PUSH2 0x3F9 JUMPI PUSH2 0x908 PUSH2 0xBCE JUMP JUMPDEST PUSH2 0x910 PUSH2 0xBE9 JUMP JUMPDEST PUSH1 0x1 PUSH1 0x1 PUSH1 0xA0 SHL SUB PUSH1 0x44 CALLDATALOAD DUP2 DUP2 AND SWAP6 SWAP2 SWAP4 SWAP3 SWAP1 DUP7 SWAP1 SUB PUSH2 0x7AB JUMPI DUP4 PUSH1 0x64 CALLDATALOAD SWAP4 PUSH2 0x93E DUP3 PUSH1 0x2 SLOAD AND CALLER EQ PUSH2 0xC8B JUMP JUMPDEST PUSH2 0x946 PUSH2 0xDCC JUMP JUMPDEST AND SWAP4 DUP5 ISZERO PUSH2 0xAEA JUMPI DUP2 AND SWAP5 DUP6 ISZERO PUSH2 0xABA JUMPI PUSH2 0x962 DUP5 ISZERO ISZERO PUSH2 0xCCF JUMP JUMPDEST DUP5 DUP9 MSTORE PUSH1 0x20 SWAP2 PUSH1 0x3 DUP4 MSTORE DUP4 DUP10 KECCAK256 DUP9 DUP11 MSTORE DUP4 MSTORE DUP4 DUP10 KECCAK256 PUSH2 0x982 DUP7 DUP3 SLOAD PUSH2 0xE14 JUMP JUMPDEST SWAP1 SSTORE DUP8 PUSH2 0xA80 JUMPI POP DUP8 DUP1 DUP1 DUP1 DUP8 DUP11 GAS CALL RETURNDATASIZE ISZERO PUSH2 0xA7B JUMPI RETURNDATASIZE PUSH8 0xFFFFFFFFFFFFFFFF DUP2 GT PUSH2 0xA68 JUMPI DUP5 MLOAD SWAP1 PUSH2 0x9BE PUSH1 0x1F DUP3 ADD PUSH1 0x1F NOT AND DUP7 ADD DUP4 PUSH2 0xD42 JUMP JUMPDEST DUP2 MSTORE DUP10 DUP5 RETURNDATASIZE SWAP3 ADD RETURNDATACOPY JUMPDEST ISZERO PUSH2 0xA31 JUMPI POP SWAP2 PUSH1 0x60 PUSH1 0xA0 SWAP3 PUSH32 0xEA5D9BC662AEFE5F02D7F0544D609F56EB4D7273187209C55FD79FDC1516FE98 SWAP5 JUMPDEST DUP2 MLOAD SWAP4 DUP5 MSTORE PUSH1 0x84 CALLDATALOAD SWAP1 DUP5 ADD MSTORE DUP3 ADD MSTORE PUSH1 0x14 PUSH1 0x60 DUP3 ADD MSTORE PUSH20 0x10DA185B1B195B99D9481CD95D1D1B195B595B9D PUSH1 0x62 SHL PUSH1 0x80 DUP3 ADD MSTORE LOG4 PUSH1 0x1 DUP2 SSTORE DUP1 RETURN JUMPDEST SWAP2 MLOAD PUSH3 0x461BCD PUSH1 0xE5 SHL DUP2 MSTORE SWAP2 DUP3 ADD MSTORE PUSH1 0x13 PUSH1 0x24 DUP3 ADD MSTORE PUSH19 0x115512081D1C985B9CD9995C8819985A5B1959 PUSH1 0x6A SHL PUSH1 0x44 DUP3 ADD MSTORE PUSH1 0x64 SWAP1 REVERT JUMPDEST PUSH4 0x4E487B71 PUSH1 0xE0 SHL DUP11 MSTORE PUSH1 0x41 DUP4 MSTORE PUSH1 0x24 DUP11 REVERT JUMPDEST PUSH2 0x9C7 JUMP JUMPDEST PUSH1 0x60 SWAP2 POP SWAP3 DUP5 SWAP3 PUSH2 0xAB5 PUSH32 0xEA5D9BC662AEFE5F02D7F0544D609F56EB4D7273187209C55FD79FDC1516FE98 SWAP7 PUSH1 0xA0 SWAP7 DUP12 PUSH2 0xE21 JUMP JUMPDEST PUSH2 0x9F6 JUMP JUMPDEST PUSH1 0x64 SWAP1 PUSH1 0x20 DUP5 MLOAD SWAP2 PUSH3 0x461BCD PUSH1 0xE5 SHL DUP4 MSTORE DUP3 ADD MSTORE PUSH1 0xA PUSH1 0x24 DUP3 ADD MSTORE PUSH10 0x496E76616C696420746F PUSH1 0xB0 SHL PUSH1 0x44 DUP3 ADD MSTORE REVERT JUMPDEST DUP3 MLOAD PUSH3 0x461BCD PUSH1 0xE5 SHL DUP2 MSTORE PUSH1 0x20 DUP2 DUP9 ADD MSTORE PUSH1 0xC PUSH1 0x24 DUP3 ADD MSTORE PUSH12 0x496E76616C69642066726F6D PUSH1 0xA0 SHL PUSH1 0x44 DUP3 ADD MSTORE PUSH1 0x64 SWAP1 REVERT JUMPDEST SWAP1 POP DUP4 CALLVALUE PUSH2 0x3F9 JUMPI PUSH1 0x20 SWAP1 DUP2 PUSH1 0x3 NOT CALLDATASIZE ADD SLT PUSH2 0xBCA JUMPI DUP1 SWAP5 SWAP4 SWAP2 SWAP5 CALLDATALOAD DUP3 MSTORE DUP5 MSTORE DUP3 DUP2 KECCAK256 SWAP2 DUP3 SLOAD DUP1 DUP3 MSTORE DUP6 DUP3 ADD SWAP1 DUP2 SWAP5 DUP5 MSTORE DUP7 DUP5 KECCAK256 SWAP1 DUP5 JUMPDEST DUP2 DUP2 LT PUSH2 0xBAD JUMPI POP POP POP DUP2 PUSH2 0xB69 SWAP2 SUB DUP3 PUSH2 0xD42 JUMP JUMPDEST DUP4 MLOAD SWAP5 DUP6 SWAP5 DUP2 DUP7 ADD SWAP3 DUP3 DUP8 MSTORE MLOAD DUP1 SWAP4 MSTORE DUP6 ADD SWAP4 SWAP3 JUMPDEST DUP3 DUP2 LT PUSH2 0xB8D JUMPI POP POP POP POP SUB SWAP1 RETURN JUMPDEST DUP4 MLOAD PUSH1 0x1 PUSH1 0x1 PUSH1 0xA0 SHL SUB AND DUP6 MSTORE DUP7 SWAP6 POP SWAP4 DUP2 ADD SWAP4 SWAP3 DUP2 ADD SWAP3 PUSH1 0x1 ADD PUSH2 0xB7E JUMP JUMPDEST DUP3 SLOAD PUSH1 0x1 PUSH1 0x1 PUSH1 0xA0 SHL SUB AND DUP5 MSTORE SWAP3 DUP9 ADD SWAP3 PUSH1 0x1 SWAP3 DUP4 ADD SWAP3 ADD PUSH2 0xB53 JUMP JUMPDEST DUP4 DUP1 REVERT JUMPDEST PUSH1 0x4 CALLDATALOAD SWAP1 PUSH1 0x1 PUSH1 0x1 PUSH1 0xA0 SHL SUB DUP3 AND DUP3 SUB PUSH2 0xBE4 JUMPI JUMP JUMPDEST PUSH1 0x0 DUP1 REVERT JUMPDEST PUSH1 0x24 CALLDATALOAD SWAP1 PUSH1 0x1 PUSH1 0x1 PUSH1 0xA0 SHL SUB DUP3 AND DUP3 SUB PUSH2 0xBE4 JUMPI JUMP JUMPDEST PUSH1 0x40 SWAP1 PUSH1 0x3 NOT ADD SLT PUSH2 0xBE4 JUMPI PUSH1 0x4 CALLDATALOAD SWAP1 PUSH1 0x24 CALLDATALOAD SWAP1 JUMP JUMPDEST DUP1 SLOAD DUP3 LT ISZERO PUSH2 0xC31 JUMPI PUSH1 0x0 MSTORE PUSH1 0x5 PUSH1 0x20 PUSH1 0x0 KECCAK256 SWAP2 MUL ADD SWAP1 PUSH1 0x0 SWAP1 JUMP JUMPDEST PUSH4 0x4E487B71 PUSH1 0xE0 SHL PUSH1 0x0 MSTORE PUSH1 0x32 PUSH1 0x4 MSTORE PUSH1 0x24 PUSH1 0x0 REVERT JUMPDEST DUP1 SLOAD DUP3 LT ISZERO PUSH2 0xC31 JUMPI PUSH1 0x0 MSTORE PUSH1 0x20 PUSH1 0x0 KECCAK256 ADD SWAP1 PUSH1 0x0 SWAP1 JUMP JUMPDEST PUSH1 0x1 SLOAD PUSH1 0x1 PUSH1 0x1 PUSH1 0xA0 SHL SUB AND CALLER SUB PUSH2 0xC73 JUMPI JUMP JUMPDEST PUSH1 0x40 MLOAD PUSH4 0x118CDAA7 PUSH1 0xE0 SHL DUP2 MSTORE CALLER PUSH1 0x4 DUP3 ADD MSTORE PUSH1 0x24 SWAP1 REVERT JUMPDEST ISZERO PUSH2 0xC92 JUMPI JUMP JUMPDEST PUSH1 0x40 MLOAD PUSH3 0x461BCD PUSH1 0xE5 SHL DUP2 MSTORE PUSH1 0x20 PUSH1 0x4 DUP3 ADD MSTORE PUSH1 0x15 PUSH1 0x24 DUP3 ADD MSTORE PUSH21 0x4F6E6C79204368616C6C656E6765466163746F7279 PUSH1 0x58 SHL PUSH1 0x44 DUP3 ADD MSTORE PUSH1 0x64 SWAP1 REVERT JUMPDEST ISZERO PUSH2 0xCD6 JUMPI JUMP JUMPDEST PUSH1 0x40 MLOAD PUSH3 0x461BCD PUSH1 0xE5 SHL DUP2 MSTORE PUSH1 0x20 PUSH1 0x4 DUP3 ADD MSTORE PUSH1 0x12 PUSH1 0x24 DUP3 ADD MSTORE PUSH18 0x416D6F756E74206D757374206265203E203 PUSH1 0x74 SHL PUSH1 0x44 DUP3 ADD MSTORE PUSH1 0x64 SWAP1 REVERT JUMPDEST PUSH1 0xA0 DUP2 ADD SWAP1 DUP2 LT PUSH8 0xFFFFFFFFFFFFFFFF DUP3 GT OR PUSH2 0xD2C JUMPI PUSH1 0x40 MSTORE JUMP JUMPDEST PUSH4 0x4E487B71 PUSH1 0xE0 SHL PUSH1 0x0 MSTORE PUSH1 0x41 PUSH1 0x4 MSTORE PUSH1 0x24 PUSH1 0x0 REVERT JUMPDEST SWAP1 PUSH1 0x1F DUP1 NOT SWAP2 ADD AND DUP2 ADD SWAP1 DUP2 LT PUSH8 0xFFFFFFFFFFFFFFFF DUP3 GT OR PUSH2 0xD2C JUMPI PUSH1 0x40 MSTORE JUMP JUMPDEST SWAP1 PUSH1 0x0 PUSH1 0x20 SWAP2 DUP3 DUP2 MLOAD SWAP2 ADD DUP3 DUP6 GAS CALL ISZERO PUSH2 0xDC0 JUMPI PUSH1 0x0 MLOAD RETURNDATASIZE PUSH2 0xDB7 JUMPI POP PUSH1 0x1 PUSH1 0x1 PUSH1 0xA0 SHL SUB DUP2 AND EXTCODESIZE ISZERO JUMPDEST PUSH2 0xD95 JUMPI POP JUMP JUMPDEST PUSH1 0x40 MLOAD PUSH4 0x5274AFE7 PUSH1 0xE0 SHL DUP2 MSTORE PUSH1 0x1 PUSH1 0x1 PUSH1 0xA0 SHL SUB SWAP1 SWAP2 AND PUSH1 0x4 DUP3 ADD MSTORE PUSH1 0x24 SWAP1 REVERT JUMPDEST PUSH1 0x1 EQ ISZERO PUSH2 0xD8E JUMP JUMPDEST PUSH1 0x40 MLOAD RETURNDATASIZE PUSH1 0x0 DUP3 RETURNDATACOPY RETURNDATASIZE SWAP1 REVERT JUMPDEST PUSH1 0x2 PUSH1 0x0 SLOAD EQ PUSH2 0xDDD JUMPI PUSH1 0x2 PUSH1 0x0 SSTORE JUMP JUMPDEST PUSH1 0x40 MLOAD PUSH4 0x3EE5AEB5 PUSH1 0xE0 SHL DUP2 MSTORE PUSH1 0x4 SWAP1 REVERT JUMPDEST PUSH1 0x0 NOT DUP2 EQ PUSH2 0xDFE JUMPI PUSH1 0x1 ADD SWAP1 JUMP JUMPDEST PUSH4 0x4E487B71 PUSH1 0xE0 SHL PUSH1 0x0 MSTORE PUSH1 0x11 PUSH1 0x4 MSTORE PUSH1 0x24 PUSH1 0x0 REVERT JUMPDEST SWAP2 SWAP1 DUP3 SUB SWAP2 DUP3 GT PUSH2 0xDFE JUMPI JUMP JUMPDEST PUSH1 0x40 MLOAD PUSH4 0xA9059CBB PUSH1 0xE0 SHL PUSH1 0x20 DUP3 ADD MSTORE PUSH1 0x1 PUSH1 0x1 PUSH1 0xA0 SHL SUB SWAP1 SWAP3 AND PUSH1 0x24 DUP4 ADD MSTORE PUSH1 0x44 DUP1 DUP4 ADD SWAP4 SWAP1 SWAP4 MSTORE SWAP2 DUP2 MSTORE PUSH1 0x80 DUP2 ADD SWAP2 PUSH8 0xFFFFFFFFFFFFFFFF DUP4 GT DUP3 DUP5 LT OR PUSH2 0xD2C JUMPI PUSH2 0xE71 SWAP3 PUSH1 0x40 MSTORE PUSH2 0xD64 JUMP JUMPDEST JUMP INVALID LOG2 PUSH5 0x6970667358 0x22 SLT KECCAK256 SWAP10 PUSH27 0xFFD971A1A9582E7D3737DA8DCD825AA8C5110AC53C69454E1DC06F PUSH20 0x4CDF64736F6C6343000814003300000000000000 "},"methodIdentifiers":{"challengeFactory()":"5dbaf68b","challengeParticipants(uint256,uint256)":"ffac1a95","challengeStakes(uint256,uint256)":"137b2988","getChallengeParticipants(uint256)":"023bf958","getChallengeStakes(uint256)":"9d7d4b96","getTotalLockedByToken(address,address)":"c84c7da8","lockStake(address,address,uint256,uint256)":"f4887c7a","owner()":"8da5cb5b","releaseStakes(uint256,address[])":"6b12afa0","renounceOwnership()":"715018a6","setChallengeFactory(address)":"5c3d9dec","totalLockedByToken(address,address)":"5479da3d","transferOwnership(address)":"f2fde38b","transferStake(address,address,address,uint256,uint256)":"12fa0aa0"}}}}}