{"src/ChallengeFactory.sol":{"ChallengeFactory":{"abi":[{"inputs":[{"internalType":"address","name":"_pointsToken","type":"address"},{"internalType":"address payable","name":"_stakeEscrow","type":"address"},{"internalType":"address","name":"_admin","type":"address"},{"internalType":"address","name":"_platformFeeRecipient","type":"address"}],"stateMutability":"nonpayable","type":"constructor"},{"inputs":[],"name":"ECDSAInvalidSignature","type":"error"},{"inputs":[{"internalType":"uint256","name":"length","type":"uint256"}],"name":"ECDSAInvalidSignatureLength","type":"error"},{"inputs":[{"internalType":"bytes32","name":"s","type":"bytes32"}],"name":"ECDSAInvalidSignatureS","type":"error"},{"inputs":[{"internalType":"address","name":"owner","type":"address"}],"name":"OwnableInvalidOwner","type":"error"},{"inputs":[{"internalType":"address","name":"account","type":"address"}],"name":"OwnableUnauthorizedAccount","type":"error"},{"inputs":[],"name":"ReentrancyGuardReentrantCall","type":"error"},{"inputs":[{"internalType":"address","name":"token","type":"address"}],"name":"SafeERC20FailedOperation","type":"error"},{"anonymous":false,"inputs":[{"indexed":true,"internalType":"address","name":"newAdmin","type":"address"}],"name":"AdminUpdated","type":"event"},{"anonymous":false,"inputs":[{"indexed":true,"internalType":"uint256","name":"challengeId","type":"uint256"},{"indexed":true,"internalType":"address","name":"creator","type":"address"},{"indexed":true,"internalType":"address","name":"paymentToken","type":"address"},{"indexed":false,"internalType":"uint256","name":"stakeAmount","type":"uint256"},{"indexed":false,"internalType":"uint256","name":"pointsReward","type":"uint256"}],"name":"ChallengeCreatedGroup","type":"event"},{"anonymous":false,"inputs":[{"indexed":true,"internalType":"uint256","name":"challengeId","type":"uint256"},{"indexed":true,"internalType":"address","name":"creator","type":"address"},{"indexed":true,"internalType":"address","name":"participant","type":"address"},{"indexed":false,"internalType":"address","name":"paymentToken","type":"address"},{"indexed":false,"internalType":"uint256","name":"stakeAmount","type":"uint256"},{"indexed":false,"internalType":"uint256","name":"pointsReward","type":"uint256"}],"name":"ChallengeCreatedP2P","type":"event"},{"anonymous":false,"inputs":[{"indexed":true,"internalType":"uint256","name":"challengeId","type":"uint256"},{"indexed":true,"internalType":"address","name":"winner","type":"address"},{"indexed":true,"internalType":"address","name":"paymentToken","type":"address"},{"indexed":false,"internalType":"uint256","name":"stakeAmount","type":"uint256"},{"indexed":false,"internalType":"uint256","name":"pointsAwarded","type":"uint256"}],"name":"ChallengeResolved","type":"event"},{"anonymous":false,"inputs":[{"indexed":true,"internalType":"address","name":"previousOwner","type":"address"},{"indexed":true,"internalType":"address","name":"newOwner","type":"address"}],"name":"OwnershipTransferred","type":"event"},{"anonymous":false,"inputs":[{"indexed":true,"internalType":"address","name":"token","type":"address"},{"indexed":false,"internalType":"bool","name":"enabled","type":"bool"}],"name":"PaymentTokenToggled","type":"event"},{"anonymous":false,"inputs":[{"indexed":true,"internalType":"address","name":"token","type":"address"},{"indexed":false,"internalType":"uint256","name":"amount","type":"uint256"}],"name":"PlatformFeeCollected","type":"event"},{"anonymous":false,"inputs":[{"indexed":false,"internalType":"uint256","name":"newPercentage","type":"uint256"}],"name":"PlatformFeePercentageUpdated","type":"event"},{"anonymous":false,"inputs":[{"indexed":true,"internalType":"address","name":"newRecipient","type":"address"}],"name":"PlatformFeeRecipientUpdated","type":"event"},{"anonymous":false,"inputs":[{"indexed":true,"internalType":"address","name":"token","type":"address"},{"indexed":false,"internalType":"uint256","name":"amount","type":"uint256"},{"indexed":true,"internalType":"address","name":"recipient","type":"address"}],"name":"PlatformFeeWithdrawn","type":"event"},{"anonymous":false,"inputs":[{"indexed":true,"internalType":"uint256","name":"challengeId","type":"uint256"},{"indexed":true,"internalType":"address","name":"user","type":"address"},{"indexed":true,"internalType":"address","name":"paymentToken","type":"address"},{"indexed":false,"internalType":"uint256","name":"amount","type":"uint256"}],"name":"StakeClaimed","type":"event"},{"anonymous":false,"inputs":[{"indexed":true,"internalType":"address","name":"token","type":"address"},{"indexed":false,"internalType":"bool","name":"blacklisted","type":"bool"}],"name":"TokenBlacklisted","type":"event"},{"anonymous":false,"inputs":[{"indexed":true,"internalType":"address","name":"token","type":"address"},{"indexed":false,"internalType":"bool","name":"verified","type":"bool"}],"name":"TokenVerified","type":"event"},{"inputs":[{"internalType":"uint256","name":"challengeId","type":"uint256"}],"name":"acceptP2PChallenge","outputs":[],"stateMutability":"payable","type":"function"},{"inputs":[],"name":"admin","outputs":[{"internalType":"address","name":"","type":"address"}],"stateMutability":"view","type":"function"},{"inputs":[{"internalType":"address","name":"token","type":"address"},{"internalType":"bool","name":"blacklisted","type":"bool"}],"name":"blacklistToken","outputs":[],"stateMutability":"nonpayable","type":"function"},{"inputs":[{"internalType":"address","name":"","type":"address"}],"name":"blacklistedTokens","outputs":[{"internalType":"bool","name":"","type":"bool"}],"stateMutability":"view","type":"function"},{"inputs":[{"internalType":"uint256","name":"","type":"uint256"}],"name":"challenges","outputs":[{"internalType":"uint256","name":"id","type":"uint256"},{"internalType":"enum ChallengeFactory.ChallengeType","name":"challengeType","type":"uint8"},{"internalType":"address","name":"creator","type":"address"},{"internalType":"address","name":"participant","type":"address"},{"internalType":"address","name":"paymentToken","type":"address"},{"internalType":"uint256","name":"stakeAmount","type":"uint256"},{"internalType":"uint256","name":"pointsReward","type":"uint256"},{"internalType":"enum ChallengeFactory.ChallengeStatus","name":"status","type":"uint8"},{"internalType":"address","name":"winner","type":"address"},{"internalType":"uint256","name":"createdAt","type":"uint256"},{"internalType":"uint256","name":"resolvedAt","type":"uint256"},{"internalType":"string","name":"metadataURI","type":"string"}],"stateMutability":"view","type":"function"},{"inputs":[{"internalType":"uint256","name":"challengeId","type":"uint256"}],"name":"claimStake","outputs":[],"stateMutability":"nonpayable","type":"function"},{"inputs":[{"internalType":"address","name":"paymentToken","type":"address"},{"internalType":"uint256","name":"stakeAmount","type":"uint256"},{"internalType":"uint256","name":"pointsReward","type":"uint256"},{"internalType":"string","name":"metadataURI","type":"string"}],"name":"createGroupChallenge","outputs":[{"internalType":"uint256","name":"","type":"uint256"}],"stateMutability":"nonpayable","type":"function"},{"inputs":[{"internalType":"address","name":"participant","type":"address"},{"internalType":"address","name":"paymentToken","type":"address"},{"internalType":"uint256","name":"stakeAmount","type":"uint256"},{"internalType":"uint256","name":"pointsReward","type":"uint256"},{"internalType":"string","name":"metadataURI","type":"string"}],"name":"createP2PChallenge","outputs":[{"internalType":"uint256","name":"","type":"uint256"}],"stateMutability":"payable","type":"function"},{"inputs":[{"internalType":"uint256","name":"challengeId","type":"uint256"}],"name":"getChallenge","outputs":[{"components":[{"internalType":"uint256","name":"id","type":"uint256"},{"internalType":"enum ChallengeFactory.ChallengeType","name":"challengeType","type":"uint8"},{"internalType":"address","name":"creator","type":"address"},{"internalType":"address","name":"participant","type":"address"},{"internalType":"address","name":"paymentToken","type":"address"},{"internalType":"uint256","name":"stakeAmount","type":"uint256"},{"internalType":"uint256","name":"pointsReward","type":"uint256"},{"internalType":"enum ChallengeFactory.ChallengeStatus","name":"status","type":"uint8"},{"internalType":"address","name":"winner","type":"address"},{"internalType":"uint256","name":"createdAt","type":"uint256"},{"internalType":"uint256","name":"resolvedAt","type":"uint256"},{"internalType":"string","name":"metadataURI","type":"string"}],"internalType":"struct ChallengeFactory.Challenge","name":"","type":"tuple"}],"stateMutability":"view","type":"function"},{"inputs":[{"internalType":"address","name":"token","type":"address"}],"name":"getPlatformFeeBalance","outputs":[{"internalType":"uint256","name":"","type":"uint256"}],"stateMutability":"view","type":"function"},{"inputs":[{"internalType":"uint256","name":"","type":"uint256"},{"internalType":"uint256","name":"","type":"uint256"}],"name":"groupChallengeParticipants","outputs":[{"internalType":"address","name":"user","type":"address"},{"internalType":"bool","name":"side","type":"bool"},{"internalType":"uint256","name":"stakeAmount","type":"uint256"},{"internalType":"bool","name":"claimed","type":"bool"}],"stateMutability":"view","type":"function"},{"inputs":[{"internalType":"address","name":"token","type":"address"}],"name":"isTokenBlacklisted","outputs":[{"internalType":"bool","name":"","type":"bool"}],"stateMutability":"view","type":"function"},{"inputs":[{"internalType":"address","name":"token","type":"address"}],"name":"isTokenVerified","outputs":[{"internalType":"bool","name":"","type":"bool"}],"stateMutability":"view","type":"function"},{"inputs":[],"name":"nextChallengeId","outputs":[{"internalType":"uint256","name":"","type":"uint256"}],"stateMutability":"view","type":"function"},{"inputs":[],"name":"owner","outputs":[{"internalType":"address","name":"","type":"address"}],"stateMutability":"view","type":"function"},{"inputs":[{"internalType":"uint256","name":"","type":"uint256"}],"name":"p2pChallengeAmounts","outputs":[{"internalType":"uint256","name":"","type":"uint256"}],"stateMutability":"view","type":"function"},{"inputs":[{"internalType":"address","name":"","type":"address"}],"name":"platformFeeBalance","outputs":[{"internalType":"uint256","name":"","type":"uint256"}],"stateMutability":"view","type":"function"},{"inputs":[],"name":"platformFeePercentage","outputs":[{"internalType":"uint256","name":"","type":"uint256"}],"stateMutability":"view","type":"function"},{"inputs":[],"name":"platformFeeRecipient","outputs":[{"internalType":"address","name":"","type":"address"}],"stateMutability":"view","type":"function"},{"inputs":[],"name":"pointsToken","outputs":[{"internalType":"contract BantahPoints","name":"","type":"address"}],"stateMutability":"view","type":"function"},{"inputs":[],"name":"renounceOwnership","outputs":[],"stateMutability":"nonpayable","type":"function"},{"inputs":[{"internalType":"uint256","name":"challengeId","type":"uint256"},{"internalType":"address","name":"winner","type":"address"},{"internalType":"bytes","name":"signature","type":"bytes"}],"name":"resolveChallenge","outputs":[],"stateMutability":"nonpayable","type":"function"},{"inputs":[{"internalType":"address","name":"newAdmin","type":"address"}],"name":"setAdmin","outputs":[],"stateMutability":"nonpayable","type":"function"},{"inputs":[{"internalType":"uint256","name":"newPercentage","type":"uint256"}],"name":"setPlatformFeePercentage","outputs":[],"stateMutability":"nonpayable","type":"function"},{"inputs":[{"internalType":"address","name":"newRecipient","type":"address"}],"name":"setPlatformFeeRecipient","outputs":[],"stateMutability":"nonpayable","type":"function"},{"inputs":[],"name":"stakeEscrow","outputs":[{"internalType":"contract ChallengeEscrow","name":"","type":"address"}],"stateMutability":"view","type":"function"},{"inputs":[{"internalType":"address","name":"newOwner","type":"address"}],"name":"transferOwnership","outputs":[],"stateMutability":"nonpayable","type":"function"},{"inputs":[{"internalType":"address","name":"","type":"address"}],"name":"verifiedTokens","outputs":[{"internalType":"bool","name":"","type":"bool"}],"stateMutability":"view","type":"function"},{"inputs":[{"internalType":"address","name":"token","type":"address"},{"internalType":"bool","name":"verified","type":"bool"}],"name":"verifyToken","outputs":[],"stateMutability":"nonpayable","type":"function"},{"inputs":[{"internalType":"address","name":"token","type":"address"}],"name":"withdrawPlatformFees","outputs":[],"stateMutability":"nonpayable","type":"function"},{"stateMutability":"payable","type":"receive"}],"evm":{"bytecode":{"linkReferences":{},"object":"6080346200023b57601f6200261838819003918201601f191683019291906001600160401b03841183851017620002405781608092849260409687528339810103126200023b57620000518162000256565b60208201516001600160a01b0390818116908190036200023b576200008660606200007e87870162000256565b950162000256565b91600160005533156200022357600154948160018060a01b0319953387891617600155885197823391167f8be0079c531659141344cd1fd0a4f28419497f9722a3daafe3b4186f6b6457e0600080a36001600655600a60075516958615620001e157508215620001ac57811692831562000178571693841562000134578360025416176002558260035416176003558160045416176004556005541617600555516123ac90816200026c8239f35b855162461bcd60e51b815260206004820152601560248201527f496e76616c69642066656520726563697069656e7400000000000000000000006044820152606490fd5b865162461bcd60e51b815260206004820152600d60248201526c24b73b30b634b21030b236b4b760991b6044820152606490fd5b865162461bcd60e51b815260206004820152600e60248201526d496e76616c696420657363726f7760901b6044820152606490fd5b62461bcd60e51b815260206004820152601460248201527f496e76616c696420706f696e747320746f6b656e0000000000000000000000006044820152606490fd5b8551631e4fbdf760e01b815260006004820152602490fd5b600080fd5b634e487b7160e01b600052604160045260246000fd5b51906001600160a01b03821682036200023b5756fe608080604052600436101561001d575b50361561001b57600080fd5b005b600090813560e01c908163017b975b14611c74575080630d8d2d0814611bfe5780631871e24314611b5b578063190e4c5514611aea578063199a714e146115615780631baaaffe146102445780631bdd4b741461134857806344c7d6ef146111a65780635c8b5f44146107ad57806368a2b7de14610bc657806369249fba1461117c578063704b6c02146110dd578063715018a61461107f57806372e1011c1461105657806379a1152214610c8b5780638333903e14610bff57806386ff06e714610bc65780638da5cb5b14610b9d5780638f1d377614610ac0578063c25d8b7b1461080a578063cdd78cfc146107ec578063ce9be9ba146107ad578063d2d6648214610730578063d35202e814610484578063eb13554f1461045b578063ec3889b514610283578063ec867b2714610244578063f2fde38b146101b9578063f851a440146101905763fc67aa500361000f573461018d578060031936011261018d576020600654604051908152f35b80fd5b503461018d578060031936011261018d576004546040516001600160a01b039091168152602090f35b503461018d57602036600319011261018d576101d3611ccb565b6101db611f18565b6001600160a01b0390811690811561022b57600154826001600160601b0360a01b821617600155167f8be0079c531659141344cd1fd0a4f28419497f9722a3daafe3b4186f6b6457e0600080a380f35b604051631e4fbdf760e01b815260048101849052602490fd5b503461018d57602036600319011261018d5760209060ff906040906001600160a01b0361026f611ccb565b168152600b84522054166040519015158152f35b503461018d576020806003193601126104575761029e611ccb565b906102a7611f18565b6102af612084565b6001600160a01b03918216808452600d8252604084205492909190831561041c57828552600d8252846040812055821560001461039557848080808785600554165af13d15610390573d61030281611d7e565b906103106040519283611d5c565b815286843d92013e5b1561035557907f08273342a380b5301480c28ba6b7dfb7bfda23bfd871714c935e45a15e9cb823915b6005541693604051908152a36001815580f35b60405162461bcd60e51b8152600481018390526013602482015272115512081d1c985b9cd9995c8819985a5b1959606a1b6044820152606490fd5b610319565b60055460405163a9059cbb60e01b8185015290821660248201526044808201869052815291906080830167ffffffffffffffff811184821017610406577f08273342a380b5301480c28ba6b7dfb7bfda23bfd871714c935e45a15e9cb82393610401916040528561218a565b610342565b634e487b7160e01b600052604160045260246000fd5b60405162461bcd60e51b81526004810183905260136024820152724e6f206665657320746f20776974686472617760681b6044820152606490fd5b5080fd5b503461018d578060031936011261018d576005546040516001600160a01b039091168152602090f35b506020806003193601126104575760043561049d612084565b808352600882526040832060018101549160ff8316600281101561071c576001036106e357600682019360ff85541660058110156106cf57610696576001600160a01b039360081c841633146106465760028301805487908681161561062d57505054841633036105e95750908492915b600460038301938085541680156000146105c557506105318285015434146120f3565b806003541694541692015492803b156105c157604051637a443e3d60e11b81523360048201526001600160a01b03939093166024840152604483019390935260648201529082908290608490829084905af180156105b6576105a2575b5050600160ff198254161790556001815580f35b6105ab90611d2b565b61045757813861058e565b6040513d84823e3d90fd5b8480fd5b6105e4906105d334156120a7565b826003541684870154913390612135565b610531565b6064906040519062461bcd60e51b82526004820152601d60248201527f4e6f742074686520737065636966696564207061727469636970616e740000006044820152fd5b6001600160a01b0319163317909155939291905061050e565b6084906040519062461bcd60e51b82526004820152602360248201527f43726561746f722063616e6e6f7420616363657074206f776e206368616c6c656044820152626e676560e81b6064820152fd5b6064906040519062461bcd60e51b82526004820152601260248201527121b430b63632b733b2903737ba1037b832b760711b6044820152fd5b634e487b7160e01b87526021600452602487fd5b60405162461bcd60e51b81526004810185905260116024820152704e6f7420503250206368616c6c656e676560781b6044820152606490fd5b634e487b7160e01b86526021600452602486fd5b503461018d5760207fd128f4457567637d4d9a19a54a44a6e47ba1ed0cc875b3cff7b762c8bb27b41661076236611cfc565b929061076c611f18565b6001600160a01b03169261078184151561233a565b838552600b82526107a181604087209060ff801983541691151516179055565b6040519015158152a280f35b503461018d57602036600319011261018d5760209060ff906040906001600160a01b036107d8611ccb565b168152600c84522054166040519015158152f35b503461018d578060031936011261018d576020600754604051908152f35b503461018d57608036600319011261018d57610824611ccb565b67ffffffffffffffff916024359190604435606435858111610abc5761084e903690600401611e0a565b949093610859611f18565b610861612084565b6001600160a01b0316918215610a7f57828452602096600c885261088c60ff60408720541615611f44565b610897831515611f87565b6108a2821515611fc7565b6108b06101f4831115612013565b600654966108bd8861205f565b6006558786526008808a5260408720898155600180820180546001600160a81b0319163390941b610100600160a81b03169390931790925590979060099060ff1960038201896001600160601b0360a01b8254161790558760048301558660058301556006820190815416905542600782015501928211610a6b5781906109448454611e38565b601f8111610a1b575b508790601f83116001146109bb5788926109b0575b5050600019600383901b1c191690871b1790555b60405191825286820152847fac61621ed399481a7fdd906a7b94c9d3667dee8643e9c121e783b860a3f2282d60403393a455604051908152f35b013590503880610962565b8489528b89208a945091601f1984168a8e5b828210610a0457505084116109ea575b505050811b019055610976565b0135600019600384901b60f8161c191690553880806109dd565b8385013586558d979095019492830192018e6109cd565b9091508388528a8820601f840160051c8101918c8510610a61575b84939291601f8c920160051c01915b828110610a5357505061094d565b8a81558594508b9101610a45565b9091508190610a36565b634e487b7160e01b87526041600452602487fd5b60405162461bcd60e51b815260206004820152601560248201527424b73b30b634b2103830bcb6b2b73a103a37b5b2b760591b6044820152606490fd5b8280fd5b503461018d57602036600319011261018d57604060209160043581526008835220610b9981549160018101549060018060a01b03806002830154169080600384015416600484015460058501549060068601549260078701549585610b2c600960088b01549a01611e72565b99610b446040519e8f9e8f9081520160ff8316611d9a565b60081c1660408c015260608b015260808a015260a089015260c0880152610b7160e0880160ff8316611dbd565b60081c1661010086015261012085015261014084015261018080610160850152830190611dca565b0390f35b503461018d578060031936011261018d576001546040516001600160a01b039091168152602090f35b503461018d57602036600319011261018d576020906040906001600160a01b03610bee611ccb565b168152600d83522054604051908152f35b503461018d57602036600319011261018d57600435610c1c611f18565b6127108111610c57576020817fd0a5ddfa06600c6481dcd2923a572827c06e53859f23f7ddab41ff3144ee868792600755604051908152a180f35b60405162461bcd60e51b815260206004820152600c60248201526b08ccaca40e8dede40d0d2ced60a31b6044820152606490fd5b5060a036600319011261018d57610ca0611ccb565b610ca8611ce6565b67ffffffffffffffff916084358381116105c157610cca903690600401611e0a565b610cd5949194612084565b6001600160a01b038316611001575b6001600160a01b0384168652600c6020526040862054610d079060ff1615611f44565b610d146044351515611f87565b610d216064351515611fc7565b610d316101f46064351115612013565b6001600160a01b038416610fd257610d4c60443534146120f3565b60065494610d598661205f565b6006558587526008602081905260408820878155600180820180546001600160a81b0319163390941b610100600160a81b031693909317179091559260ff196002850180546001600160a01b038881166001600160a01b031992831617909255600387018054928a1692909116919091179055604435600486015560643560058601556006850180549190911690554260078501558211610a6b57610e016009840154611e38565b601f8111610f8e575b508690601f8311600114610f215760099291889183610f16575b50508160011b916000199060031b1c1916179101555b6003546001600160a01b0316803b156105c157604051637a443e3d60e11b81523360048201526001600160a01b03841660248201526044803590820152606481018590529085908290608490829084905af18015610f0b57610ef3575b509260019160209460405191848060a01b03168252604435868301526064356040830152838060a01b031690847ff4f5a9f479b06cd99960b03cddc4864cb98eaa763a8f668617c80f589512777960603393a455604051908152f35b610efd8591611d2b565b610f075738610e97565b8380fd5b6040513d87823e3d90fd5b013590503880610e24565b6009840188526020882091885b601f1985168110610f765750918391600193600995601f19811610610f5c575b505050811b01910155610e3a565b0135600019600384901b60f8161c19169055388080610f4e565b90926020600181928686013581550194019101610f2e565b60098401885260208820601f840160051c810160208510610fcb575b601f830160051c82018110610fc0575050610e0a565b898155600101610faa565b5080610faa565b610fdc34156120a7565b600354610ffc90604435906001600160a01b039081169033908816612135565b610d4c565b336001600160a01b03841603610ce45760405162461bcd60e51b815260206004820152601960248201527f43616e6e6f74206368616c6c656e676520796f757273656c66000000000000006044820152606490fd5b503461018d578060031936011261018d576002546040516001600160a01b039091168152602090f35b503461018d578060031936011261018d57611098611f18565b600180546001600160a01b031981169091556000906001600160a01b03167f8be0079c531659141344cd1fd0a4f28419497f9722a3daafe3b4186f6b6457e08280a380f35b503461018d57602036600319011261018d576110f7611ccb565b6110ff611f18565b6001600160a01b0316801561114757600480546001600160a01b031916821790557f54e4612788f90384e6843298d7854436f3a585b2c3831ab66abf1de63bfa6c2d8280a280f35b60405162461bcd60e51b815260206004820152600d60248201526c24b73b30b634b21030b236b4b760991b6044820152606490fd5b503461018d57602036600319011261018d5760406020916004358152600a83522054604051908152f35b503461018d5760208060031936011261045757600435906111c5612084565b8183526008815260408320916006830180549060ff821660058110156106cf5760020361130a576001600160a01b0391600881901c83163381036112cd5715611298576040516040810181811067ffffffffffffffff821117610406576040526001815285810190863683375115611284579160037f401af6acaf4dfd2ab7650e060f96cf76f6a51fd9d42102601e60fdacd4eacff2949260049433905260ff1916179055600386015416940154926040519384523393a46001815580f35b634e487b7160e01b88526032600452602488fd5b60405162461bcd60e51b815260048101869052600d60248201526c139bc81dda5b9b995c881cd95d609a1b6044820152606490fd5b60405162461bcd60e51b81526004810187905260156024820152744f6e6c792077696e6e65722063616e20636c61696d60581b6044820152606490fd5b60405162461bcd60e51b815260048101859052601660248201527510da185b1b195b99d9481b9bdd081c995cdbdb1d995960521b6044820152606490fd5b503461018d57602036600319011261018d57606061016060405161136b81611d3f565b83815283602082015283604082015283838201528360808201528360a08201528360c08201528360e08201528361010082015283610120820152836101408201520152600435815260086020526040812090604051906113ca82611d3f565b82548252600183015460ff8116600281101561154d57602084015260081c6001600160a01b0390811660408401526002840154811660608401526003840154166080830152600483015460a083015260058084015460c084015260068401549160ff831691821015611539575060e0830152600890811c6001600160a01b031661010083015260078301546101208301528201546101408201526101609161147490600901611e72565b82820152610b99604051928392602084528051602085015261149e60208201516040860190611d9a565b60018060a01b03604082015116606085015260018060a01b03606082015116608085015260018060a01b0360808201511660a085015260a081015160c085015260c081015160e08501526114fb60e0820151610100860190611dbd565b60018060a01b0361010082015116610120850152610120810151610140850152610140810151828501520151610180808401526101a0830190611dca565b634e487b7160e01b81526021600452602490fd5b634e487b7160e01b83526021600452602483fd5b503461018d57606036600319011261018d5761157b611ce6565b604480359067ffffffffffffffff8083116105c157366023840112156105c157848360040135936115ab85611d7e565b946115b96040519687611d5c565b8086523660248284010111610abc578060246020930183880137850101526115df612084565b60043585526008602052604085209260068401549160ff83166005811015611ad6578015908115611acb575b5015611a96576001600160a01b03861615611a61576040519060043560208301526001600160601b03198760601b1660408301526034825281606081011090606083011117610a6b576116a2918160606116999301604052602081519101207f19457468657265756d205369676e6564204d6573736167653a0a3332000000008952601c52603c88206121ff565b909291926122cb565b6004546001600160a01b03908116911603611a1d576001600160a81b031916600884901b610100600160a81b0316176002176006830155426008830155600180830154909390858060ff83166002811015611a095780880361198e57505050600484015480861b908082046002149015171561197a579060081c6001600160a01b039081169083168103611975575060028401546001600160a01b03165b905b6007548082029082820414821517156119615761271090048082039182116119615780611901575b506003546001600160a01b039081169288918116156118fa575b600387019360018060a01b0385541691813b15610f07578360a49260405196879586946297d05560e51b865260018060a01b0316600486015260018060a01b038b1660248601528b850152606484015260043560848401525af180156118ef576118dc575b50600254600585018054909488926001600160a01b03169190823b15610f075760c48492836040519586948593631fe18a1760e21b855260018060a01b038c1660048601526024850152600435908401526080606484015260116084840152704368616c6c656e676520766963746f727960781b60a48401525af180156105b6576118c4575b505060049060018060a01b039054169301549154604051928352602083015260018060a01b0316907f0247b762d340895e9ba5c4e57a8f9b65eb56e04f1786bbe81fdcd64432cf1e5d604060043592a4815580f35b6118cd90611d2b565b6118d857853861186f565b8580fd5b6118e890969196611d2b565b94386117e9565b6040513d89823e3d90fd5b5030611784565b7fd0a602bb26e23a82d1071b569dda4305120744b857e3d08eb1779d5d3478c54160206003880160018060a01b038154168b52600d825260408b206119478582546121f2565b9055546040519384526001600160a01b031692a23861176a565b634e487b7160e01b88526011600452602488fd5b611740565b634e487b7160e01b87526011600452602487fd5b90919250611742576004358752600960205260408720805490885b8281106119b857505050611742565b6119c28183611c99565b50546001600160a01b038781169116036119e5575b6119e09061205f565b6119a9565b92611a016119e0918a6119f88786611c99565b500154906121f2565b9390506119d7565b634e487b7160e01b89526021600452602489fd5b60405162461bcd60e51b815260206004820152601760248201527f496e76616c69642061646d696e207369676e617475726500000000000000000081840152606490fd5b60405162461bcd60e51b815260206004820152600e60248201526d24b73b30b634b2103bb4b73732b960911b81860152606490fd5b60405162461bcd60e51b815260206004820152600e60248201526d496e76616c69642073746174757360901b81860152606490fd5b60019150143861160b565b634e487b7160e01b88526021600452602488fd5b503461018d5760207fced2684241c29578df8f7fbab74348d0053114fa157b900b2f1f4a1d4a2b3395611b1c36611cfc565b9290611b26611f18565b6001600160a01b031692611b3b84151561233a565b838552600c82526107a181604087209060ff801983541691151516179055565b503461018d57602036600319011261018d57611b75611ccb565b611b7d611f18565b6001600160a01b03168015611bc557600580546001600160a01b031916821790557fba887708e7d4436dd36b62187bdced03e0b9abe66caf392a66dd84386641b2098280a280f35b60405162461bcd60e51b8152602060048201526011602482015270125b9d985b1a59081c9958da5c1a595b9d607a1b6044820152606490fd5b503461018d57604036600319011261018d5760243590600435815260096020526040812090815483101561018d576080611c388484611c99565b5080549060ff60026001830154920154169060ff6040519360018060a01b038116855260a01c1615156020840152604083015215156060820152f35b9050346104575781600319360112610457576003546001600160a01b03168152602090f35b8054821015611cb5576000526003602060002091020190600090565b634e487b7160e01b600052603260045260246000fd5b600435906001600160a01b0382168203611ce157565b600080fd5b602435906001600160a01b0382168203611ce157565b6040906003190112611ce1576004356001600160a01b0381168103611ce157906024358015158103611ce15790565b67ffffffffffffffff811161040657604052565b610180810190811067ffffffffffffffff82111761040657604052565b90601f8019910116810190811067ffffffffffffffff82111761040657604052565b67ffffffffffffffff811161040657601f01601f191660200190565b906002821015611da75752565b634e487b7160e01b600052602160045260246000fd5b906005821015611da75752565b919082519283825260005b848110611df6575050826000602080949584010152601f8019910116010190565b602081830181015184830182015201611dd5565b9181601f84011215611ce15782359167ffffffffffffffff8311611ce15760208381860195010111611ce157565b90600182811c92168015611e68575b6020831014611e5257565b634e487b7160e01b600052602260045260246000fd5b91607f1691611e47565b9060405191826000825492611e8684611e38565b908184526001948581169081600014611ef55750600114611eb2575b5050611eb092500383611d5c565b565b9093915060005260209081600020936000915b818310611edd575050611eb093508201013880611ea2565b85548884018501529485019487945091830191611ec5565b915050611eb094506020925060ff191682840152151560051b8201013880611ea2565b6001546001600160a01b03163303611f2c57565b60405163118cdaa760e01b8152336004820152602490fd5b15611f4b57565b60405162461bcd60e51b8152602060048201526014602482015273151bdad95b881a5cc8189b1858dadb1a5cdd195960621b6044820152606490fd5b15611f8e57565b60405162461bcd60e51b815260206004820152601160248201527005374616b65206d757374206265203e203607c1b6044820152606490fd5b15611fce57565b60405162461bcd60e51b815260206004820152601960248201527f506f696e747320726577617264206d757374206265203e2030000000000000006044820152606490fd5b1561201a57565b60405162461bcd60e51b815260206004820152601f60248201527f506f696e7473207265776172642063616e6e6f742065786365656420353030006044820152606490fd5b600019811461206e5760010190565b634e487b7160e01b600052601160045260246000fd5b600260005414612095576002600055565b604051633ee5aeb560e01b8152600490fd5b156120ae57565b60405162461bcd60e51b815260206004820152601960248201527f446f206e6f742073656e642045544820666f72204552433230000000000000006044820152606490fd5b156120fa57565b60405162461bcd60e51b815260206004820152601360248201527208aa89040c2dadeeadce840dad2e6dac2e8c6d606b1b6044820152606490fd5b6040516323b872dd60e01b60208201526001600160a01b03928316602482015292909116604483015260648083019390935291815260a081019181831067ffffffffffffffff84111761040657611eb0926040525b906000602091828151910182855af1156121e6576000513d6121dd57506001600160a01b0381163b155b6121bb5750565b604051635274afe760e01b81526001600160a01b039091166004820152602490fd5b600114156121b4565b6040513d6000823e3d90fd5b9190820180921161206e57565b81519190604183036122305761222992506020820151906060604084015193015160001a9061223b565b9192909190565b505060009160029190565b91907f7fffffffffffffffffffffffffffffff5d576e7357a4501ddfe92f46681b20a084116122bf57926020929160ff608095604051948552168484015260408301526060820152600092839182805260015afa156122b35780516001600160a01b038116156122aa57918190565b50809160019190565b604051903d90823e3d90fd5b50505060009160039190565b6004811015611da757806122dd575050565b600181036122f75760405163f645eedf60e01b8152600490fd5b600281036123185760405163fce698f760e01b815260048101839052602490fd5b6003146123225750565b602490604051906335e2f38360e21b82526004820152fd5b1561234157565b60405162461bcd60e51b815260206004820152600d60248201526c24b73b30b634b2103a37b5b2b760991b6044820152606490fdfea26469706673582212202d661f10eee0d23e1aaddae8866471a672546550dbbfdce303f73f3e16dd797264736f6c63430008140033","opcodes":"PUSH1 0x80 CALLVALUE PUSH3 0x23B JUMPI PUSH1 0x1F PUSH3 0x2618 CODESIZE DUP2 SWAP1 SUB SWAP2 DUP3 ADD PUSH1 0x1F NOT AND DUP4 ADD SWAP3 SWAP2 SWAP1 PUSH1 0x1 PUSH1 0x1 PUSH1 0x40 SHL SUB DUP5 GT DUP4 DUP6 LT OR PUSH3 0x240 JUMPI DUP2 PUSH1 0x80 SWAP3 DUP5 SWAP3 PUSH1 0x40 SWAP7 DUP8 MSTORE DUP4 CODECOPY DUP2 ADD SUB SLT PUSH3 0x23B JUMPI PUSH3 0x51 DUP2 PUSH3 0x256 JUMP JUMPDEST PUSH1 0x20 DUP3 ADD MLOAD PUSH1 0x1 PUSH1 0x1 PUSH1 0xA0 SHL SUB SWAP1 DUP2 DUP2 AND SWAP1 DUP2 SWAP1 SUB PUSH3 0x23B JUMPI PUSH3 0x86 PUSH1 0x60 PUSH3 0x7E DUP8 DUP8 ADD PUSH3 0x256 JUMP JUMPDEST SWAP6 ADD PUSH3 0x256 JUMP JUMPDEST SWAP2 PUSH1 0x1 PUSH1 0x0 SSTORE CALLER ISZERO PUSH3 0x223 JUMPI PUSH1 0x1 SLOAD SWAP5 DUP2 PUSH1 0x1 DUP1 PUSH1 0xA0 SHL SUB NOT SWAP6 CALLER DUP8 DUP10 AND OR PUSH1 0x1 SSTORE DUP9 MLOAD SWAP8 DUP3 CALLER SWAP2 AND PUSH32 0x8BE0079C531659141344CD1FD0A4F28419497F9722A3DAAFE3B4186F6B6457E0 PUSH1 0x0 DUP1 LOG3 PUSH1 0x1 PUSH1 0x6 SSTORE PUSH1 0xA PUSH1 0x7 SSTORE AND SWAP6 DUP7 ISZERO PUSH3 0x1E1 JUMPI POP DUP3 ISZERO PUSH3 0x1AC JUMPI DUP2 AND SWAP3 DUP4 ISZERO PUSH3 0x178 JUMPI AND SWAP4 DUP5 ISZERO PUSH3 0x134 JUMPI DUP4 PUSH1 0x2 SLOAD AND OR PUSH1 0x2 SSTORE DUP3 PUSH1 0x3 SLOAD AND OR PUSH1 0x3 SSTORE DUP2 PUSH1 0x4 SLOAD AND OR PUSH1 0x4 SSTORE PUSH1 0x5 SLOAD AND OR PUSH1 0x5 SSTORE MLOAD PUSH2 0x23AC SWAP1 DUP2 PUSH3 0x26C DUP3 CODECOPY RETURN JUMPDEST DUP6 MLOAD PUSH3 0x461BCD PUSH1 0xE5 SHL DUP2 MSTORE PUSH1 0x20 PUSH1 0x4 DUP3 ADD MSTORE PUSH1 0x15 PUSH1 0x24 DUP3 ADD MSTORE PUSH32 0x496E76616C69642066656520726563697069656E740000000000000000000000 PUSH1 0x44 DUP3 ADD MSTORE PUSH1 0x64 SWAP1 REVERT JUMPDEST DUP7 MLOAD PUSH3 0x461BCD PUSH1 0xE5 SHL DUP2 MSTORE PUSH1 0x20 PUSH1 0x4 DUP3 ADD MSTORE PUSH1 0xD PUSH1 0x24 DUP3 ADD MSTORE PUSH13 0x24B73B30B634B21030B236B4B7 PUSH1 0x99 SHL PUSH1 0x44 DUP3 ADD MSTORE PUSH1 0x64 SWAP1 REVERT JUMPDEST DUP7 MLOAD PUSH3 0x461BCD PUSH1 0xE5 SHL DUP2 MSTORE PUSH1 0x20 PUSH1 0x4 DUP3 ADD MSTORE PUSH1 0xE PUSH1 0x24 DUP3 ADD MSTORE PUSH14 0x496E76616C696420657363726F77 PUSH1 0x90 SHL PUSH1 0x44 DUP3 ADD MSTORE PUSH1 0x64 SWAP1 REVERT JUMPDEST PUSH3 0x461BCD PUSH1 0xE5 SHL DUP2 MSTORE PUSH1 0x20 PUSH1 0x4 DUP3 ADD MSTORE PUSH1 0x14 PUSH1 0x24 DUP3 ADD MSTORE PUSH32 0x496E76616C696420706F696E747320746F6B656E000000000000000000000000 PUSH1 0x44 DUP3 ADD MSTORE PUSH1 0x64 SWAP1 REVERT JUMPDEST DUP6 MLOAD PUSH4 0x1E4FBDF7 PUSH1 0xE0 SHL DUP2 MSTORE PUSH1 0x0 PUSH1 0x4 DUP3 ADD MSTORE PUSH1 0x24 SWAP1 REVERT JUMPDEST PUSH1 0x0 DUP1 REVERT JUMPDEST PUSH4 0x4E487B71 PUSH1 0xE0 SHL PUSH1 0x0 MSTORE PUSH1 0x41 PUSH1 0x4 MSTORE PUSH1 0x24 PUSH1 0x0 REVERT JUMPDEST MLOAD SWAP1 PUSH1 0x1 PUSH1 0x1 PUSH1 0xA0 SHL SUB DUP3 AND DUP3 SUB PUSH3 0x23B JUMPI JUMP INVALID PUSH1 0x80 DUP1 PUSH1 0x40 MSTORE PUSH1 0x4 CALLDATASIZE LT ISZERO PUSH2 0x1D JUMPI JUMPDEST POP CALLDATASIZE ISZERO PUSH2 0x1B JUMPI PUSH1 0x0 DUP1 REVERT JUMPDEST STOP JUMPDEST PUSH1 0x0 SWAP1 DUP2 CALLDATALOAD PUSH1 0xE0 SHR SWAP1 DUP2 PUSH4 0x17B975B EQ PUSH2 0x1C74 JUMPI POP DUP1 PUSH4 0xD8D2D08 EQ PUSH2 0x1BFE JUMPI DUP1 PUSH4 0x1871E243 EQ PUSH2 0x1B5B JUMPI DUP1 PUSH4 0x190E4C55 EQ PUSH2 0x1AEA JUMPI DUP1 PUSH4 0x199A714E EQ PUSH2 0x1561 JUMPI DUP1 PUSH4 0x1BAAAFFE EQ PUSH2 0x244 JUMPI DUP1 PUSH4 0x1BDD4B74 EQ PUSH2 0x1348 JUMPI DUP1 PUSH4 0x44C7D6EF EQ PUSH2 0x11A6 JUMPI DUP1 PUSH4 0x5C8B5F44 EQ PUSH2 0x7AD JUMPI DUP1 PUSH4 0x68A2B7DE EQ PUSH2 0xBC6 JUMPI DUP1 PUSH4 0x69249FBA EQ PUSH2 0x117C JUMPI DUP1 PUSH4 0x704B6C02 EQ PUSH2 0x10DD JUMPI DUP1 PUSH4 0x715018A6 EQ PUSH2 0x107F JUMPI DUP1 PUSH4 0x72E1011C EQ PUSH2 0x1056 JUMPI DUP1 PUSH4 0x79A11522 EQ PUSH2 0xC8B JUMPI DUP1 PUSH4 0x8333903E EQ PUSH2 0xBFF JUMPI DUP1 PUSH4 0x86FF06E7 EQ PUSH2 0xBC6 JUMPI DUP1 PUSH4 0x8DA5CB5B EQ PUSH2 0xB9D JUMPI DUP1 PUSH4 0x8F1D3776 EQ PUSH2 0xAC0 JUMPI DUP1 PUSH4 0xC25D8B7B EQ PUSH2 0x80A JUMPI DUP1 PUSH4 0xCDD78CFC EQ PUSH2 0x7EC JUMPI DUP1 PUSH4 0xCE9BE9BA EQ PUSH2 0x7AD JUMPI DUP1 PUSH4 0xD2D66482 EQ PUSH2 0x730 JUMPI DUP1 PUSH4 0xD35202E8 EQ PUSH2 0x484 JUMPI DUP1 PUSH4 0xEB13554F EQ PUSH2 0x45B JUMPI DUP1 PUSH4 0xEC3889B5 EQ PUSH2 0x283 JUMPI DUP1 PUSH4 0xEC867B27 EQ PUSH2 0x244 JUMPI DUP1 PUSH4 0xF2FDE38B EQ PUSH2 0x1B9 JUMPI DUP1 PUSH4 0xF851A440 EQ PUSH2 0x190 JUMPI PUSH4 0xFC67AA50 SUB PUSH2 0xF JUMPI CALLVALUE PUSH2 0x18D JUMPI DUP1 PUSH1 0x3 NOT CALLDATASIZE ADD SLT PUSH2 0x18D JUMPI PUSH1 0x20 PUSH1 0x6 SLOAD PUSH1 0x40 MLOAD SWAP1 DUP2 MSTORE RETURN JUMPDEST DUP1 REVERT JUMPDEST POP CALLVALUE PUSH2 0x18D JUMPI DUP1 PUSH1 0x3 NOT CALLDATASIZE ADD SLT PUSH2 0x18D JUMPI PUSH1 0x4 SLOAD PUSH1 0x40 MLOAD PUSH1 0x1 PUSH1 0x1 PUSH1 0xA0 SHL SUB SWAP1 SWAP2 AND DUP2 MSTORE PUSH1 0x20 SWAP1 RETURN JUMPDEST POP CALLVALUE PUSH2 0x18D JUMPI PUSH1 0x20 CALLDATASIZE PUSH1 0x3 NOT ADD SLT PUSH2 0x18D JUMPI PUSH2 0x1D3 PUSH2 0x1CCB JUMP JUMPDEST PUSH2 0x1DB PUSH2 0x1F18 JUMP JUMPDEST PUSH1 0x1 PUSH1 0x1 PUSH1 0xA0 SHL SUB SWAP1 DUP2 AND SWAP1 DUP2 ISZERO PUSH2 0x22B JUMPI PUSH1 0x1 SLOAD DUP3 PUSH1 0x1 PUSH1 0x1 PUSH1 0x60 SHL SUB PUSH1 0xA0 SHL DUP3 AND OR PUSH1 0x1 SSTORE AND PUSH32 0x8BE0079C531659141344CD1FD0A4F28419497F9722A3DAAFE3B4186F6B6457E0 PUSH1 0x0 DUP1 LOG3 DUP1 RETURN JUMPDEST PUSH1 0x40 MLOAD PUSH4 0x1E4FBDF7 PUSH1 0xE0 SHL DUP2 MSTORE PUSH1 0x4 DUP2 ADD DUP5 SWAP1 MSTORE PUSH1 0x24 SWAP1 REVERT JUMPDEST POP CALLVALUE PUSH2 0x18D JUMPI PUSH1 0x20 CALLDATASIZE PUSH1 0x3 NOT ADD SLT PUSH2 0x18D JUMPI PUSH1 0x20 SWAP1 PUSH1 0xFF SWAP1 PUSH1 0x40 SWAP1 PUSH1 0x1 PUSH1 0x1 PUSH1 0xA0 SHL SUB PUSH2 0x26F PUSH2 0x1CCB JUMP JUMPDEST AND DUP2 MSTORE PUSH1 0xB DUP5 MSTORE KECCAK256 SLOAD AND PUSH1 0x40 MLOAD SWAP1 ISZERO ISZERO DUP2 MSTORE RETURN JUMPDEST POP CALLVALUE PUSH2 0x18D JUMPI PUSH1 0x20 DUP1 PUSH1 0x3 NOT CALLDATASIZE ADD SLT PUSH2 0x457 JUMPI PUSH2 0x29E PUSH2 0x1CCB JUMP JUMPDEST SWAP1 PUSH2 0x2A7 PUSH2 0x1F18 JUMP JUMPDEST PUSH2 0x2AF PUSH2 0x2084 JUMP JUMPDEST PUSH1 0x1 PUSH1 0x1 PUSH1 0xA0 SHL SUB SWAP2 DUP3 AND DUP1 DUP5 MSTORE PUSH1 0xD DUP3 MSTORE PUSH1 0x40 DUP5 KECCAK256 SLOAD SWAP3 SWAP1 SWAP2 SWAP1 DUP4 ISZERO PUSH2 0x41C JUMPI DUP3 DUP6 MSTORE PUSH1 0xD DUP3 MSTORE DUP5 PUSH1 0x40 DUP2 KECCAK256 SSTORE DUP3 ISZERO PUSH1 0x0 EQ PUSH2 0x395 JUMPI DUP5 DUP1 DUP1 DUP1 DUP8 DUP6 PUSH1 0x5 SLOAD AND GAS CALL RETURNDATASIZE ISZERO PUSH2 0x390 JUMPI RETURNDATASIZE PUSH2 0x302 DUP2 PUSH2 0x1D7E JUMP JUMPDEST SWAP1 PUSH2 0x310 PUSH1 0x40 MLOAD SWAP3 DUP4 PUSH2 0x1D5C JUMP JUMPDEST DUP2 MSTORE DUP7 DUP5 RETURNDATASIZE SWAP3 ADD RETURNDATACOPY JUMPDEST ISZERO PUSH2 0x355 JUMPI SWAP1 PUSH32 0x8273342A380B5301480C28BA6B7DFB7BFDA23BFD871714C935E45A15E9CB823 SWAP2 JUMPDEST PUSH1 0x5 SLOAD AND SWAP4 PUSH1 0x40 MLOAD SWAP1 DUP2 MSTORE LOG3 PUSH1 0x1 DUP2 SSTORE DUP1 RETURN JUMPDEST PUSH1 0x40 MLOAD PUSH3 0x461BCD PUSH1 0xE5 SHL DUP2 MSTORE PUSH1 0x4 DUP2 ADD DUP4 SWAP1 MSTORE PUSH1 0x13 PUSH1 0x24 DUP3 ADD MSTORE PUSH19 0x115512081D1C985B9CD9995C8819985A5B1959 PUSH1 0x6A SHL PUSH1 0x44 DUP3 ADD MSTORE PUSH1 0x64 SWAP1 REVERT JUMPDEST PUSH2 0x319 JUMP JUMPDEST PUSH1 0x5 SLOAD PUSH1 0x40 MLOAD PUSH4 0xA9059CBB PUSH1 0xE0 SHL DUP2 DUP6 ADD MSTORE SWAP1 DUP3 AND PUSH1 0x24 DUP3 ADD MSTORE PUSH1 0x44 DUP1 DUP3 ADD DUP7 SWAP1 MSTORE DUP2 MSTORE SWAP2 SWAP1 PUSH1 0x80 DUP4 ADD PUSH8 0xFFFFFFFFFFFFFFFF DUP2 GT DUP5 DUP3 LT OR PUSH2 0x406 JUMPI PUSH32 0x8273342A380B5301480C28BA6B7DFB7BFDA23BFD871714C935E45A15E9CB823 SWAP4 PUSH2 0x401 SWAP2 PUSH1 0x40 MSTORE DUP6 PUSH2 0x218A JUMP JUMPDEST PUSH2 0x342 JUMP JUMPDEST PUSH4 0x4E487B71 PUSH1 0xE0 SHL PUSH1 0x0 MSTORE PUSH1 0x41 PUSH1 0x4 MSTORE PUSH1 0x24 PUSH1 0x0 REVERT JUMPDEST PUSH1 0x40 MLOAD PUSH3 0x461BCD PUSH1 0xE5 SHL DUP2 MSTORE PUSH1 0x4 DUP2 ADD DUP4 SWAP1 MSTORE PUSH1 0x13 PUSH1 0x24 DUP3 ADD MSTORE PUSH19 0x4E6F206665657320746F207769746864726177 PUSH1 0x68 SHL PUSH1 0x44 DUP3 ADD MSTORE PUSH1 0x64 SWAP1 REVERT JUMPDEST POP DUP1 REVERT JUMPDEST POP CALLVALUE PUSH2 0x18D JUMPI DUP1 PUSH1 0x3 NOT CALLDATASIZE ADD SLT PUSH2 0x18D JUMPI PUSH1 0x5 SLOAD PUSH1 0x40 MLOAD PUSH1 0x1 PUSH1 0x1 PUSH1 0xA0 SHL SUB SWAP1 SWAP2 AND DUP2 MSTORE PUSH1 0x20 SWAP1 RETURN JUMPDEST POP PUSH1 0x20 DUP1 PUSH1 0x3 NOT CALLDATASIZE ADD SLT PUSH2 0x457 JUMPI PUSH1 0x4 CALLDATALOAD PUSH2 0x49D PUSH2 0x2084 JUMP JUMPDEST DUP1 DUP4 MSTORE PUSH1 0x8 DUP3 MSTORE PUSH1 0x40 DUP4 KECCAK256 PUSH1 0x1 DUP2 ADD SLOAD SWAP2 PUSH1 0xFF DUP4 AND PUSH1 0x2 DUP2 LT ISZERO PUSH2 0x71C JUMPI PUSH1 0x1 SUB PUSH2 0x6E3 JUMPI PUSH1 0x6 DUP3 ADD SWAP4 PUSH1 0xFF DUP6 SLOAD AND PUSH1 0x5 DUP2 LT ISZERO PUSH2 0x6CF JUMPI PUSH2 0x696 JUMPI PUSH1 0x1 PUSH1 0x1 PUSH1 0xA0 SHL SUB SWAP4 PUSH1 0x8 SHR DUP5 AND CALLER EQ PUSH2 0x646 JUMPI PUSH1 0x2 DUP4 ADD DUP1 SLOAD DUP8 SWAP1 DUP7 DUP2 AND ISZERO PUSH2 0x62D JUMPI POP POP SLOAD DUP5 AND CALLER SUB PUSH2 0x5E9 JUMPI POP SWAP1 DUP5 SWAP3 SWAP2 JUMPDEST PUSH1 0x4 PUSH1 0x3 DUP4 ADD SWAP4 DUP1 DUP6 SLOAD AND DUP1 ISZERO PUSH1 0x0 EQ PUSH2 0x5C5 JUMPI POP PUSH2 0x531 DUP3 DUP6 ADD SLOAD CALLVALUE EQ PUSH2 0x20F3 JUMP JUMPDEST DUP1 PUSH1 0x3 SLOAD AND SWAP5 SLOAD AND SWAP3 ADD SLOAD SWAP3 DUP1 EXTCODESIZE ISZERO PUSH2 0x5C1 JUMPI PUSH1 0x40 MLOAD PUSH4 0x7A443E3D PUSH1 0xE1 SHL DUP2 MSTORE CALLER PUSH1 0x4 DUP3 ADD MSTORE PUSH1 0x1 PUSH1 0x1 PUSH1 0xA0 SHL SUB SWAP4 SWAP1 SWAP4 AND PUSH1 0x24 DUP5 ADD MSTORE PUSH1 0x44 DUP4 ADD SWAP4 SWAP1 SWAP4 MSTORE PUSH1 0x64 DUP3 ADD MSTORE SWAP1 DUP3 SWAP1 DUP3 SWAP1 PUSH1 0x84 SWAP1 DUP3 SWAP1 DUP5 SWAP1 GAS CALL DUP1 ISZERO PUSH2 0x5B6 JUMPI PUSH2 0x5A2 JUMPI JUMPDEST POP POP PUSH1 0x1 PUSH1 0xFF NOT DUP3 SLOAD AND OR SWAP1 SSTORE PUSH1 0x1 DUP2 SSTORE DUP1 RETURN JUMPDEST PUSH2 0x5AB SWAP1 PUSH2 0x1D2B JUMP JUMPDEST PUSH2 0x457 JUMPI DUP2 CODESIZE PUSH2 0x58E JUMP JUMPDEST PUSH1 0x40 MLOAD RETURNDATASIZE DUP5 DUP3 RETURNDATACOPY RETURNDATASIZE SWAP1 REVERT JUMPDEST DUP5 DUP1 REVERT JUMPDEST PUSH2 0x5E4 SWAP1 PUSH2 0x5D3 CALLVALUE ISZERO PUSH2 0x20A7 JUMP JUMPDEST DUP3 PUSH1 0x3 SLOAD AND DUP5 DUP8 ADD SLOAD SWAP2 CALLER SWAP1 PUSH2 0x2135 JUMP JUMPDEST PUSH2 0x531 JUMP JUMPDEST PUSH1 0x64 SWAP1 PUSH1 0x40 MLOAD SWAP1 PUSH3 0x461BCD PUSH1 0xE5 SHL DUP3 MSTORE PUSH1 0x4 DUP3 ADD MSTORE PUSH1 0x1D PUSH1 0x24 DUP3 ADD MSTORE PUSH32 0x4E6F742074686520737065636966696564207061727469636970616E74000000 PUSH1 0x44 DUP3 ADD MSTORE REVERT JUMPDEST PUSH1 0x1 PUSH1 0x1 PUSH1 0xA0 SHL SUB NOT AND CALLER OR SWAP1 SWAP2 SSTORE SWAP4 SWAP3 SWAP2 SWAP1 POP PUSH2 0x50E JUMP JUMPDEST PUSH1 0x84 SWAP1 PUSH1 0x40 MLOAD SWAP1 PUSH3 0x461BCD PUSH1 0xE5 SHL DUP3 MSTORE PUSH1 0x4 DUP3 ADD MSTORE PUSH1 0x23 PUSH1 0x24 DUP3 ADD MSTORE PUSH32 0x43726561746F722063616E6E6F7420616363657074206F776E206368616C6C65 PUSH1 0x44 DUP3 ADD MSTORE PUSH3 0x6E6765 PUSH1 0xE8 SHL PUSH1 0x64 DUP3 ADD MSTORE REVERT JUMPDEST PUSH1 0x64 SWAP1 PUSH1 0x40 MLOAD SWAP1 PUSH3 0x461BCD PUSH1 0xE5 SHL DUP3 MSTORE PUSH1 0x4 DUP3 ADD MSTORE PUSH1 0x12 PUSH1 0x24 DUP3 ADD MSTORE PUSH18 0x21B430B63632B733B2903737BA1037B832B7 PUSH1 0x71 SHL PUSH1 0x44 DUP3 ADD MSTORE REVERT JUMPDEST PUSH4 0x4E487B71 PUSH1 0xE0 SHL DUP8 MSTORE PUSH1 0x21 PUSH1 0x4 MSTORE PUSH1 0x24 DUP8 REVERT JUMPDEST PUSH1 0x40 MLOAD PUSH3 0x461BCD PUSH1 0xE5 SHL DUP2 MSTORE PUSH1 0x4 DUP2 ADD DUP6 SWAP1 MSTORE PUSH1 0x11 PUSH1 0x24 DUP3 ADD MSTORE PUSH17 0x4E6F7420503250206368616C6C656E6765 PUSH1 0x78 SHL PUSH1 0x44 DUP3 ADD MSTORE PUSH1 0x64 SWAP1 REVERT JUMPDEST PUSH4 0x4E487B71 PUSH1 0xE0 SHL DUP7 MSTORE PUSH1 0x21 PUSH1 0x4 MSTORE PUSH1 0x24 DUP7 REVERT JUMPDEST POP CALLVALUE PUSH2 0x18D JUMPI PUSH1 0x20 PUSH32 0xD128F4457567637D4D9A19A54A44A6E47BA1ED0CC875B3CFF7B762C8BB27B416 PUSH2 0x762 CALLDATASIZE PUSH2 0x1CFC JUMP JUMPDEST SWAP3 SWAP1 PUSH2 0x76C PUSH2 0x1F18 JUMP JUMPDEST PUSH1 0x1 PUSH1 0x1 PUSH1 0xA0 SHL SUB AND SWAP3 PUSH2 0x781 DUP5 ISZERO ISZERO PUSH2 0x233A JUMP JUMPDEST DUP4 DUP6 MSTORE PUSH1 0xB DUP3 MSTORE PUSH2 0x7A1 DUP2 PUSH1 0x40 DUP8 KECCAK256 SWAP1 PUSH1 0xFF DUP1 NOT DUP4 SLOAD AND SWAP2 ISZERO ISZERO AND OR SWAP1 SSTORE JUMP JUMPDEST PUSH1 0x40 MLOAD SWAP1 ISZERO ISZERO DUP2 MSTORE LOG2 DUP1 RETURN JUMPDEST POP CALLVALUE PUSH2 0x18D JUMPI PUSH1 0x20 CALLDATASIZE PUSH1 0x3 NOT ADD SLT PUSH2 0x18D JUMPI PUSH1 0x20 SWAP1 PUSH1 0xFF SWAP1 PUSH1 0x40 SWAP1 PUSH1 0x1 PUSH1 0x1 PUSH1 0xA0 SHL SUB PUSH2 0x7D8 PUSH2 0x1CCB JUMP JUMPDEST AND DUP2 MSTORE PUSH1 0xC DUP5 MSTORE KECCAK256 SLOAD AND PUSH1 0x40 MLOAD SWAP1 ISZERO ISZERO DUP2 MSTORE RETURN JUMPDEST POP CALLVALUE PUSH2 0x18D JUMPI DUP1 PUSH1 0x3 NOT CALLDATASIZE ADD SLT PUSH2 0x18D JUMPI PUSH1 0x20 PUSH1 0x7 SLOAD PUSH1 0x40 MLOAD SWAP1 DUP2 MSTORE RETURN JUMPDEST POP CALLVALUE PUSH2 0x18D JUMPI PUSH1 0x80 CALLDATASIZE PUSH1 0x3 NOT ADD SLT PUSH2 0x18D JUMPI PUSH2 0x824 PUSH2 0x1CCB JUMP JUMPDEST PUSH8 0xFFFFFFFFFFFFFFFF SWAP2 PUSH1 0x24 CALLDATALOAD SWAP2 SWAP1 PUSH1 0x44 CALLDATALOAD PUSH1 0x64 CALLDATALOAD DUP6 DUP2 GT PUSH2 0xABC JUMPI PUSH2 0x84E SWAP1 CALLDATASIZE SWAP1 PUSH1 0x4 ADD PUSH2 0x1E0A JUMP JUMPDEST SWAP5 SWAP1 SWAP4 PUSH2 0x859 PUSH2 0x1F18 JUMP JUMPDEST PUSH2 0x861 PUSH2 0x2084 JUMP JUMPDEST PUSH1 0x1 PUSH1 0x1 PUSH1 0xA0 SHL SUB AND SWAP2 DUP3 ISZERO PUSH2 0xA7F JUMPI DUP3 DUP5 MSTORE PUSH1 0x20 SWAP7 PUSH1 0xC DUP9 MSTORE PUSH2 0x88C PUSH1 0xFF PUSH1 0x40 DUP8 KECCAK256 SLOAD AND ISZERO PUSH2 0x1F44 JUMP JUMPDEST PUSH2 0x897 DUP4 ISZERO ISZERO PUSH2 0x1F87 JUMP JUMPDEST PUSH2 0x8A2 DUP3 ISZERO ISZERO PUSH2 0x1FC7 JUMP JUMPDEST PUSH2 0x8B0 PUSH2 0x1F4 DUP4 GT ISZERO PUSH2 0x2013 JUMP JUMPDEST PUSH1 0x6 SLOAD SWAP7 PUSH2 0x8BD DUP9 PUSH2 0x205F JUMP JUMPDEST PUSH1 0x6 SSTORE DUP8 DUP7 MSTORE PUSH1 0x8 DUP1 DUP11 MSTORE PUSH1 0x40 DUP8 KECCAK256 DUP10 DUP2 SSTORE PUSH1 0x1 DUP1 DUP3 ADD DUP1 SLOAD PUSH1 0x1 PUSH1 0x1 PUSH1 0xA8 SHL SUB NOT AND CALLER SWAP1 SWAP5 SHL PUSH2 0x100 PUSH1 0x1 PUSH1 0xA8 SHL SUB AND SWAP4 SWAP1 SWAP4 OR SWAP1 SWAP3 SSTORE SWAP1 SWAP8 SWAP1 PUSH1 0x9 SWAP1 PUSH1 0xFF NOT PUSH1 0x3 DUP3 ADD DUP10 PUSH1 0x1 PUSH1 0x1 PUSH1 0x60 SHL SUB PUSH1 0xA0 SHL DUP3 SLOAD AND OR SWAP1 SSTORE DUP8 PUSH1 0x4 DUP4 ADD SSTORE DUP7 PUSH1 0x5 DUP4 ADD SSTORE PUSH1 0x6 DUP3 ADD SWAP1 DUP2 SLOAD AND SWAP1 SSTORE TIMESTAMP PUSH1 0x7 DUP3 ADD SSTORE ADD SWAP3 DUP3 GT PUSH2 0xA6B JUMPI DUP2 SWAP1 PUSH2 0x944 DUP5 SLOAD PUSH2 0x1E38 JUMP JUMPDEST PUSH1 0x1F DUP2 GT PUSH2 0xA1B JUMPI JUMPDEST POP DUP8 SWAP1 PUSH1 0x1F DUP4 GT PUSH1 0x1 EQ PUSH2 0x9BB JUMPI DUP9 SWAP3 PUSH2 0x9B0 JUMPI JUMPDEST POP POP PUSH1 0x0 NOT PUSH1 0x3 DUP4 SWAP1 SHL SHR NOT AND SWAP1 DUP8 SHL OR SWAP1 SSTORE JUMPDEST PUSH1 0x40 MLOAD SWAP2 DUP3 MSTORE DUP7 DUP3 ADD MSTORE DUP5 PUSH32 0xAC61621ED399481A7FDD906A7B94C9D3667DEE8643E9C121E783B860A3F2282D PUSH1 0x40 CALLER SWAP4 LOG4 SSTORE PUSH1 0x40 MLOAD SWAP1 DUP2 MSTORE RETURN JUMPDEST ADD CALLDATALOAD SWAP1 POP CODESIZE DUP1 PUSH2 0x962 JUMP JUMPDEST DUP5 DUP10 MSTORE DUP12 DUP10 KECCAK256 DUP11 SWAP5 POP SWAP2 PUSH1 0x1F NOT DUP5 AND DUP11 DUP15 JUMPDEST DUP3 DUP3 LT PUSH2 0xA04 JUMPI POP POP DUP5 GT PUSH2 0x9EA JUMPI JUMPDEST POP POP POP DUP2 SHL ADD SWAP1 SSTORE PUSH2 0x976 JUMP JUMPDEST ADD CALLDATALOAD PUSH1 0x0 NOT PUSH1 0x3 DUP5 SWAP1 SHL PUSH1 0xF8 AND SHR NOT AND SWAP1 SSTORE CODESIZE DUP1 DUP1 PUSH2 0x9DD JUMP JUMPDEST DUP4 DUP6 ADD CALLDATALOAD DUP7 SSTORE DUP14 SWAP8 SWAP1 SWAP6 ADD SWAP5 SWAP3 DUP4 ADD SWAP3 ADD DUP15 PUSH2 0x9CD JUMP JUMPDEST SWAP1 SWAP2 POP DUP4 DUP9 MSTORE DUP11 DUP9 KECCAK256 PUSH1 0x1F DUP5 ADD PUSH1 0x5 SHR DUP2 ADD SWAP2 DUP13 DUP6 LT PUSH2 0xA61 JUMPI JUMPDEST DUP5 SWAP4 SWAP3 SWAP2 PUSH1 0x1F DUP13 SWAP3 ADD PUSH1 0x5 SHR ADD SWAP2 JUMPDEST DUP3 DUP2 LT PUSH2 0xA53 JUMPI POP POP PUSH2 0x94D JUMP JUMPDEST DUP11 DUP2 SSTORE DUP6 SWAP5 POP DUP12 SWAP2 ADD PUSH2 0xA45 JUMP JUMPDEST SWAP1 SWAP2 POP DUP2 SWAP1 PUSH2 0xA36 JUMP JUMPDEST PUSH4 0x4E487B71 PUSH1 0xE0 SHL DUP8 MSTORE PUSH1 0x41 PUSH1 0x4 MSTORE PUSH1 0x24 DUP8 REVERT JUMPDEST PUSH1 0x40 MLOAD PUSH3 0x461BCD PUSH1 0xE5 SHL DUP2 MSTORE PUSH1 0x20 PUSH1 0x4 DUP3 ADD MSTORE PUSH1 0x15 PUSH1 0x24 DUP3 ADD MSTORE PUSH21 0x24B73B30B634B2103830BCB6B2B73A103A37B5B2B7 PUSH1 0x59 SHL PUSH1 0x44 DUP3 ADD MSTORE PUSH1 0x64 SWAP1 REVERT JUMPDEST DUP3 DUP1 REVERT JUMPDEST POP CALLVALUE PUSH2 0x18D JUMPI PUSH1 0x20 CALLDATASIZE PUSH1 0x3 NOT ADD SLT PUSH2 0x18D JUMPI PUSH1 0x40 PUSH1 0x20 SWAP2 PUSH1 0x4 CALLDATALOAD DUP2 MSTORE PUSH1 0x8 DUP4 MSTORE KECCAK256 PUSH2 0xB99 DUP2 SLOAD SWAP2 PUSH1 0x1 DUP2 ADD SLOAD SWAP1 PUSH1 0x1 DUP1 PUSH1 0xA0 SHL SUB DUP1 PUSH1 0x2 DUP4 ADD SLOAD AND SWAP1 DUP1 PUSH1 0x3 DUP5 ADD SLOAD AND PUSH1 0x4 DUP5 ADD SLOAD PUSH1 0x5 DUP6 ADD SLOAD SWAP1 PUSH1 0x6 DUP7 ADD SLOAD SWAP3 PUSH1 0x7 DUP8 ADD SLOAD SWAP6 DUP6 PUSH2 0xB2C PUSH1 0x9 PUSH1 0x8 DUP12 ADD SLOAD SWAP11 ADD PUSH2 0x1E72 JUMP JUMPDEST SWAP10 PUSH2 0xB44 PUSH1 0x40 MLOAD SWAP15 DUP16 SWAP15 DUP16 SWAP1 DUP2 MSTORE ADD PUSH1 0xFF DUP4 AND PUSH2 0x1D9A JUMP JUMPDEST PUSH1 0x8 SHR AND PUSH1 0x40 DUP13 ADD MSTORE PUSH1 0x60 DUP12 ADD MSTORE PUSH1 0x80 DUP11 ADD MSTORE PUSH1 0xA0 DUP10 ADD MSTORE PUSH1 0xC0 DUP9 ADD MSTORE PUSH2 0xB71 PUSH1 0xE0 DUP9 ADD PUSH1 0xFF DUP4 AND PUSH2 0x1DBD JUMP JUMPDEST PUSH1 0x8 SHR AND PUSH2 0x100 DUP7 ADD MSTORE PUSH2 0x120 DUP6 ADD MSTORE PUSH2 0x140 DUP5 ADD MSTORE PUSH2 0x180 DUP1 PUSH2 0x160 DUP6 ADD MSTORE DUP4 ADD SWAP1 PUSH2 0x1DCA JUMP JUMPDEST SUB SWAP1 RETURN JUMPDEST POP CALLVALUE PUSH2 0x18D JUMPI DUP1 PUSH1 0x3 NOT CALLDATASIZE ADD SLT PUSH2 0x18D JUMPI PUSH1 0x1 SLOAD PUSH1 0x40 MLOAD PUSH1 0x1 PUSH1 0x1 PUSH1 0xA0 SHL SUB SWAP1 SWAP2 AND DUP2 MSTORE PUSH1 0x20 SWAP1 RETURN JUMPDEST POP CALLVALUE PUSH2 0x18D JUMPI PUSH1 0x20 CALLDATASIZE PUSH1 0x3 NOT ADD SLT PUSH2 0x18D JUMPI PUSH1 0x20 SWAP1 PUSH1 0x40 SWAP1 PUSH1 0x1 PUSH1 0x1 PUSH1 0xA0 SHL SUB PUSH2 0xBEE PUSH2 0x1CCB JUMP JUMPDEST AND DUP2 MSTORE PUSH1 0xD DUP4 MSTORE KECCAK256 SLOAD PUSH1 0x40 MLOAD SWAP1 DUP2 MSTORE RETURN JUMPDEST POP CALLVALUE PUSH2 0x18D JUMPI PUSH1 0x20 CALLDATASIZE PUSH1 0x3 NOT ADD SLT PUSH2 0x18D JUMPI PUSH1 0x4 CALLDATALOAD PUSH2 0xC1C PUSH2 0x1F18 JUMP JUMPDEST PUSH2 0x2710 DUP2 GT PUSH2 0xC57 JUMPI PUSH1 0x20 DUP2 PUSH32 0xD0A5DDFA06600C6481DCD2923A572827C06E53859F23F7DDAB41FF3144EE8687 SWAP3 PUSH1 0x7 SSTORE PUSH1 0x40 MLOAD SWAP1 DUP2 MSTORE LOG1 DUP1 RETURN JUMPDEST PUSH1 0x40 MLOAD PUSH3 0x461BCD PUSH1 0xE5 SHL DUP2 MSTORE PUSH1 0x20 PUSH1 0x4 DUP3 ADD MSTORE PUSH1 0xC PUSH1 0x24 DUP3 ADD MSTORE PUSH12 0x8CCACA40E8DEDE40D0D2CED PUSH1 0xA3 SHL PUSH1 0x44 DUP3 ADD MSTORE PUSH1 0x64 SWAP1 REVERT JUMPDEST POP PUSH1 0xA0 CALLDATASIZE PUSH1 0x3 NOT ADD SLT PUSH2 0x18D JUMPI PUSH2 0xCA0 PUSH2 0x1CCB JUMP JUMPDEST PUSH2 0xCA8 PUSH2 0x1CE6 JUMP JUMPDEST PUSH8 0xFFFFFFFFFFFFFFFF SWAP2 PUSH1 0x84 CALLDATALOAD DUP4 DUP2 GT PUSH2 0x5C1 JUMPI PUSH2 0xCCA SWAP1 CALLDATASIZE SWAP1 PUSH1 0x4 ADD PUSH2 0x1E0A JUMP JUMPDEST PUSH2 0xCD5 SWAP5 SWAP2 SWAP5 PUSH2 0x2084 JUMP JUMPDEST PUSH1 0x1 PUSH1 0x1 PUSH1 0xA0 SHL SUB DUP4 AND PUSH2 0x1001 JUMPI JUMPDEST PUSH1 0x1 PUSH1 0x1 PUSH1 0xA0 SHL SUB DUP5 AND DUP7 MSTORE PUSH1 0xC PUSH1 0x20 MSTORE PUSH1 0x40 DUP7 KECCAK256 SLOAD PUSH2 0xD07 SWAP1 PUSH1 0xFF AND ISZERO PUSH2 0x1F44 JUMP JUMPDEST PUSH2 0xD14 PUSH1 0x44 CALLDATALOAD ISZERO ISZERO PUSH2 0x1F87 JUMP JUMPDEST PUSH2 0xD21 PUSH1 0x64 CALLDATALOAD ISZERO ISZERO PUSH2 0x1FC7 JUMP JUMPDEST PUSH2 0xD31 PUSH2 0x1F4 PUSH1 0x64 CALLDATALOAD GT ISZERO PUSH2 0x2013 JUMP JUMPDEST PUSH1 0x1 PUSH1 0x1 PUSH1 0xA0 SHL SUB DUP5 AND PUSH2 0xFD2 JUMPI PUSH2 0xD4C PUSH1 0x44 CALLDATALOAD CALLVALUE EQ PUSH2 0x20F3 JUMP JUMPDEST PUSH1 0x6 SLOAD SWAP5 PUSH2 0xD59 DUP7 PUSH2 0x205F JUMP JUMPDEST PUSH1 0x6 SSTORE DUP6 DUP8 MSTORE PUSH1 0x8 PUSH1 0x20 DUP2 SWAP1 MSTORE PUSH1 0x40 DUP9 KECCAK256 DUP8 DUP2 SSTORE PUSH1 0x1 DUP1 DUP3 ADD DUP1 SLOAD PUSH1 0x1 PUSH1 0x1 PUSH1 0xA8 SHL SUB NOT AND CALLER SWAP1 SWAP5 SHL PUSH2 0x100 PUSH1 0x1 PUSH1 0xA8 SHL SUB AND SWAP4 SWAP1 SWAP4 OR OR SWAP1 SWAP2 SSTORE SWAP3 PUSH1 0xFF NOT PUSH1 0x2 DUP6 ADD DUP1 SLOAD PUSH1 0x1 PUSH1 0x1 PUSH1 0xA0 SHL SUB DUP9 DUP2 AND PUSH1 0x1 PUSH1 0x1 PUSH1 0xA0 SHL SUB NOT SWAP3 DUP4 AND OR SWAP1 SWAP3 SSTORE PUSH1 0x3 DUP8 ADD DUP1 SLOAD SWAP3 DUP11 AND SWAP3 SWAP1 SWAP2 AND SWAP2 SWAP1 SWAP2 OR SWAP1 SSTORE PUSH1 0x44 CALLDATALOAD PUSH1 0x4 DUP7 ADD SSTORE PUSH1 0x64 CALLDATALOAD PUSH1 0x5 DUP7 ADD SSTORE PUSH1 0x6 DUP6 ADD DUP1 SLOAD SWAP2 SWAP1 SWAP2 AND SWAP1 SSTORE TIMESTAMP PUSH1 0x7 DUP6 ADD SSTORE DUP3 GT PUSH2 0xA6B JUMPI PUSH2 0xE01 PUSH1 0x9 DUP5 ADD SLOAD PUSH2 0x1E38 JUMP JUMPDEST PUSH1 0x1F DUP2 GT PUSH2 0xF8E JUMPI JUMPDEST POP DUP7 SWAP1 PUSH1 0x1F DUP4 GT PUSH1 0x1 EQ PUSH2 0xF21 JUMPI PUSH1 0x9 SWAP3 SWAP2 DUP9 SWAP2 DUP4 PUSH2 0xF16 JUMPI JUMPDEST POP POP DUP2 PUSH1 0x1 SHL SWAP2 PUSH1 0x0 NOT SWAP1 PUSH1 0x3 SHL SHR NOT AND OR SWAP2 ADD SSTORE JUMPDEST PUSH1 0x3 SLOAD PUSH1 0x1 PUSH1 0x1 PUSH1 0xA0 SHL SUB AND DUP1 EXTCODESIZE ISZERO PUSH2 0x5C1 JUMPI PUSH1 0x40 MLOAD PUSH4 0x7A443E3D PUSH1 0xE1 SHL DUP2 MSTORE CALLER PUSH1 0x4 DUP3 ADD MSTORE PUSH1 0x1 PUSH1 0x1 PUSH1 0xA0 SHL SUB DUP5 AND PUSH1 0x24 DUP3 ADD MSTORE PUSH1 0x44 DUP1 CALLDATALOAD SWAP1 DUP3 ADD MSTORE PUSH1 0x64 DUP2 ADD DUP6 SWAP1 MSTORE SWAP1 DUP6 SWAP1 DUP3 SWAP1 PUSH1 0x84 SWAP1 DUP3 SWAP1 DUP5 SWAP1 GAS CALL DUP1 ISZERO PUSH2 0xF0B JUMPI PUSH2 0xEF3 JUMPI JUMPDEST POP SWAP3 PUSH1 0x1 SWAP2 PUSH1 0x20 SWAP5 PUSH1 0x40 MLOAD SWAP2 DUP5 DUP1 PUSH1 0xA0 SHL SUB AND DUP3 MSTORE PUSH1 0x44 CALLDATALOAD DUP7 DUP4 ADD MSTORE PUSH1 0x64 CALLDATALOAD PUSH1 0x40 DUP4 ADD MSTORE DUP4 DUP1 PUSH1 0xA0 SHL SUB AND SWAP1 DUP5 PUSH32 0xF4F5A9F479B06CD99960B03CDDC4864CB98EAA763A8F668617C80F5895127779 PUSH1 0x60 CALLER SWAP4 LOG4 SSTORE PUSH1 0x40 MLOAD SWAP1 DUP2 MSTORE RETURN JUMPDEST PUSH2 0xEFD DUP6 SWAP2 PUSH2 0x1D2B JUMP JUMPDEST PUSH2 0xF07 JUMPI CODESIZE PUSH2 0xE97 JUMP JUMPDEST DUP4 DUP1 REVERT JUMPDEST PUSH1 0x40 MLOAD RETURNDATASIZE DUP8 DUP3 RETURNDATACOPY RETURNDATASIZE SWAP1 REVERT JUMPDEST ADD CALLDATALOAD SWAP1 POP CODESIZE DUP1 PUSH2 0xE24 JUMP JUMPDEST PUSH1 0x9 DUP5 ADD DUP9 MSTORE PUSH1 0x20 DUP9 KECCAK256 SWAP2 DUP9 JUMPDEST PUSH1 0x1F NOT DUP6 AND DUP2 LT PUSH2 0xF76 JUMPI POP SWAP2 DUP4 SWAP2 PUSH1 0x1 SWAP4 PUSH1 0x9 SWAP6 PUSH1 0x1F NOT DUP2 AND LT PUSH2 0xF5C JUMPI JUMPDEST POP POP POP DUP2 SHL ADD SWAP2 ADD SSTORE PUSH2 0xE3A JUMP JUMPDEST ADD CALLDATALOAD PUSH1 0x0 NOT PUSH1 0x3 DUP5 SWAP1 SHL PUSH1 0xF8 AND SHR NOT AND SWAP1 SSTORE CODESIZE DUP1 DUP1 PUSH2 0xF4E JUMP JUMPDEST SWAP1 SWAP3 PUSH1 0x20 PUSH1 0x1 DUP2 SWAP3 DUP7 DUP7 ADD CALLDATALOAD DUP2 SSTORE ADD SWAP5 ADD SWAP2 ADD PUSH2 0xF2E JUMP JUMPDEST PUSH1 0x9 DUP5 ADD DUP9 MSTORE PUSH1 0x20 DUP9 KECCAK256 PUSH1 0x1F DUP5 ADD PUSH1 0x5 SHR DUP2 ADD PUSH1 0x20 DUP6 LT PUSH2 0xFCB JUMPI JUMPDEST PUSH1 0x1F DUP4 ADD PUSH1 0x5 SHR DUP3 ADD DUP2 LT PUSH2 0xFC0 JUMPI POP POP PUSH2 0xE0A JUMP JUMPDEST DUP10 DUP2 SSTORE PUSH1 0x1 ADD PUSH2 0xFAA JUMP JUMPDEST POP DUP1 PUSH2 0xFAA JUMP JUMPDEST PUSH2 0xFDC CALLVALUE ISZERO PUSH2 0x20A7 JUMP JUMPDEST PUSH1 0x3 SLOAD PUSH2 0xFFC SWAP1 PUSH1 0x44 CALLDATALOAD SWAP1 PUSH1 0x1 PUSH1 0x1 PUSH1 0xA0 SHL SUB SWAP1 DUP2 AND SWAP1 CALLER SWAP1 DUP9 AND PUSH2 0x2135 JUMP JUMPDEST PUSH2 0xD4C JUMP JUMPDEST CALLER PUSH1 0x1 PUSH1 0x1 PUSH1 0xA0 SHL SUB DUP5 AND SUB PUSH2 0xCE4 JUMPI PUSH1 0x40 MLOAD PUSH3 0x461BCD PUSH1 0xE5 SHL DUP2 MSTORE PUSH1 0x20 PUSH1 0x4 DUP3 ADD MSTORE PUSH1 0x19 PUSH1 0x24 DUP3 ADD MSTORE PUSH32 0x43616E6E6F74206368616C6C656E676520796F757273656C6600000000000000 PUSH1 0x44 DUP3 ADD MSTORE PUSH1 0x64 SWAP1 REVERT JUMPDEST POP CALLVALUE PUSH2 0x18D JUMPI DUP1 PUSH1 0x3 NOT CALLDATASIZE ADD SLT PUSH2 0x18D JUMPI PUSH1 0x2 SLOAD PUSH1 0x40 MLOAD PUSH1 0x1 PUSH1 0x1 PUSH1 0xA0 SHL SUB SWAP1 SWAP2 AND DUP2 MSTORE PUSH1 0x20 SWAP1 RETURN JUMPDEST POP CALLVALUE PUSH2 0x18D JUMPI DUP1 PUSH1 0x3 NOT CALLDATASIZE ADD SLT PUSH2 0x18D JUMPI PUSH2 0x1098 PUSH2 0x1F18 JUMP JUMPDEST PUSH1 0x1 DUP1 SLOAD PUSH1 0x1 PUSH1 0x1 PUSH1 0xA0 SHL SUB NOT DUP2 AND SWAP1 SWAP2 SSTORE PUSH1 0x0 SWAP1 PUSH1 0x1 PUSH1 0x1 PUSH1 0xA0 SHL SUB AND PUSH32 0x8BE0079C531659141344CD1FD0A4F28419497F9722A3DAAFE3B4186F6B6457E0 DUP3 DUP1 LOG3 DUP1 RETURN JUMPDEST POP CALLVALUE PUSH2 0x18D JUMPI PUSH1 0x20 CALLDATASIZE PUSH1 0x3 NOT ADD SLT PUSH2 0x18D JUMPI PUSH2 0x10F7 PUSH2 0x1CCB JUMP JUMPDEST PUSH2 0x10FF PUSH2 0x1F18 JUMP JUMPDEST PUSH1 0x1 PUSH1 0x1 PUSH1 0xA0 SHL SUB AND DUP1 ISZERO PUSH2 0x1147 JUMPI PUSH1 0x4 DUP1 SLOAD PUSH1 0x1 PUSH1 0x1 PUSH1 0xA0 SHL SUB NOT AND DUP3 OR SWAP1 SSTORE PUSH32 0x54E4612788F90384E6843298D7854436F3A585B2C3831AB66ABF1DE63BFA6C2D DUP3 DUP1 LOG2 DUP1 RETURN JUMPDEST PUSH1 0x40 MLOAD PUSH3 0x461BCD PUSH1 0xE5 SHL DUP2 MSTORE PUSH1 0x20 PUSH1 0x4 DUP3 ADD MSTORE PUSH1 0xD PUSH1 0x24 DUP3 ADD MSTORE PUSH13 0x24B73B30B634B21030B236B4B7 PUSH1 0x99 SHL PUSH1 0x44 DUP3 ADD MSTORE PUSH1 0x64 SWAP1 REVERT JUMPDEST POP CALLVALUE PUSH2 0x18D JUMPI PUSH1 0x20 CALLDATASIZE PUSH1 0x3 NOT ADD SLT PUSH2 0x18D JUMPI PUSH1 0x40 PUSH1 0x20 SWAP2 PUSH1 0x4 CALLDATALOAD DUP2 MSTORE PUSH1 0xA DUP4 MSTORE KECCAK256 SLOAD PUSH1 0x40 MLOAD SWAP1 DUP2 MSTORE RETURN JUMPDEST POP CALLVALUE PUSH2 0x18D JUMPI PUSH1 0x20 DUP1 PUSH1 0x3 NOT CALLDATASIZE ADD SLT PUSH2 0x457 JUMPI PUSH1 0x4 CALLDATALOAD SWAP1 PUSH2 0x11C5 PUSH2 0x2084 JUMP JUMPDEST DUP2 DUP4 MSTORE PUSH1 0x8 DUP2 MSTORE PUSH1 0x40 DUP4 KECCAK256 SWAP2 PUSH1 0x6 DUP4 ADD DUP1 SLOAD SWAP1 PUSH1 0xFF DUP3 AND PUSH1 0x5 DUP2 LT ISZERO PUSH2 0x6CF JUMPI PUSH1 0x2 SUB PUSH2 0x130A JUMPI PUSH1 0x1 PUSH1 0x1 PUSH1 0xA0 SHL SUB SWAP2 PUSH1 0x8 DUP2 SWAP1 SHR DUP4 AND CALLER DUP2 SUB PUSH2 0x12CD JUMPI ISZERO PUSH2 0x1298 JUMPI PUSH1 0x40 MLOAD PUSH1 0x40 DUP2 ADD DUP2 DUP2 LT PUSH8 0xFFFFFFFFFFFFFFFF DUP3 GT OR PUSH2 0x406 JUMPI PUSH1 0x40 MSTORE PUSH1 0x1 DUP2 MSTORE DUP6 DUP2 ADD SWAP1 DUP7 CALLDATASIZE DUP4 CALLDATACOPY MLOAD ISZERO PUSH2 0x1284 JUMPI SWAP2 PUSH1 0x3 PUSH32 0x401AF6ACAF4DFD2AB7650E060F96CF76F6A51FD9D42102601E60FDACD4EACFF2 SWAP5 SWAP3 PUSH1 0x4 SWAP5 CALLER SWAP1 MSTORE PUSH1 0xFF NOT AND OR SWAP1 SSTORE PUSH1 0x3 DUP7 ADD SLOAD AND SWAP5 ADD SLOAD SWAP3 PUSH1 0x40 MLOAD SWAP4 DUP5 MSTORE CALLER SWAP4 LOG4 PUSH1 0x1 DUP2 SSTORE DUP1 RETURN JUMPDEST PUSH4 0x4E487B71 PUSH1 0xE0 SHL DUP9 MSTORE PUSH1 0x32 PUSH1 0x4 MSTORE PUSH1 0x24 DUP9 REVERT JUMPDEST PUSH1 0x40 MLOAD PUSH3 0x461BCD PUSH1 0xE5 SHL DUP2 MSTORE PUSH1 0x4 DUP2 ADD DUP7 SWAP1 MSTORE PUSH1 0xD PUSH1 0x24 DUP3 ADD MSTORE PUSH13 0x139BC81DDA5B9B995C881CD95D PUSH1 0x9A SHL PUSH1 0x44 DUP3 ADD MSTORE PUSH1 0x64 SWAP1 REVERT JUMPDEST PUSH1 0x40 MLOAD PUSH3 0x461BCD PUSH1 0xE5 SHL DUP2 MSTORE PUSH1 0x4 DUP2 ADD DUP8 SWAP1 MSTORE PUSH1 0x15 PUSH1 0x24 DUP3 ADD MSTORE PUSH21 0x4F6E6C792077696E6E65722063616E20636C61696D PUSH1 0x58 SHL PUSH1 0x44 DUP3 ADD MSTORE PUSH1 0x64 SWAP1 REVERT JUMPDEST PUSH1 0x40 MLOAD PUSH3 0x461BCD PUSH1 0xE5 SHL DUP2 MSTORE PUSH1 0x4 DUP2 ADD DUP6 SWAP1 MSTORE PUSH1 0x16 PUSH1 0x24 DUP3 ADD MSTORE PUSH22 0x10DA185B1B195B99D9481B9BDD081C995CDBDB1D9959 PUSH1 0x52 SHL PUSH1 0x44 DUP3 ADD MSTORE PUSH1 0x64 SWAP1 REVERT JUMPDEST POP CALLVALUE PUSH2 0x18D JUMPI PUSH1 0x20 CALLDATASIZE PUSH1 0x3 NOT ADD SLT PUSH2 0x18D JUMPI PUSH1 0x60 PUSH2 0x160 PUSH1 0x40 MLOAD PUSH2 0x136B DUP2 PUSH2 0x1D3F JUMP JUMPDEST DUP4 DUP2 MSTORE DUP4 PUSH1 0x20 DUP3 ADD MSTORE DUP4 PUSH1 0x40 DUP3 ADD MSTORE DUP4 DUP4 DUP3 ADD MSTORE DUP4 PUSH1 0x80 DUP3 ADD MSTORE DUP4 PUSH1 0xA0 DUP3 ADD MSTORE DUP4 PUSH1 0xC0 DUP3 ADD MSTORE DUP4 PUSH1 0xE0 DUP3 ADD MSTORE DUP4 PUSH2 0x100 DUP3 ADD MSTORE DUP4 PUSH2 0x120 DUP3 ADD MSTORE DUP4 PUSH2 0x140 DUP3 ADD MSTORE ADD MSTORE PUSH1 0x4 CALLDATALOAD DUP2 MSTORE PUSH1 0x8 PUSH1 0x20 MSTORE PUSH1 0x40 DUP2 KECCAK256 SWAP1 PUSH1 0x40 MLOAD SWAP1 PUSH2 0x13CA DUP3 PUSH2 0x1D3F JUMP JUMPDEST DUP3 SLOAD DUP3 MSTORE PUSH1 0x1 DUP4 ADD SLOAD PUSH1 0xFF DUP2 AND PUSH1 0x2 DUP2 LT ISZERO PUSH2 0x154D JUMPI PUSH1 0x20 DUP5 ADD MSTORE PUSH1 0x8 SHR PUSH1 0x1 PUSH1 0x1 PUSH1 0xA0 SHL SUB SWAP1 DUP2 AND PUSH1 0x40 DUP5 ADD MSTORE PUSH1 0x2 DUP5 ADD SLOAD DUP2 AND PUSH1 0x60 DUP5 ADD MSTORE PUSH1 0x3 DUP5 ADD SLOAD AND PUSH1 0x80 DUP4 ADD MSTORE PUSH1 0x4 DUP4 ADD SLOAD PUSH1 0xA0 DUP4 ADD MSTORE PUSH1 0x5 DUP1 DUP5 ADD SLOAD PUSH1 0xC0 DUP5 ADD MSTORE PUSH1 0x6 DUP5 ADD SLOAD SWAP2 PUSH1 0xFF DUP4 AND SWAP2 DUP3 LT ISZERO PUSH2 0x1539 JUMPI POP PUSH1 0xE0 DUP4 ADD MSTORE PUSH1 0x8 SWAP1 DUP2 SHR PUSH1 0x1 PUSH1 0x1 PUSH1 0xA0 SHL SUB AND PUSH2 0x100 DUP4 ADD MSTORE PUSH1 0x7 DUP4 ADD SLOAD PUSH2 0x120 DUP4 ADD MSTORE DUP3 ADD SLOAD PUSH2 0x140 DUP3 ADD MSTORE PUSH2 0x160 SWAP2 PUSH2 0x1474 SWAP1 PUSH1 0x9 ADD PUSH2 0x1E72 JUMP JUMPDEST DUP3 DUP3 ADD MSTORE PUSH2 0xB99 PUSH1 0x40 MLOAD SWAP3 DUP4 SWAP3 PUSH1 0x20 DUP5 MSTORE DUP1 MLOAD PUSH1 0x20 DUP6 ADD MSTORE PUSH2 0x149E PUSH1 0x20 DUP3 ADD MLOAD PUSH1 0x40 DUP7 ADD SWAP1 PUSH2 0x1D9A JUMP JUMPDEST PUSH1 0x1 DUP1 PUSH1 0xA0 SHL SUB PUSH1 0x40 DUP3 ADD MLOAD AND PUSH1 0x60 DUP6 ADD MSTORE PUSH1 0x1 DUP1 PUSH1 0xA0 SHL SUB PUSH1 0x60 DUP3 ADD MLOAD AND PUSH1 0x80 DUP6 ADD MSTORE PUSH1 0x1 DUP1 PUSH1 0xA0 SHL SUB PUSH1 0x80 DUP3 ADD MLOAD AND PUSH1 0xA0 DUP6 ADD MSTORE PUSH1 0xA0 DUP2 ADD MLOAD PUSH1 0xC0 DUP6 ADD MSTORE PUSH1 0xC0 DUP2 ADD MLOAD PUSH1 0xE0 DUP6 ADD MSTORE PUSH2 0x14FB PUSH1 0xE0 DUP3 ADD MLOAD PUSH2 0x100 DUP7 ADD SWAP1 PUSH2 0x1DBD JUMP JUMPDEST PUSH1 0x1 DUP1 PUSH1 0xA0 SHL SUB PUSH2 0x100 DUP3 ADD MLOAD AND PUSH2 0x120 DUP6 ADD MSTORE PUSH2 0x120 DUP2 ADD MLOAD PUSH2 0x140 DUP6 ADD MSTORE PUSH2 0x140 DUP2 ADD MLOAD DUP3 DUP6 ADD MSTORE ADD MLOAD PUSH2 0x180 DUP1 DUP5 ADD MSTORE PUSH2 0x1A0 DUP4 ADD SWAP1 PUSH2 0x1DCA JUMP JUMPDEST PUSH4 0x4E487B71 PUSH1 0xE0 SHL DUP2 MSTORE PUSH1 0x21 PUSH1 0x4 MSTORE PUSH1 0x24 SWAP1 REVERT JUMPDEST PUSH4 0x4E487B71 PUSH1 0xE0 SHL DUP4 MSTORE PUSH1 0x21 PUSH1 0x4 MSTORE PUSH1 0x24 DUP4 REVERT JUMPDEST POP CALLVALUE PUSH2 0x18D JUMPI PUSH1 0x60 CALLDATASIZE PUSH1 0x3 NOT ADD SLT PUSH2 0x18D JUMPI PUSH2 0x157B PUSH2 0x1CE6 JUMP JUMPDEST PUSH1 0x44 DUP1 CALLDATALOAD SWAP1 PUSH8 0xFFFFFFFFFFFFFFFF DUP1 DUP4 GT PUSH2 0x5C1 JUMPI CALLDATASIZE PUSH1 0x23 DUP5 ADD SLT ISZERO PUSH2 0x5C1 JUMPI DUP5 DUP4 PUSH1 0x4 ADD CALLDATALOAD SWAP4 PUSH2 0x15AB DUP6 PUSH2 0x1D7E JUMP JUMPDEST SWAP5 PUSH2 0x15B9 PUSH1 0x40 MLOAD SWAP7 DUP8 PUSH2 0x1D5C JUMP JUMPDEST DUP1 DUP7 MSTORE CALLDATASIZE PUSH1 0x24 DUP3 DUP5 ADD ADD GT PUSH2 0xABC JUMPI DUP1 PUSH1 0x24 PUSH1 0x20 SWAP4 ADD DUP4 DUP9 ADD CALLDATACOPY DUP6 ADD ADD MSTORE PUSH2 0x15DF PUSH2 0x2084 JUMP JUMPDEST PUSH1 0x4 CALLDATALOAD DUP6 MSTORE PUSH1 0x8 PUSH1 0x20 MSTORE PUSH1 0x40 DUP6 KECCAK256 SWAP3 PUSH1 0x6 DUP5 ADD SLOAD SWAP2 PUSH1 0xFF DUP4 AND PUSH1 0x5 DUP2 LT ISZERO PUSH2 0x1AD6 JUMPI DUP1 ISZERO SWAP1 DUP2 ISZERO PUSH2 0x1ACB JUMPI JUMPDEST POP ISZERO PUSH2 0x1A96 JUMPI PUSH1 0x1 PUSH1 0x1 PUSH1 0xA0 SHL SUB DUP7 AND ISZERO PUSH2 0x1A61 JUMPI PUSH1 0x40 MLOAD SWAP1 PUSH1 0x4 CALLDATALOAD PUSH1 0x20 DUP4 ADD MSTORE PUSH1 0x1 PUSH1 0x1 PUSH1 0x60 SHL SUB NOT DUP8 PUSH1 0x60 SHL AND PUSH1 0x40 DUP4 ADD MSTORE PUSH1 0x34 DUP3 MSTORE DUP2 PUSH1 0x60 DUP2 ADD LT SWAP1 PUSH1 0x60 DUP4 ADD GT OR PUSH2 0xA6B JUMPI PUSH2 0x16A2 SWAP2 DUP2 PUSH1 0x60 PUSH2 0x1699 SWAP4 ADD PUSH1 0x40 MSTORE PUSH1 0x20 DUP2 MLOAD SWAP2 ADD KECCAK256 PUSH32 0x19457468657265756D205369676E6564204D6573736167653A0A333200000000 DUP10 MSTORE PUSH1 0x1C MSTORE PUSH1 0x3C DUP9 KECCAK256 PUSH2 0x21FF JUMP JUMPDEST SWAP1 SWAP3 SWAP2 SWAP3 PUSH2 0x22CB JUMP JUMPDEST PUSH1 0x4 SLOAD PUSH1 0x1 PUSH1 0x1 PUSH1 0xA0 SHL SUB SWAP1 DUP2 AND SWAP2 AND SUB PUSH2 0x1A1D JUMPI PUSH1 0x1 PUSH1 0x1 PUSH1 0xA8 SHL SUB NOT AND PUSH1 0x8 DUP5 SWAP1 SHL PUSH2 0x100 PUSH1 0x1 PUSH1 0xA8 SHL SUB AND OR PUSH1 0x2 OR PUSH1 0x6 DUP4 ADD SSTORE TIMESTAMP PUSH1 0x8 DUP4 ADD SSTORE PUSH1 0x1 DUP1 DUP4 ADD SLOAD SWAP1 SWAP4 SWAP1 DUP6 DUP1 PUSH1 0xFF DUP4 AND PUSH1 0x2 DUP2 LT ISZERO PUSH2 0x1A09 JUMPI DUP1 DUP9 SUB PUSH2 0x198E JUMPI POP POP POP PUSH1 0x4 DUP5 ADD SLOAD DUP1 DUP7 SHL SWAP1 DUP1 DUP3 DIV PUSH1 0x2 EQ SWAP1 ISZERO OR ISZERO PUSH2 0x197A JUMPI SWAP1 PUSH1 0x8 SHR PUSH1 0x1 PUSH1 0x1 PUSH1 0xA0 SHL SUB SWAP1 DUP2 AND SWAP1 DUP4 AND DUP2 SUB PUSH2 0x1975 JUMPI POP PUSH1 0x2 DUP5 ADD SLOAD PUSH1 0x1 PUSH1 0x1 PUSH1 0xA0 SHL SUB AND JUMPDEST SWAP1 JUMPDEST PUSH1 0x7 SLOAD DUP1 DUP3 MUL SWAP1 DUP3 DUP3 DIV EQ DUP3 ISZERO OR ISZERO PUSH2 0x1961 JUMPI PUSH2 0x2710 SWAP1 DIV DUP1 DUP3 SUB SWAP2 DUP3 GT PUSH2 0x1961 JUMPI DUP1 PUSH2 0x1901 JUMPI JUMPDEST POP PUSH1 0x3 SLOAD PUSH1 0x1 PUSH1 0x1 PUSH1 0xA0 SHL SUB SWAP1 DUP2 AND SWAP3 DUP9 SWAP2 DUP2 AND ISZERO PUSH2 0x18FA JUMPI JUMPDEST PUSH1 0x3 DUP8 ADD SWAP4 PUSH1 0x1 DUP1 PUSH1 0xA0 SHL SUB DUP6 SLOAD AND SWAP2 DUP2 EXTCODESIZE ISZERO PUSH2 0xF07 JUMPI DUP4 PUSH1 0xA4 SWAP3 PUSH1 0x40 MLOAD SWAP7 DUP8 SWAP6 DUP7 SWAP5 PUSH3 0x97D055 PUSH1 0xE5 SHL DUP7 MSTORE PUSH1 0x1 DUP1 PUSH1 0xA0 SHL SUB AND PUSH1 0x4 DUP7 ADD MSTORE PUSH1 0x1 DUP1 PUSH1 0xA0 SHL SUB DUP12 AND PUSH1 0x24 DUP7 ADD MSTORE DUP12 DUP6 ADD MSTORE PUSH1 0x64 DUP5 ADD MSTORE PUSH1 0x4 CALLDATALOAD PUSH1 0x84 DUP5 ADD MSTORE GAS CALL DUP1 ISZERO PUSH2 0x18EF JUMPI PUSH2 0x18DC JUMPI JUMPDEST POP PUSH1 0x2 SLOAD PUSH1 0x5 DUP6 ADD DUP1 SLOAD SWAP1 SWAP5 DUP9 SWAP3 PUSH1 0x1 PUSH1 0x1 PUSH1 0xA0 SHL SUB AND SWAP2 SWAP1 DUP3 EXTCODESIZE ISZERO PUSH2 0xF07 JUMPI PUSH1 0xC4 DUP5 SWAP3 DUP4 PUSH1 0x40 MLOAD SWAP6 DUP7 SWAP5 DUP6 SWAP4 PUSH4 0x1FE18A17 PUSH1 0xE2 SHL DUP6 MSTORE PUSH1 0x1 DUP1 PUSH1 0xA0 SHL SUB DUP13 AND PUSH1 0x4 DUP7 ADD MSTORE PUSH1 0x24 DUP6 ADD MSTORE PUSH1 0x4 CALLDATALOAD SWAP1 DUP5 ADD MSTORE PUSH1 0x80 PUSH1 0x64 DUP5 ADD MSTORE PUSH1 0x11 PUSH1 0x84 DUP5 ADD MSTORE PUSH17 0x4368616C6C656E676520766963746F7279 PUSH1 0x78 SHL PUSH1 0xA4 DUP5 ADD MSTORE GAS CALL DUP1 ISZERO PUSH2 0x5B6 JUMPI PUSH2 0x18C4 JUMPI JUMPDEST POP POP PUSH1 0x4 SWAP1 PUSH1 0x1 DUP1 PUSH1 0xA0 SHL SUB SWAP1 SLOAD AND SWAP4 ADD SLOAD SWAP2 SLOAD PUSH1 0x40 MLOAD SWAP3 DUP4 MSTORE PUSH1 0x20 DUP4 ADD MSTORE PUSH1 0x1 DUP1 PUSH1 0xA0 SHL SUB AND SWAP1 PUSH32 0x247B762D340895E9BA5C4E57A8F9B65EB56E04F1786BBE81FDCD64432CF1E5D PUSH1 0x40 PUSH1 0x4 CALLDATALOAD SWAP3 LOG4 DUP2 SSTORE DUP1 RETURN JUMPDEST PUSH2 0x18CD SWAP1 PUSH2 0x1D2B JUMP JUMPDEST PUSH2 0x18D8 JUMPI DUP6 CODESIZE PUSH2 0x186F JUMP JUMPDEST DUP6 DUP1 REVERT JUMPDEST PUSH2 0x18E8 SWAP1 SWAP7 SWAP2 SWAP7 PUSH2 0x1D2B JUMP JUMPDEST SWAP5 CODESIZE PUSH2 0x17E9 JUMP JUMPDEST PUSH1 0x40 MLOAD RETURNDATASIZE DUP10 DUP3 RETURNDATACOPY RETURNDATASIZE SWAP1 REVERT JUMPDEST POP ADDRESS PUSH2 0x1784 JUMP JUMPDEST PUSH32 0xD0A602BB26E23A82D1071B569DDA4305120744B857E3D08EB1779D5D3478C541 PUSH1 0x20 PUSH1 0x3 DUP9 ADD PUSH1 0x1 DUP1 PUSH1 0xA0 SHL SUB DUP2 SLOAD AND DUP12 MSTORE PUSH1 0xD DUP3 MSTORE PUSH1 0x40 DUP12 KECCAK256 PUSH2 0x1947 DUP6 DUP3 SLOAD PUSH2 0x21F2 JUMP JUMPDEST SWAP1 SSTORE SLOAD PUSH1 0x40 MLOAD SWAP4 DUP5 MSTORE PUSH1 0x1 PUSH1 0x1 PUSH1 0xA0 SHL SUB AND SWAP3 LOG2 CODESIZE PUSH2 0x176A JUMP JUMPDEST PUSH4 0x4E487B71 PUSH1 0xE0 SHL DUP9 MSTORE PUSH1 0x11 PUSH1 0x4 MSTORE PUSH1 0x24 DUP9 REVERT JUMPDEST PUSH2 0x1740 JUMP JUMPDEST PUSH4 0x4E487B71 PUSH1 0xE0 SHL DUP8 MSTORE PUSH1 0x11 PUSH1 0x4 MSTORE PUSH1 0x24 DUP8 REVERT JUMPDEST SWAP1 SWAP2 SWAP3 POP PUSH2 0x1742 JUMPI PUSH1 0x4 CALLDATALOAD DUP8 MSTORE PUSH1 0x9 PUSH1 0x20 MSTORE PUSH1 0x40 DUP8 KECCAK256 DUP1 SLOAD SWAP1 DUP9 JUMPDEST DUP3 DUP2 LT PUSH2 0x19B8 JUMPI POP POP POP PUSH2 0x1742 JUMP JUMPDEST PUSH2 0x19C2 DUP2 DUP4 PUSH2 0x1C99 JUMP JUMPDEST POP SLOAD PUSH1 0x1 PUSH1 0x1 PUSH1 0xA0 SHL SUB DUP8 DUP2 AND SWAP2 AND SUB PUSH2 0x19E5 JUMPI JUMPDEST PUSH2 0x19E0 SWAP1 PUSH2 0x205F JUMP JUMPDEST PUSH2 0x19A9 JUMP JUMPDEST SWAP3 PUSH2 0x1A01 PUSH2 0x19E0 SWAP2 DUP11 PUSH2 0x19F8 DUP8 DUP7 PUSH2 0x1C99 JUMP JUMPDEST POP ADD SLOAD SWAP1 PUSH2 0x21F2 JUMP JUMPDEST SWAP4 SWAP1 POP PUSH2 0x19D7 JUMP JUMPDEST PUSH4 0x4E487B71 PUSH1 0xE0 SHL DUP10 MSTORE PUSH1 0x21 PUSH1 0x4 MSTORE PUSH1 0x24 DUP10 REVERT JUMPDEST PUSH1 0x40 MLOAD PUSH3 0x461BCD PUSH1 0xE5 SHL DUP2 MSTORE PUSH1 0x20 PUSH1 0x4 DUP3 ADD MSTORE PUSH1 0x17 PUSH1 0x24 DUP3 ADD MSTORE PUSH32 0x496E76616C69642061646D696E207369676E6174757265000000000000000000 DUP2 DUP5 ADD MSTORE PUSH1 0x64 SWAP1 REVERT JUMPDEST PUSH1 0x40 MLOAD PUSH3 0x461BCD PUSH1 0xE5 SHL DUP2 MSTORE PUSH1 0x20 PUSH1 0x4 DUP3 ADD MSTORE PUSH1 0xE PUSH1 0x24 DUP3 ADD MSTORE PUSH14 0x24B73B30B634B2103BB4B73732B9 PUSH1 0x91 SHL DUP2 DUP7 ADD MSTORE PUSH1 0x64 SWAP1 REVERT JUMPDEST PUSH1 0x40 MLOAD PUSH3 0x461BCD PUSH1 0xE5 SHL DUP2 MSTORE PUSH1 0x20 PUSH1 0x4 DUP3 ADD MSTORE PUSH1 0xE PUSH1 0x24 DUP3 ADD MSTORE PUSH14 0x496E76616C696420737461747573 PUSH1 0x90 SHL DUP2 DUP7 ADD MSTORE PUSH1 0x64 SWAP1 REVERT JUMPDEST PUSH1 0x1 SWAP2 POP EQ CODESIZE PUSH2 0x160B JUMP JUMPDEST PUSH4 0x4E487B71 PUSH1 0xE0 SHL DUP9 MSTORE PUSH1 0x21 PUSH1 0x4 MSTORE PUSH1 0x24 DUP9 REVERT JUMPDEST POP CALLVALUE PUSH2 0x18D JUMPI PUSH1 0x20 PUSH32 0xCED2684241C29578DF8F7FBAB74348D0053114FA157B900B2F1F4A1D4A2B3395 PUSH2 0x1B1C CALLDATASIZE PUSH2 0x1CFC JUMP JUMPDEST SWAP3 SWAP1 PUSH2 0x1B26 PUSH2 0x1F18 JUMP JUMPDEST PUSH1 0x1 PUSH1 0x1 PUSH1 0xA0 SHL SUB AND SWAP3 PUSH2 0x1B3B DUP5 ISZERO ISZERO PUSH2 0x233A JUMP JUMPDEST DUP4 DUP6 MSTORE PUSH1 0xC DUP3 MSTORE PUSH2 0x7A1 DUP2 PUSH1 0x40 DUP8 KECCAK256 SWAP1 PUSH1 0xFF DUP1 NOT DUP4 SLOAD AND SWAP2 ISZERO ISZERO AND OR SWAP1 SSTORE JUMP JUMPDEST POP CALLVALUE PUSH2 0x18D JUMPI PUSH1 0x20 CALLDATASIZE PUSH1 0x3 NOT ADD SLT PUSH2 0x18D JUMPI PUSH2 0x1B75 PUSH2 0x1CCB JUMP JUMPDEST PUSH2 0x1B7D PUSH2 0x1F18 JUMP JUMPDEST PUSH1 0x1 PUSH1 0x1 PUSH1 0xA0 SHL SUB AND DUP1 ISZERO PUSH2 0x1BC5 JUMPI PUSH1 0x5 DUP1 SLOAD PUSH1 0x1 PUSH1 0x1 PUSH1 0xA0 SHL SUB NOT AND DUP3 OR SWAP1 SSTORE PUSH32 0xBA887708E7D4436DD36B62187BDCED03E0B9ABE66CAF392A66DD84386641B209 DUP3 DUP1 LOG2 DUP1 RETURN JUMPDEST PUSH1 0x40 MLOAD PUSH3 0x461BCD PUSH1 0xE5 SHL DUP2 MSTORE PUSH1 0x20 PUSH1 0x4 DUP3 ADD MSTORE PUSH1 0x11 PUSH1 0x24 DUP3 ADD MSTORE PUSH17 0x125B9D985B1A59081C9958DA5C1A595B9D PUSH1 0x7A SHL PUSH1 0x44 DUP3 ADD MSTORE PUSH1 0x64 SWAP1 REVERT JUMPDEST POP CALLVALUE PUSH2 0x18D JUMPI PUSH1 0x40 CALLDATASIZE PUSH1 0x3 NOT ADD SLT PUSH2 0x18D JUMPI PUSH1 0x24 CALLDATALOAD SWAP1 PUSH1 0x4 CALLDATALOAD DUP2 MSTORE PUSH1 0x9 PUSH1 0x20 MSTORE PUSH1 0x40 DUP2 KECCAK256 SWAP1 DUP2 SLOAD DUP4 LT ISZERO PUSH2 0x18D JUMPI PUSH1 0x80 PUSH2 0x1C38 DUP5 DUP5 PUSH2 0x1C99 JUMP JUMPDEST POP DUP1 SLOAD SWAP1 PUSH1 0xFF PUSH1 0x2 PUSH1 0x1 DUP4 ADD SLOAD SWAP3 ADD SLOAD AND SWAP1 PUSH1 0xFF PUSH1 0x40 MLOAD SWAP4 PUSH1 0x1 DUP1 PUSH1 0xA0 SHL SUB DUP2 AND DUP6 MSTORE PUSH1 0xA0 SHR AND ISZERO ISZERO PUSH1 0x20 DUP5 ADD MSTORE PUSH1 0x40 DUP4 ADD MSTORE ISZERO ISZERO PUSH1 0x60 DUP3 ADD MSTORE RETURN JUMPDEST SWAP1 POP CALLVALUE PUSH2 0x457 JUMPI DUP2 PUSH1 0x3 NOT CALLDATASIZE ADD SLT PUSH2 0x457 JUMPI PUSH1 0x3 SLOAD PUSH1 0x1 PUSH1 0x1 PUSH1 0xA0 SHL SUB AND DUP2 MSTORE PUSH1 0x20 SWAP1 RETURN JUMPDEST DUP1 SLOAD DUP3 LT ISZERO PUSH2 0x1CB5 JUMPI PUSH1 0x0 MSTORE PUSH1 0x3 PUSH1 0x20 PUSH1 0x0 KECCAK256 SWAP2 MUL ADD SWAP1 PUSH1 0x0 SWAP1 JUMP JUMPDEST PUSH4 0x4E487B71 PUSH1 0xE0 SHL PUSH1 0x0 MSTORE PUSH1 0x32 PUSH1 0x4 MSTORE PUSH1 0x24 PUSH1 0x0 REVERT JUMPDEST PUSH1 0x4 CALLDATALOAD SWAP1 PUSH1 0x1 PUSH1 0x1 PUSH1 0xA0 SHL SUB DUP3 AND DUP3 SUB PUSH2 0x1CE1 JUMPI JUMP JUMPDEST PUSH1 0x0 DUP1 REVERT JUMPDEST PUSH1 0x24 CALLDATALOAD SWAP1 PUSH1 0x1 PUSH1 0x1 PUSH1 0xA0 SHL SUB DUP3 AND DUP3 SUB PUSH2 0x1CE1 JUMPI JUMP JUMPDEST PUSH1 0x40 SWAP1 PUSH1 0x3 NOT ADD SLT PUSH2 0x1CE1 JUMPI PUSH1 0x4 CALLDATALOAD PUSH1 0x1 PUSH1 0x1 PUSH1 0xA0 SHL SUB DUP2 AND DUP2 SUB PUSH2 0x1CE1 JUMPI SWAP1 PUSH1 0x24 CALLDATALOAD DUP1 ISZERO ISZERO DUP2 SUB PUSH2 0x1CE1 JUMPI SWAP1 JUMP JUMPDEST PUSH8 0xFFFFFFFFFFFFFFFF DUP2 GT PUSH2 0x406 JUMPI PUSH1 0x40 MSTORE JUMP JUMPDEST PUSH2 0x180 DUP2 ADD SWAP1 DUP2 LT PUSH8 0xFFFFFFFFFFFFFFFF DUP3 GT OR PUSH2 0x406 JUMPI PUSH1 0x40 MSTORE JUMP JUMPDEST SWAP1 PUSH1 0x1F DUP1 NOT SWAP2 ADD AND DUP2 ADD SWAP1 DUP2 LT PUSH8 0xFFFFFFFFFFFFFFFF DUP3 GT OR PUSH2 0x406 JUMPI PUSH1 0x40 MSTORE JUMP JUMPDEST PUSH8 0xFFFFFFFFFFFFFFFF DUP2 GT PUSH2 0x406 JUMPI PUSH1 0x1F ADD PUSH1 0x1F NOT AND PUSH1 0x20 ADD SWAP1 JUMP JUMPDEST SWAP1 PUSH1 0x2 DUP3 LT ISZERO PUSH2 0x1DA7 JUMPI MSTORE JUMP JUMPDEST PUSH4 0x4E487B71 PUSH1 0xE0 SHL PUSH1 0x0 MSTORE PUSH1 0x21 PUSH1 0x4 MSTORE PUSH1 0x24 PUSH1 0x0 REVERT JUMPDEST SWAP1 PUSH1 0x5 DUP3 LT ISZERO PUSH2 0x1DA7 JUMPI MSTORE JUMP JUMPDEST SWAP2 SWAP1 DUP3 MLOAD SWAP3 DUP4 DUP3 MSTORE PUSH1 0x0 JUMPDEST DUP5 DUP2 LT PUSH2 0x1DF6 JUMPI POP POP DUP3 PUSH1 0x0 PUSH1 0x20 DUP1 SWAP5 SWAP6 DUP5 ADD ADD MSTORE PUSH1 0x1F DUP1 NOT SWAP2 ADD AND ADD ADD SWAP1 JUMP JUMPDEST PUSH1 0x20 DUP2 DUP4 ADD DUP2 ADD MLOAD DUP5 DUP4 ADD DUP3 ADD MSTORE ADD PUSH2 0x1DD5 JUMP JUMPDEST SWAP2 DUP2 PUSH1 0x1F DUP5 ADD SLT ISZERO PUSH2 0x1CE1 JUMPI DUP3 CALLDATALOAD SWAP2 PUSH8 0xFFFFFFFFFFFFFFFF DUP4 GT PUSH2 0x1CE1 JUMPI PUSH1 0x20 DUP4 DUP2 DUP7 ADD SWAP6 ADD ADD GT PUSH2 0x1CE1 JUMPI JUMP JUMPDEST SWAP1 PUSH1 0x1 DUP3 DUP2 SHR SWAP3 AND DUP1 ISZERO PUSH2 0x1E68 JUMPI JUMPDEST PUSH1 0x20 DUP4 LT EQ PUSH2 0x1E52 JUMPI JUMP JUMPDEST PUSH4 0x4E487B71 PUSH1 0xE0 SHL PUSH1 0x0 MSTORE PUSH1 0x22 PUSH1 0x4 MSTORE PUSH1 0x24 PUSH1 0x0 REVERT JUMPDEST SWAP2 PUSH1 0x7F AND SWAP2 PUSH2 0x1E47 JUMP JUMPDEST SWAP1 PUSH1 0x40 MLOAD SWAP2 DUP3 PUSH1 0x0 DUP3 SLOAD SWAP3 PUSH2 0x1E86 DUP5 PUSH2 0x1E38 JUMP JUMPDEST SWAP1 DUP2 DUP5 MSTORE PUSH1 0x1 SWAP5 DUP6 DUP2 AND SWAP1 DUP2 PUSH1 0x0 EQ PUSH2 0x1EF5 JUMPI POP PUSH1 0x1 EQ PUSH2 0x1EB2 JUMPI JUMPDEST POP POP PUSH2 0x1EB0 SWAP3 POP SUB DUP4 PUSH2 0x1D5C JUMP JUMPDEST JUMP JUMPDEST SWAP1 SWAP4 SWAP2 POP PUSH1 0x0 MSTORE PUSH1 0x20 SWAP1 DUP2 PUSH1 0x0 KECCAK256 SWAP4 PUSH1 0x0 SWAP2 JUMPDEST DUP2 DUP4 LT PUSH2 0x1EDD JUMPI POP POP PUSH2 0x1EB0 SWAP4 POP DUP3 ADD ADD CODESIZE DUP1 PUSH2 0x1EA2 JUMP JUMPDEST DUP6 SLOAD DUP9 DUP5 ADD DUP6 ADD MSTORE SWAP5 DUP6 ADD SWAP5 DUP8 SWAP5 POP SWAP2 DUP4 ADD SWAP2 PUSH2 0x1EC5 JUMP JUMPDEST SWAP2 POP POP PUSH2 0x1EB0 SWAP5 POP PUSH1 0x20 SWAP3 POP PUSH1 0xFF NOT AND DUP3 DUP5 ADD MSTORE ISZERO ISZERO PUSH1 0x5 SHL DUP3 ADD ADD CODESIZE DUP1 PUSH2 0x1EA2 JUMP JUMPDEST PUSH1 0x1 SLOAD PUSH1 0x1 PUSH1 0x1 PUSH1 0xA0 SHL SUB AND CALLER SUB PUSH2 0x1F2C JUMPI JUMP JUMPDEST PUSH1 0x40 MLOAD PUSH4 0x118CDAA7 PUSH1 0xE0 SHL DUP2 MSTORE CALLER PUSH1 0x4 DUP3 ADD MSTORE PUSH1 0x24 SWAP1 REVERT JUMPDEST ISZERO PUSH2 0x1F4B JUMPI JUMP JUMPDEST PUSH1 0x40 MLOAD PUSH3 0x461BCD PUSH1 0xE5 SHL DUP2 MSTORE PUSH1 0x20 PUSH1 0x4 DUP3 ADD MSTORE PUSH1 0x14 PUSH1 0x24 DUP3 ADD MSTORE PUSH20 0x151BDAD95B881A5CC8189B1858DADB1A5CDD1959 PUSH1 0x62 SHL PUSH1 0x44 DUP3 ADD MSTORE PUSH1 0x64 SWAP1 REVERT JUMPDEST ISZERO PUSH2 0x1F8E JUMPI JUMP JUMPDEST PUSH1 0x40 MLOAD PUSH3 0x461BCD PUSH1 0xE5 SHL DUP2 MSTORE PUSH1 0x20 PUSH1 0x4 DUP3 ADD MSTORE PUSH1 0x11 PUSH1 0x24 DUP3 ADD MSTORE PUSH17 0x5374616B65206D757374206265203E203 PUSH1 0x7C SHL PUSH1 0x44 DUP3 ADD MSTORE PUSH1 0x64 SWAP1 REVERT JUMPDEST ISZERO PUSH2 0x1FCE JUMPI JUMP JUMPDEST PUSH1 0x40 MLOAD PUSH3 0x461BCD PUSH1 0xE5 SHL DUP2 MSTORE PUSH1 0x20 PUSH1 0x4 DUP3 ADD MSTORE PUSH1 0x19 PUSH1 0x24 DUP3 ADD MSTORE PUSH32 0x506F696E747320726577617264206D757374206265203E203000000000000000 PUSH1 0x44 DUP3 ADD MSTORE PUSH1 0x64 SWAP1 REVERT JUMPDEST ISZERO PUSH2 0x201A JUMPI JUMP JUMPDEST PUSH1 0x40 MLOAD PUSH3 0x461BCD PUSH1 0xE5 SHL DUP2 MSTORE PUSH1 0x20 PUSH1 0x4 DUP3 ADD MSTORE PUSH1 0x1F PUSH1 0x24 DUP3 ADD MSTORE PUSH32 0x506F696E7473207265776172642063616E6E6F74206578636565642035303000 PUSH1 0x44 DUP3 ADD MSTORE PUSH1 0x64 SWAP1 REVERT JUMPDEST PUSH1 0x0 NOT DUP2 EQ PUSH2 0x206E JUMPI PUSH1 0x1 ADD SWAP1 JUMP JUMPDEST PUSH4 0x4E487B71 PUSH1 0xE0 SHL PUSH1 0x0 MSTORE PUSH1 0x11 PUSH1 0x4 MSTORE PUSH1 0x24 PUSH1 0x0 REVERT JUMPDEST PUSH1 0x2 PUSH1 0x0 SLOAD EQ PUSH2 0x2095 JUMPI PUSH1 0x2 PUSH1 0x0 SSTORE JUMP JUMPDEST PUSH1 0x40 MLOAD PUSH4 0x3EE5AEB5 PUSH1 0xE0 SHL DUP2 MSTORE PUSH1 0x4 SWAP1 REVERT JUMPDEST ISZERO PUSH2 0x20AE JUMPI JUMP JUMPDEST PUSH1 0x40 MLOAD PUSH3 0x461BCD PUSH1 0xE5 SHL DUP2 MSTORE PUSH1 0x20 PUSH1 0x4 DUP3 ADD MSTORE PUSH1 0x19 PUSH1 0x24 DUP3 ADD MSTORE PUSH32 0x446F206E6F742073656E642045544820666F7220455243323000000000000000 PUSH1 0x44 DUP3 ADD MSTORE PUSH1 0x64 SWAP1 REVERT JUMPDEST ISZERO PUSH2 0x20FA JUMPI JUMP JUMPDEST PUSH1 0x40 MLOAD PUSH3 0x461BCD PUSH1 0xE5 SHL DUP2 MSTORE PUSH1 0x20 PUSH1 0x4 DUP3 ADD MSTORE PUSH1 0x13 PUSH1 0x24 DUP3 ADD MSTORE PUSH19 0x8AA89040C2DADEEADCE840DAD2E6DAC2E8C6D PUSH1 0x6B SHL PUSH1 0x44 DUP3 ADD MSTORE PUSH1 0x64 SWAP1 REVERT JUMPDEST PUSH1 0x40 MLOAD PUSH4 0x23B872DD PUSH1 0xE0 SHL PUSH1 0x20 DUP3 ADD MSTORE PUSH1 0x1 PUSH1 0x1 PUSH1 0xA0 SHL SUB SWAP3 DUP4 AND PUSH1 0x24 DUP3 ADD MSTORE SWAP3 SWAP1 SWAP2 AND PUSH1 0x44 DUP4 ADD MSTORE PUSH1 0x64 DUP1 DUP4 ADD SWAP4 SWAP1 SWAP4 MSTORE SWAP2 DUP2 MSTORE PUSH1 0xA0 DUP2 ADD SWAP2 DUP2 DUP4 LT PUSH8 0xFFFFFFFFFFFFFFFF DUP5 GT OR PUSH2 0x406 JUMPI PUSH2 0x1EB0 SWAP3 PUSH1 0x40 MSTORE JUMPDEST SWAP1 PUSH1 0x0 PUSH1 0x20 SWAP2 DUP3 DUP2 MLOAD SWAP2 ADD DUP3 DUP6 GAS CALL ISZERO PUSH2 0x21E6 JUMPI PUSH1 0x0 MLOAD RETURNDATASIZE PUSH2 0x21DD JUMPI POP PUSH1 0x1 PUSH1 0x1 PUSH1 0xA0 SHL SUB DUP2 AND EXTCODESIZE ISZERO JUMPDEST PUSH2 0x21BB JUMPI POP JUMP JUMPDEST PUSH1 0x40 MLOAD PUSH4 0x5274AFE7 PUSH1 0xE0 SHL DUP2 MSTORE PUSH1 0x1 PUSH1 0x1 PUSH1 0xA0 SHL SUB SWAP1 SWAP2 AND PUSH1 0x4 DUP3 ADD MSTORE PUSH1 0x24 SWAP1 REVERT JUMPDEST PUSH1 0x1 EQ ISZERO PUSH2 0x21B4 JUMP JUMPDEST PUSH1 0x40 MLOAD RETURNDATASIZE PUSH1 0x0 DUP3 RETURNDATACOPY RETURNDATASIZE SWAP1 REVERT JUMPDEST SWAP2 SWAP1 DUP3 ADD DUP1 SWAP3 GT PUSH2 0x206E JUMPI JUMP JUMPDEST DUP2 MLOAD SWAP2 SWAP1 PUSH1 0x41 DUP4 SUB PUSH2 0x2230 JUMPI PUSH2 0x2229 SWAP3 POP PUSH1 0x20 DUP3 ADD MLOAD SWAP1 PUSH1 0x60 PUSH1 0x40 DUP5 ADD MLOAD SWAP4 ADD MLOAD PUSH1 0x0 BYTE SWAP1 PUSH2 0x223B JUMP JUMPDEST SWAP2 SWAP3 SWAP1 SWAP2 SWAP1 JUMP JUMPDEST POP POP PUSH1 0x0 SWAP2 PUSH1 0x2 SWAP2 SWAP1 JUMP JUMPDEST SWAP2 SWAP1 PUSH32 0x7FFFFFFFFFFFFFFFFFFFFFFFFFFFFFFF5D576E7357A4501DDFE92F46681B20A0 DUP5 GT PUSH2 0x22BF JUMPI SWAP3 PUSH1 0x20 SWAP3 SWAP2 PUSH1 0xFF PUSH1 0x80 SWAP6 PUSH1 0x40 MLOAD SWAP5 DUP6 MSTORE AND DUP5 DUP5 ADD MSTORE PUSH1 0x40 DUP4 ADD MSTORE PUSH1 0x60 DUP3 ADD MSTORE PUSH1 0x0 SWAP3 DUP4 SWAP2 DUP3 DUP1 MSTORE PUSH1 0x1 GAS STATICCALL ISZERO PUSH2 0x22B3 JUMPI DUP1 MLOAD PUSH1 0x1 PUSH1 0x1 PUSH1 0xA0 SHL SUB DUP2 AND ISZERO PUSH2 0x22AA JUMPI SWAP2 DUP2 SWAP1 JUMP JUMPDEST POP DUP1 SWAP2 PUSH1 0x1 SWAP2 SWAP1 JUMP JUMPDEST PUSH1 0x40 MLOAD SWAP1 RETURNDATASIZE SWAP1 DUP3 RETURNDATACOPY RETURNDATASIZE SWAP1 REVERT JUMPDEST POP POP POP PUSH1 0x0 SWAP2 PUSH1 0x3 SWAP2 SWAP1 JUMP JUMPDEST PUSH1 0x4 DUP2 LT ISZERO PUSH2 0x1DA7 JUMPI DUP1 PUSH2 0x22DD JUMPI POP POP JUMP JUMPDEST PUSH1 0x1 DUP2 SUB PUSH2 0x22F7 JUMPI PUSH1 0x40 MLOAD PUSH4 0xF645EEDF PUSH1 0xE0 SHL DUP2 MSTORE PUSH1 0x4 SWAP1 REVERT JUMPDEST PUSH1 0x2 DUP2 SUB PUSH2 0x2318 JUMPI PUSH1 0x40 MLOAD PUSH4 0xFCE698F7 PUSH1 0xE0 SHL DUP2 MSTORE PUSH1 0x4 DUP2 ADD DUP4 SWAP1 MSTORE PUSH1 0x24 SWAP1 REVERT JUMPDEST PUSH1 0x3 EQ PUSH2 0x2322 JUMPI POP JUMP JUMPDEST PUSH1 0x24 SWAP1 PUSH1 0x40 MLOAD SWAP1 PUSH4 0x35E2F383 PUSH1 0xE2 SHL DUP3 MSTORE PUSH1 0x4 DUP3 ADD MSTORE REVERT JUMPDEST ISZERO PUSH2 0x2341 JUMPI JUMP JUMPDEST PUSH1 0x40 MLOAD PUSH3 0x461BCD PUSH1 0xE5 SHL DUP2 MSTORE PUSH1 0x20 PUSH1 0x4 DUP3 ADD MSTORE PUSH1 0xD PUSH1 0x24 DUP3 ADD MSTORE PUSH13 0x24B73B30B634B2103A37B5B2B7 PUSH1 0x99 SHL PUSH1 0x44 DUP3 ADD MSTORE PUSH1 0x64 SWAP1 REVERT INVALID LOG2 PUSH5 0x6970667358 0x22 SLT KECCAK256 0x2D PUSH7 0x1F10EEE0D23E1A 0xAD 0xDA 0xE8 DUP7 PUSH5 0x71A6725465 POP 0xDB 0xBF 0xDC 0xE3 SUB 0xF7 EXTCODEHASH RETURNDATACOPY AND 0xDD PUSH26 0x7264736F6C634300081400330000000000000000000000000000 "},"methodIdentifiers":{"acceptP2PChallenge(uint256)":"d35202e8","admin()":"f851a440","blacklistToken(address,bool)":"190e4c55","blacklistedTokens(address)":"5c8b5f44","challenges(uint256)":"8f1d3776","claimStake(uint256)":"44c7d6ef","createGroupChallenge(address,uint256,uint256,string)":"c25d8b7b","createP2PChallenge(address,address,uint256,uint256,string)":"79a11522","getChallenge(uint256)":"1bdd4b74","getPlatformFeeBalance(address)":"68a2b7de","groupChallengeParticipants(uint256,uint256)":"0d8d2d08","isTokenBlacklisted(address)":"ce9be9ba","isTokenVerified(address)":"ec867b27","nextChallengeId()":"fc67aa50","owner()":"8da5cb5b","p2pChallengeAmounts(uint256)":"69249fba","platformFeeBalance(address)":"86ff06e7","platformFeePercentage()":"cdd78cfc","platformFeeRecipient()":"eb13554f","pointsToken()":"72e1011c","renounceOwnership()":"715018a6","resolveChallenge(uint256,address,bytes)":"199a714e","setAdmin(address)":"704b6c02","setPlatformFeePercentage(uint256)":"8333903e","setPlatformFeeRecipient(address)":"1871e243","stakeEscrow()":"017b975b","transferOwnership(address)":"f2fde38b","verifiedTokens(address)":"1baaaffe","verifyToken(address,bool)":"d2d66482","withdrawPlatformFees(address)":"ec3889b5"}}}}}