{"src/PointsEscrow.sol":{"PointsEscrow":{"abi":[{"inputs":[{"internalType":"address","name":"_pointsToken","type":"address"},{"internalType":"address","name":"_challengeFactory","type":"address"}],"stateMutability":"nonpayable","type":"constructor"},{"inputs":[{"internalType":"address","name":"owner","type":"address"}],"name":"OwnableInvalidOwner","type":"error"},{"inputs":[{"internalType":"address","name":"account","type":"address"}],"name":"OwnableUnauthorizedAccount","type":"error"},{"inputs":[],"name":"ReentrancyGuardReentrantCall","type":"error"},{"anonymous":false,"inputs":[{"indexed":true,"internalType":"address","name":"newFactory","type":"address"}],"name":"ChallengeFactoryUpdated","type":"event"},{"anonymous":false,"inputs":[{"indexed":true,"internalType":"address","name":"previousOwner","type":"address"},{"indexed":true,"internalType":"address","name":"newOwner","type":"address"}],"name":"OwnershipTransferred","type":"event"},{"anonymous":false,"inputs":[{"indexed":true,"internalType":"address","name":"user","type":"address"},{"indexed":false,"internalType":"uint256","name":"amount","type":"uint256"},{"indexed":true,"internalType":"uint256","name":"challengeId","type":"uint256"},{"indexed":false,"internalType":"string","name":"reason","type":"string"}],"name":"PointsLocked","type":"event"},{"anonymous":false,"inputs":[{"indexed":true,"internalType":"address","name":"user","type":"address"},{"indexed":false,"internalType":"uint256","name":"amount","type":"uint256"},{"indexed":true,"internalType":"uint256","name":"challengeId","type":"uint256"}],"name":"PointsReleased","type":"event"},{"anonymous":false,"inputs":[{"indexed":true,"internalType":"address","name":"from","type":"address"},{"indexed":true,"internalType":"address","name":"to","type":"address"},{"indexed":false,"internalType":"uint256","name":"amount","type":"uint256"},{"indexed":true,"internalType":"uint256","name":"challengeId","type":"uint256"},{"indexed":false,"internalType":"string","name":"reason","type":"string"}],"name":"PointsTransferred","type":"event"},{"inputs":[],"name":"challengeFactory","outputs":[{"internalType":"address","name":"","type":"address"}],"stateMutability":"view","type":"function"},{"inputs":[{"internalType":"uint256","name":"","type":"uint256"},{"internalType":"uint256","name":"","type":"uint256"}],"name":"challengeParticipants","outputs":[{"internalType":"address","name":"","type":"address"}],"stateMutability":"view","type":"function"},{"inputs":[{"internalType":"address","name":"user","type":"address"}],"name":"clearExpiredLocks","outputs":[],"stateMutability":"nonpayable","type":"function"},{"inputs":[{"internalType":"uint256","name":"challengeId","type":"uint256"}],"name":"getChallengeParticipants","outputs":[{"internalType":"address[]","name":"","type":"address[]"}],"stateMutability":"view","type":"function"},{"inputs":[{"internalType":"address","name":"user","type":"address"}],"name":"getTotalLockedPoints","outputs":[{"internalType":"uint256","name":"","type":"uint256"}],"stateMutability":"view","type":"function"},{"inputs":[{"internalType":"address","name":"user","type":"address"}],"name":"getUserLockedPoints","outputs":[{"components":[{"internalType":"uint256","name":"amount","type":"uint256"},{"internalType":"uint256","name":"lockedAt","type":"uint256"},{"internalType":"uint256","name":"challengeId","type":"uint256"},{"internalType":"string","name":"reason","type":"string"}],"internalType":"struct PointsEscrow.LockedPoints[]","name":"","type":"tuple[]"}],"stateMutability":"view","type":"function"},{"inputs":[{"internalType":"address","name":"user","type":"address"},{"internalType":"uint256","name":"amount","type":"uint256"},{"internalType":"uint256","name":"challengeId","type":"uint256"},{"internalType":"string","name":"reason","type":"string"}],"name":"lockPoints","outputs":[],"stateMutability":"nonpayable","type":"function"},{"inputs":[],"name":"owner","outputs":[{"internalType":"address","name":"","type":"address"}],"stateMutability":"view","type":"function"},{"inputs":[],"name":"pointsToken","outputs":[{"internalType":"contract BantahPoints","name":"","type":"address"}],"stateMutability":"view","type":"function"},{"inputs":[{"internalType":"address","name":"user","type":"address"},{"internalType":"uint256","name":"amount","type":"uint256"},{"internalType":"uint256","name":"challengeId","type":"uint256"}],"name":"releasePoints","outputs":[],"stateMutability":"nonpayable","type":"function"},{"inputs":[],"name":"renounceOwnership","outputs":[],"stateMutability":"nonpayable","type":"function"},{"inputs":[{"internalType":"address","name":"newFactory","type":"address"}],"name":"setChallengeFactory","outputs":[],"stateMutability":"nonpayable","type":"function"},{"inputs":[{"internalType":"address","name":"","type":"address"}],"name":"totalLockedPoints","outputs":[{"internalType":"uint256","name":"","type":"uint256"}],"stateMutability":"view","type":"function"},{"inputs":[{"internalType":"address","name":"loser","type":"address"},{"internalType":"address","name":"winner","type":"address"},{"internalType":"uint256","name":"amount","type":"uint256"},{"internalType":"uint256","name":"challengeId","type":"uint256"}],"name":"transferLockedPoints","outputs":[],"stateMutability":"nonpayable","type":"function"},{"inputs":[{"internalType":"address","name":"newOwner","type":"address"}],"name":"transferOwnership","outputs":[],"stateMutability":"nonpayable","type":"function"},{"inputs":[{"internalType":"address","name":"","type":"address"},{"internalType":"uint256","name":"","type":"uint256"}],"name":"userLockedPoints","outputs":[{"internalType":"uint256","name":"amount","type":"uint256"},{"internalType":"uint256","name":"lockedAt","type":"uint256"},{"internalType":"uint256","name":"challengeId","type":"uint256"},{"internalType":"string","name":"reason","type":"string"}],"stateMutability":"view","type":"function"}],"evm":{"bytecode":{"linkReferences":{},"object":"608034610171576200158a90601f38839003908101601f19168201906001600160401b03821183831017610176578083916040958694855283398101031261017157610056602061004f8361018c565b920161018c565b600160005533156101595760018054336001600160a01b0319808316821790935585519492936001600160a01b0393909284929083167f8be0079c531659141344cd1fd0a4f28419497f9722a3daafe3b4186f6b6457e0600080a3169384156101175750169182156100e1578160025416176002556003541617600355516113e99081620001a18239f35b835162461bcd60e51b815260206004820152600f60248201526e496e76616c696420666163746f727960881b6044820152606490fd5b62461bcd60e51b815260206004820152601460248201527f496e76616c696420706f696e747320746f6b656e0000000000000000000000006044820152606490fd5b8251631e4fbdf760e01b815260006004820152602490fd5b600080fd5b634e487b7160e01b600052604160045260246000fd5b51906001600160a01b03821682036101715756fe608080604052600436101561001357600080fd5b600090813560e01c908163023bf95814610e5c575080630c93a0a814610c3b5780633e04151114610a5f57806354bba1a8146109215780635c3d9dec146108805780635dbaf68b14610857578063715018a6146107f957806372e1011c146107d0578063820a16fe146103fb5780638da5cb5b146103d25780638e47dc221461024557806392fc0b4b1461027e578063b1b414d614610245578063edda7bfd146101b6578063f2fde38b146101265763ffac1a95146100d157600080fd5b346101235760403660031901126101235760243590600435815260066020526040812090815483101561012357602061010a84846110e2565b905460405160039290921b1c6001600160a01b03168152f35b80fd5b503461012357602036600319011261012357610140610f0d565b6101486110fa565b6001600160a01b0390811690811561019d57600154826bffffffffffffffffffffffff60a01b821617600155167f8be0079c531659141344cd1fd0a4f28419497f9722a3daafe3b4186f6b6457e0600080a380f35b604051631e4fbdf760e01b815260048101849052602490fd5b5034610123576040366003190112610123576101d0610f0d565b6001600160a01b0316815260046020526040812080546024359190821015610241576101fc9250610f68565b50805461023d60018301549261021960036002830154920161103c565b90604051948594855260208501526040840152608060608401526080830190610f28565b0390f35b8280fd5b5034610123576020366003190112610123576020906040906001600160a01b0361026d610f0d565b168152600583522054604051908152f35b503461012357606036600319011261012357610298610f0d565b60243590604435918360018060a01b0380936102b982600354163314611126565b6102c1611242565b16926102ce84151561116a565b6102d98315156111a5565b83825260056020526102f18360408420541015611265565b8382526005602052604082206103088482546112b1565b905560025416803b156103ce5781809160c460405180948193631fe18a1760e21b83528960048401528860248401528a60448401526080606484015260166084840152751b1bd8dad95917dc1bda5b9d1cd7dc995b19585cd95960521b60a48401525af180156103c3576103ab575b505060207f2d7add3a2f6d61d4e8e31646d4228d8a10dc7b2374e999996439018a928b3f7291604051908152a36001815580f35b6103b490610fd4565b6103bf578338610377565b8380fd5b6040513d84823e3d90fd5b5080fd5b50346101235780600319360112610123576001546040516001600160a01b039091168152602090f35b503461012357608036600319011261012357610415610f0d565b67ffffffffffffffff606435116103ce573660236064350112156103ce5767ffffffffffffffff60643560040135116103ce57366024606435600401356064350101116103ce5761047160018060a01b03600354163314611126565b610479611242565b61048d6001600160a01b038216151561116a565b61049a60243515156111a5565b60025482906001600160a01b0316803b156103ce5760405163baa3c7cf60e01b81526001600160a01b038416600482015260248035908201529082908290604490829084905af180156103c3576107bc575b50506001600160a01b03811682526004602052604080832090519061051082610ffe565b602435825242602083015260443560408301526040516105406020601f19601f606435600401350116018261101a565b606435600481013580835290602401602083013784602060643560040135830101526060830152805490600160401b821015610794579061058691600182018155610f68565b9190916107a8578051825560208101516001830155604081015160028301556060015180519067ffffffffffffffff8211610794576105d5826105cc6003860154610f9a565b600386016111fd565b602090601f8311600114610728576003929186918361071d575b50508160011b9160001990841b1c1916179101555b6001600160a01b0381168252600560205260408220805460243581019190821061070957556044358252600660205260408220805490600160401b8210156106f55790610656916001820181556110e2565b81546001600160a01b0384811660039390931b92831b921b191617905560408051602480358252602082018390526064356004810135938301849052919291016060830137600460643501358181016060908101859052604435936001600160a01b0316927f65a486d28d68531b734905e17e5ef7d6c0d01c0a44d998d4b7c36f8a65a0d97392601f01601f1916810181900390910190a36001815580f35b634e487b7160e01b84526041600452602484fd5b634e487b7160e01b84526011600452602484fd5b0151905038806105ef565b906003840186526020862091865b601f198516811061077c5750918391600193600395601f19811610610764575b505050811b01910155610604565b015160001983861b60f8161c19169055388080610756565b91926020600181928685015181550194019201610736565b634e487b7160e01b85526041600452602485fd5b634e487b7160e01b84526004849052602484fd5b6107c590610fd4565b6103ce5781386104ec565b50346101235780600319360112610123576002546040516001600160a01b039091168152602090f35b50346101235780600319360112610123576108126110fa565b600180546001600160a01b031981169091556000906001600160a01b03167f8be0079c531659141344cd1fd0a4f28419497f9722a3daafe3b4186f6b6457e08280a380f35b50346101235780600319360112610123576003546040516001600160a01b039091168152602090f35b50346101235760203660031901126101235761089a610f0d565b6108a26110fa565b6001600160a01b031680156108ea57600380546001600160a01b031916821790557fb9a1f6d01069d240a4bebe47b464192f46dc977bf49ec60b388e25e4db1a88af8280a280f35b60405162461bcd60e51b815260206004820152600f60248201526e496e76616c696420666163746f727960881b6044820152606490fd5b5034610123576020806003193601126103ce576001600160a01b03610944610f0d565b1682526004815260408220805467ffffffffffffffff81116106f557919260405192610975858260051b018561101a565b8084528484018093835285832083915b838310610a105750505050604051928484019085855251809152604084019460408260051b8601019392955b8287106109be5785850386f35b909192938280610a00600193603f198a820301865288518051825283810151848301526040810151604083015260608091015191608080928201520190610f28565b96019201960195929190926109b1565b60048860019260409a99979a51610a2681610ffe565b85548152848601548382015260028601546040820152610a486003870161103c565b606082015281520192019201919096939596610985565b5034610123576020908160031936011261012357610a7b610f0d565b610a836110fa565b6001600160a01b0316610a9781151561116a565b8152600482526040812091815b835480821015610c3757610ab88286610f68565b50906301e13380610ace600180940154426112b1565b11610afb575b50506000198114610ae757600101610aa4565b634e487b7160e01b83526011600452602483fd5b60001990808201908111610c2357610b139087610f68565b50610b1e8488610f68565b610c0f57818103610be2575b505085548015610bce570190610b408287610f68565b610bba57906003828780945583838201558360028201550190610b638254610f9a565b9081610b77575b5050505084553880610ad4565b601f808311600114610b955750505060009150555b83388080610b6a565b8391610bb391600094958752898720950160051c85019085016111e6565b5555610b8c565b634e487b7160e01b86526004869052602486fd5b634e487b7160e01b86526031600452602486fd5b81610c0892548255848101548583015560028082015490830155600380910191016112d4565b3880610b2a565b634e487b7160e01b87526004879052602487fd5b634e487b7160e01b86526011600452602486fd5b8380f35b503461012357608036600319011261012357610c55610f0d565b6024356001600160a01b03818116918290036103bf576044358160643594610c8282600354163314611126565b610c8a611242565b16918215610e27578315610df157610ca38215156111a5565b8286526005602052610cbb8260408820541015611265565b828652600560205260408620610cd28382546112b1565b905560025416803b15610ded57856040518092631fe18a1760e21b825286600483015284602483015287604483015260806064830152818381610d386084820160409060128152716368616c6c656e67655f77696e6e696e677360701b60208201520190565b03925af18015610de257610daf575b507f4eeb79557c53df34af2951cfe9b61432ed81e338ccf19f004f30b147cc21a700906040519081526040602082015280610da56040820160409060128152716368616c6c656e67655f77696e6e696e677360701b60208201520190565b0390a46001815580f35b94610ddb7f4eeb79557c53df34af2951cfe9b61432ed81e338ccf19f004f30b147cc21a7009296610fd4565b9490610d47565b6040513d88823e3d90fd5b8580fd5b60405162461bcd60e51b815260206004820152600e60248201526d24b73b30b634b2103bb4b73732b960911b6044820152606490fd5b60405162461bcd60e51b815260206004820152600d60248201526c24b73b30b634b2103637b9b2b960991b6044820152606490fd5b9050346103ce5760209081600319360112610241579160043581526006825260408120908154808552838501908193835284832090835b818110610ef05750505084610ea991038561101a565b60405193838594850191818652518092526040850193925b828110610ed057505050500390f35b83516001600160a01b031685528695509381019392810192600101610ec1565b82546001600160a01b031684529286019260019283019201610e93565b600435906001600160a01b0382168203610f2357565b600080fd5b919082519283825260005b848110610f54575050826000602080949584010152601f8019910116010190565b602081830181015184830182015201610f33565b8054821015610f845760005260206000209060021b0190600090565b634e487b7160e01b600052603260045260246000fd5b90600182811c92168015610fca575b6020831014610fb457565b634e487b7160e01b600052602260045260246000fd5b91607f1691610fa9565b67ffffffffffffffff8111610fe857604052565b634e487b7160e01b600052604160045260246000fd5b6080810190811067ffffffffffffffff821117610fe857604052565b90601f8019910116810190811067ffffffffffffffff821117610fe857604052565b906040519182600082549261105084610f9a565b9081845260019485811690816000146110bf575060011461107c575b505061107a9250038361101a565b565b9093915060005260209081600020936000915b8183106110a757505061107a9350820101388061106c565b8554888401850152948501948794509183019161108f565b91505061107a94506020925060ff191682840152151560051b820101388061106c565b8054821015610f845760005260206000200190600090565b6001546001600160a01b0316330361110e57565b60405163118cdaa760e01b8152336004820152602490fd5b1561112d57565b60405162461bcd60e51b81526020600482015260156024820152744f6e6c79204368616c6c656e6765466163746f727960581b6044820152606490fd5b1561117157565b60405162461bcd60e51b815260206004820152600c60248201526b24b73b30b634b2103ab9b2b960a11b6044820152606490fd5b156111ac57565b60405162461bcd60e51b81526020600482015260126024820152710416d6f756e74206d757374206265203e20360741b6044820152606490fd5b8181106111f1575050565b600081556001016111e6565b9190601f811161120c57505050565b61107a926000526020600020906020601f840160051c83019310611238575b601f0160051c01906111e6565b909150819061122b565b600260005414611253576002600055565b604051633ee5aeb560e01b8152600490fd5b1561126c57565b60405162461bcd60e51b815260206004820152601a60248201527f496e73756666696369656e74206c6f636b656420706f696e74730000000000006044820152606490fd5b919082039182116112be57565b634e487b7160e01b600052601160045260246000fd5b908082146113af576112e68154610f9a565b9067ffffffffffffffff8211610fe857819061130c826113068654610f9a565b866111fd565b600090601f831160011461134357600092611338575b50508160011b916000199060031b1c1916179055565b015490503880611322565b81526020808220858352818320935090601f1985169083905b82821061139657505090846001959493921061137d575b505050811b019055565b015460001960f88460031b161c19169055388080611373565b849581929585015481556001809101960194019061135c565b505056fea26469706673582212200a29a66a2c4c200ea01fe7d0892da680eb113789c1d31f9d969e4e9f55ba840f64736f6c63430008140033","opcodes":"PUSH1 0x80 CALLVALUE PUSH2 0x171 JUMPI PUSH3 0x158A SWAP1 PUSH1 0x1F CODESIZE DUP4 SWAP1 SUB SWAP1 DUP2 ADD PUSH1 0x1F NOT AND DUP3 ADD SWAP1 PUSH1 0x1 PUSH1 0x1 PUSH1 0x40 SHL SUB DUP3 GT DUP4 DUP4 LT OR PUSH2 0x176 JUMPI DUP1 DUP4 SWAP2 PUSH1 0x40 SWAP6 DUP7 SWAP5 DUP6 MSTORE DUP4 CODECOPY DUP2 ADD SUB SLT PUSH2 0x171 JUMPI PUSH2 0x56 PUSH1 0x20 PUSH2 0x4F DUP4 PUSH2 0x18C JUMP JUMPDEST SWAP3 ADD PUSH2 0x18C JUMP JUMPDEST PUSH1 0x1 PUSH1 0x0 SSTORE CALLER ISZERO PUSH2 0x159 JUMPI PUSH1 0x1 DUP1 SLOAD CALLER PUSH1 0x1 PUSH1 0x1 PUSH1 0xA0 SHL SUB NOT DUP1 DUP4 AND DUP3 OR SWAP1 SWAP4 SSTORE DUP6 MLOAD SWAP5 SWAP3 SWAP4 PUSH1 0x1 PUSH1 0x1 PUSH1 0xA0 SHL SUB SWAP4 SWAP1 SWAP3 DUP5 SWAP3 SWAP1 DUP4 AND PUSH32 0x8BE0079C531659141344CD1FD0A4F28419497F9722A3DAAFE3B4186F6B6457E0 PUSH1 0x0 DUP1 LOG3 AND SWAP4 DUP5 ISZERO PUSH2 0x117 JUMPI POP AND SWAP2 DUP3 ISZERO PUSH2 0xE1 JUMPI DUP2 PUSH1 0x2 SLOAD AND OR PUSH1 0x2 SSTORE PUSH1 0x3 SLOAD AND OR PUSH1 0x3 SSTORE MLOAD PUSH2 0x13E9 SWAP1 DUP2 PUSH3 0x1A1 DUP3 CODECOPY RETURN JUMPDEST DUP4 MLOAD PUSH3 0x461BCD PUSH1 0xE5 SHL DUP2 MSTORE PUSH1 0x20 PUSH1 0x4 DUP3 ADD MSTORE PUSH1 0xF PUSH1 0x24 DUP3 ADD MSTORE PUSH15 0x496E76616C696420666163746F7279 PUSH1 0x88 SHL PUSH1 0x44 DUP3 ADD MSTORE PUSH1 0x64 SWAP1 REVERT JUMPDEST PUSH3 0x461BCD PUSH1 0xE5 SHL DUP2 MSTORE PUSH1 0x20 PUSH1 0x4 DUP3 ADD MSTORE PUSH1 0x14 PUSH1 0x24 DUP3 ADD MSTORE PUSH32 0x496E76616C696420706F696E747320746F6B656E000000000000000000000000 PUSH1 0x44 DUP3 ADD MSTORE PUSH1 0x64 SWAP1 REVERT JUMPDEST DUP3 MLOAD PUSH4 0x1E4FBDF7 PUSH1 0xE0 SHL DUP2 MSTORE PUSH1 0x0 PUSH1 0x4 DUP3 ADD MSTORE PUSH1 0x24 SWAP1 REVERT JUMPDEST PUSH1 0x0 DUP1 REVERT JUMPDEST PUSH4 0x4E487B71 PUSH1 0xE0 SHL PUSH1 0x0 MSTORE PUSH1 0x41 PUSH1 0x4 MSTORE PUSH1 0x24 PUSH1 0x0 REVERT JUMPDEST MLOAD SWAP1 PUSH1 0x1 PUSH1 0x1 PUSH1 0xA0 SHL SUB DUP3 AND DUP3 SUB PUSH2 0x171 JUMPI JUMP INVALID PUSH1 0x80 DUP1 PUSH1 0x40 MSTORE PUSH1 0x4 CALLDATASIZE LT ISZERO PUSH2 0x13 JUMPI PUSH1 0x0 DUP1 REVERT JUMPDEST PUSH1 0x0 SWAP1 DUP2 CALLDATALOAD PUSH1 0xE0 SHR SWAP1 DUP2 PUSH4 0x23BF958 EQ PUSH2 0xE5C JUMPI POP DUP1 PUSH4 0xC93A0A8 EQ PUSH2 0xC3B JUMPI DUP1 PUSH4 0x3E041511 EQ PUSH2 0xA5F JUMPI DUP1 PUSH4 0x54BBA1A8 EQ PUSH2 0x921 JUMPI DUP1 PUSH4 0x5C3D9DEC EQ PUSH2 0x880 JUMPI DUP1 PUSH4 0x5DBAF68B EQ PUSH2 0x857 JUMPI DUP1 PUSH4 0x715018A6 EQ PUSH2 0x7F9 JUMPI DUP1 PUSH4 0x72E1011C EQ PUSH2 0x7D0 JUMPI DUP1 PUSH4 0x820A16FE EQ PUSH2 0x3FB JUMPI DUP1 PUSH4 0x8DA5CB5B EQ PUSH2 0x3D2 JUMPI DUP1 PUSH4 0x8E47DC22 EQ PUSH2 0x245 JUMPI DUP1 PUSH4 0x92FC0B4B EQ PUSH2 0x27E JUMPI DUP1 PUSH4 0xB1B414D6 EQ PUSH2 0x245 JUMPI DUP1 PUSH4 0xEDDA7BFD EQ PUSH2 0x1B6 JUMPI DUP1 PUSH4 0xF2FDE38B EQ PUSH2 0x126 JUMPI PUSH4 0xFFAC1A95 EQ PUSH2 0xD1 JUMPI PUSH1 0x0 DUP1 REVERT JUMPDEST CALLVALUE PUSH2 0x123 JUMPI PUSH1 0x40 CALLDATASIZE PUSH1 0x3 NOT ADD SLT PUSH2 0x123 JUMPI PUSH1 0x24 CALLDATALOAD SWAP1 PUSH1 0x4 CALLDATALOAD DUP2 MSTORE PUSH1 0x6 PUSH1 0x20 MSTORE PUSH1 0x40 DUP2 KECCAK256 SWAP1 DUP2 SLOAD DUP4 LT ISZERO PUSH2 0x123 JUMPI PUSH1 0x20 PUSH2 0x10A DUP5 DUP5 PUSH2 0x10E2 JUMP JUMPDEST SWAP1 SLOAD PUSH1 0x40 MLOAD PUSH1 0x3 SWAP3 SWAP1 SWAP3 SHL SHR PUSH1 0x1 PUSH1 0x1 PUSH1 0xA0 SHL SUB AND DUP2 MSTORE RETURN JUMPDEST DUP1 REVERT JUMPDEST POP CALLVALUE PUSH2 0x123 JUMPI PUSH1 0x20 CALLDATASIZE PUSH1 0x3 NOT ADD SLT PUSH2 0x123 JUMPI PUSH2 0x140 PUSH2 0xF0D JUMP JUMPDEST PUSH2 0x148 PUSH2 0x10FA JUMP JUMPDEST PUSH1 0x1 PUSH1 0x1 PUSH1 0xA0 SHL SUB SWAP1 DUP2 AND SWAP1 DUP2 ISZERO PUSH2 0x19D JUMPI PUSH1 0x1 SLOAD DUP3 PUSH12 0xFFFFFFFFFFFFFFFFFFFFFFFF PUSH1 0xA0 SHL DUP3 AND OR PUSH1 0x1 SSTORE AND PUSH32 0x8BE0079C531659141344CD1FD0A4F28419497F9722A3DAAFE3B4186F6B6457E0 PUSH1 0x0 DUP1 LOG3 DUP1 RETURN JUMPDEST PUSH1 0x40 MLOAD PUSH4 0x1E4FBDF7 PUSH1 0xE0 SHL DUP2 MSTORE PUSH1 0x4 DUP2 ADD DUP5 SWAP1 MSTORE PUSH1 0x24 SWAP1 REVERT JUMPDEST POP CALLVALUE PUSH2 0x123 JUMPI PUSH1 0x40 CALLDATASIZE PUSH1 0x3 NOT ADD SLT PUSH2 0x123 JUMPI PUSH2 0x1D0 PUSH2 0xF0D JUMP JUMPDEST PUSH1 0x1 PUSH1 0x1 PUSH1 0xA0 SHL SUB AND DUP2 MSTORE PUSH1 0x4 PUSH1 0x20 MSTORE PUSH1 0x40 DUP2 KECCAK256 DUP1 SLOAD PUSH1 0x24 CALLDATALOAD SWAP2 SWAP1 DUP3 LT ISZERO PUSH2 0x241 JUMPI PUSH2 0x1FC SWAP3 POP PUSH2 0xF68 JUMP JUMPDEST POP DUP1 SLOAD PUSH2 0x23D PUSH1 0x1 DUP4 ADD SLOAD SWAP3 PUSH2 0x219 PUSH1 0x3 PUSH1 0x2 DUP4 ADD SLOAD SWAP3 ADD PUSH2 0x103C JUMP JUMPDEST SWAP1 PUSH1 0x40 MLOAD SWAP5 DUP6 SWAP5 DUP6 MSTORE PUSH1 0x20 DUP6 ADD MSTORE PUSH1 0x40 DUP5 ADD MSTORE PUSH1 0x80 PUSH1 0x60 DUP5 ADD MSTORE PUSH1 0x80 DUP4 ADD SWAP1 PUSH2 0xF28 JUMP JUMPDEST SUB SWAP1 RETURN JUMPDEST DUP3 DUP1 REVERT JUMPDEST POP CALLVALUE PUSH2 0x123 JUMPI PUSH1 0x20 CALLDATASIZE PUSH1 0x3 NOT ADD SLT PUSH2 0x123 JUMPI PUSH1 0x20 SWAP1 PUSH1 0x40 SWAP1 PUSH1 0x1 PUSH1 0x1 PUSH1 0xA0 SHL SUB PUSH2 0x26D PUSH2 0xF0D JUMP JUMPDEST AND DUP2 MSTORE PUSH1 0x5 DUP4 MSTORE KECCAK256 SLOAD PUSH1 0x40 MLOAD SWAP1 DUP2 MSTORE RETURN JUMPDEST POP CALLVALUE PUSH2 0x123 JUMPI PUSH1 0x60 CALLDATASIZE PUSH1 0x3 NOT ADD SLT PUSH2 0x123 JUMPI PUSH2 0x298 PUSH2 0xF0D JUMP JUMPDEST PUSH1 0x24 CALLDATALOAD SWAP1 PUSH1 0x44 CALLDATALOAD SWAP2 DUP4 PUSH1 0x1 DUP1 PUSH1 0xA0 SHL SUB DUP1 SWAP4 PUSH2 0x2B9 DUP3 PUSH1 0x3 SLOAD AND CALLER EQ PUSH2 0x1126 JUMP JUMPDEST PUSH2 0x2C1 PUSH2 0x1242 JUMP JUMPDEST AND SWAP3 PUSH2 0x2CE DUP5 ISZERO ISZERO PUSH2 0x116A JUMP JUMPDEST PUSH2 0x2D9 DUP4 ISZERO ISZERO PUSH2 0x11A5 JUMP JUMPDEST DUP4 DUP3 MSTORE PUSH1 0x5 PUSH1 0x20 MSTORE PUSH2 0x2F1 DUP4 PUSH1 0x40 DUP5 KECCAK256 SLOAD LT ISZERO PUSH2 0x1265 JUMP JUMPDEST DUP4 DUP3 MSTORE PUSH1 0x5 PUSH1 0x20 MSTORE PUSH1 0x40 DUP3 KECCAK256 PUSH2 0x308 DUP5 DUP3 SLOAD PUSH2 0x12B1 JUMP JUMPDEST SWAP1 SSTORE PUSH1 0x2 SLOAD AND DUP1 EXTCODESIZE ISZERO PUSH2 0x3CE JUMPI DUP2 DUP1 SWAP2 PUSH1 0xC4 PUSH1 0x40 MLOAD DUP1 SWAP5 DUP2 SWAP4 PUSH4 0x1FE18A17 PUSH1 0xE2 SHL DUP4 MSTORE DUP10 PUSH1 0x4 DUP5 ADD MSTORE DUP9 PUSH1 0x24 DUP5 ADD MSTORE DUP11 PUSH1 0x44 DUP5 ADD MSTORE PUSH1 0x80 PUSH1 0x64 DUP5 ADD MSTORE PUSH1 0x16 PUSH1 0x84 DUP5 ADD MSTORE PUSH22 0x1B1BD8DAD95917DC1BDA5B9D1CD7DC995B19585CD959 PUSH1 0x52 SHL PUSH1 0xA4 DUP5 ADD MSTORE GAS CALL DUP1 ISZERO PUSH2 0x3C3 JUMPI PUSH2 0x3AB JUMPI JUMPDEST POP POP PUSH1 0x20 PUSH32 0x2D7ADD3A2F6D61D4E8E31646D4228D8A10DC7B2374E999996439018A928B3F72 SWAP2 PUSH1 0x40 MLOAD SWAP1 DUP2 MSTORE LOG3 PUSH1 0x1 DUP2 SSTORE DUP1 RETURN JUMPDEST PUSH2 0x3B4 SWAP1 PUSH2 0xFD4 JUMP JUMPDEST PUSH2 0x3BF JUMPI DUP4 CODESIZE PUSH2 0x377 JUMP JUMPDEST DUP4 DUP1 REVERT JUMPDEST PUSH1 0x40 MLOAD RETURNDATASIZE DUP5 DUP3 RETURNDATACOPY RETURNDATASIZE SWAP1 REVERT JUMPDEST POP DUP1 REVERT JUMPDEST POP CALLVALUE PUSH2 0x123 JUMPI DUP1 PUSH1 0x3 NOT CALLDATASIZE ADD SLT PUSH2 0x123 JUMPI PUSH1 0x1 SLOAD PUSH1 0x40 MLOAD PUSH1 0x1 PUSH1 0x1 PUSH1 0xA0 SHL SUB SWAP1 SWAP2 AND DUP2 MSTORE PUSH1 0x20 SWAP1 RETURN JUMPDEST POP CALLVALUE PUSH2 0x123 JUMPI PUSH1 0x80 CALLDATASIZE PUSH1 0x3 NOT ADD SLT PUSH2 0x123 JUMPI PUSH2 0x415 PUSH2 0xF0D JUMP JUMPDEST PUSH8 0xFFFFFFFFFFFFFFFF PUSH1 0x64 CALLDATALOAD GT PUSH2 0x3CE JUMPI CALLDATASIZE PUSH1 0x23 PUSH1 0x64 CALLDATALOAD ADD SLT ISZERO PUSH2 0x3CE JUMPI PUSH8 0xFFFFFFFFFFFFFFFF PUSH1 0x64 CALLDATALOAD PUSH1 0x4 ADD CALLDATALOAD GT PUSH2 0x3CE JUMPI CALLDATASIZE PUSH1 0x24 PUSH1 0x64 CALLDATALOAD PUSH1 0x4 ADD CALLDATALOAD PUSH1 0x64 CALLDATALOAD ADD ADD GT PUSH2 0x3CE JUMPI PUSH2 0x471 PUSH1 0x1 DUP1 PUSH1 0xA0 SHL SUB PUSH1 0x3 SLOAD AND CALLER EQ PUSH2 0x1126 JUMP JUMPDEST PUSH2 0x479 PUSH2 0x1242 JUMP JUMPDEST PUSH2 0x48D PUSH1 0x1 PUSH1 0x1 PUSH1 0xA0 SHL SUB DUP3 AND ISZERO ISZERO PUSH2 0x116A JUMP JUMPDEST PUSH2 0x49A PUSH1 0x24 CALLDATALOAD ISZERO ISZERO PUSH2 0x11A5 JUMP JUMPDEST PUSH1 0x2 SLOAD DUP3 SWAP1 PUSH1 0x1 PUSH1 0x1 PUSH1 0xA0 SHL SUB AND DUP1 EXTCODESIZE ISZERO PUSH2 0x3CE JUMPI PUSH1 0x40 MLOAD PUSH4 0xBAA3C7CF PUSH1 0xE0 SHL DUP2 MSTORE PUSH1 0x1 PUSH1 0x1 PUSH1 0xA0 SHL SUB DUP5 AND PUSH1 0x4 DUP3 ADD MSTORE PUSH1 0x24 DUP1 CALLDATALOAD SWAP1 DUP3 ADD MSTORE SWAP1 DUP3 SWAP1 DUP3 SWAP1 PUSH1 0x44 SWAP1 DUP3 SWAP1 DUP5 SWAP1 GAS CALL DUP1 ISZERO PUSH2 0x3C3 JUMPI PUSH2 0x7BC JUMPI JUMPDEST POP POP PUSH1 0x1 PUSH1 0x1 PUSH1 0xA0 SHL SUB DUP2 AND DUP3 MSTORE PUSH1 0x4 PUSH1 0x20 MSTORE PUSH1 0x40 DUP1 DUP4 KECCAK256 SWAP1 MLOAD SWAP1 PUSH2 0x510 DUP3 PUSH2 0xFFE JUMP JUMPDEST PUSH1 0x24 CALLDATALOAD DUP3 MSTORE TIMESTAMP PUSH1 0x20 DUP4 ADD MSTORE PUSH1 0x44 CALLDATALOAD PUSH1 0x40 DUP4 ADD MSTORE PUSH1 0x40 MLOAD PUSH2 0x540 PUSH1 0x20 PUSH1 0x1F NOT PUSH1 0x1F PUSH1 0x64 CALLDATALOAD PUSH1 0x4 ADD CALLDATALOAD ADD AND ADD DUP3 PUSH2 0x101A JUMP JUMPDEST PUSH1 0x64 CALLDATALOAD PUSH1 0x4 DUP2 ADD CALLDATALOAD DUP1 DUP4 MSTORE SWAP1 PUSH1 0x24 ADD PUSH1 0x20 DUP4 ADD CALLDATACOPY DUP5 PUSH1 0x20 PUSH1 0x64 CALLDATALOAD PUSH1 0x4 ADD CALLDATALOAD DUP4 ADD ADD MSTORE PUSH1 0x60 DUP4 ADD MSTORE DUP1 SLOAD SWAP1 PUSH1 0x1 PUSH1 0x40 SHL DUP3 LT ISZERO PUSH2 0x794 JUMPI SWAP1 PUSH2 0x586 SWAP2 PUSH1 0x1 DUP3 ADD DUP2 SSTORE PUSH2 0xF68 JUMP JUMPDEST SWAP2 SWAP1 SWAP2 PUSH2 0x7A8 JUMPI DUP1 MLOAD DUP3 SSTORE PUSH1 0x20 DUP2 ADD MLOAD PUSH1 0x1 DUP4 ADD SSTORE PUSH1 0x40 DUP2 ADD MLOAD PUSH1 0x2 DUP4 ADD SSTORE PUSH1 0x60 ADD MLOAD DUP1 MLOAD SWAP1 PUSH8 0xFFFFFFFFFFFFFFFF DUP3 GT PUSH2 0x794 JUMPI PUSH2 0x5D5 DUP3 PUSH2 0x5CC PUSH1 0x3 DUP7 ADD SLOAD PUSH2 0xF9A JUMP JUMPDEST PUSH1 0x3 DUP7 ADD PUSH2 0x11FD JUMP JUMPDEST PUSH1 0x20 SWAP1 PUSH1 0x1F DUP4 GT PUSH1 0x1 EQ PUSH2 0x728 JUMPI PUSH1 0x3 SWAP3 SWAP2 DUP7 SWAP2 DUP4 PUSH2 0x71D JUMPI JUMPDEST POP POP DUP2 PUSH1 0x1 SHL SWAP2 PUSH1 0x0 NOT SWAP1 DUP5 SHL SHR NOT AND OR SWAP2 ADD SSTORE JUMPDEST PUSH1 0x1 PUSH1 0x1 PUSH1 0xA0 SHL SUB DUP2 AND DUP3 MSTORE PUSH1 0x5 PUSH1 0x20 MSTORE PUSH1 0x40 DUP3 KECCAK256 DUP1 SLOAD PUSH1 0x24 CALLDATALOAD DUP2 ADD SWAP2 SWAP1 DUP3 LT PUSH2 0x709 JUMPI SSTORE PUSH1 0x44 CALLDATALOAD DUP3 MSTORE PUSH1 0x6 PUSH1 0x20 MSTORE PUSH1 0x40 DUP3 KECCAK256 DUP1 SLOAD SWAP1 PUSH1 0x1 PUSH1 0x40 SHL DUP3 LT ISZERO PUSH2 0x6F5 JUMPI SWAP1 PUSH2 0x656 SWAP2 PUSH1 0x1 DUP3 ADD DUP2 SSTORE PUSH2 0x10E2 JUMP JUMPDEST DUP2 SLOAD PUSH1 0x1 PUSH1 0x1 PUSH1 0xA0 SHL SUB DUP5 DUP2 AND PUSH1 0x3 SWAP4 SWAP1 SWAP4 SHL SWAP3 DUP4 SHL SWAP3 SHL NOT AND OR SWAP1 SSTORE PUSH1 0x40 DUP1 MLOAD PUSH1 0x24 DUP1 CALLDATALOAD DUP3 MSTORE PUSH1 0x20 DUP3 ADD DUP4 SWAP1 MSTORE PUSH1 0x64 CALLDATALOAD PUSH1 0x4 DUP2 ADD CALLDATALOAD SWAP4 DUP4 ADD DUP5 SWAP1 MSTORE SWAP2 SWAP3 SWAP2 ADD PUSH1 0x60 DUP4 ADD CALLDATACOPY PUSH1 0x4 PUSH1 0x64 CALLDATALOAD ADD CALLDATALOAD DUP2 DUP2 ADD PUSH1 0x60 SWAP1 DUP2 ADD DUP6 SWAP1 MSTORE PUSH1 0x44 CALLDATALOAD SWAP4 PUSH1 0x1 PUSH1 0x1 PUSH1 0xA0 SHL SUB AND SWAP3 PUSH32 0x65A486D28D68531B734905E17E5EF7D6C0D01C0A44D998D4B7C36F8A65A0D973 SWAP3 PUSH1 0x1F ADD PUSH1 0x1F NOT AND DUP2 ADD DUP2 SWAP1 SUB SWAP1 SWAP2 ADD SWAP1 LOG3 PUSH1 0x1 DUP2 SSTORE DUP1 RETURN JUMPDEST PUSH4 0x4E487B71 PUSH1 0xE0 SHL DUP5 MSTORE PUSH1 0x41 PUSH1 0x4 MSTORE PUSH1 0x24 DUP5 REVERT JUMPDEST PUSH4 0x4E487B71 PUSH1 0xE0 SHL DUP5 MSTORE PUSH1 0x11 PUSH1 0x4 MSTORE PUSH1 0x24 DUP5 REVERT JUMPDEST ADD MLOAD SWAP1 POP CODESIZE DUP1 PUSH2 0x5EF JUMP JUMPDEST SWAP1 PUSH1 0x3 DUP5 ADD DUP7 MSTORE PUSH1 0x20 DUP7 KECCAK256 SWAP2 DUP7 JUMPDEST PUSH1 0x1F NOT DUP6 AND DUP2 LT PUSH2 0x77C JUMPI POP SWAP2 DUP4 SWAP2 PUSH1 0x1 SWAP4 PUSH1 0x3 SWAP6 PUSH1 0x1F NOT DUP2 AND LT PUSH2 0x764 JUMPI JUMPDEST POP POP POP DUP2 SHL ADD SWAP2 ADD SSTORE PUSH2 0x604 JUMP JUMPDEST ADD MLOAD PUSH1 0x0 NOT DUP4 DUP7 SHL PUSH1 0xF8 AND SHR NOT AND SWAP1 SSTORE CODESIZE DUP1 DUP1 PUSH2 0x756 JUMP JUMPDEST SWAP2 SWAP3 PUSH1 0x20 PUSH1 0x1 DUP2 SWAP3 DUP7 DUP6 ADD MLOAD DUP2 SSTORE ADD SWAP5 ADD SWAP3 ADD PUSH2 0x736 JUMP JUMPDEST PUSH4 0x4E487B71 PUSH1 0xE0 SHL DUP6 MSTORE PUSH1 0x41 PUSH1 0x4 MSTORE PUSH1 0x24 DUP6 REVERT JUMPDEST PUSH4 0x4E487B71 PUSH1 0xE0 SHL DUP5 MSTORE PUSH1 0x4 DUP5 SWAP1 MSTORE PUSH1 0x24 DUP5 REVERT JUMPDEST PUSH2 0x7C5 SWAP1 PUSH2 0xFD4 JUMP JUMPDEST PUSH2 0x3CE JUMPI DUP2 CODESIZE PUSH2 0x4EC JUMP JUMPDEST POP CALLVALUE PUSH2 0x123 JUMPI DUP1 PUSH1 0x3 NOT CALLDATASIZE ADD SLT PUSH2 0x123 JUMPI PUSH1 0x2 SLOAD PUSH1 0x40 MLOAD PUSH1 0x1 PUSH1 0x1 PUSH1 0xA0 SHL SUB SWAP1 SWAP2 AND DUP2 MSTORE PUSH1 0x20 SWAP1 RETURN JUMPDEST POP CALLVALUE PUSH2 0x123 JUMPI DUP1 PUSH1 0x3 NOT CALLDATASIZE ADD SLT PUSH2 0x123 JUMPI PUSH2 0x812 PUSH2 0x10FA JUMP JUMPDEST PUSH1 0x1 DUP1 SLOAD PUSH1 0x1 PUSH1 0x1 PUSH1 0xA0 SHL SUB NOT DUP2 AND SWAP1 SWAP2 SSTORE PUSH1 0x0 SWAP1 PUSH1 0x1 PUSH1 0x1 PUSH1 0xA0 SHL SUB AND PUSH32 0x8BE0079C531659141344CD1FD0A4F28419497F9722A3DAAFE3B4186F6B6457E0 DUP3 DUP1 LOG3 DUP1 RETURN JUMPDEST POP CALLVALUE PUSH2 0x123 JUMPI DUP1 PUSH1 0x3 NOT CALLDATASIZE ADD SLT PUSH2 0x123 JUMPI PUSH1 0x3 SLOAD PUSH1 0x40 MLOAD PUSH1 0x1 PUSH1 0x1 PUSH1 0xA0 SHL SUB SWAP1 SWAP2 AND DUP2 MSTORE PUSH1 0x20 SWAP1 RETURN JUMPDEST POP CALLVALUE PUSH2 0x123 JUMPI PUSH1 0x20 CALLDATASIZE PUSH1 0x3 NOT ADD SLT PUSH2 0x123 JUMPI PUSH2 0x89A PUSH2 0xF0D JUMP JUMPDEST PUSH2 0x8A2 PUSH2 0x10FA JUMP JUMPDEST PUSH1 0x1 PUSH1 0x1 PUSH1 0xA0 SHL SUB AND DUP1 ISZERO PUSH2 0x8EA JUMPI PUSH1 0x3 DUP1 SLOAD PUSH1 0x1 PUSH1 0x1 PUSH1 0xA0 SHL SUB NOT AND DUP3 OR SWAP1 SSTORE PUSH32 0xB9A1F6D01069D240A4BEBE47B464192F46DC977BF49EC60B388E25E4DB1A88AF DUP3 DUP1 LOG2 DUP1 RETURN JUMPDEST PUSH1 0x40 MLOAD PUSH3 0x461BCD PUSH1 0xE5 SHL DUP2 MSTORE PUSH1 0x20 PUSH1 0x4 DUP3 ADD MSTORE PUSH1 0xF PUSH1 0x24 DUP3 ADD MSTORE PUSH15 0x496E76616C696420666163746F7279 PUSH1 0x88 SHL PUSH1 0x44 DUP3 ADD MSTORE PUSH1 0x64 SWAP1 REVERT JUMPDEST POP CALLVALUE PUSH2 0x123 JUMPI PUSH1 0x20 DUP1 PUSH1 0x3 NOT CALLDATASIZE ADD SLT PUSH2 0x3CE JUMPI PUSH1 0x1 PUSH1 0x1 PUSH1 0xA0 SHL SUB PUSH2 0x944 PUSH2 0xF0D JUMP JUMPDEST AND DUP3 MSTORE PUSH1 0x4 DUP2 MSTORE PUSH1 0x40 DUP3 KECCAK256 DUP1 SLOAD PUSH8 0xFFFFFFFFFFFFFFFF DUP2 GT PUSH2 0x6F5 JUMPI SWAP2 SWAP3 PUSH1 0x40 MLOAD SWAP3 PUSH2 0x975 DUP6 DUP3 PUSH1 0x5 SHL ADD DUP6 PUSH2 0x101A JUMP JUMPDEST DUP1 DUP5 MSTORE DUP5 DUP5 ADD DUP1 SWAP4 DUP4 MSTORE DUP6 DUP4 KECCAK256 DUP4 SWAP2 JUMPDEST DUP4 DUP4 LT PUSH2 0xA10 JUMPI POP POP POP POP PUSH1 0x40 MLOAD SWAP3 DUP5 DUP5 ADD SWAP1 DUP6 DUP6 MSTORE MLOAD DUP1 SWAP2 MSTORE PUSH1 0x40 DUP5 ADD SWAP5 PUSH1 0x40 DUP3 PUSH1 0x5 SHL DUP7 ADD ADD SWAP4 SWAP3 SWAP6 JUMPDEST DUP3 DUP8 LT PUSH2 0x9BE JUMPI DUP6 DUP6 SUB DUP7 RETURN JUMPDEST SWAP1 SWAP2 SWAP3 SWAP4 DUP3 DUP1 PUSH2 0xA00 PUSH1 0x1 SWAP4 PUSH1 0x3F NOT DUP11 DUP3 SUB ADD DUP7 MSTORE DUP9 MLOAD DUP1 MLOAD DUP3 MSTORE DUP4 DUP2 ADD MLOAD DUP5 DUP4 ADD MSTORE PUSH1 0x40 DUP2 ADD MLOAD PUSH1 0x40 DUP4 ADD MSTORE PUSH1 0x60 DUP1 SWAP2 ADD MLOAD SWAP2 PUSH1 0x80 DUP1 SWAP3 DUP3 ADD MSTORE ADD SWAP1 PUSH2 0xF28 JUMP JUMPDEST SWAP7 ADD SWAP3 ADD SWAP7 ADD SWAP6 SWAP3 SWAP2 SWAP1 SWAP3 PUSH2 0x9B1 JUMP JUMPDEST PUSH1 0x4 DUP9 PUSH1 0x1 SWAP3 PUSH1 0x40 SWAP11 SWAP10 SWAP8 SWAP11 MLOAD PUSH2 0xA26 DUP2 PUSH2 0xFFE JUMP JUMPDEST DUP6 SLOAD DUP2 MSTORE DUP5 DUP7 ADD SLOAD DUP4 DUP3 ADD MSTORE PUSH1 0x2 DUP7 ADD SLOAD PUSH1 0x40 DUP3 ADD MSTORE PUSH2 0xA48 PUSH1 0x3 DUP8 ADD PUSH2 0x103C JUMP JUMPDEST PUSH1 0x60 DUP3 ADD MSTORE DUP2 MSTORE ADD SWAP3 ADD SWAP3 ADD SWAP2 SWAP1 SWAP7 SWAP4 SWAP6 SWAP7 PUSH2 0x985 JUMP JUMPDEST POP CALLVALUE PUSH2 0x123 JUMPI PUSH1 0x20 SWAP1 DUP2 PUSH1 0x3 NOT CALLDATASIZE ADD SLT PUSH2 0x123 JUMPI PUSH2 0xA7B PUSH2 0xF0D JUMP JUMPDEST PUSH2 0xA83 PUSH2 0x10FA JUMP JUMPDEST PUSH1 0x1 PUSH1 0x1 PUSH1 0xA0 SHL SUB AND PUSH2 0xA97 DUP2 ISZERO ISZERO PUSH2 0x116A JUMP JUMPDEST DUP2 MSTORE PUSH1 0x4 DUP3 MSTORE PUSH1 0x40 DUP2 KECCAK256 SWAP2 DUP2 JUMPDEST DUP4 SLOAD DUP1 DUP3 LT ISZERO PUSH2 0xC37 JUMPI PUSH2 0xAB8 DUP3 DUP7 PUSH2 0xF68 JUMP JUMPDEST POP SWAP1 PUSH4 0x1E13380 PUSH2 0xACE PUSH1 0x1 DUP1 SWAP5 ADD SLOAD TIMESTAMP PUSH2 0x12B1 JUMP JUMPDEST GT PUSH2 0xAFB JUMPI JUMPDEST POP POP PUSH1 0x0 NOT DUP2 EQ PUSH2 0xAE7 JUMPI PUSH1 0x1 ADD PUSH2 0xAA4 JUMP JUMPDEST PUSH4 0x4E487B71 PUSH1 0xE0 SHL DUP4 MSTORE PUSH1 0x11 PUSH1 0x4 MSTORE PUSH1 0x24 DUP4 REVERT JUMPDEST PUSH1 0x0 NOT SWAP1 DUP1 DUP3 ADD SWAP1 DUP2 GT PUSH2 0xC23 JUMPI PUSH2 0xB13 SWAP1 DUP8 PUSH2 0xF68 JUMP JUMPDEST POP PUSH2 0xB1E DUP5 DUP9 PUSH2 0xF68 JUMP JUMPDEST PUSH2 0xC0F JUMPI DUP2 DUP2 SUB PUSH2 0xBE2 JUMPI JUMPDEST POP POP DUP6 SLOAD DUP1 ISZERO PUSH2 0xBCE JUMPI ADD SWAP1 PUSH2 0xB40 DUP3 DUP8 PUSH2 0xF68 JUMP JUMPDEST PUSH2 0xBBA JUMPI SWAP1 PUSH1 0x3 DUP3 DUP8 DUP1 SWAP5 SSTORE DUP4 DUP4 DUP3 ADD SSTORE DUP4 PUSH1 0x2 DUP3 ADD SSTORE ADD SWAP1 PUSH2 0xB63 DUP3 SLOAD PUSH2 0xF9A JUMP JUMPDEST SWAP1 DUP2 PUSH2 0xB77 JUMPI JUMPDEST POP POP POP POP DUP5 SSTORE CODESIZE DUP1 PUSH2 0xAD4 JUMP JUMPDEST PUSH1 0x1F DUP1 DUP4 GT PUSH1 0x1 EQ PUSH2 0xB95 JUMPI POP POP POP PUSH1 0x0 SWAP2 POP SSTORE JUMPDEST DUP4 CODESIZE DUP1 DUP1 PUSH2 0xB6A JUMP JUMPDEST DUP4 SWAP2 PUSH2 0xBB3 SWAP2 PUSH1 0x0 SWAP5 SWAP6 DUP8 MSTORE DUP10 DUP8 KECCAK256 SWAP6 ADD PUSH1 0x5 SHR DUP6 ADD SWAP1 DUP6 ADD PUSH2 0x11E6 JUMP JUMPDEST SSTORE SSTORE PUSH2 0xB8C JUMP JUMPDEST PUSH4 0x4E487B71 PUSH1 0xE0 SHL DUP7 MSTORE PUSH1 0x4 DUP7 SWAP1 MSTORE PUSH1 0x24 DUP7 REVERT JUMPDEST PUSH4 0x4E487B71 PUSH1 0xE0 SHL DUP7 MSTORE PUSH1 0x31 PUSH1 0x4 MSTORE PUSH1 0x24 DUP7 REVERT JUMPDEST DUP2 PUSH2 0xC08 SWAP3 SLOAD DUP3 SSTORE DUP5 DUP2 ADD SLOAD DUP6 DUP4 ADD SSTORE PUSH1 0x2 DUP1 DUP3 ADD SLOAD SWAP1 DUP4 ADD SSTORE PUSH1 0x3 DUP1 SWAP2 ADD SWAP2 ADD PUSH2 0x12D4 JUMP JUMPDEST CODESIZE DUP1 PUSH2 0xB2A JUMP JUMPDEST PUSH4 0x4E487B71 PUSH1 0xE0 SHL DUP8 MSTORE PUSH1 0x4 DUP8 SWAP1 MSTORE PUSH1 0x24 DUP8 REVERT JUMPDEST PUSH4 0x4E487B71 PUSH1 0xE0 SHL DUP7 MSTORE PUSH1 0x11 PUSH1 0x4 MSTORE PUSH1 0x24 DUP7 REVERT JUMPDEST DUP4 DUP1 RETURN JUMPDEST POP CALLVALUE PUSH2 0x123 JUMPI PUSH1 0x80 CALLDATASIZE PUSH1 0x3 NOT ADD SLT PUSH2 0x123 JUMPI PUSH2 0xC55 PUSH2 0xF0D JUMP JUMPDEST PUSH1 0x24 CALLDATALOAD PUSH1 0x1 PUSH1 0x1 PUSH1 0xA0 SHL SUB DUP2 DUP2 AND SWAP2 DUP3 SWAP1 SUB PUSH2 0x3BF JUMPI PUSH1 0x44 CALLDATALOAD DUP2 PUSH1 0x64 CALLDATALOAD SWAP5 PUSH2 0xC82 DUP3 PUSH1 0x3 SLOAD AND CALLER EQ PUSH2 0x1126 JUMP JUMPDEST PUSH2 0xC8A PUSH2 0x1242 JUMP JUMPDEST AND SWAP2 DUP3 ISZERO PUSH2 0xE27 JUMPI DUP4 ISZERO PUSH2 0xDF1 JUMPI PUSH2 0xCA3 DUP3 ISZERO ISZERO PUSH2 0x11A5 JUMP JUMPDEST DUP3 DUP7 MSTORE PUSH1 0x5 PUSH1 0x20 MSTORE PUSH2 0xCBB DUP3 PUSH1 0x40 DUP9 KECCAK256 SLOAD LT ISZERO PUSH2 0x1265 JUMP JUMPDEST DUP3 DUP7 MSTORE PUSH1 0x5 PUSH1 0x20 MSTORE PUSH1 0x40 DUP7 KECCAK256 PUSH2 0xCD2 DUP4 DUP3 SLOAD PUSH2 0x12B1 JUMP JUMPDEST SWAP1 SSTORE PUSH1 0x2 SLOAD AND DUP1 EXTCODESIZE ISZERO PUSH2 0xDED JUMPI DUP6 PUSH1 0x40 MLOAD DUP1 SWAP3 PUSH4 0x1FE18A17 PUSH1 0xE2 SHL DUP3 MSTORE DUP7 PUSH1 0x4 DUP4 ADD MSTORE DUP5 PUSH1 0x24 DUP4 ADD MSTORE DUP8 PUSH1 0x44 DUP4 ADD MSTORE PUSH1 0x80 PUSH1 0x64 DUP4 ADD MSTORE DUP2 DUP4 DUP2 PUSH2 0xD38 PUSH1 0x84 DUP3 ADD PUSH1 0x40 SWAP1 PUSH1 0x12 DUP2 MSTORE PUSH18 0x6368616C6C656E67655F77696E6E696E6773 PUSH1 0x70 SHL PUSH1 0x20 DUP3 ADD MSTORE ADD SWAP1 JUMP JUMPDEST SUB SWAP3 GAS CALL DUP1 ISZERO PUSH2 0xDE2 JUMPI PUSH2 0xDAF JUMPI JUMPDEST POP PUSH32 0x4EEB79557C53DF34AF2951CFE9B61432ED81E338CCF19F004F30B147CC21A700 SWAP1 PUSH1 0x40 MLOAD SWAP1 DUP2 MSTORE PUSH1 0x40 PUSH1 0x20 DUP3 ADD MSTORE DUP1 PUSH2 0xDA5 PUSH1 0x40 DUP3 ADD PUSH1 0x40 SWAP1 PUSH1 0x12 DUP2 MSTORE PUSH18 0x6368616C6C656E67655F77696E6E696E6773 PUSH1 0x70 SHL PUSH1 0x20 DUP3 ADD MSTORE ADD SWAP1 JUMP JUMPDEST SUB SWAP1 LOG4 PUSH1 0x1 DUP2 SSTORE DUP1 RETURN JUMPDEST SWAP5 PUSH2 0xDDB PUSH32 0x4EEB79557C53DF34AF2951CFE9B61432ED81E338CCF19F004F30B147CC21A700 SWAP3 SWAP7 PUSH2 0xFD4 JUMP JUMPDEST SWAP5 SWAP1 PUSH2 0xD47 JUMP JUMPDEST PUSH1 0x40 MLOAD RETURNDATASIZE DUP9 DUP3 RETURNDATACOPY RETURNDATASIZE SWAP1 REVERT JUMPDEST DUP6 DUP1 REVERT JUMPDEST PUSH1 0x40 MLOAD PUSH3 0x461BCD PUSH1 0xE5 SHL DUP2 MSTORE PUSH1 0x20 PUSH1 0x4 DUP3 ADD MSTORE PUSH1 0xE PUSH1 0x24 DUP3 ADD MSTORE PUSH14 0x24B73B30B634B2103BB4B73732B9 PUSH1 0x91 SHL PUSH1 0x44 DUP3 ADD MSTORE PUSH1 0x64 SWAP1 REVERT JUMPDEST PUSH1 0x40 MLOAD PUSH3 0x461BCD PUSH1 0xE5 SHL DUP2 MSTORE PUSH1 0x20 PUSH1 0x4 DUP3 ADD MSTORE PUSH1 0xD PUSH1 0x24 DUP3 ADD MSTORE PUSH13 0x24B73B30B634B2103637B9B2B9 PUSH1 0x99 SHL PUSH1 0x44 DUP3 ADD MSTORE PUSH1 0x64 SWAP1 REVERT JUMPDEST SWAP1 POP CALLVALUE PUSH2 0x3CE JUMPI PUSH1 0x20 SWAP1 DUP2 PUSH1 0x3 NOT CALLDATASIZE ADD SLT PUSH2 0x241 JUMPI SWAP2 PUSH1 0x4 CALLDATALOAD DUP2 MSTORE PUSH1 0x6 DUP3 MSTORE PUSH1 0x40 DUP2 KECCAK256 SWAP1 DUP2 SLOAD DUP1 DUP6 MSTORE DUP4 DUP6 ADD SWAP1 DUP2 SWAP4 DUP4 MSTORE DUP5 DUP4 KECCAK256 SWAP1 DUP4 JUMPDEST DUP2 DUP2 LT PUSH2 0xEF0 JUMPI POP POP POP DUP5 PUSH2 0xEA9 SWAP2 SUB DUP6 PUSH2 0x101A JUMP JUMPDEST PUSH1 0x40 MLOAD SWAP4 DUP4 DUP6 SWAP5 DUP6 ADD SWAP2 DUP2 DUP7 MSTORE MLOAD DUP1 SWAP3 MSTORE PUSH1 0x40 DUP6 ADD SWAP4 SWAP3 JUMPDEST DUP3 DUP2 LT PUSH2 0xED0 JUMPI POP POP POP POP SUB SWAP1 RETURN JUMPDEST DUP4 MLOAD PUSH1 0x1 PUSH1 0x1 PUSH1 0xA0 SHL SUB AND DUP6 MSTORE DUP7 SWAP6 POP SWAP4 DUP2 ADD SWAP4 SWAP3 DUP2 ADD SWAP3 PUSH1 0x1 ADD PUSH2 0xEC1 JUMP JUMPDEST DUP3 SLOAD PUSH1 0x1 PUSH1 0x1 PUSH1 0xA0 SHL SUB AND DUP5 MSTORE SWAP3 DUP7 ADD SWAP3 PUSH1 0x1 SWAP3 DUP4 ADD SWAP3 ADD PUSH2 0xE93 JUMP JUMPDEST PUSH1 0x4 CALLDATALOAD SWAP1 PUSH1 0x1 PUSH1 0x1 PUSH1 0xA0 SHL SUB DUP3 AND DUP3 SUB PUSH2 0xF23 JUMPI JUMP JUMPDEST PUSH1 0x0 DUP1 REVERT JUMPDEST SWAP2 SWAP1 DUP3 MLOAD SWAP3 DUP4 DUP3 MSTORE PUSH1 0x0 JUMPDEST DUP5 DUP2 LT PUSH2 0xF54 JUMPI POP POP DUP3 PUSH1 0x0 PUSH1 0x20 DUP1 SWAP5 SWAP6 DUP5 ADD ADD MSTORE PUSH1 0x1F DUP1 NOT SWAP2 ADD AND ADD ADD SWAP1 JUMP JUMPDEST PUSH1 0x20 DUP2 DUP4 ADD DUP2 ADD MLOAD DUP5 DUP4 ADD DUP3 ADD MSTORE ADD PUSH2 0xF33 JUMP JUMPDEST DUP1 SLOAD DUP3 LT ISZERO PUSH2 0xF84 JUMPI PUSH1 0x0 MSTORE PUSH1 0x20 PUSH1 0x0 KECCAK256 SWAP1 PUSH1 0x2 SHL ADD SWAP1 PUSH1 0x0 SWAP1 JUMP JUMPDEST PUSH4 0x4E487B71 PUSH1 0xE0 SHL PUSH1 0x0 MSTORE PUSH1 0x32 PUSH1 0x4 MSTORE PUSH1 0x24 PUSH1 0x0 REVERT JUMPDEST SWAP1 PUSH1 0x1 DUP3 DUP2 SHR SWAP3 AND DUP1 ISZERO PUSH2 0xFCA JUMPI JUMPDEST PUSH1 0x20 DUP4 LT EQ PUSH2 0xFB4 JUMPI JUMP JUMPDEST PUSH4 0x4E487B71 PUSH1 0xE0 SHL PUSH1 0x0 MSTORE PUSH1 0x22 PUSH1 0x4 MSTORE PUSH1 0x24 PUSH1 0x0 REVERT JUMPDEST SWAP2 PUSH1 0x7F AND SWAP2 PUSH2 0xFA9 JUMP JUMPDEST PUSH8 0xFFFFFFFFFFFFFFFF DUP2 GT PUSH2 0xFE8 JUMPI PUSH1 0x40 MSTORE JUMP JUMPDEST PUSH4 0x4E487B71 PUSH1 0xE0 SHL PUSH1 0x0 MSTORE PUSH1 0x41 PUSH1 0x4 MSTORE PUSH1 0x24 PUSH1 0x0 REVERT JUMPDEST PUSH1 0x80 DUP2 ADD SWAP1 DUP2 LT PUSH8 0xFFFFFFFFFFFFFFFF DUP3 GT OR PUSH2 0xFE8 JUMPI PUSH1 0x40 MSTORE JUMP JUMPDEST SWAP1 PUSH1 0x1F DUP1 NOT SWAP2 ADD AND DUP2 ADD SWAP1 DUP2 LT PUSH8 0xFFFFFFFFFFFFFFFF DUP3 GT OR PUSH2 0xFE8 JUMPI PUSH1 0x40 MSTORE JUMP JUMPDEST SWAP1 PUSH1 0x40 MLOAD SWAP2 DUP3 PUSH1 0x0 DUP3 SLOAD SWAP3 PUSH2 0x1050 DUP5 PUSH2 0xF9A JUMP JUMPDEST SWAP1 DUP2 DUP5 MSTORE PUSH1 0x1 SWAP5 DUP6 DUP2 AND SWAP1 DUP2 PUSH1 0x0 EQ PUSH2 0x10BF JUMPI POP PUSH1 0x1 EQ PUSH2 0x107C JUMPI JUMPDEST POP POP PUSH2 0x107A SWAP3 POP SUB DUP4 PUSH2 0x101A JUMP JUMPDEST JUMP JUMPDEST SWAP1 SWAP4 SWAP2 POP PUSH1 0x0 MSTORE PUSH1 0x20 SWAP1 DUP2 PUSH1 0x0 KECCAK256 SWAP4 PUSH1 0x0 SWAP2 JUMPDEST DUP2 DUP4 LT PUSH2 0x10A7 JUMPI POP POP PUSH2 0x107A SWAP4 POP DUP3 ADD ADD CODESIZE DUP1 PUSH2 0x106C JUMP JUMPDEST DUP6 SLOAD DUP9 DUP5 ADD DUP6 ADD MSTORE SWAP5 DUP6 ADD SWAP5 DUP8 SWAP5 POP SWAP2 DUP4 ADD SWAP2 PUSH2 0x108F JUMP JUMPDEST SWAP2 POP POP PUSH2 0x107A SWAP5 POP PUSH1 0x20 SWAP3 POP PUSH1 0xFF NOT AND DUP3 DUP5 ADD MSTORE ISZERO ISZERO PUSH1 0x5 SHL DUP3 ADD ADD CODESIZE DUP1 PUSH2 0x106C JUMP JUMPDEST DUP1 SLOAD DUP3 LT ISZERO PUSH2 0xF84 JUMPI PUSH1 0x0 MSTORE PUSH1 0x20 PUSH1 0x0 KECCAK256 ADD SWAP1 PUSH1 0x0 SWAP1 JUMP JUMPDEST PUSH1 0x1 SLOAD PUSH1 0x1 PUSH1 0x1 PUSH1 0xA0 SHL SUB AND CALLER SUB PUSH2 0x110E JUMPI JUMP JUMPDEST PUSH1 0x40 MLOAD PUSH4 0x118CDAA7 PUSH1 0xE0 SHL DUP2 MSTORE CALLER PUSH1 0x4 DUP3 ADD MSTORE PUSH1 0x24 SWAP1 REVERT JUMPDEST ISZERO PUSH2 0x112D JUMPI JUMP JUMPDEST PUSH1 0x40 MLOAD PUSH3 0x461BCD PUSH1 0xE5 SHL DUP2 MSTORE PUSH1 0x20 PUSH1 0x4 DUP3 ADD MSTORE PUSH1 0x15 PUSH1 0x24 DUP3 ADD MSTORE PUSH21 0x4F6E6C79204368616C6C656E6765466163746F7279 PUSH1 0x58 SHL PUSH1 0x44 DUP3 ADD MSTORE PUSH1 0x64 SWAP1 REVERT JUMPDEST ISZERO PUSH2 0x1171 JUMPI JUMP JUMPDEST PUSH1 0x40 MLOAD PUSH3 0x461BCD PUSH1 0xE5 SHL DUP2 MSTORE PUSH1 0x20 PUSH1 0x4 DUP3 ADD MSTORE PUSH1 0xC PUSH1 0x24 DUP3 ADD MSTORE PUSH12 0x24B73B30B634B2103AB9B2B9 PUSH1 0xA1 SHL PUSH1 0x44 DUP3 ADD MSTORE PUSH1 0x64 SWAP1 REVERT JUMPDEST ISZERO PUSH2 0x11AC JUMPI JUMP JUMPDEST PUSH1 0x40 MLOAD PUSH3 0x461BCD PUSH1 0xE5 SHL DUP2 MSTORE PUSH1 0x20 PUSH1 0x4 DUP3 ADD MSTORE PUSH1 0x12 PUSH1 0x24 DUP3 ADD MSTORE PUSH18 0x416D6F756E74206D757374206265203E203 PUSH1 0x74 SHL PUSH1 0x44 DUP3 ADD MSTORE PUSH1 0x64 SWAP1 REVERT JUMPDEST DUP2 DUP2 LT PUSH2 0x11F1 JUMPI POP POP JUMP JUMPDEST PUSH1 0x0 DUP2 SSTORE PUSH1 0x1 ADD PUSH2 0x11E6 JUMP JUMPDEST SWAP2 SWAP1 PUSH1 0x1F DUP2 GT PUSH2 0x120C JUMPI POP POP POP JUMP JUMPDEST PUSH2 0x107A SWAP3 PUSH1 0x0 MSTORE PUSH1 0x20 PUSH1 0x0 KECCAK256 SWAP1 PUSH1 0x20 PUSH1 0x1F DUP5 ADD PUSH1 0x5 SHR DUP4 ADD SWAP4 LT PUSH2 0x1238 JUMPI JUMPDEST PUSH1 0x1F ADD PUSH1 0x5 SHR ADD SWAP1 PUSH2 0x11E6 JUMP JUMPDEST SWAP1 SWAP2 POP DUP2 SWAP1 PUSH2 0x122B JUMP JUMPDEST PUSH1 0x2 PUSH1 0x0 SLOAD EQ PUSH2 0x1253 JUMPI PUSH1 0x2 PUSH1 0x0 SSTORE JUMP JUMPDEST PUSH1 0x40 MLOAD PUSH4 0x3EE5AEB5 PUSH1 0xE0 SHL DUP2 MSTORE PUSH1 0x4 SWAP1 REVERT JUMPDEST ISZERO PUSH2 0x126C JUMPI JUMP JUMPDEST PUSH1 0x40 MLOAD PUSH3 0x461BCD PUSH1 0xE5 SHL DUP2 MSTORE PUSH1 0x20 PUSH1 0x4 DUP3 ADD MSTORE PUSH1 0x1A PUSH1 0x24 DUP3 ADD MSTORE PUSH32 0x496E73756666696369656E74206C6F636B656420706F696E7473000000000000 PUSH1 0x44 DUP3 ADD MSTORE PUSH1 0x64 SWAP1 REVERT JUMPDEST SWAP2 SWAP1 DUP3 SUB SWAP2 DUP3 GT PUSH2 0x12BE JUMPI JUMP JUMPDEST PUSH4 0x4E487B71 PUSH1 0xE0 SHL PUSH1 0x0 MSTORE PUSH1 0x11 PUSH1 0x4 MSTORE PUSH1 0x24 PUSH1 0x0 REVERT JUMPDEST SWAP1 DUP1 DUP3 EQ PUSH2 0x13AF JUMPI PUSH2 0x12E6 DUP2 SLOAD PUSH2 0xF9A JUMP JUMPDEST SWAP1 PUSH8 0xFFFFFFFFFFFFFFFF DUP3 GT PUSH2 0xFE8 JUMPI DUP2 SWAP1 PUSH2 0x130C DUP3 PUSH2 0x1306 DUP7 SLOAD PUSH2 0xF9A JUMP JUMPDEST DUP7 PUSH2 0x11FD JUMP JUMPDEST PUSH1 0x0 SWAP1 PUSH1 0x1F DUP4 GT PUSH1 0x1 EQ PUSH2 0x1343 JUMPI PUSH1 0x0 SWAP3 PUSH2 0x1338 JUMPI JUMPDEST POP POP DUP2 PUSH1 0x1 SHL SWAP2 PUSH1 0x0 NOT SWAP1 PUSH1 0x3 SHL SHR NOT AND OR SWAP1 SSTORE JUMP JUMPDEST ADD SLOAD SWAP1 POP CODESIZE DUP1 PUSH2 0x1322 JUMP JUMPDEST DUP2 MSTORE PUSH1 0x20 DUP1 DUP3 KECCAK256 DUP6 DUP4 MSTORE DUP2 DUP4 KECCAK256 SWAP4 POP SWAP1 PUSH1 0x1F NOT DUP6 AND SWAP1 DUP4 SWAP1 JUMPDEST DUP3 DUP3 LT PUSH2 0x1396 JUMPI POP POP SWAP1 DUP5 PUSH1 0x1 SWAP6 SWAP5 SWAP4 SWAP3 LT PUSH2 0x137D JUMPI JUMPDEST POP POP POP DUP2 SHL ADD SWAP1 SSTORE JUMP JUMPDEST ADD SLOAD PUSH1 0x0 NOT PUSH1 0xF8 DUP5 PUSH1 0x3 SHL AND SHR NOT AND SWAP1 SSTORE CODESIZE DUP1 DUP1 PUSH2 0x1373 JUMP JUMPDEST DUP5 SWAP6 DUP2 SWAP3 SWAP6 DUP6 ADD SLOAD DUP2 SSTORE PUSH1 0x1 DUP1 SWAP2 ADD SWAP7 ADD SWAP5 ADD SWAP1 PUSH2 0x135C JUMP JUMPDEST POP POP JUMP INVALID LOG2 PUSH5 0x6970667358 0x22 SLT KECCAK256 EXP 0x29 0xA6 PUSH11 0x2C4C200EA01FE7D0892DA6 DUP1 0xEB GT CALLDATACOPY DUP10 0xC1 0xD3 0x1F SWAP14 SWAP7 SWAP15 0x4E SWAP16 SSTORE 0xBA DUP5 0xF PUSH5 0x736F6C6343 STOP ADDMOD EQ STOP CALLER "},"methodIdentifiers":{"challengeFactory()":"5dbaf68b","challengeParticipants(uint256,uint256)":"ffac1a95","clearExpiredLocks(address)":"3e041511","getChallengeParticipants(uint256)":"023bf958","getTotalLockedPoints(address)":"b1b414d6","getUserLockedPoints(address)":"54bba1a8","lockPoints(address,uint256,uint256,string)":"820a16fe","owner()":"8da5cb5b","pointsToken()":"72e1011c","releasePoints(address,uint256,uint256)":"92fc0b4b","renounceOwnership()":"715018a6","setChallengeFactory(address)":"5c3d9dec","totalLockedPoints(address)":"8e47dc22","transferLockedPoints(address,address,uint256,uint256)":"0c93a0a8","transferOwnership(address)":"f2fde38b","userLockedPoints(address,uint256)":"edda7bfd"}}}}}