{
  "_format": "hh-sol-artifact-1",
  "contractName": "ChallengeFactory",
  "sourceName": "src/ChallengeFactory-old.sol",
  "abi": [
    {
      "inputs": [
        {
          "internalType": "address",
          "name": "_pointsToken",
          "type": "address"
        },
        {
          "internalType": "address",
          "name": "_admin",
          "type": "address"
        }
      ],
      "stateMutability": "nonpayable",
      "type": "constructor"
    },
    {
      "inputs": [],
      "name": "ECDSAInvalidSignature",
      "type": "error"
    },
    {
      "inputs": [
        {
          "internalType": "uint256",
          "name": "length",
          "type": "uint256"
        }
      ],
      "name": "ECDSAInvalidSignatureLength",
      "type": "error"
    },
    {
      "inputs": [
        {
          "internalType": "bytes32",
          "name": "s",
          "type": "bytes32"
        }
      ],
      "name": "ECDSAInvalidSignatureS",
      "type": "error"
    },
    {
      "inputs": [
        {
          "internalType": "address",
          "name": "owner",
          "type": "address"
        }
      ],
      "name": "OwnableInvalidOwner",
      "type": "error"
    },
    {
      "inputs": [
        {
          "internalType": "address",
          "name": "account",
          "type": "address"
        }
      ],
      "name": "OwnableUnauthorizedAccount",
      "type": "error"
    },
    {
      "inputs": [],
      "name": "ReentrancyGuardReentrantCall",
      "type": "error"
    },
    {
      "anonymous": false,
      "inputs": [
        {
          "indexed": true,
          "internalType": "address",
          "name": "newAdmin",
          "type": "address"
        }
      ],
      "name": "AdminUpdated",
      "type": "event"
    },
    {
      "anonymous": false,
      "inputs": [
        {
          "indexed": true,
          "internalType": "uint256",
          "name": "challengeId",
          "type": "uint256"
        },
        {
          "indexed": true,
          "internalType": "address",
          "name": "participant",
          "type": "address"
        }
      ],
      "name": "ChallengeAccepted",
      "type": "event"
    },
    {
      "anonymous": false,
      "inputs": [
        {
          "indexed": true,
          "internalType": "uint256",
          "name": "challengeId",
          "type": "uint256"
        },
        {
          "indexed": false,
          "internalType": "enum ChallengeFactory.ChallengeType",
          "name": "challengeType",
          "type": "uint8"
        },
        {
          "indexed": true,
          "internalType": "address",
          "name": "creator",
          "type": "address"
        },
        {
          "indexed": false,
          "internalType": "uint256",
          "name": "stakeAmount",
          "type": "uint256"
        },
        {
          "indexed": false,
          "internalType": "address",
          "name": "paymentToken",
          "type": "address"
        },
        {
          "indexed": false,
          "internalType": "string",
          "name": "metadataURI",
          "type": "string"
        }
      ],
      "name": "ChallengeCreated",
      "type": "event"
    },
    {
      "anonymous": false,
      "inputs": [
        {
          "indexed": true,
          "internalType": "uint256",
          "name": "challengeId",
          "type": "uint256"
        },
        {
          "indexed": true,
          "internalType": "address",
          "name": "winner",
          "type": "address"
        },
        {
          "indexed": false,
          "internalType": "uint256",
          "name": "prizeAmount",
          "type": "uint256"
        },
        {
          "indexed": false,
          "internalType": "uint256",
          "name": "pointsAwarded",
          "type": "uint256"
        }
      ],
      "name": "ChallengeResolved",
      "type": "event"
    },
    {
      "anonymous": false,
      "inputs": [
        {
          "indexed": true,
          "internalType": "address",
          "name": "previousOwner",
          "type": "address"
        },
        {
          "indexed": true,
          "internalType": "address",
          "name": "newOwner",
          "type": "address"
        }
      ],
      "name": "OwnershipTransferred",
      "type": "event"
    },
    {
      "anonymous": false,
      "inputs": [
        {
          "indexed": true,
          "internalType": "uint256",
          "name": "challengeId",
          "type": "uint256"
        },
        {
          "indexed": true,
          "internalType": "address",
          "name": "user",
          "type": "address"
        },
        {
          "indexed": false,
          "internalType": "uint256",
          "name": "amount",
          "type": "uint256"
        }
      ],
      "name": "PayoutClaimed",
      "type": "event"
    },
    {
      "anonymous": false,
      "inputs": [
        {
          "indexed": true,
          "internalType": "uint256",
          "name": "challengeId",
          "type": "uint256"
        },
        {
          "indexed": true,
          "internalType": "address",
          "name": "user",
          "type": "address"
        },
        {
          "indexed": false,
          "internalType": "bool",
          "name": "side",
          "type": "bool"
        },
        {
          "indexed": false,
          "internalType": "uint256",
          "name": "stakeAmount",
          "type": "uint256"
        }
      ],
      "name": "UserJoinedAdminChallenge",
      "type": "event"
    },
    {
      "inputs": [
        {
          "internalType": "uint256",
          "name": "challengeId",
          "type": "uint256"
        }
      ],
      "name": "acceptP2PChallenge",
      "outputs": [],
      "stateMutability": "nonpayable",
      "type": "function"
    },
    {
      "inputs": [],
      "name": "admin",
      "outputs": [
        {
          "internalType": "address",
          "name": "",
          "type": "address"
        }
      ],
      "stateMutability": "view",
      "type": "function"
    },
    {
      "inputs": [
        {
          "internalType": "uint256",
          "name": "",
          "type": "uint256"
        },
        {
          "internalType": "address",
          "name": "",
          "type": "address"
        }
      ],
      "name": "adminParticipants",
      "outputs": [
        {
          "internalType": "address",
          "name": "user",
          "type": "address"
        },
        {
          "internalType": "bool",
          "name": "side",
          "type": "bool"
        },
        {
          "internalType": "uint256",
          "name": "stakeAmount",
          "type": "uint256"
        },
        {
          "internalType": "bool",
          "name": "claimed",
          "type": "bool"
        }
      ],
      "stateMutability": "view",
      "type": "function"
    },
    {
      "inputs": [
        {
          "internalType": "uint256",
          "name": "",
          "type": "uint256"
        }
      ],
      "name": "challenges",
      "outputs": [
        {
          "internalType": "uint256",
          "name": "id",
          "type": "uint256"
        },
        {
          "internalType": "enum ChallengeFactory.ChallengeType",
          "name": "challengeType",
          "type": "uint8"
        },
        {
          "internalType": "address",
          "name": "creator",
          "type": "address"
        },
        {
          "internalType": "address",
          "name": "participant",
          "type": "address"
        },
        {
          "internalType": "uint256",
          "name": "stakeAmount",
          "type": "uint256"
        },
        {
          "internalType": "address",
          "name": "paymentToken",
          "type": "address"
        },
        {
          "internalType": "enum ChallengeFactory.ChallengeStatus",
          "name": "status",
          "type": "uint8"
        },
        {
          "internalType": "address",
          "name": "winner",
          "type": "address"
        },
        {
          "internalType": "uint256",
          "name": "createdAt",
          "type": "uint256"
        },
        {
          "internalType": "uint256",
          "name": "resolvedAt",
          "type": "uint256"
        },
        {
          "internalType": "string",
          "name": "metadataURI",
          "type": "string"
        }
      ],
      "stateMutability": "view",
      "type": "function"
    },
    {
      "inputs": [
        {
          "internalType": "uint256",
          "name": "challengeId",
          "type": "uint256"
        }
      ],
      "name": "claimPayout",
      "outputs": [],
      "stateMutability": "nonpayable",
      "type": "function"
    },
    {
      "inputs": [
        {
          "internalType": "uint256",
          "name": "stakeAmount",
          "type": "uint256"
        },
        {
          "internalType": "address",
          "name": "paymentToken",
          "type": "address"
        },
        {
          "internalType": "string",
          "name": "metadataURI",
          "type": "string"
        }
      ],
      "name": "createAdminChallenge",
      "outputs": [
        {
          "internalType": "uint256",
          "name": "",
          "type": "uint256"
        }
      ],
      "stateMutability": "nonpayable",
      "type": "function"
    },
    {
      "inputs": [
        {
          "internalType": "address",
          "name": "opponent",
          "type": "address"
        },
        {
          "internalType": "uint256",
          "name": "stakeAmount",
          "type": "uint256"
        },
        {
          "internalType": "address",
          "name": "paymentToken",
          "type": "address"
        },
        {
          "internalType": "string",
          "name": "metadataURI",
          "type": "string"
        }
      ],
      "name": "createP2PChallenge",
      "outputs": [
        {
          "internalType": "uint256",
          "name": "",
          "type": "uint256"
        }
      ],
      "stateMutability": "nonpayable",
      "type": "function"
    },
    {
      "inputs": [
        {
          "internalType": "uint256",
          "name": "challengeId",
          "type": "uint256"
        }
      ],
      "name": "getChallenge",
      "outputs": [
        {
          "components": [
            {
              "internalType": "uint256",
              "name": "id",
              "type": "uint256"
            },
            {
              "internalType": "enum ChallengeFactory.ChallengeType",
              "name": "challengeType",
              "type": "uint8"
            },
            {
              "internalType": "address",
              "name": "creator",
              "type": "address"
            },
            {
              "internalType": "address",
              "name": "participant",
              "type": "address"
            },
            {
              "internalType": "uint256",
              "name": "stakeAmount",
              "type": "uint256"
            },
            {
              "internalType": "address",
              "name": "paymentToken",
              "type": "address"
            },
            {
              "internalType": "enum ChallengeFactory.ChallengeStatus",
              "name": "status",
              "type": "uint8"
            },
            {
              "internalType": "address",
              "name": "winner",
              "type": "address"
            },
            {
              "internalType": "uint256",
              "name": "createdAt",
              "type": "uint256"
            },
            {
              "internalType": "uint256",
              "name": "resolvedAt",
              "type": "uint256"
            },
            {
              "internalType": "string",
              "name": "metadataURI",
              "type": "string"
            }
          ],
          "internalType": "struct ChallengeFactory.Challenge",
          "name": "",
          "type": "tuple"
        }
      ],
      "stateMutability": "view",
      "type": "function"
    },
    {
      "inputs": [
        {
          "internalType": "uint256",
          "name": "challengeId",
          "type": "uint256"
        }
      ],
      "name": "getNoParticipants",
      "outputs": [
        {
          "internalType": "address[]",
          "name": "",
          "type": "address[]"
        }
      ],
      "stateMutability": "view",
      "type": "function"
    },
    {
      "inputs": [
        {
          "internalType": "address",
          "name": "user",
          "type": "address"
        }
      ],
      "name": "getUserLockedStakes",
      "outputs": [
        {
          "internalType": "uint256",
          "name": "",
          "type": "uint256"
        }
      ],
      "stateMutability": "view",
      "type": "function"
    },
    {
      "inputs": [
        {
          "internalType": "uint256",
          "name": "challengeId",
          "type": "uint256"
        }
      ],
      "name": "getYesParticipants",
      "outputs": [
        {
          "internalType": "address[]",
          "name": "",
          "type": "address[]"
        }
      ],
      "stateMutability": "view",
      "type": "function"
    },
    {
      "inputs": [
        {
          "internalType": "uint256",
          "name": "challengeId",
          "type": "uint256"
        },
        {
          "internalType": "bool",
          "name": "side",
          "type": "bool"
        }
      ],
      "name": "joinAdminChallenge",
      "outputs": [],
      "stateMutability": "nonpayable",
      "type": "function"
    },
    {
      "inputs": [],
      "name": "nextChallengeId",
      "outputs": [
        {
          "internalType": "uint256",
          "name": "",
          "type": "uint256"
        }
      ],
      "stateMutability": "view",
      "type": "function"
    },
    {
      "inputs": [
        {
          "internalType": "uint256",
          "name": "",
          "type": "uint256"
        },
        {
          "internalType": "uint256",
          "name": "",
          "type": "uint256"
        }
      ],
      "name": "noParticipants",
      "outputs": [
        {
          "internalType": "address",
          "name": "",
          "type": "address"
        }
      ],
      "stateMutability": "view",
      "type": "function"
    },
    {
      "inputs": [],
      "name": "owner",
      "outputs": [
        {
          "internalType": "address",
          "name": "",
          "type": "address"
        }
      ],
      "stateMutability": "view",
      "type": "function"
    },
    {
      "inputs": [],
      "name": "platformFeePercentage",
      "outputs": [
        {
          "internalType": "uint256",
          "name": "",
          "type": "uint256"
        }
      ],
      "stateMutability": "view",
      "type": "function"
    },
    {
      "inputs": [],
      "name": "pointsToken",
      "outputs": [
        {
          "internalType": "contract BantahPoints",
          "name": "",
          "type": "address"
        }
      ],
      "stateMutability": "view",
      "type": "function"
    },
    {
      "inputs": [],
      "name": "renounceOwnership",
      "outputs": [],
      "stateMutability": "nonpayable",
      "type": "function"
    },
    {
      "inputs": [
        {
          "internalType": "uint256",
          "name": "challengeId",
          "type": "uint256"
        },
        {
          "internalType": "address",
          "name": "winner",
          "type": "address"
        },
        {
          "internalType": "uint256",
          "name": "pointsAwarded",
          "type": "uint256"
        },
        {
          "internalType": "bytes",
          "name": "signature",
          "type": "bytes"
        }
      ],
      "name": "resolveChallenge",
      "outputs": [],
      "stateMutability": "nonpayable",
      "type": "function"
    },
    {
      "inputs": [
        {
          "internalType": "address",
          "name": "newAdmin",
          "type": "address"
        }
      ],
      "name": "setAdmin",
      "outputs": [],
      "stateMutability": "nonpayable",
      "type": "function"
    },
    {
      "inputs": [
        {
          "internalType": "uint256",
          "name": "basisPoints",
          "type": "uint256"
        }
      ],
      "name": "setPlatformFee",
      "outputs": [],
      "stateMutability": "nonpayable",
      "type": "function"
    },
    {
      "inputs": [],
      "name": "totalFeesCollected",
      "outputs": [
        {
          "internalType": "uint256",
          "name": "",
          "type": "uint256"
        }
      ],
      "stateMutability": "view",
      "type": "function"
    },
    {
      "inputs": [
        {
          "internalType": "address",
          "name": "newOwner",
          "type": "address"
        }
      ],
      "name": "transferOwnership",
      "outputs": [],
      "stateMutability": "nonpayable",
      "type": "function"
    },
    {
      "inputs": [
        {
          "internalType": "address",
          "name": "",
          "type": "address"
        }
      ],
      "name": "userLockedStakes",
      "outputs": [
        {
          "internalType": "uint256",
          "name": "",
          "type": "uint256"
        }
      ],
      "stateMutability": "view",
      "type": "function"
    },
    {
      "inputs": [
        {
          "internalType": "address",
          "name": "token",
          "type": "address"
        }
      ],
      "name": "withdrawFees",
      "outputs": [],
      "stateMutability": "nonpayable",
      "type": "function"
    },
    {
      "inputs": [
        {
          "internalType": "uint256",
          "name": "",
          "type": "uint256"
        },
        {
          "internalType": "uint256",
          "name": "",
          "type": "uint256"
        }
      ],
      "name": "yesParticipants",
      "outputs": [
        {
          "internalType": "address",
          "name": "",
          "type": "address"
        }
      ],
      "stateMutability": "view",
      "type": "function"
    }
  ],
  "bytecode": "0x60803462000183576200252290601f38839003908101601f19168201906001600160401b0382118383101762000188578083916040958694855283398101031262000183576200005d602062000055836200019e565b92016200019e565b600160005533156200016b5760018054336001600160a01b0319808316821790935585519492936001600160a01b0393909284929083167f8be0079c531659141344cd1fd0a4f28419497f9722a3daafe3b4186f6b6457e0600080a360016004556001600a551693841562000129575016918215620000f55781600254161760025560035416176003555161236e9081620001b48239f35b835162461bcd60e51b815260206004820152600d60248201526c24b73b30b634b21030b236b4b760991b6044820152606490fd5b62461bcd60e51b815260206004820152601460248201527f496e76616c696420706f696e747320746f6b656e0000000000000000000000006044820152606490fd5b8251631e4fbdf760e01b815260006004820152602490fd5b600080fd5b634e487b7160e01b600052604160045260246000fd5b51906001600160a01b0382168203620001835756fe6080604052600436101561001257600080fd5b6000803560e01c806312e8e2c314611ca1578063164e68de14611b5d5780631bdd4b74146119735780634b0a11101461150857806360c6d8ae146114ea57806360d899cc1461147a578063704b6c02146113db578063715018a61461137e57806372e1011c146113555780637ba6a3241461109b57806387a0a4ef1461102d5780638a69614e14610dad5780638bf6564b14610a1e5780638da5cb5b146109f55780638f1d3776146109255780639598c1301461083c578063a3643c9c146108a7578063acdc9ada14610875578063aecc14371461083c578063b9c2211314610477578063cdd78cfc14610459578063d35202e81461025f578063f272f67414610214578063f2fde38b14610184578063f851a4401461015b5763fc67aa501461013b57600080fd5b346101585780600319360112610158576020600454604051908152f35b80fd5b50346101585780600319360112610158576003546040516001600160a01b039091168152602090f35b50346101585760203660031901126101585761019e611d00565b6101a6611fc3565b6001600160a01b039081169081156101fb57600154826bffffffffffffffffffffffff60a01b821617600155167f8be0079c531659141344cd1fd0a4f28419497f9722a3daafe3b4186f6b6457e0600080a380f35b604051631e4fbdf760e01b815260048101849052602490fd5b50346101585761022336611f7f565b919081526007602052604081209081548310156101585760206102468484611f95565b905460405160039290921b1c6001600160a01b03168152f35b503461015857602080600319360112610455576004359061027e61211d565b81835260058152604083206004810180549060ff8260a01c166005811015610441576102aa9015612140565b60028301546001600160a01b039390841633036104095760ff60018201541660028110156103f5576001036103ba5760030180546040516323b872dd60e01b815233600482015230602482015260448101919091529390928591859160649183918b91165af19283156103af5760099361032b918891610382575b506120cc565b805460ff60a01b1916600160a01b179055543385529152604083208054909161035391612110565b905533907fd984ac8050a068db0ada14b33626b418e0cdfbad700867c1f3e0ab23cf123b338380a36001815580f35b6103a29150863d88116103a8575b61039a8183611dd4565b8101906120b4565b38610325565b503d610390565b6040513d88823e3d90fd5b60405162461bcd60e51b81526004810186905260136024820152724e6f74206120503250206368616c6c656e676560681b6044820152606490fd5b634e487b7160e01b88526021600452602488fd5b60405162461bcd60e51b815260048101869052601060248201526f2737ba103a34329030b1b1b2b83a37b960811b6044820152606490fd5b634e487b7160e01b87526021600452602487fd5b5080fd5b50346101585780600319360112610158576020600a54604051908152f35b503461015857608036600319011261015857600435610494611d1b565b9060643560443567ffffffffffffffff8083116108385736602384011215610838576104cb60249336908581600401359101611df6565b926104d461211d565b848752602091600583526040882060048101805460ff8160a01c1660058110156108255780600161050e921490811561081c575b50612140565b6001600160a01b038a81169a9098908b156107e757604051888101918c83526bffffffffffffffffffffffff199060601b1660408201528960548201526054815260808101818110888211176107d4576040525190207f19457468657265756d205369676e6564204d6573736167653a0a3332000000008d52601c52603c8c206105a49161059b916121dd565b909291926122a9565b8880600354169116036107905760ff60a01b1916600160a11b1790556005810180546001600160a01b03191689179055426007820155600181015460ff16600281101561077d57899392919060010361074b5760039192935001548060011b90808204600214901517156107385790889291955b61063e6106356103e861062d600a548b6121bd565b0480996121d0565b97600b54612110565b600b5560025416803b1561073457839060c460405180968193631fe18a1760e21b83528d60048401528a888401528c604484015260806064840152600d60848401526c31b430b63632b733b2afbbb4b760991b60a48401525af18015610729576106dc575b505050916040917f48d04219f73523e45f2ef87f1dfb115fdec44d443c1406e0a7f9bba9b73ac80a938351928352820152a36001815580f35b82989398116107175750604090815290959082907f48d04219f73523e45f2ef87f1dfb115fdec44d443c1406e0a7f9bba9b73ac80a906106a3565b634e487b7160e01b8352604160045282fd5b6040513d8b823e3d90fd5b8380fd5b634e487b7160e01b895260116004528289fd5b600361077791015488855260078652610771604086205460088852604087205490612110565b906121bd565b95610618565b634e487b7160e01b8a526021600452838afd5b60405162461bcd60e51b8152600481018790526017818701527f496e76616c69642061646d696e207369676e61747572650000000000000000006044820152606490fd5b634e487b7160e01b8f526041600452888ffd5b60405162461bcd60e51b815260048101899052600e818901526d24b73b30b634b2103bb4b73732b960911b6044820152606490fd5b90501538610508565b634e487b7160e01b8c526021600452858cfd5b8580fd5b5034610158576020366003190112610158576020906040906001600160a01b03610864611d00565b168152600983522054604051908152f35b50346101585761088436611f7f565b919081526008602052604081209081548310156101585760206102468484611f95565b5034610158576020806003193601126104555760043582526008815260408220916040518092808554928381520194835280832092905b82821061090557610901856108f581890382611dd4565b60405191829182611e5b565b0390f35b83546001600160a01b0316865294850194600193840193909101906108de565b50346101585760203660031901126101585760406020916004358152600583522061090181549160018101549060018060a01b0380600283015416906109d2600384015491600485015490806005870154169360068701549582610990600860078b01549a01611ed9565b996109a86040519e8f9e8f9081520160ff8316611d31565b60081c1660408c015260608b015260808a0152811660a089015260ff60c089019160a01c16611d54565b60e086015261010085015261012084015261016080610140850152830190611d61565b50346101585780600319360112610158576001546040516001600160a01b039091168152602090f35b503461015857606036600319011261015857610a38611d1b565b60443567ffffffffffffffff8111610da957610a58903690600401611e3d565b610a60611fc3565b610a6d6004351515611fef565b610a816001600160a01b038316151561202f565b805115610d715760045491610a958361206b565b60045560405190610aa582611da1565b83825260208201858152336040840152856060840152600435608084015260018060a01b03821660a08401528560c08401528560e08401524261010084015285610120840152836101408401528486526005602052604086209083518255516002811015610441576001820180546040860151610100600160a81b0360089190911b1660ff939093166001600160a81b03199091161791909117905560608301516002820180546001600160a01b039283166001600160a01b0319918216179091556080850151600384015560a08501516004840180549190931690821617825560c085015190916005821015610d5d5791610ba76101409492600894612090565b600582019060018060a01b0360e0880151169082541617905561010085015160068201556101208501516007820155019201519182519267ffffffffffffffff8411610d4957610bf78254611e9f565b601f8111610d04575b509186918693602098508890601f8711600114610c8e5795809160008051602061231983398151915296978692610c83575b50508160011b916000199060031b1c19161790555b6040519182526004358783015260018060a01b031660408201526080606082015280610c7833956080830190611d61565b0390a3604051908152f35b015190503880610c32565b828552898520969190601f198316865b818110610cea575091600080516020612319833981519152979891846001959410610cd1575b505050811b019055610c47565b015160001960f88460031b161c19169055388080610cc4565b838301518a556001909901988b9850928c01928c01610c9e565b82885260208820601f860160051c81019160208710610d3f575b601f0160051c01905b818110610d345750610c00565b888155600101610d27565b9091508190610d1e565b634e487b7160e01b87526041600452602487fd5b634e487b7160e01b89526021600452602489fd5b60405162461bcd60e51b815260206004820152601060248201526f496e76616c6964206d6574616461746160801b6044820152606490fd5b8280fd5b50346101585760208060031936011261045557600435610dcb61211d565b808352600582526040832091600483019283549360ff8560a01c16600581101561044157600203610fef5760058201546001600160a01b03929083163303610fb95760ff60018201541660028110156103f557600103610f8b57600301548060011b9080820460021490151715610f7757610e57905b6103e8610e50600a54836121bd565b04906121d0565b60ff60a01b19909516600360a01b1781553386526009835260408620548580821115610f6f57610e86916121d0565b33808852600985526040808920929092559154905163a9059cbb60e01b815260048101929092526024820186905290918391839160449183918a91165af1908115610f64578591610f47575b5015610f0a577fe97cee5a4c0549d3fdc81e322b718ddf0aeb3418ec87dce4f9a7fb28d117c312906040519384523393a36001815580f35b6064906040519062461bcd60e51b82526004820152601660248201527514185e5bdd5d081d1c985b9cd9995c8819985a5b195960521b6044820152fd5b610f5e9150823d84116103a85761039a8183611dd4565b38610ed2565b6040513d87823e3d90fd5b505085610e86565b634e487b7160e01b87526011600452602487fd5b610fb46003610e579201548689526007865261077160408a20546008885260408b205490612110565b610e41565b60405162461bcd60e51b815260048101859052600e60248201526d2737ba103a3432903bb4b73732b960911b6044820152606490fd5b60405162461bcd60e51b815260048101849052601660248201527510da185b1b195b99d9481b9bdd081c995cdbdb1d995960521b6044820152606490fd5b5034610158576020806003193601126104555760043582526007815260408220916040518092808554928381520194835280832092905b82821061107b57610901856108f581890382611dd4565b83546001600160a01b031686529485019460019384019390910190611064565b503461015857604036600319011261015857602435151560243503610158576110c261211d565b600435815260056020526040812090600482015460ff8160a01c16600581101561133657806110f9911590811561134a5750612140565b60ff6001840154166002811015611336576112f85760038301546040516323b872dd60e01b81523360048201523060248201526044810191909152906020908290606490829086906001600160a01b03165af19081156112ed57906111649183916112d457506120cc565b600382015491604051926080840184811067ffffffffffffffff8211176112c057600393946002916040523381526020810192602435151584526040820190815260608201938785526004358852600660205260408820338952602052604088209260018060a01b0390511683549160ff60a01b9051151560a01b16916affffffffffffffffffffff60a81b1617178255516001820155019051151560ff801983541691161790556024356000146112a4576004358352600760205261122d336040852061217d565b60048101805460ff60a01b1916600160a01b179055818101543384526009602052604084208054909161125f91612110565b905501546040519060243515158252602082015233907f7d9cd5d8664925284f55fc2d718b09ce8a6b6415d81ed3d99fa6ff7fa0aaeecb604060043592a36001815580f35b600435835260086020526112bb336040852061217d565b61122d565b634e487b7160e01b84526041600452602484fd5b6103a2915060203d6020116103a85761039a8183611dd4565b6040513d84823e3d90fd5b60405162461bcd60e51b81526020600482015260166024820152754e6f7420616e2061646d696e206368616c6c656e676560501b6044820152606490fd5b634e487b7160e01b83526021600452602483fd5b600191501438610508565b50346101585780600319360112610158576002546040516001600160a01b039091168152602090f35b5034610158578060031936011261015857611397611fc3565b600180546001600160a01b0319811690915581906001600160a01b03167f8be0079c531659141344cd1fd0a4f28419497f9722a3daafe3b4186f6b6457e08280a380f35b5034610158576020366003190112610158576113f5611d00565b6113fd611fc3565b6001600160a01b0316801561144557600380546001600160a01b031916821790557f54e4612788f90384e6843298d7854436f3a585b2c3831ab66abf1de63bfa6c2d8280a280f35b60405162461bcd60e51b815260206004820152600d60248201526c24b73b30b634b21030b236b4b760991b6044820152606490fd5b5034610158576040366003190112610158576080906040611499611d1b565b916004358152600660205281812060018060a01b0380941682526020522080549060ff80600260018401549301541692604051948116855260a01c1615156020840152604083015215156060820152f35b50346101585780600319360112610158576020600b54604051908152f35b503461015857608036600319011261015857611522611d00565b90604435906001600160a01b03821682036101585760643567ffffffffffffffff811161045557611557903690600401611e3d565b9061156061211d565b6001600160a01b0384161561193b576001600160a01b03841633146118f65761158c6024351515611fef565b6115a06001600160a01b038416151561202f565b6040516323b872dd60e01b815233600482015230602480830191909152356044820152602081606481856001600160a01b0389165af19081156112ed57906115ee9183916112d457506120cc565b600454916115fb8361206b565b6004556040519461160b86611da1565b8386526001602087015233604087015260018060a01b03166060860152602435608086015260018060a01b03841660a08601528160c08601528160e08601524261010086015281610120860152806101408601528282526005602052604082208551815560018101602087015160028110156118e25781546040890151610100600160a81b0360089190911b1660ff929092166001600160a81b03199091161717905560608601516002820180546001600160a01b039283166001600160a01b0319918216179091556080880151600384015560a08801516004840180549190931690821617825560c0880151909160058210156118ce57916117146101409492600894612090565b600582019060018060a01b0360e08b01511690825416179055610100880151600682015561012088015160078201550195015194855167ffffffffffffffff81116112c0576117638254611e9f565b601f8111611889575b506020968790601f831160011461181357928260008051602061231983398151915293889993600199968992611808575b5050600019600383901b1c191690881b1790555b33855260098852604085206117c96024358254612110565b90556040519086825260243589830152868060a01b0316604082015260806060820152806117fc33956080830190611d61565b0390a355604051908152f35b01519050388061179d565b8386528886209190601f198416875b81811061187257509388999360019996938a93836000805160206123198339815191529810611859575b505050811b0190556117b1565b015160001960f88460031b161c1916905538808061184c565b92938b600181928786015181550195019301611822565b82855260208520601f830160051c810191602084106118c4575b601f0160051c01905b8181106118b9575061176c565b8581556001016118ac565b90915081906118a3565b634e487b7160e01b86526021600452602486fd5b634e487b7160e01b85526021600452602485fd5b60405162461bcd60e51b815260206004820152601960248201527f43616e6e6f74206368616c6c656e676520796f757273656c66000000000000006044820152606490fd5b60405162461bcd60e51b815260206004820152601060248201526f125b9d985b1a59081bdc1c1bdb995b9d60821b6044820152606490fd5b503461015857602036600319011261015857606061014060405161199681611da1565b83815283602082015283604082015283838201528360808201528360a08201528360c08201528360e082015283610100820152836101208201520152600435815260056020526040812090604051906119ee82611da1565b82548252600183015460ff8116600281101561133657602084015260081c6001600160a01b03908116604084015260028401548116606084015260038401546080840152600484015490811660a0808501919091521c60ff16906005821015611b49575060c082015260058201546001600160a01b031660e08201526006820154610100820152600782015461012082015261014091611a9090600801611ed9565b828201526109016040519283926020845280516020850152611aba60208201516040860190611d31565b60018060a01b03604082015116606085015260018060a01b036060820151166080850152608081015160a085015260018060a01b0360a08201511660c0850152611b0c60c082015160e0860190611d54565b60018060a01b0360e08201511661010085015261010081015161012085015261012081015182850152015161016080840152610180830190611d61565b634e487b7160e01b81526021600452602490fd5b50346101585760208060031936011261045557611b78611d00565b611b80611fc3565b611b8861211d565b6040516370a0823160e01b81523060048201526001600160a01b0391909116908281602481855afa908115611c96578491611c69575b508015611c2e5760405163a9059cbb60e01b815233600482015260248101919091529082908290604490829087905af18015611c2357611c05575b8280600b556001815580f35b81611c1b92903d106103a85761039a8183611dd4565b503880611bf9565b6040513d85823e3d90fd5b60405162461bcd60e51b81526004810184905260136024820152724e6f206665657320746f20776974686472617760681b6044820152606490fd5b90508281813d8311611c8f575b611c808183611dd4565b81010312610734575138611bbe565b503d611c76565b6040513d86823e3d90fd5b503461015857602036600319011261015857600435611cbe611fc3565b60328111611ccc57600a5580f35b60405162461bcd60e51b815260206004820152600c60248201526b08ccaca40e8dede40d0d2ced60a31b6044820152606490fd5b600435906001600160a01b0382168203611d1657565b600080fd5b602435906001600160a01b0382168203611d1657565b906002821015611d3e5752565b634e487b7160e01b600052602160045260246000fd5b906005821015611d3e5752565b919082519283825260005b848110611d8d575050826000602080949584010152601f8019910116010190565b602081830181015184830182015201611d6c565b610160810190811067ffffffffffffffff821117611dbe57604052565b634e487b7160e01b600052604160045260246000fd5b90601f8019910116810190811067ffffffffffffffff821117611dbe57604052565b92919267ffffffffffffffff8211611dbe5760405191611e20601f8201601f191660200184611dd4565b829481845281830111611d16578281602093846000960137010152565b9080601f83011215611d1657816020611e5893359101611df6565b90565b6020908160408183019282815285518094520193019160005b828110611e82575050505090565b83516001600160a01b031685529381019392810192600101611e74565b90600182811c92168015611ecf575b6020831014611eb957565b634e487b7160e01b600052602260045260246000fd5b91607f1691611eae565b9060405191826000825492611eed84611e9f565b908184526001948581169081600014611f5c5750600114611f19575b5050611f1792500383611dd4565b565b9093915060005260209081600020936000915b818310611f44575050611f1793508201013880611f09565b85548884018501529485019487945091830191611f2c565b915050611f1794506020925060ff191682840152151560051b8201013880611f09565b6040906003190112611d16576004359060243590565b8054821015611fad5760005260206000200190600090565b634e487b7160e01b600052603260045260246000fd5b6001546001600160a01b03163303611fd757565b60405163118cdaa760e01b8152336004820152602490fd5b15611ff657565b60405162461bcd60e51b815260206004820152601160248201527005374616b65206d757374206265203e203607c1b6044820152606490fd5b1561203657565b60405162461bcd60e51b815260206004820152600d60248201526c24b73b30b634b2103a37b5b2b760991b6044820152606490fd5b600019811461207a5760010190565b634e487b7160e01b600052601160045260246000fd5b906005811015611d3e57815460ff60a01b191660a09190911b60ff60a01b16179055565b90816020910312611d1657518015158103611d165790565b156120d357565b60405162461bcd60e51b815260206004820152601560248201527414dd185ad9481d1c985b9cd9995c8819985a5b1959605a1b6044820152606490fd5b9190820180921161207a57565b60026000541461212e576002600055565b604051633ee5aeb560e01b8152600490fd5b1561214757565b60405162461bcd60e51b815260206004820152600e60248201526d496e76616c69642073746174757360901b6044820152606490fd5b805468010000000000000000811015611dbe5761219f91600182018155611f95565b819291549060031b9160018060a01b03809116831b921b1916179055565b8181029291811591840414171561207a57565b9190820391821161207a57565b815191906041830361220e5761220792506020820151906060604084015193015160001a90612219565b9192909190565b505060009160029190565b91907f7fffffffffffffffffffffffffffffff5d576e7357a4501ddfe92f46681b20a0841161229d57926020929160ff608095604051948552168484015260408301526060820152600092839182805260015afa156122915780516001600160a01b0381161561228857918190565b50809160019190565b604051903d90823e3d90fd5b50505060009160039190565b6004811015611d3e57806122bb575050565b600181036122d55760405163f645eedf60e01b8152600490fd5b600281036122f65760405163fce698f760e01b815260048101839052602490fd5b6003146123005750565b602490604051906335e2f38360e21b82526004820152fdfe54542980a84be9b3d5fa2be13aae3b78757b6ddf78c50ee9252cf07fbc9be8d2a26469706673582212203cf2ba82a7741103e879aef66775eedf7dfcd48f19da55b6ead007e5d149686d64736f6c63430008140033",
  "linkReferences": {},
  "deployedLinkReferences": {}
}